{
	"contracts/3_Ballot.sol": {
		"Ballot": {
			"abi": [
				{
					"inputs": [],
					"stateMutability": "nonpayable",
					"type": "constructor"
				},
				{
					"anonymous": false,
					"inputs": [
						{
							"indexed": false,
							"internalType": "bytes32",
							"name": "dataHash",
							"type": "bytes32"
						},
						{
							"indexed": true,
							"internalType": "address",
							"name": "owner",
							"type": "address"
						}
					],
					"name": "DataStored",
					"type": "event"
				},
				{
					"anonymous": false,
					"inputs": [
						{
							"indexed": false,
							"internalType": "bytes32",
							"name": "dataHash",
							"type": "bytes32"
						},
						{
							"indexed": true,
							"internalType": "address",
							"name": "from",
							"type": "address"
						},
						{
							"indexed": true,
							"internalType": "address",
							"name": "to",
							"type": "address"
						}
					],
					"name": "DataTransferred",
					"type": "event"
				},
				{
					"anonymous": false,
					"inputs": [
						{
							"indexed": false,
							"internalType": "bytes32",
							"name": "dataHash",
							"type": "bytes32"
						},
						{
							"indexed": true,
							"internalType": "address",
							"name": "voter",
							"type": "address"
						}
					],
					"name": "VoteCasted",
					"type": "event"
				},
				{
					"inputs": [
						{
							"internalType": "address",
							"name": "user",
							"type": "address"
						}
					],
					"name": "addAuthorizedUser",
					"outputs": [],
					"stateMutability": "nonpayable",
					"type": "function"
				},
				{
					"inputs": [
						{
							"internalType": "bytes32",
							"name": "dataHash",
							"type": "bytes32"
						}
					],
					"name": "getData",
					"outputs": [
						{
							"internalType": "bytes32",
							"name": "",
							"type": "bytes32"
						},
						{
							"internalType": "address",
							"name": "",
							"type": "address"
						},
						{
							"internalType": "uint256",
							"name": "",
							"type": "uint256"
						}
					],
					"stateMutability": "view",
					"type": "function"
				},
				{
					"inputs": [
						{
							"internalType": "address",
							"name": "user",
							"type": "address"
						}
					],
					"name": "removeAuthorizedUser",
					"outputs": [],
					"stateMutability": "nonpayable",
					"type": "function"
				},
				{
					"inputs": [
						{
							"internalType": "bytes32",
							"name": "dataHash",
							"type": "bytes32"
						}
					],
					"name": "storeData",
					"outputs": [],
					"stateMutability": "nonpayable",
					"type": "function"
				},
				{
					"inputs": [
						{
							"internalType": "bytes32",
							"name": "dataHash",
							"type": "bytes32"
						},
						{
							"internalType": "address",
							"name": "recipient",
							"type": "address"
						}
					],
					"name": "transferData",
					"outputs": [],
					"stateMutability": "nonpayable",
					"type": "function"
				},
				{
					"inputs": [
						{
							"internalType": "bytes32",
							"name": "dataHash",
							"type": "bytes32"
						}
					],
					"name": "vote",
					"outputs": [],
					"stateMutability": "nonpayable",
					"type": "function"
				}
			],
			"devdoc": {
				"kind": "dev",
				"methods": {},
				"version": 1
			},
			"evm": {
				"assembly": "    /* \"contracts/3_Ballot.sol\":63:2085  contract Ballot {... */\n  mstore(0x40, 0x80)\n    /* \"contracts/3_Ballot.sol\":647:712  constructor() {... */\n  callvalue\n  dup1\n  iszero\n  tag_1\n  jumpi\n  0x00\n  dup1\n  revert\ntag_1:\n  pop\n    /* \"contracts/3_Ballot.sol\":701:705  true */\n  0x01\n    /* \"contracts/3_Ballot.sol\":671:686  authorizedUsers */\n  dup1\n    /* \"contracts/3_Ballot.sol\":671:698  authorizedUsers[msg.sender] */\n  0x00\n    /* \"contracts/3_Ballot.sol\":687:697  msg.sender */\n  caller\n    /* \"contracts/3_Ballot.sol\":671:698  authorizedUsers[msg.sender] */\n  0xffffffffffffffffffffffffffffffffffffffff\n  and\n  0xffffffffffffffffffffffffffffffffffffffff\n  and\n  dup2\n  mstore\n  0x20\n  add\n  swap1\n  dup2\n  mstore\n  0x20\n  add\n  0x00\n  keccak256\n  0x00\n    /* \"contracts/3_Ballot.sol\":671:705  authorizedUsers[msg.sender] = true */\n  0x0100\n  exp\n  dup2\n  sload\n  dup2\n  0xff\n  mul\n  not\n  and\n  swap1\n  dup4\n  iszero\n  iszero\n  mul\n  or\n  swap1\n  sstore\n  pop\n    /* \"contracts/3_Ballot.sol\":63:2085  contract Ballot {... */\n  dataSize(sub_0)\n  dup1\n  dataOffset(sub_0)\n  0x00\n  codecopy\n  0x00\n  return\nstop\n\nsub_0: assembly {\n        /* \"contracts/3_Ballot.sol\":63:2085  contract Ballot {... */\n      mstore(0x40, 0x80)\n      callvalue\n      dup1\n      iszero\n      tag_1\n      jumpi\n      0x00\n      dup1\n      revert\n    tag_1:\n      pop\n      jumpi(tag_2, lt(calldatasize, 0x04))\n      shr(0xe0, calldataload(0x00))\n      dup1\n      0x177d2a74\n      eq\n      tag_3\n      jumpi\n      dup1\n      0x3fc906c5\n      eq\n      tag_4\n      jumpi\n      dup1\n      0x54f6127f\n      eq\n      tag_5\n      jumpi\n      dup1\n      0x89fabc80\n      eq\n      tag_6\n      jumpi\n      dup1\n      0xa69beaba\n      eq\n      tag_7\n      jumpi\n      dup1\n      0xf3c6f6e1\n      eq\n      tag_8\n      jumpi\n    tag_2:\n      0x00\n      dup1\n      revert\n        /* \"contracts/3_Ballot.sol\":718:826  function addAuthorizedUser(address user) public onlyAuthorized {... */\n    tag_3:\n      tag_9\n      0x04\n      dup1\n      calldatasize\n      sub\n      dup2\n      add\n      swap1\n      tag_10\n      swap2\n      swap1\n      tag_11\n      jump\t// in\n    tag_10:\n      tag_12\n      jump\t// in\n    tag_9:\n      stop\n        /* \"contracts/3_Ballot.sol\":950:1256  function storeData(bytes32 dataHash) public onlyAuthorized {... */\n    tag_4:\n      tag_13\n      0x04\n      dup1\n      calldatasize\n      sub\n      dup2\n      add\n      swap1\n      tag_14\n      swap2\n      swap1\n      tag_15\n      jump\t// in\n    tag_14:\n      tag_16\n      jump\t// in\n    tag_13:\n      stop\n        /* \"contracts/3_Ballot.sol\":1884:2083  function getData(bytes32 dataHash) public view returns (bytes32, address, uint256) {... */\n    tag_5:\n      tag_17\n      0x04\n      dup1\n      calldatasize\n      sub\n      dup2\n      add\n      swap1\n      tag_18\n      swap2\n      swap1\n      tag_15\n      jump\t// in\n    tag_18:\n      tag_19\n      jump\t// in\n    tag_17:\n      mload(0x40)\n      tag_20\n      swap4\n      swap3\n      swap2\n      swap1\n      tag_21\n      jump\t// in\n    tag_20:\n      mload(0x40)\n      dup1\n      swap2\n      sub\n      swap1\n      return\n        /* \"contracts/3_Ballot.sol\":832:944  function removeAuthorizedUser(address user) public onlyAuthorized {... */\n    tag_6:\n      tag_22\n      0x04\n      dup1\n      calldatasize\n      sub\n      dup2\n      add\n      swap1\n      tag_23\n      swap2\n      swap1\n      tag_11\n      jump\t// in\n    tag_23:\n      tag_24\n      jump\t// in\n    tag_22:\n      stop\n        /* \"contracts/3_Ballot.sol\":1633:1878  function vote(bytes32 dataHash) public onlyAuthorized {... */\n    tag_7:\n      tag_25\n      0x04\n      dup1\n      calldatasize\n      sub\n      dup2\n      add\n      swap1\n      tag_26\n      swap2\n      swap1\n      tag_15\n      jump\t// in\n    tag_26:\n      tag_27\n      jump\t// in\n    tag_25:\n      stop\n        /* \"contracts/3_Ballot.sol\":1262:1627  function transferData(bytes32 dataHash, address recipient) public onlyAuthorized {... */\n    tag_8:\n      tag_28\n      0x04\n      dup1\n      calldatasize\n      sub\n      dup2\n      add\n      swap1\n      tag_29\n      swap2\n      swap1\n      tag_30\n      jump\t// in\n    tag_29:\n      tag_31\n      jump\t// in\n    tag_28:\n      stop\n        /* \"contracts/3_Ballot.sol\":718:826  function addAuthorizedUser(address user) public onlyAuthorized {... */\n    tag_12:\n        /* \"contracts/3_Ballot.sol\":547:562  authorizedUsers */\n      0x01\n        /* \"contracts/3_Ballot.sol\":547:574  authorizedUsers[msg.sender] */\n      0x00\n        /* \"contracts/3_Ballot.sol\":563:573  msg.sender */\n      caller\n        /* \"contracts/3_Ballot.sol\":547:574  authorizedUsers[msg.sender] */\n      0xffffffffffffffffffffffffffffffffffffffff\n      and\n      0xffffffffffffffffffffffffffffffffffffffff\n      and\n      dup2\n      mstore\n      0x20\n      add\n      swap1\n      dup2\n      mstore\n      0x20\n      add\n      0x00\n      keccak256\n      0x00\n      swap1\n      sload\n      swap1\n      0x0100\n      exp\n      swap1\n      div\n      0xff\n      and\n        /* \"contracts/3_Ballot.sol\":539:623  require(authorizedUsers[msg.sender], \"Only authorized users can call this function\") */\n      tag_33\n      jumpi\n      mload(0x40)\n      0x08c379a000000000000000000000000000000000000000000000000000000000\n      dup2\n      mstore\n      0x04\n      add\n      tag_34\n      swap1\n      tag_35\n      jump\t// in\n    tag_34:\n      mload(0x40)\n      dup1\n      swap2\n      sub\n      swap1\n      revert\n    tag_33:\n        /* \"contracts/3_Ballot.sol\":815:819  true */\n      0x01\n        /* \"contracts/3_Ballot.sol\":791:806  authorizedUsers */\n      dup1\n        /* \"contracts/3_Ballot.sol\":791:812  authorizedUsers[user] */\n      0x00\n        /* \"contracts/3_Ballot.sol\":807:811  user */\n      dup4\n        /* \"contracts/3_Ballot.sol\":791:812  authorizedUsers[user] */\n      0xffffffffffffffffffffffffffffffffffffffff\n      and\n      0xffffffffffffffffffffffffffffffffffffffff\n      and\n      dup2\n      mstore\n      0x20\n      add\n      swap1\n      dup2\n      mstore\n      0x20\n      add\n      0x00\n      keccak256\n      0x00\n        /* \"contracts/3_Ballot.sol\":791:819  authorizedUsers[user] = true */\n      0x0100\n      exp\n      dup2\n      sload\n      dup2\n      0xff\n      mul\n      not\n      and\n      swap1\n      dup4\n      iszero\n      iszero\n      mul\n      or\n      swap1\n      sstore\n      pop\n        /* \"contracts/3_Ballot.sol\":718:826  function addAuthorizedUser(address user) public onlyAuthorized {... */\n      pop\n      jump\t// out\n        /* \"contracts/3_Ballot.sol\":950:1256  function storeData(bytes32 dataHash) public onlyAuthorized {... */\n    tag_16:\n        /* \"contracts/3_Ballot.sol\":547:562  authorizedUsers */\n      0x01\n        /* \"contracts/3_Ballot.sol\":547:574  authorizedUsers[msg.sender] */\n      0x00\n        /* \"contracts/3_Ballot.sol\":563:573  msg.sender */\n      caller\n        /* \"contracts/3_Ballot.sol\":547:574  authorizedUsers[msg.sender] */\n      0xffffffffffffffffffffffffffffffffffffffff\n      and\n      0xffffffffffffffffffffffffffffffffffffffff\n      and\n      dup2\n      mstore\n      0x20\n      add\n      swap1\n      dup2\n      mstore\n      0x20\n      add\n      0x00\n      keccak256\n      0x00\n      swap1\n      sload\n      swap1\n      0x0100\n      exp\n      swap1\n      div\n      0xff\n      and\n        /* \"contracts/3_Ballot.sol\":539:623  require(authorizedUsers[msg.sender], \"Only authorized users can call this function\") */\n      tag_38\n      jumpi\n      mload(0x40)\n      0x08c379a000000000000000000000000000000000000000000000000000000000\n      dup2\n      mstore\n      0x04\n      add\n      tag_39\n      swap1\n      tag_35\n      jump\t// in\n    tag_39:\n      mload(0x40)\n      dup1\n      swap2\n      sub\n      swap1\n      revert\n    tag_38:\n        /* \"contracts/3_Ballot.sol\":1064:1065  0 */\n      0x00\n        /* \"contracts/3_Ballot.sol\":1027:1066  dataStore[dataHash].owner == address(0) */\n      0xffffffffffffffffffffffffffffffffffffffff\n      and\n        /* \"contracts/3_Ballot.sol\":1027:1036  dataStore */\n      0x00\n        /* \"contracts/3_Ballot.sol\":1027:1046  dataStore[dataHash] */\n      dup1\n        /* \"contracts/3_Ballot.sol\":1037:1045  dataHash */\n      dup4\n        /* \"contracts/3_Ballot.sol\":1027:1046  dataStore[dataHash] */\n      dup2\n      mstore\n      0x20\n      add\n      swap1\n      dup2\n      mstore\n      0x20\n      add\n      0x00\n      keccak256\n        /* \"contracts/3_Ballot.sol\":1027:1052  dataStore[dataHash].owner */\n      0x01\n      add\n      0x00\n      swap1\n      sload\n      swap1\n      0x0100\n      exp\n      swap1\n      div\n      0xffffffffffffffffffffffffffffffffffffffff\n      and\n        /* \"contracts/3_Ballot.sol\":1027:1066  dataStore[dataHash].owner == address(0) */\n      0xffffffffffffffffffffffffffffffffffffffff\n      and\n      eq\n        /* \"contracts/3_Ballot.sol\":1019:1105  require(dataStore[dataHash].owner == address(0), \"Data with this hash already exists\") */\n      tag_41\n      jumpi\n      mload(0x40)\n      0x08c379a000000000000000000000000000000000000000000000000000000000\n      dup2\n      mstore\n      0x04\n      add\n      tag_42\n      swap1\n      tag_43\n      jump\t// in\n    tag_42:\n      mload(0x40)\n      dup1\n      swap2\n      sub\n      swap1\n      revert\n    tag_41:\n        /* \"contracts/3_Ballot.sol\":1146:1154  dataHash */\n      dup1\n        /* \"contracts/3_Ballot.sol\":1115:1124  dataStore */\n      0x00\n        /* \"contracts/3_Ballot.sol\":1115:1134  dataStore[dataHash] */\n      dup1\n        /* \"contracts/3_Ballot.sol\":1125:1133  dataHash */\n      dup4\n        /* \"contracts/3_Ballot.sol\":1115:1134  dataStore[dataHash] */\n      dup2\n      mstore\n      0x20\n      add\n      swap1\n      dup2\n      mstore\n      0x20\n      add\n      0x00\n      keccak256\n        /* \"contracts/3_Ballot.sol\":1115:1143  dataStore[dataHash].dataHash */\n      0x00\n      add\n        /* \"contracts/3_Ballot.sol\":1115:1154  dataStore[dataHash].dataHash = dataHash */\n      dup2\n      swap1\n      sstore\n      pop\n        /* \"contracts/3_Ballot.sol\":1192:1202  msg.sender */\n      caller\n        /* \"contracts/3_Ballot.sol\":1164:1173  dataStore */\n      0x00\n        /* \"contracts/3_Ballot.sol\":1164:1183  dataStore[dataHash] */\n      dup1\n        /* \"contracts/3_Ballot.sol\":1174:1182  dataHash */\n      dup4\n        /* \"contracts/3_Ballot.sol\":1164:1183  dataStore[dataHash] */\n      dup2\n      mstore\n      0x20\n      add\n      swap1\n      dup2\n      mstore\n      0x20\n      add\n      0x00\n      keccak256\n        /* \"contracts/3_Ballot.sol\":1164:1189  dataStore[dataHash].owner */\n      0x01\n      add\n      0x00\n        /* \"contracts/3_Ballot.sol\":1164:1202  dataStore[dataHash].owner = msg.sender */\n      0x0100\n      exp\n      dup2\n      sload\n      dup2\n      0xffffffffffffffffffffffffffffffffffffffff\n      mul\n      not\n      and\n      swap1\n      dup4\n      0xffffffffffffffffffffffffffffffffffffffff\n      and\n      mul\n      or\n      swap1\n      sstore\n      pop\n        /* \"contracts/3_Ballot.sol\":1238:1248  msg.sender */\n      caller\n        /* \"contracts/3_Ballot.sol\":1217:1249  DataStored(dataHash, msg.sender) */\n      0xffffffffffffffffffffffffffffffffffffffff\n      and\n      0xc8bdd2e21fc72ef506add6f2d2ff44ee36c315bd1a0eef1cf149a73a0659d0eb\n        /* \"contracts/3_Ballot.sol\":1228:1236  dataHash */\n      dup3\n        /* \"contracts/3_Ballot.sol\":1217:1249  DataStored(dataHash, msg.sender) */\n      mload(0x40)\n      tag_44\n      swap2\n      swap1\n      tag_45\n      jump\t// in\n    tag_44:\n      mload(0x40)\n      dup1\n      swap2\n      sub\n      swap1\n      log2\n        /* \"contracts/3_Ballot.sol\":950:1256  function storeData(bytes32 dataHash) public onlyAuthorized {... */\n      pop\n      jump\t// out\n        /* \"contracts/3_Ballot.sol\":1884:2083  function getData(bytes32 dataHash) public view returns (bytes32, address, uint256) {... */\n    tag_19:\n        /* \"contracts/3_Ballot.sol\":1940:1947  bytes32 */\n      0x00\n        /* \"contracts/3_Ballot.sol\":1949:1956  address */\n      dup1\n        /* \"contracts/3_Ballot.sol\":1958:1965  uint256 */\n      0x00\n        /* \"contracts/3_Ballot.sol\":1977:1994  Data storage data */\n      dup1\n        /* \"contracts/3_Ballot.sol\":1997:2006  dataStore */\n      0x00\n        /* \"contracts/3_Ballot.sol\":1997:2016  dataStore[dataHash] */\n      dup1\n        /* \"contracts/3_Ballot.sol\":2007:2015  dataHash */\n      dup7\n        /* \"contracts/3_Ballot.sol\":1997:2016  dataStore[dataHash] */\n      dup2\n      mstore\n      0x20\n      add\n      swap1\n      dup2\n      mstore\n      0x20\n      add\n      0x00\n      keccak256\n        /* \"contracts/3_Ballot.sol\":1977:2016  Data storage data = dataStore[dataHash] */\n      swap1\n      pop\n        /* \"contracts/3_Ballot.sol\":2034:2038  data */\n      dup1\n        /* \"contracts/3_Ballot.sol\":2034:2047  data.dataHash */\n      0x00\n      add\n      sload\n        /* \"contracts/3_Ballot.sol\":2049:2053  data */\n      dup2\n        /* \"contracts/3_Ballot.sol\":2049:2059  data.owner */\n      0x01\n      add\n      0x00\n      swap1\n      sload\n      swap1\n      0x0100\n      exp\n      swap1\n      div\n      0xffffffffffffffffffffffffffffffffffffffff\n      and\n        /* \"contracts/3_Ballot.sol\":2061:2065  data */\n      dup3\n        /* \"contracts/3_Ballot.sol\":2061:2075  data.voteCount */\n      0x02\n      add\n      sload\n        /* \"contracts/3_Ballot.sol\":2026:2076  return (data.dataHash, data.owner, data.voteCount) */\n      swap4\n      pop\n      swap4\n      pop\n      swap4\n      pop\n      pop\n        /* \"contracts/3_Ballot.sol\":1884:2083  function getData(bytes32 dataHash) public view returns (bytes32, address, uint256) {... */\n      swap2\n      swap4\n      swap1\n      swap3\n      pop\n      jump\t// out\n        /* \"contracts/3_Ballot.sol\":832:944  function removeAuthorizedUser(address user) public onlyAuthorized {... */\n    tag_24:\n        /* \"contracts/3_Ballot.sol\":547:562  authorizedUsers */\n      0x01\n        /* \"contracts/3_Ballot.sol\":547:574  authorizedUsers[msg.sender] */\n      0x00\n        /* \"contracts/3_Ballot.sol\":563:573  msg.sender */\n      caller\n        /* \"contracts/3_Ballot.sol\":547:574  authorizedUsers[msg.sender] */\n      0xffffffffffffffffffffffffffffffffffffffff\n      and\n      0xffffffffffffffffffffffffffffffffffffffff\n      and\n      dup2\n      mstore\n      0x20\n      add\n      swap1\n      dup2\n      mstore\n      0x20\n      add\n      0x00\n      keccak256\n      0x00\n      swap1\n      sload\n      swap1\n      0x0100\n      exp\n      swap1\n      div\n      0xff\n      and\n        /* \"contracts/3_Ballot.sol\":539:623  require(authorizedUsers[msg.sender], \"Only authorized users can call this function\") */\n      tag_48\n      jumpi\n      mload(0x40)\n      0x08c379a000000000000000000000000000000000000000000000000000000000\n      dup2\n      mstore\n      0x04\n      add\n      tag_49\n      swap1\n      tag_35\n      jump\t// in\n    tag_49:\n      mload(0x40)\n      dup1\n      swap2\n      sub\n      swap1\n      revert\n    tag_48:\n        /* \"contracts/3_Ballot.sol\":932:937  false */\n      0x00\n        /* \"contracts/3_Ballot.sol\":908:923  authorizedUsers */\n      0x01\n        /* \"contracts/3_Ballot.sol\":908:929  authorizedUsers[user] */\n      0x00\n        /* \"contracts/3_Ballot.sol\":924:928  user */\n      dup4\n        /* \"contracts/3_Ballot.sol\":908:929  authorizedUsers[user] */\n      0xffffffffffffffffffffffffffffffffffffffff\n      and\n      0xffffffffffffffffffffffffffffffffffffffff\n      and\n      dup2\n      mstore\n      0x20\n      add\n      swap1\n      dup2\n      mstore\n      0x20\n      add\n      0x00\n      keccak256\n      0x00\n        /* \"contracts/3_Ballot.sol\":908:937  authorizedUsers[user] = false */\n      0x0100\n      exp\n      dup2\n      sload\n      dup2\n      0xff\n      mul\n      not\n      and\n      swap1\n      dup4\n      iszero\n      iszero\n      mul\n      or\n      swap1\n      sstore\n      pop\n        /* \"contracts/3_Ballot.sol\":832:944  function removeAuthorizedUser(address user) public onlyAuthorized {... */\n      pop\n      jump\t// out\n        /* \"contracts/3_Ballot.sol\":1633:1878  function vote(bytes32 dataHash) public onlyAuthorized {... */\n    tag_27:\n        /* \"contracts/3_Ballot.sol\":547:562  authorizedUsers */\n      0x01\n        /* \"contracts/3_Ballot.sol\":547:574  authorizedUsers[msg.sender] */\n      0x00\n        /* \"contracts/3_Ballot.sol\":563:573  msg.sender */\n      caller\n        /* \"contracts/3_Ballot.sol\":547:574  authorizedUsers[msg.sender] */\n      0xffffffffffffffffffffffffffffffffffffffff\n      and\n      0xffffffffffffffffffffffffffffffffffffffff\n      and\n      dup2\n      mstore\n      0x20\n      add\n      swap1\n      dup2\n      mstore\n      0x20\n      add\n      0x00\n      keccak256\n      0x00\n      swap1\n      sload\n      swap1\n      0x0100\n      exp\n      swap1\n      div\n      0xff\n      and\n        /* \"contracts/3_Ballot.sol\":539:623  require(authorizedUsers[msg.sender], \"Only authorized users can call this function\") */\n      tag_52\n      jumpi\n      mload(0x40)\n      0x08c379a000000000000000000000000000000000000000000000000000000000\n      dup2\n      mstore\n      0x04\n      add\n      tag_53\n      swap1\n      tag_35\n      jump\t// in\n    tag_53:\n      mload(0x40)\n      dup1\n      swap2\n      sub\n      swap1\n      revert\n    tag_52:\n        /* \"contracts/3_Ballot.sol\":1742:1743  0 */\n      0x00\n        /* \"contracts/3_Ballot.sol\":1705:1744  dataStore[dataHash].owner != address(0) */\n      0xffffffffffffffffffffffffffffffffffffffff\n      and\n        /* \"contracts/3_Ballot.sol\":1705:1714  dataStore */\n      0x00\n        /* \"contracts/3_Ballot.sol\":1705:1724  dataStore[dataHash] */\n      dup1\n        /* \"contracts/3_Ballot.sol\":1715:1723  dataHash */\n      dup4\n        /* \"contracts/3_Ballot.sol\":1705:1724  dataStore[dataHash] */\n      dup2\n      mstore\n      0x20\n      add\n      swap1\n      dup2\n      mstore\n      0x20\n      add\n      0x00\n      keccak256\n        /* \"contracts/3_Ballot.sol\":1705:1730  dataStore[dataHash].owner */\n      0x01\n      add\n      0x00\n      swap1\n      sload\n      swap1\n      0x0100\n      exp\n      swap1\n      div\n      0xffffffffffffffffffffffffffffffffffffffff\n      and\n        /* \"contracts/3_Ballot.sol\":1705:1744  dataStore[dataHash].owner != address(0) */\n      0xffffffffffffffffffffffffffffffffffffffff\n      and\n      sub\n        /* \"contracts/3_Ballot.sol\":1697:1783  require(dataStore[dataHash].owner != address(0), \"Data with this hash does not exist\") */\n      tag_55\n      jumpi\n      mload(0x40)\n      0x08c379a000000000000000000000000000000000000000000000000000000000\n      dup2\n      mstore\n      0x04\n      add\n      tag_56\n      swap1\n      tag_57\n      jump\t// in\n    tag_56:\n      mload(0x40)\n      dup1\n      swap2\n      sub\n      swap1\n      revert\n    tag_55:\n        /* \"contracts/3_Ballot.sol\":1793:1802  dataStore */\n      0x00\n        /* \"contracts/3_Ballot.sol\":1793:1812  dataStore[dataHash] */\n      dup1\n        /* \"contracts/3_Ballot.sol\":1803:1811  dataHash */\n      dup3\n        /* \"contracts/3_Ballot.sol\":1793:1812  dataStore[dataHash] */\n      dup2\n      mstore\n      0x20\n      add\n      swap1\n      dup2\n      mstore\n      0x20\n      add\n      0x00\n      keccak256\n        /* \"contracts/3_Ballot.sol\":1793:1822  dataStore[dataHash].voteCount */\n      0x02\n      add\n      0x00\n        /* \"contracts/3_Ballot.sol\":1793:1824  dataStore[dataHash].voteCount++ */\n      dup2\n      sload\n      dup1\n      swap3\n      swap2\n      swap1\n      tag_58\n      swap1\n      tag_59\n      jump\t// in\n    tag_58:\n      swap2\n      swap1\n      pop\n      sstore\n      pop\n        /* \"contracts/3_Ballot.sol\":1860:1870  msg.sender */\n      caller\n        /* \"contracts/3_Ballot.sol\":1839:1871  VoteCasted(dataHash, msg.sender) */\n      0xffffffffffffffffffffffffffffffffffffffff\n      and\n      0xa63a4117cd87827e5ce15e73d6d2005c70fdd3804b62f3bc8fc0b3dc4830716a\n        /* \"contracts/3_Ballot.sol\":1850:1858  dataHash */\n      dup3\n        /* \"contracts/3_Ballot.sol\":1839:1871  VoteCasted(dataHash, msg.sender) */\n      mload(0x40)\n      tag_60\n      swap2\n      swap1\n      tag_45\n      jump\t// in\n    tag_60:\n      mload(0x40)\n      dup1\n      swap2\n      sub\n      swap1\n      log2\n        /* \"contracts/3_Ballot.sol\":1633:1878  function vote(bytes32 dataHash) public onlyAuthorized {... */\n      pop\n      jump\t// out\n        /* \"contracts/3_Ballot.sol\":1262:1627  function transferData(bytes32 dataHash, address recipient) public onlyAuthorized {... */\n    tag_31:\n        /* \"contracts/3_Ballot.sol\":547:562  authorizedUsers */\n      0x01\n        /* \"contracts/3_Ballot.sol\":547:574  authorizedUsers[msg.sender] */\n      0x00\n        /* \"contracts/3_Ballot.sol\":563:573  msg.sender */\n      caller\n        /* \"contracts/3_Ballot.sol\":547:574  authorizedUsers[msg.sender] */\n      0xffffffffffffffffffffffffffffffffffffffff\n      and\n      0xffffffffffffffffffffffffffffffffffffffff\n      and\n      dup2\n      mstore\n      0x20\n      add\n      swap1\n      dup2\n      mstore\n      0x20\n      add\n      0x00\n      keccak256\n      0x00\n      swap1\n      sload\n      swap1\n      0x0100\n      exp\n      swap1\n      div\n      0xff\n      and\n        /* \"contracts/3_Ballot.sol\":539:623  require(authorizedUsers[msg.sender], \"Only authorized users can call this function\") */\n      tag_62\n      jumpi\n      mload(0x40)\n      0x08c379a000000000000000000000000000000000000000000000000000000000\n      dup2\n      mstore\n      0x04\n      add\n      tag_63\n      swap1\n      tag_35\n      jump\t// in\n    tag_63:\n      mload(0x40)\n      dup1\n      swap2\n      sub\n      swap1\n      revert\n    tag_62:\n        /* \"contracts/3_Ballot.sol\":1390:1400  msg.sender */\n      caller\n        /* \"contracts/3_Ballot.sol\":1361:1400  dataStore[dataHash].owner == msg.sender */\n      0xffffffffffffffffffffffffffffffffffffffff\n      and\n        /* \"contracts/3_Ballot.sol\":1361:1370  dataStore */\n      0x00\n        /* \"contracts/3_Ballot.sol\":1361:1380  dataStore[dataHash] */\n      dup1\n        /* \"contracts/3_Ballot.sol\":1371:1379  dataHash */\n      dup5\n        /* \"contracts/3_Ballot.sol\":1361:1380  dataStore[dataHash] */\n      dup2\n      mstore\n      0x20\n      add\n      swap1\n      dup2\n      mstore\n      0x20\n      add\n      0x00\n      keccak256\n        /* \"contracts/3_Ballot.sol\":1361:1386  dataStore[dataHash].owner */\n      0x01\n      add\n      0x00\n      swap1\n      sload\n      swap1\n      0x0100\n      exp\n      swap1\n      div\n      0xffffffffffffffffffffffffffffffffffffffff\n      and\n        /* \"contracts/3_Ballot.sol\":1361:1400  dataStore[dataHash].owner == msg.sender */\n      0xffffffffffffffffffffffffffffffffffffffff\n      and\n      eq\n        /* \"contracts/3_Ballot.sol\":1353:1439  require(dataStore[dataHash].owner == msg.sender, \"You are not the owner of this data\") */\n      tag_65\n      jumpi\n      mload(0x40)\n      0x08c379a000000000000000000000000000000000000000000000000000000000\n      dup2\n      mstore\n      0x04\n      add\n      tag_66\n      swap1\n      tag_67\n      jump\t// in\n    tag_66:\n      mload(0x40)\n      dup1\n      swap2\n      sub\n      swap1\n      revert\n    tag_65:\n        /* \"contracts/3_Ballot.sol\":1478:1479  0 */\n      0x00\n        /* \"contracts/3_Ballot.sol\":1457:1480  recipient != address(0) */\n      0xffffffffffffffffffffffffffffffffffffffff\n      and\n        /* \"contracts/3_Ballot.sol\":1457:1466  recipient */\n      dup2\n        /* \"contracts/3_Ballot.sol\":1457:1480  recipient != address(0) */\n      0xffffffffffffffffffffffffffffffffffffffff\n      and\n      sub\n        /* \"contracts/3_Ballot.sol\":1449:1510  require(recipient != address(0), \"Invalid recipient address\") */\n      tag_68\n      jumpi\n      mload(0x40)\n      0x08c379a000000000000000000000000000000000000000000000000000000000\n      dup2\n      mstore\n      0x04\n      add\n      tag_69\n      swap1\n      tag_70\n      jump\t// in\n    tag_69:\n      mload(0x40)\n      dup1\n      swap2\n      sub\n      swap1\n      revert\n    tag_68:\n        /* \"contracts/3_Ballot.sol\":1548:1557  recipient */\n      dup1\n        /* \"contracts/3_Ballot.sol\":1520:1529  dataStore */\n      0x00\n        /* \"contracts/3_Ballot.sol\":1520:1539  dataStore[dataHash] */\n      dup1\n        /* \"contracts/3_Ballot.sol\":1530:1538  dataHash */\n      dup5\n        /* \"contracts/3_Ballot.sol\":1520:1539  dataStore[dataHash] */\n      dup2\n      mstore\n      0x20\n      add\n      swap1\n      dup2\n      mstore\n      0x20\n      add\n      0x00\n      keccak256\n        /* \"contracts/3_Ballot.sol\":1520:1545  dataStore[dataHash].owner */\n      0x01\n      add\n      0x00\n        /* \"contracts/3_Ballot.sol\":1520:1557  dataStore[dataHash].owner = recipient */\n      0x0100\n      exp\n      dup2\n      sload\n      dup2\n      0xffffffffffffffffffffffffffffffffffffffff\n      mul\n      not\n      and\n      swap1\n      dup4\n      0xffffffffffffffffffffffffffffffffffffffff\n      and\n      mul\n      or\n      swap1\n      sstore\n      pop\n        /* \"contracts/3_Ballot.sol\":1610:1619  recipient */\n      dup1\n        /* \"contracts/3_Ballot.sol\":1572:1620  DataTransferred(dataHash, msg.sender, recipient) */\n      0xffffffffffffffffffffffffffffffffffffffff\n      and\n        /* \"contracts/3_Ballot.sol\":1598:1608  msg.sender */\n      caller\n        /* \"contracts/3_Ballot.sol\":1572:1620  DataTransferred(dataHash, msg.sender, recipient) */\n      0xffffffffffffffffffffffffffffffffffffffff\n      and\n      0xf60883f3fd15d49a456f482bc652839bb73ba00f5d0219b9b2e11c80fe953d7d\n        /* \"contracts/3_Ballot.sol\":1588:1596  dataHash */\n      dup5\n        /* \"contracts/3_Ballot.sol\":1572:1620  DataTransferred(dataHash, msg.sender, recipient) */\n      mload(0x40)\n      tag_71\n      swap2\n      swap1\n      tag_45\n      jump\t// in\n    tag_71:\n      mload(0x40)\n      dup1\n      swap2\n      sub\n      swap1\n      log3\n        /* \"contracts/3_Ballot.sol\":1262:1627  function transferData(bytes32 dataHash, address recipient) public onlyAuthorized {... */\n      pop\n      pop\n      jump\t// out\n        /* \"#utility.yul\":88:205   */\n    tag_73:\n        /* \"#utility.yul\":197:198   */\n      0x00\n        /* \"#utility.yul\":194:195   */\n      dup1\n        /* \"#utility.yul\":187:199   */\n      revert\n        /* \"#utility.yul\":334:460   */\n    tag_75:\n        /* \"#utility.yul\":371:378   */\n      0x00\n        /* \"#utility.yul\":411:453   */\n      0xffffffffffffffffffffffffffffffffffffffff\n        /* \"#utility.yul\":404:409   */\n      dup3\n        /* \"#utility.yul\":400:454   */\n      and\n        /* \"#utility.yul\":389:454   */\n      swap1\n      pop\n        /* \"#utility.yul\":334:460   */\n      swap2\n      swap1\n      pop\n      jump\t// out\n        /* \"#utility.yul\":466:562   */\n    tag_76:\n        /* \"#utility.yul\":503:510   */\n      0x00\n        /* \"#utility.yul\":532:556   */\n      tag_104\n        /* \"#utility.yul\":550:555   */\n      dup3\n        /* \"#utility.yul\":532:556   */\n      tag_75\n      jump\t// in\n    tag_104:\n        /* \"#utility.yul\":521:556   */\n      swap1\n      pop\n        /* \"#utility.yul\":466:562   */\n      swap2\n      swap1\n      pop\n      jump\t// out\n        /* \"#utility.yul\":568:690   */\n    tag_77:\n        /* \"#utility.yul\":641:665   */\n      tag_106\n        /* \"#utility.yul\":659:664   */\n      dup2\n        /* \"#utility.yul\":641:665   */\n      tag_76\n      jump\t// in\n    tag_106:\n        /* \"#utility.yul\":634:639   */\n      dup2\n        /* \"#utility.yul\":631:666   */\n      eq\n        /* \"#utility.yul\":621:684   */\n      tag_107\n      jumpi\n        /* \"#utility.yul\":680:681   */\n      0x00\n        /* \"#utility.yul\":677:678   */\n      dup1\n        /* \"#utility.yul\":670:682   */\n      revert\n        /* \"#utility.yul\":621:684   */\n    tag_107:\n        /* \"#utility.yul\":568:690   */\n      pop\n      jump\t// out\n        /* \"#utility.yul\":696:835   */\n    tag_78:\n        /* \"#utility.yul\":742:747   */\n      0x00\n        /* \"#utility.yul\":780:786   */\n      dup2\n        /* \"#utility.yul\":767:787   */\n      calldataload\n        /* \"#utility.yul\":758:787   */\n      swap1\n      pop\n        /* \"#utility.yul\":796:829   */\n      tag_109\n        /* \"#utility.yul\":823:828   */\n      dup2\n        /* \"#utility.yul\":796:829   */\n      tag_77\n      jump\t// in\n    tag_109:\n        /* \"#utility.yul\":696:835   */\n      swap3\n      swap2\n      pop\n      pop\n      jump\t// out\n        /* \"#utility.yul\":841:1170   */\n    tag_11:\n        /* \"#utility.yul\":900:906   */\n      0x00\n        /* \"#utility.yul\":949:951   */\n      0x20\n        /* \"#utility.yul\":937:946   */\n      dup3\n        /* \"#utility.yul\":928:935   */\n      dup5\n        /* \"#utility.yul\":924:947   */\n      sub\n        /* \"#utility.yul\":920:952   */\n      slt\n        /* \"#utility.yul\":917:1036   */\n      iszero\n      tag_111\n      jumpi\n        /* \"#utility.yul\":955:1034   */\n      tag_112\n      tag_73\n      jump\t// in\n    tag_112:\n        /* \"#utility.yul\":917:1036   */\n    tag_111:\n        /* \"#utility.yul\":1075:1076   */\n      0x00\n        /* \"#utility.yul\":1100:1153   */\n      tag_113\n        /* \"#utility.yul\":1145:1152   */\n      dup5\n        /* \"#utility.yul\":1136:1142   */\n      dup3\n        /* \"#utility.yul\":1125:1134   */\n      dup6\n        /* \"#utility.yul\":1121:1143   */\n      add\n        /* \"#utility.yul\":1100:1153   */\n      tag_78\n      jump\t// in\n    tag_113:\n        /* \"#utility.yul\":1090:1153   */\n      swap2\n      pop\n        /* \"#utility.yul\":1046:1163   */\n      pop\n        /* \"#utility.yul\":841:1170   */\n      swap3\n      swap2\n      pop\n      pop\n      jump\t// out\n        /* \"#utility.yul\":1176:1253   */\n    tag_79:\n        /* \"#utility.yul\":1213:1220   */\n      0x00\n        /* \"#utility.yul\":1242:1247   */\n      dup2\n        /* \"#utility.yul\":1231:1247   */\n      swap1\n      pop\n        /* \"#utility.yul\":1176:1253   */\n      swap2\n      swap1\n      pop\n      jump\t// out\n        /* \"#utility.yul\":1259:1381   */\n    tag_80:\n        /* \"#utility.yul\":1332:1356   */\n      tag_116\n        /* \"#utility.yul\":1350:1355   */\n      dup2\n        /* \"#utility.yul\":1332:1356   */\n      tag_79\n      jump\t// in\n    tag_116:\n        /* \"#utility.yul\":1325:1330   */\n      dup2\n        /* \"#utility.yul\":1322:1357   */\n      eq\n        /* \"#utility.yul\":1312:1375   */\n      tag_117\n      jumpi\n        /* \"#utility.yul\":1371:1372   */\n      0x00\n        /* \"#utility.yul\":1368:1369   */\n      dup1\n        /* \"#utility.yul\":1361:1373   */\n      revert\n        /* \"#utility.yul\":1312:1375   */\n    tag_117:\n        /* \"#utility.yul\":1259:1381   */\n      pop\n      jump\t// out\n        /* \"#utility.yul\":1387:1526   */\n    tag_81:\n        /* \"#utility.yul\":1433:1438   */\n      0x00\n        /* \"#utility.yul\":1471:1477   */\n      dup2\n        /* \"#utility.yul\":1458:1478   */\n      calldataload\n        /* \"#utility.yul\":1449:1478   */\n      swap1\n      pop\n        /* \"#utility.yul\":1487:1520   */\n      tag_119\n        /* \"#utility.yul\":1514:1519   */\n      dup2\n        /* \"#utility.yul\":1487:1520   */\n      tag_80\n      jump\t// in\n    tag_119:\n        /* \"#utility.yul\":1387:1526   */\n      swap3\n      swap2\n      pop\n      pop\n      jump\t// out\n        /* \"#utility.yul\":1532:1861   */\n    tag_15:\n        /* \"#utility.yul\":1591:1597   */\n      0x00\n        /* \"#utility.yul\":1640:1642   */\n      0x20\n        /* \"#utility.yul\":1628:1637   */\n      dup3\n        /* \"#utility.yul\":1619:1626   */\n      dup5\n        /* \"#utility.yul\":1615:1638   */\n      sub\n        /* \"#utility.yul\":1611:1643   */\n      slt\n        /* \"#utility.yul\":1608:1727   */\n      iszero\n      tag_121\n      jumpi\n        /* \"#utility.yul\":1646:1725   */\n      tag_122\n      tag_73\n      jump\t// in\n    tag_122:\n        /* \"#utility.yul\":1608:1727   */\n    tag_121:\n        /* \"#utility.yul\":1766:1767   */\n      0x00\n        /* \"#utility.yul\":1791:1844   */\n      tag_123\n        /* \"#utility.yul\":1836:1843   */\n      dup5\n        /* \"#utility.yul\":1827:1833   */\n      dup3\n        /* \"#utility.yul\":1816:1825   */\n      dup6\n        /* \"#utility.yul\":1812:1834   */\n      add\n        /* \"#utility.yul\":1791:1844   */\n      tag_81\n      jump\t// in\n    tag_123:\n        /* \"#utility.yul\":1781:1844   */\n      swap2\n      pop\n        /* \"#utility.yul\":1737:1854   */\n      pop\n        /* \"#utility.yul\":1532:1861   */\n      swap3\n      swap2\n      pop\n      pop\n      jump\t// out\n        /* \"#utility.yul\":1867:1985   */\n    tag_82:\n        /* \"#utility.yul\":1954:1978   */\n      tag_125\n        /* \"#utility.yul\":1972:1977   */\n      dup2\n        /* \"#utility.yul\":1954:1978   */\n      tag_79\n      jump\t// in\n    tag_125:\n        /* \"#utility.yul\":1949:1952   */\n      dup3\n        /* \"#utility.yul\":1942:1979   */\n      mstore\n        /* \"#utility.yul\":1867:1985   */\n      pop\n      pop\n      jump\t// out\n        /* \"#utility.yul\":1991:2109   */\n    tag_83:\n        /* \"#utility.yul\":2078:2102   */\n      tag_127\n        /* \"#utility.yul\":2096:2101   */\n      dup2\n        /* \"#utility.yul\":2078:2102   */\n      tag_76\n      jump\t// in\n    tag_127:\n        /* \"#utility.yul\":2073:2076   */\n      dup3\n        /* \"#utility.yul\":2066:2103   */\n      mstore\n        /* \"#utility.yul\":1991:2109   */\n      pop\n      pop\n      jump\t// out\n        /* \"#utility.yul\":2115:2192   */\n    tag_84:\n        /* \"#utility.yul\":2152:2159   */\n      0x00\n        /* \"#utility.yul\":2181:2186   */\n      dup2\n        /* \"#utility.yul\":2170:2186   */\n      swap1\n      pop\n        /* \"#utility.yul\":2115:2192   */\n      swap2\n      swap1\n      pop\n      jump\t// out\n        /* \"#utility.yul\":2198:2316   */\n    tag_85:\n        /* \"#utility.yul\":2285:2309   */\n      tag_130\n        /* \"#utility.yul\":2303:2308   */\n      dup2\n        /* \"#utility.yul\":2285:2309   */\n      tag_84\n      jump\t// in\n    tag_130:\n        /* \"#utility.yul\":2280:2283   */\n      dup3\n        /* \"#utility.yul\":2273:2310   */\n      mstore\n        /* \"#utility.yul\":2198:2316   */\n      pop\n      pop\n      jump\t// out\n        /* \"#utility.yul\":2322:2764   */\n    tag_21:\n        /* \"#utility.yul\":2471:2475   */\n      0x00\n        /* \"#utility.yul\":2509:2511   */\n      0x60\n        /* \"#utility.yul\":2498:2507   */\n      dup3\n        /* \"#utility.yul\":2494:2512   */\n      add\n        /* \"#utility.yul\":2486:2512   */\n      swap1\n      pop\n        /* \"#utility.yul\":2522:2593   */\n      tag_132\n        /* \"#utility.yul\":2590:2591   */\n      0x00\n        /* \"#utility.yul\":2579:2588   */\n      dup4\n        /* \"#utility.yul\":2575:2592   */\n      add\n        /* \"#utility.yul\":2566:2572   */\n      dup7\n        /* \"#utility.yul\":2522:2593   */\n      tag_82\n      jump\t// in\n    tag_132:\n        /* \"#utility.yul\":2603:2675   */\n      tag_133\n        /* \"#utility.yul\":2671:2673   */\n      0x20\n        /* \"#utility.yul\":2660:2669   */\n      dup4\n        /* \"#utility.yul\":2656:2674   */\n      add\n        /* \"#utility.yul\":2647:2653   */\n      dup6\n        /* \"#utility.yul\":2603:2675   */\n      tag_83\n      jump\t// in\n    tag_133:\n        /* \"#utility.yul\":2685:2757   */\n      tag_134\n        /* \"#utility.yul\":2753:2755   */\n      0x40\n        /* \"#utility.yul\":2742:2751   */\n      dup4\n        /* \"#utility.yul\":2738:2756   */\n      add\n        /* \"#utility.yul\":2729:2735   */\n      dup5\n        /* \"#utility.yul\":2685:2757   */\n      tag_85\n      jump\t// in\n    tag_134:\n        /* \"#utility.yul\":2322:2764   */\n      swap5\n      swap4\n      pop\n      pop\n      pop\n      pop\n      jump\t// out\n        /* \"#utility.yul\":2770:3244   */\n    tag_30:\n        /* \"#utility.yul\":2838:2844   */\n      0x00\n        /* \"#utility.yul\":2846:2852   */\n      dup1\n        /* \"#utility.yul\":2895:2897   */\n      0x40\n        /* \"#utility.yul\":2883:2892   */\n      dup4\n        /* \"#utility.yul\":2874:2881   */\n      dup6\n        /* \"#utility.yul\":2870:2893   */\n      sub\n        /* \"#utility.yul\":2866:2898   */\n      slt\n        /* \"#utility.yul\":2863:2982   */\n      iszero\n      tag_136\n      jumpi\n        /* \"#utility.yul\":2901:2980   */\n      tag_137\n      tag_73\n      jump\t// in\n    tag_137:\n        /* \"#utility.yul\":2863:2982   */\n    tag_136:\n        /* \"#utility.yul\":3021:3022   */\n      0x00\n        /* \"#utility.yul\":3046:3099   */\n      tag_138\n        /* \"#utility.yul\":3091:3098   */\n      dup6\n        /* \"#utility.yul\":3082:3088   */\n      dup3\n        /* \"#utility.yul\":3071:3080   */\n      dup7\n        /* \"#utility.yul\":3067:3089   */\n      add\n        /* \"#utility.yul\":3046:3099   */\n      tag_81\n      jump\t// in\n    tag_138:\n        /* \"#utility.yul\":3036:3099   */\n      swap3\n      pop\n        /* \"#utility.yul\":2992:3109   */\n      pop\n        /* \"#utility.yul\":3148:3150   */\n      0x20\n        /* \"#utility.yul\":3174:3227   */\n      tag_139\n        /* \"#utility.yul\":3219:3226   */\n      dup6\n        /* \"#utility.yul\":3210:3216   */\n      dup3\n        /* \"#utility.yul\":3199:3208   */\n      dup7\n        /* \"#utility.yul\":3195:3217   */\n      add\n        /* \"#utility.yul\":3174:3227   */\n      tag_78\n      jump\t// in\n    tag_139:\n        /* \"#utility.yul\":3164:3227   */\n      swap2\n      pop\n        /* \"#utility.yul\":3119:3237   */\n      pop\n        /* \"#utility.yul\":2770:3244   */\n      swap3\n      pop\n      swap3\n      swap1\n      pop\n      jump\t// out\n        /* \"#utility.yul\":3250:3419   */\n    tag_86:\n        /* \"#utility.yul\":3334:3345   */\n      0x00\n        /* \"#utility.yul\":3368:3374   */\n      dup3\n        /* \"#utility.yul\":3363:3366   */\n      dup3\n        /* \"#utility.yul\":3356:3375   */\n      mstore\n        /* \"#utility.yul\":3408:3412   */\n      0x20\n        /* \"#utility.yul\":3403:3406   */\n      dup3\n        /* \"#utility.yul\":3399:3413   */\n      add\n        /* \"#utility.yul\":3384:3413   */\n      swap1\n      pop\n        /* \"#utility.yul\":3250:3419   */\n      swap3\n      swap2\n      pop\n      pop\n      jump\t// out\n        /* \"#utility.yul\":3425:3656   */\n    tag_87:\n        /* \"#utility.yul\":3565:3599   */\n      0x4f6e6c7920617574686f72697a65642075736572732063616e2063616c6c2074\n        /* \"#utility.yul\":3561:3562   */\n      0x00\n        /* \"#utility.yul\":3553:3559   */\n      dup3\n        /* \"#utility.yul\":3549:3563   */\n      add\n        /* \"#utility.yul\":3542:3600   */\n      mstore\n        /* \"#utility.yul\":3634:3648   */\n      0x6869732066756e6374696f6e0000000000000000000000000000000000000000\n        /* \"#utility.yul\":3629:3631   */\n      0x20\n        /* \"#utility.yul\":3621:3627   */\n      dup3\n        /* \"#utility.yul\":3617:3632   */\n      add\n        /* \"#utility.yul\":3610:3649   */\n      mstore\n        /* \"#utility.yul\":3425:3656   */\n      pop\n      jump\t// out\n        /* \"#utility.yul\":3662:4028   */\n    tag_88:\n        /* \"#utility.yul\":3804:3807   */\n      0x00\n        /* \"#utility.yul\":3825:3892   */\n      tag_143\n        /* \"#utility.yul\":3889:3891   */\n      0x2c\n        /* \"#utility.yul\":3884:3887   */\n      dup4\n        /* \"#utility.yul\":3825:3892   */\n      tag_86\n      jump\t// in\n    tag_143:\n        /* \"#utility.yul\":3818:3892   */\n      swap2\n      pop\n        /* \"#utility.yul\":3901:3994   */\n      tag_144\n        /* \"#utility.yul\":3990:3993   */\n      dup3\n        /* \"#utility.yul\":3901:3994   */\n      tag_87\n      jump\t// in\n    tag_144:\n        /* \"#utility.yul\":4019:4021   */\n      0x40\n        /* \"#utility.yul\":4014:4017   */\n      dup3\n        /* \"#utility.yul\":4010:4022   */\n      add\n        /* \"#utility.yul\":4003:4022   */\n      swap1\n      pop\n        /* \"#utility.yul\":3662:4028   */\n      swap2\n      swap1\n      pop\n      jump\t// out\n        /* \"#utility.yul\":4034:4453   */\n    tag_35:\n        /* \"#utility.yul\":4200:4204   */\n      0x00\n        /* \"#utility.yul\":4238:4240   */\n      0x20\n        /* \"#utility.yul\":4227:4236   */\n      dup3\n        /* \"#utility.yul\":4223:4241   */\n      add\n        /* \"#utility.yul\":4215:4241   */\n      swap1\n      pop\n        /* \"#utility.yul\":4287:4296   */\n      dup2\n        /* \"#utility.yul\":4281:4285   */\n      dup2\n        /* \"#utility.yul\":4277:4297   */\n      sub\n        /* \"#utility.yul\":4273:4274   */\n      0x00\n        /* \"#utility.yul\":4262:4271   */\n      dup4\n        /* \"#utility.yul\":4258:4275   */\n      add\n        /* \"#utility.yul\":4251:4298   */\n      mstore\n        /* \"#utility.yul\":4315:4446   */\n      tag_146\n        /* \"#utility.yul\":4441:4445   */\n      dup2\n        /* \"#utility.yul\":4315:4446   */\n      tag_88\n      jump\t// in\n    tag_146:\n        /* \"#utility.yul\":4307:4446   */\n      swap1\n      pop\n        /* \"#utility.yul\":4034:4453   */\n      swap2\n      swap1\n      pop\n      jump\t// out\n        /* \"#utility.yul\":4459:4680   */\n    tag_89:\n        /* \"#utility.yul\":4599:4633   */\n      0x4461746120776974682074686973206861736820616c72656164792065786973\n        /* \"#utility.yul\":4595:4596   */\n      0x00\n        /* \"#utility.yul\":4587:4593   */\n      dup3\n        /* \"#utility.yul\":4583:4597   */\n      add\n        /* \"#utility.yul\":4576:4634   */\n      mstore\n        /* \"#utility.yul\":4668:4672   */\n      0x7473000000000000000000000000000000000000000000000000000000000000\n        /* \"#utility.yul\":4663:4665   */\n      0x20\n        /* \"#utility.yul\":4655:4661   */\n      dup3\n        /* \"#utility.yul\":4651:4666   */\n      add\n        /* \"#utility.yul\":4644:4673   */\n      mstore\n        /* \"#utility.yul\":4459:4680   */\n      pop\n      jump\t// out\n        /* \"#utility.yul\":4686:5052   */\n    tag_90:\n        /* \"#utility.yul\":4828:4831   */\n      0x00\n        /* \"#utility.yul\":4849:4916   */\n      tag_149\n        /* \"#utility.yul\":4913:4915   */\n      0x22\n        /* \"#utility.yul\":4908:4911   */\n      dup4\n        /* \"#utility.yul\":4849:4916   */\n      tag_86\n      jump\t// in\n    tag_149:\n        /* \"#utility.yul\":4842:4916   */\n      swap2\n      pop\n        /* \"#utility.yul\":4925:5018   */\n      tag_150\n        /* \"#utility.yul\":5014:5017   */\n      dup3\n        /* \"#utility.yul\":4925:5018   */\n      tag_89\n      jump\t// in\n    tag_150:\n        /* \"#utility.yul\":5043:5045   */\n      0x40\n        /* \"#utility.yul\":5038:5041   */\n      dup3\n        /* \"#utility.yul\":5034:5046   */\n      add\n        /* \"#utility.yul\":5027:5046   */\n      swap1\n      pop\n        /* \"#utility.yul\":4686:5052   */\n      swap2\n      swap1\n      pop\n      jump\t// out\n        /* \"#utility.yul\":5058:5477   */\n    tag_43:\n        /* \"#utility.yul\":5224:5228   */\n      0x00\n        /* \"#utility.yul\":5262:5264   */\n      0x20\n        /* \"#utility.yul\":5251:5260   */\n      dup3\n        /* \"#utility.yul\":5247:5265   */\n      add\n        /* \"#utility.yul\":5239:5265   */\n      swap1\n      pop\n        /* \"#utility.yul\":5311:5320   */\n      dup2\n        /* \"#utility.yul\":5305:5309   */\n      dup2\n        /* \"#utility.yul\":5301:5321   */\n      sub\n        /* \"#utility.yul\":5297:5298   */\n      0x00\n        /* \"#utility.yul\":5286:5295   */\n      dup4\n        /* \"#utility.yul\":5282:5299   */\n      add\n        /* \"#utility.yul\":5275:5322   */\n      mstore\n        /* \"#utility.yul\":5339:5470   */\n      tag_152\n        /* \"#utility.yul\":5465:5469   */\n      dup2\n        /* \"#utility.yul\":5339:5470   */\n      tag_90\n      jump\t// in\n    tag_152:\n        /* \"#utility.yul\":5331:5470   */\n      swap1\n      pop\n        /* \"#utility.yul\":5058:5477   */\n      swap2\n      swap1\n      pop\n      jump\t// out\n        /* \"#utility.yul\":5483:5705   */\n    tag_45:\n        /* \"#utility.yul\":5576:5580   */\n      0x00\n        /* \"#utility.yul\":5614:5616   */\n      0x20\n        /* \"#utility.yul\":5603:5612   */\n      dup3\n        /* \"#utility.yul\":5599:5617   */\n      add\n        /* \"#utility.yul\":5591:5617   */\n      swap1\n      pop\n        /* \"#utility.yul\":5627:5698   */\n      tag_154\n        /* \"#utility.yul\":5695:5696   */\n      0x00\n        /* \"#utility.yul\":5684:5693   */\n      dup4\n        /* \"#utility.yul\":5680:5697   */\n      add\n        /* \"#utility.yul\":5671:5677   */\n      dup5\n        /* \"#utility.yul\":5627:5698   */\n      tag_82\n      jump\t// in\n    tag_154:\n        /* \"#utility.yul\":5483:5705   */\n      swap3\n      swap2\n      pop\n      pop\n      jump\t// out\n        /* \"#utility.yul\":5711:5932   */\n    tag_91:\n        /* \"#utility.yul\":5851:5885   */\n      0x4461746120776974682074686973206861736820646f6573206e6f7420657869\n        /* \"#utility.yul\":5847:5848   */\n      0x00\n        /* \"#utility.yul\":5839:5845   */\n      dup3\n        /* \"#utility.yul\":5835:5849   */\n      add\n        /* \"#utility.yul\":5828:5886   */\n      mstore\n        /* \"#utility.yul\":5920:5924   */\n      0x7374000000000000000000000000000000000000000000000000000000000000\n        /* \"#utility.yul\":5915:5917   */\n      0x20\n        /* \"#utility.yul\":5907:5913   */\n      dup3\n        /* \"#utility.yul\":5903:5918   */\n      add\n        /* \"#utility.yul\":5896:5925   */\n      mstore\n        /* \"#utility.yul\":5711:5932   */\n      pop\n      jump\t// out\n        /* \"#utility.yul\":5938:6304   */\n    tag_92:\n        /* \"#utility.yul\":6080:6083   */\n      0x00\n        /* \"#utility.yul\":6101:6168   */\n      tag_157\n        /* \"#utility.yul\":6165:6167   */\n      0x22\n        /* \"#utility.yul\":6160:6163   */\n      dup4\n        /* \"#utility.yul\":6101:6168   */\n      tag_86\n      jump\t// in\n    tag_157:\n        /* \"#utility.yul\":6094:6168   */\n      swap2\n      pop\n        /* \"#utility.yul\":6177:6270   */\n      tag_158\n        /* \"#utility.yul\":6266:6269   */\n      dup3\n        /* \"#utility.yul\":6177:6270   */\n      tag_91\n      jump\t// in\n    tag_158:\n        /* \"#utility.yul\":6295:6297   */\n      0x40\n        /* \"#utility.yul\":6290:6293   */\n      dup3\n        /* \"#utility.yul\":6286:6298   */\n      add\n        /* \"#utility.yul\":6279:6298   */\n      swap1\n      pop\n        /* \"#utility.yul\":5938:6304   */\n      swap2\n      swap1\n      pop\n      jump\t// out\n        /* \"#utility.yul\":6310:6729   */\n    tag_57:\n        /* \"#utility.yul\":6476:6480   */\n      0x00\n        /* \"#utility.yul\":6514:6516   */\n      0x20\n        /* \"#utility.yul\":6503:6512   */\n      dup3\n        /* \"#utility.yul\":6499:6517   */\n      add\n        /* \"#utility.yul\":6491:6517   */\n      swap1\n      pop\n        /* \"#utility.yul\":6563:6572   */\n      dup2\n        /* \"#utility.yul\":6557:6561   */\n      dup2\n        /* \"#utility.yul\":6553:6573   */\n      sub\n        /* \"#utility.yul\":6549:6550   */\n      0x00\n        /* \"#utility.yul\":6538:6547   */\n      dup4\n        /* \"#utility.yul\":6534:6551   */\n      add\n        /* \"#utility.yul\":6527:6574   */\n      mstore\n        /* \"#utility.yul\":6591:6722   */\n      tag_160\n        /* \"#utility.yul\":6717:6721   */\n      dup2\n        /* \"#utility.yul\":6591:6722   */\n      tag_92\n      jump\t// in\n    tag_160:\n        /* \"#utility.yul\":6583:6722   */\n      swap1\n      pop\n        /* \"#utility.yul\":6310:6729   */\n      swap2\n      swap1\n      pop\n      jump\t// out\n        /* \"#utility.yul\":6735:6915   */\n    tag_93:\n        /* \"#utility.yul\":6783:6860   */\n      0x4e487b7100000000000000000000000000000000000000000000000000000000\n        /* \"#utility.yul\":6780:6781   */\n      0x00\n        /* \"#utility.yul\":6773:6861   */\n      mstore\n        /* \"#utility.yul\":6880:6884   */\n      0x11\n        /* \"#utility.yul\":6877:6878   */\n      0x04\n        /* \"#utility.yul\":6870:6885   */\n      mstore\n        /* \"#utility.yul\":6904:6908   */\n      0x24\n        /* \"#utility.yul\":6901:6902   */\n      0x00\n        /* \"#utility.yul\":6894:6909   */\n      revert\n        /* \"#utility.yul\":6921:7154   */\n    tag_59:\n        /* \"#utility.yul\":6960:6963   */\n      0x00\n        /* \"#utility.yul\":6983:7007   */\n      tag_163\n        /* \"#utility.yul\":7001:7006   */\n      dup3\n        /* \"#utility.yul\":6983:7007   */\n      tag_84\n      jump\t// in\n    tag_163:\n        /* \"#utility.yul\":6974:7007   */\n      swap2\n      pop\n        /* \"#utility.yul\":7029:7095   */\n      0xffffffffffffffffffffffffffffffffffffffffffffffffffffffffffffffff\n        /* \"#utility.yul\":7022:7027   */\n      dup3\n        /* \"#utility.yul\":7019:7096   */\n      sub\n        /* \"#utility.yul\":7016:7119   */\n      tag_164\n      jumpi\n        /* \"#utility.yul\":7099:7117   */\n      tag_165\n      tag_93\n      jump\t// in\n    tag_165:\n        /* \"#utility.yul\":7016:7119   */\n    tag_164:\n        /* \"#utility.yul\":7146:7147   */\n      0x01\n        /* \"#utility.yul\":7139:7144   */\n      dup3\n        /* \"#utility.yul\":7135:7148   */\n      add\n        /* \"#utility.yul\":7128:7148   */\n      swap1\n      pop\n        /* \"#utility.yul\":6921:7154   */\n      swap2\n      swap1\n      pop\n      jump\t// out\n        /* \"#utility.yul\":7160:7381   */\n    tag_94:\n        /* \"#utility.yul\":7300:7334   */\n      0x596f7520617265206e6f7420746865206f776e6572206f662074686973206461\n        /* \"#utility.yul\":7296:7297   */\n      0x00\n        /* \"#utility.yul\":7288:7294   */\n      dup3\n        /* \"#utility.yul\":7284:7298   */\n      add\n        /* \"#utility.yul\":7277:7335   */\n      mstore\n        /* \"#utility.yul\":7369:7373   */\n      0x7461000000000000000000000000000000000000000000000000000000000000\n        /* \"#utility.yul\":7364:7366   */\n      0x20\n        /* \"#utility.yul\":7356:7362   */\n      dup3\n        /* \"#utility.yul\":7352:7367   */\n      add\n        /* \"#utility.yul\":7345:7374   */\n      mstore\n        /* \"#utility.yul\":7160:7381   */\n      pop\n      jump\t// out\n        /* \"#utility.yul\":7387:7753   */\n    tag_95:\n        /* \"#utility.yul\":7529:7532   */\n      0x00\n        /* \"#utility.yul\":7550:7617   */\n      tag_168\n        /* \"#utility.yul\":7614:7616   */\n      0x22\n        /* \"#utility.yul\":7609:7612   */\n      dup4\n        /* \"#utility.yul\":7550:7617   */\n      tag_86\n      jump\t// in\n    tag_168:\n        /* \"#utility.yul\":7543:7617   */\n      swap2\n      pop\n        /* \"#utility.yul\":7626:7719   */\n      tag_169\n        /* \"#utility.yul\":7715:7718   */\n      dup3\n        /* \"#utility.yul\":7626:7719   */\n      tag_94\n      jump\t// in\n    tag_169:\n        /* \"#utility.yul\":7744:7746   */\n      0x40\n        /* \"#utility.yul\":7739:7742   */\n      dup3\n        /* \"#utility.yul\":7735:7747   */\n      add\n        /* \"#utility.yul\":7728:7747   */\n      swap1\n      pop\n        /* \"#utility.yul\":7387:7753   */\n      swap2\n      swap1\n      pop\n      jump\t// out\n        /* \"#utility.yul\":7759:8178   */\n    tag_67:\n        /* \"#utility.yul\":7925:7929   */\n      0x00\n        /* \"#utility.yul\":7963:7965   */\n      0x20\n        /* \"#utility.yul\":7952:7961   */\n      dup3\n        /* \"#utility.yul\":7948:7966   */\n      add\n        /* \"#utility.yul\":7940:7966   */\n      swap1\n      pop\n        /* \"#utility.yul\":8012:8021   */\n      dup2\n        /* \"#utility.yul\":8006:8010   */\n      dup2\n        /* \"#utility.yul\":8002:8022   */\n      sub\n        /* \"#utility.yul\":7998:7999   */\n      0x00\n        /* \"#utility.yul\":7987:7996   */\n      dup4\n        /* \"#utility.yul\":7983:8000   */\n      add\n        /* \"#utility.yul\":7976:8023   */\n      mstore\n        /* \"#utility.yul\":8040:8171   */\n      tag_171\n        /* \"#utility.yul\":8166:8170   */\n      dup2\n        /* \"#utility.yul\":8040:8171   */\n      tag_95\n      jump\t// in\n    tag_171:\n        /* \"#utility.yul\":8032:8171   */\n      swap1\n      pop\n        /* \"#utility.yul\":7759:8178   */\n      swap2\n      swap1\n      pop\n      jump\t// out\n        /* \"#utility.yul\":8184:8359   */\n    tag_96:\n        /* \"#utility.yul\":8324:8351   */\n      0x496e76616c696420726563697069656e74206164647265737300000000000000\n        /* \"#utility.yul\":8320:8321   */\n      0x00\n        /* \"#utility.yul\":8312:8318   */\n      dup3\n        /* \"#utility.yul\":8308:8322   */\n      add\n        /* \"#utility.yul\":8301:8352   */\n      mstore\n        /* \"#utility.yul\":8184:8359   */\n      pop\n      jump\t// out\n        /* \"#utility.yul\":8365:8731   */\n    tag_97:\n        /* \"#utility.yul\":8507:8510   */\n      0x00\n        /* \"#utility.yul\":8528:8595   */\n      tag_174\n        /* \"#utility.yul\":8592:8594   */\n      0x19\n        /* \"#utility.yul\":8587:8590   */\n      dup4\n        /* \"#utility.yul\":8528:8595   */\n      tag_86\n      jump\t// in\n    tag_174:\n        /* \"#utility.yul\":8521:8595   */\n      swap2\n      pop\n        /* \"#utility.yul\":8604:8697   */\n      tag_175\n        /* \"#utility.yul\":8693:8696   */\n      dup3\n        /* \"#utility.yul\":8604:8697   */\n      tag_96\n      jump\t// in\n    tag_175:\n        /* \"#utility.yul\":8722:8724   */\n      0x20\n        /* \"#utility.yul\":8717:8720   */\n      dup3\n        /* \"#utility.yul\":8713:8725   */\n      add\n        /* \"#utility.yul\":8706:8725   */\n      swap1\n      pop\n        /* \"#utility.yul\":8365:8731   */\n      swap2\n      swap1\n      pop\n      jump\t// out\n        /* \"#utility.yul\":8737:9156   */\n    tag_70:\n        /* \"#utility.yul\":8903:8907   */\n      0x00\n        /* \"#utility.yul\":8941:8943   */\n      0x20\n        /* \"#utility.yul\":8930:8939   */\n      dup3\n        /* \"#utility.yul\":8926:8944   */\n      add\n        /* \"#utility.yul\":8918:8944   */\n      swap1\n      pop\n        /* \"#utility.yul\":8990:8999   */\n      dup2\n        /* \"#utility.yul\":8984:8988   */\n      dup2\n        /* \"#utility.yul\":8980:9000   */\n      sub\n        /* \"#utility.yul\":8976:8977   */\n      0x00\n        /* \"#utility.yul\":8965:8974   */\n      dup4\n        /* \"#utility.yul\":8961:8978   */\n      add\n        /* \"#utility.yul\":8954:9001   */\n      mstore\n        /* \"#utility.yul\":9018:9149   */\n      tag_177\n        /* \"#utility.yul\":9144:9148   */\n      dup2\n        /* \"#utility.yul\":9018:9149   */\n      tag_97\n      jump\t// in\n    tag_177:\n        /* \"#utility.yul\":9010:9149   */\n      swap1\n      pop\n        /* \"#utility.yul\":8737:9156   */\n      swap2\n      swap1\n      pop\n      jump\t// out\n\n    auxdata: 0xa2646970667358221220342f4a3804ef08a7e81da2f8e9a1e817eed932d85fec750b02c35063a3ef80d464736f6c63430008120033\n}\n",
				"bytecode": {
					"linkReferences": {},
					"object": "608060405234801561001057600080fd5b5060018060003373ffffffffffffffffffffffffffffffffffffffff1673ffffffffffffffffffffffffffffffffffffffff16815260200190815260200160002060006101000a81548160ff021916908315150217905550610e6d806100776000396000f3fe608060405234801561001057600080fd5b50600436106100625760003560e01c8063177d2a74146100675780633fc906c51461008357806354f6127f1461009f57806389fabc80146100d1578063a69beaba146100ed578063f3c6f6e114610109575b600080fd5b610081600480360381019061007c91906109a2565b610125565b005b61009d60048036038101906100989190610a05565b61020b565b005b6100b960048036038101906100b49190610a05565b6103fa565b6040516100c893929190610a69565b60405180910390f35b6100eb60048036038101906100e691906109a2565b610451565b005b61010760048036038101906101029190610a05565b610538565b005b610123600480360381019061011e9190610aa0565b6106e4565b005b600160003373ffffffffffffffffffffffffffffffffffffffff1673ffffffffffffffffffffffffffffffffffffffff16815260200190815260200160002060009054906101000a900460ff166101b1576040517f08c379a00000000000000000000000000000000000000000000000000000000081526004016101a890610b63565b60405180910390fd5b60018060008373ffffffffffffffffffffffffffffffffffffffff1673ffffffffffffffffffffffffffffffffffffffff16815260200190815260200160002060006101000a81548160ff02191690831515021790555050565b600160003373ffffffffffffffffffffffffffffffffffffffff1673ffffffffffffffffffffffffffffffffffffffff16815260200190815260200160002060009054906101000a900460ff16610297576040517f08c379a000000000000000000000000000000000000000000000000000000000815260040161028e90610b63565b60405180910390fd5b600073ffffffffffffffffffffffffffffffffffffffff1660008083815260200190815260200160002060010160009054906101000a900473ffffffffffffffffffffffffffffffffffffffff1673ffffffffffffffffffffffffffffffffffffffff161461033b576040517f08c379a000000000000000000000000000000000000000000000000000000000815260040161033290610bf5565b60405180910390fd5b80600080838152602001908152602001600020600001819055503360008083815260200190815260200160002060010160006101000a81548173ffffffffffffffffffffffffffffffffffffffff021916908373ffffffffffffffffffffffffffffffffffffffff1602179055503373ffffffffffffffffffffffffffffffffffffffff167fc8bdd2e21fc72ef506add6f2d2ff44ee36c315bd1a0eef1cf149a73a0659d0eb826040516103ef9190610c15565b60405180910390a250565b600080600080600080868152602001908152602001600020905080600001548160010160009054906101000a900473ffffffffffffffffffffffffffffffffffffffff168260020154935093509350509193909250565b600160003373ffffffffffffffffffffffffffffffffffffffff1673ffffffffffffffffffffffffffffffffffffffff16815260200190815260200160002060009054906101000a900460ff166104dd576040517f08c379a00000000000000000000000000000000000000000000000000000000081526004016104d490610b63565b60405180910390fd5b6000600160008373ffffffffffffffffffffffffffffffffffffffff1673ffffffffffffffffffffffffffffffffffffffff16815260200190815260200160002060006101000a81548160ff02191690831515021790555050565b600160003373ffffffffffffffffffffffffffffffffffffffff1673ffffffffffffffffffffffffffffffffffffffff16815260200190815260200160002060009054906101000a900460ff166105c4576040517f08c379a00000000000000000000000000000000000000000000000000000000081526004016105bb90610b63565b60405180910390fd5b600073ffffffffffffffffffffffffffffffffffffffff1660008083815260200190815260200160002060010160009054906101000a900473ffffffffffffffffffffffffffffffffffffffff1673ffffffffffffffffffffffffffffffffffffffff1603610668576040517f08c379a000000000000000000000000000000000000000000000000000000000815260040161065f90610ca2565b60405180910390fd5b600080828152602001908152602001600020600201600081548092919061068e90610cf1565b91905055503373ffffffffffffffffffffffffffffffffffffffff167fa63a4117cd87827e5ce15e73d6d2005c70fdd3804b62f3bc8fc0b3dc4830716a826040516106d99190610c15565b60405180910390a250565b600160003373ffffffffffffffffffffffffffffffffffffffff1673ffffffffffffffffffffffffffffffffffffffff16815260200190815260200160002060009054906101000a900460ff16610770576040517f08c379a000000000000000000000000000000000000000000000000000000000815260040161076790610b63565b60405180910390fd5b3373ffffffffffffffffffffffffffffffffffffffff1660008084815260200190815260200160002060010160009054906101000a900473ffffffffffffffffffffffffffffffffffffffff1673ffffffffffffffffffffffffffffffffffffffff1614610813576040517f08c379a000000000000000000000000000000000000000000000000000000000815260040161080a90610dab565b60405180910390fd5b600073ffffffffffffffffffffffffffffffffffffffff168173ffffffffffffffffffffffffffffffffffffffff1603610882576040517f08c379a000000000000000000000000000000000000000000000000000000000815260040161087990610e17565b60405180910390fd5b8060008084815260200190815260200160002060010160006101000a81548173ffffffffffffffffffffffffffffffffffffffff021916908373ffffffffffffffffffffffffffffffffffffffff1602179055508073ffffffffffffffffffffffffffffffffffffffff163373ffffffffffffffffffffffffffffffffffffffff167ff60883f3fd15d49a456f482bc652839bb73ba00f5d0219b9b2e11c80fe953d7d846040516109339190610c15565b60405180910390a35050565b600080fd5b600073ffffffffffffffffffffffffffffffffffffffff82169050919050565b600061096f82610944565b9050919050565b61097f81610964565b811461098a57600080fd5b50565b60008135905061099c81610976565b92915050565b6000602082840312156109b8576109b761093f565b5b60006109c68482850161098d565b91505092915050565b6000819050919050565b6109e2816109cf565b81146109ed57600080fd5b50565b6000813590506109ff816109d9565b92915050565b600060208284031215610a1b57610a1a61093f565b5b6000610a29848285016109f0565b91505092915050565b610a3b816109cf565b82525050565b610a4a81610964565b82525050565b6000819050919050565b610a6381610a50565b82525050565b6000606082019050610a7e6000830186610a32565b610a8b6020830185610a41565b610a986040830184610a5a565b949350505050565b60008060408385031215610ab757610ab661093f565b5b6000610ac5858286016109f0565b9250506020610ad68582860161098d565b9150509250929050565b600082825260208201905092915050565b7f4f6e6c7920617574686f72697a65642075736572732063616e2063616c6c207460008201527f6869732066756e6374696f6e0000000000000000000000000000000000000000602082015250565b6000610b4d602c83610ae0565b9150610b5882610af1565b604082019050919050565b60006020820190508181036000830152610b7c81610b40565b9050919050565b7f4461746120776974682074686973206861736820616c7265616479206578697360008201527f7473000000000000000000000000000000000000000000000000000000000000602082015250565b6000610bdf602283610ae0565b9150610bea82610b83565b604082019050919050565b60006020820190508181036000830152610c0e81610bd2565b9050919050565b6000602082019050610c2a6000830184610a32565b92915050565b7f4461746120776974682074686973206861736820646f6573206e6f742065786960008201527f7374000000000000000000000000000000000000000000000000000000000000602082015250565b6000610c8c602283610ae0565b9150610c9782610c30565b604082019050919050565b60006020820190508181036000830152610cbb81610c7f565b9050919050565b7f4e487b7100000000000000000000000000000000000000000000000000000000600052601160045260246000fd5b6000610cfc82610a50565b91507fffffffffffffffffffffffffffffffffffffffffffffffffffffffffffffffff8203610d2e57610d2d610cc2565b5b600182019050919050565b7f596f7520617265206e6f7420746865206f776e6572206f66207468697320646160008201527f7461000000000000000000000000000000000000000000000000000000000000602082015250565b6000610d95602283610ae0565b9150610da082610d39565b604082019050919050565b60006020820190508181036000830152610dc481610d88565b9050919050565b7f496e76616c696420726563697069656e74206164647265737300000000000000600082015250565b6000610e01601983610ae0565b9150610e0c82610dcb565b602082019050919050565b60006020820190508181036000830152610e3081610df4565b905091905056fea2646970667358221220342f4a3804ef08a7e81da2f8e9a1e817eed932d85fec750b02c35063a3ef80d464736f6c63430008120033",
					"opcodes": "PUSH1 0x80 PUSH1 0x40 MSTORE CALLVALUE DUP1 ISZERO PUSH2 0x10 JUMPI PUSH1 0x0 DUP1 REVERT JUMPDEST POP PUSH1 0x1 DUP1 PUSH1 0x0 CALLER PUSH20 0xFFFFFFFFFFFFFFFFFFFFFFFFFFFFFFFFFFFFFFFF AND PUSH20 0xFFFFFFFFFFFFFFFFFFFFFFFFFFFFFFFFFFFFFFFF AND DUP2 MSTORE PUSH1 0x20 ADD SWAP1 DUP2 MSTORE PUSH1 0x20 ADD PUSH1 0x0 KECCAK256 PUSH1 0x0 PUSH2 0x100 EXP DUP2 SLOAD DUP2 PUSH1 0xFF MUL NOT AND SWAP1 DUP4 ISZERO ISZERO MUL OR SWAP1 SSTORE POP PUSH2 0xE6D DUP1 PUSH2 0x77 PUSH1 0x0 CODECOPY PUSH1 0x0 RETURN INVALID PUSH1 0x80 PUSH1 0x40 MSTORE CALLVALUE DUP1 ISZERO PUSH2 0x10 JUMPI PUSH1 0x0 DUP1 REVERT JUMPDEST POP PUSH1 0x4 CALLDATASIZE LT PUSH2 0x62 JUMPI PUSH1 0x0 CALLDATALOAD PUSH1 0xE0 SHR DUP1 PUSH4 0x177D2A74 EQ PUSH2 0x67 JUMPI DUP1 PUSH4 0x3FC906C5 EQ PUSH2 0x83 JUMPI DUP1 PUSH4 0x54F6127F EQ PUSH2 0x9F JUMPI DUP1 PUSH4 0x89FABC80 EQ PUSH2 0xD1 JUMPI DUP1 PUSH4 0xA69BEABA EQ PUSH2 0xED JUMPI DUP1 PUSH4 0xF3C6F6E1 EQ PUSH2 0x109 JUMPI JUMPDEST PUSH1 0x0 DUP1 REVERT JUMPDEST PUSH2 0x81 PUSH1 0x4 DUP1 CALLDATASIZE SUB DUP2 ADD SWAP1 PUSH2 0x7C SWAP2 SWAP1 PUSH2 0x9A2 JUMP JUMPDEST PUSH2 0x125 JUMP JUMPDEST STOP JUMPDEST PUSH2 0x9D PUSH1 0x4 DUP1 CALLDATASIZE SUB DUP2 ADD SWAP1 PUSH2 0x98 SWAP2 SWAP1 PUSH2 0xA05 JUMP JUMPDEST PUSH2 0x20B JUMP JUMPDEST STOP JUMPDEST PUSH2 0xB9 PUSH1 0x4 DUP1 CALLDATASIZE SUB DUP2 ADD SWAP1 PUSH2 0xB4 SWAP2 SWAP1 PUSH2 0xA05 JUMP JUMPDEST PUSH2 0x3FA JUMP JUMPDEST PUSH1 0x40 MLOAD PUSH2 0xC8 SWAP4 SWAP3 SWAP2 SWAP1 PUSH2 0xA69 JUMP JUMPDEST PUSH1 0x40 MLOAD DUP1 SWAP2 SUB SWAP1 RETURN JUMPDEST PUSH2 0xEB PUSH1 0x4 DUP1 CALLDATASIZE SUB DUP2 ADD SWAP1 PUSH2 0xE6 SWAP2 SWAP1 PUSH2 0x9A2 JUMP JUMPDEST PUSH2 0x451 JUMP JUMPDEST STOP JUMPDEST PUSH2 0x107 PUSH1 0x4 DUP1 CALLDATASIZE SUB DUP2 ADD SWAP1 PUSH2 0x102 SWAP2 SWAP1 PUSH2 0xA05 JUMP JUMPDEST PUSH2 0x538 JUMP JUMPDEST STOP JUMPDEST PUSH2 0x123 PUSH1 0x4 DUP1 CALLDATASIZE SUB DUP2 ADD SWAP1 PUSH2 0x11E SWAP2 SWAP1 PUSH2 0xAA0 JUMP JUMPDEST PUSH2 0x6E4 JUMP JUMPDEST STOP JUMPDEST PUSH1 0x1 PUSH1 0x0 CALLER PUSH20 0xFFFFFFFFFFFFFFFFFFFFFFFFFFFFFFFFFFFFFFFF AND PUSH20 0xFFFFFFFFFFFFFFFFFFFFFFFFFFFFFFFFFFFFFFFF AND DUP2 MSTORE PUSH1 0x20 ADD SWAP1 DUP2 MSTORE PUSH1 0x20 ADD PUSH1 0x0 KECCAK256 PUSH1 0x0 SWAP1 SLOAD SWAP1 PUSH2 0x100 EXP SWAP1 DIV PUSH1 0xFF AND PUSH2 0x1B1 JUMPI PUSH1 0x40 MLOAD PUSH32 0x8C379A000000000000000000000000000000000000000000000000000000000 DUP2 MSTORE PUSH1 0x4 ADD PUSH2 0x1A8 SWAP1 PUSH2 0xB63 JUMP JUMPDEST PUSH1 0x40 MLOAD DUP1 SWAP2 SUB SWAP1 REVERT JUMPDEST PUSH1 0x1 DUP1 PUSH1 0x0 DUP4 PUSH20 0xFFFFFFFFFFFFFFFFFFFFFFFFFFFFFFFFFFFFFFFF AND PUSH20 0xFFFFFFFFFFFFFFFFFFFFFFFFFFFFFFFFFFFFFFFF AND DUP2 MSTORE PUSH1 0x20 ADD SWAP1 DUP2 MSTORE PUSH1 0x20 ADD PUSH1 0x0 KECCAK256 PUSH1 0x0 PUSH2 0x100 EXP DUP2 SLOAD DUP2 PUSH1 0xFF MUL NOT AND SWAP1 DUP4 ISZERO ISZERO MUL OR SWAP1 SSTORE POP POP JUMP JUMPDEST PUSH1 0x1 PUSH1 0x0 CALLER PUSH20 0xFFFFFFFFFFFFFFFFFFFFFFFFFFFFFFFFFFFFFFFF AND PUSH20 0xFFFFFFFFFFFFFFFFFFFFFFFFFFFFFFFFFFFFFFFF AND DUP2 MSTORE PUSH1 0x20 ADD SWAP1 DUP2 MSTORE PUSH1 0x20 ADD PUSH1 0x0 KECCAK256 PUSH1 0x0 SWAP1 SLOAD SWAP1 PUSH2 0x100 EXP SWAP1 DIV PUSH1 0xFF AND PUSH2 0x297 JUMPI PUSH1 0x40 MLOAD PUSH32 0x8C379A000000000000000000000000000000000000000000000000000000000 DUP2 MSTORE PUSH1 0x4 ADD PUSH2 0x28E SWAP1 PUSH2 0xB63 JUMP JUMPDEST PUSH1 0x40 MLOAD DUP1 SWAP2 SUB SWAP1 REVERT JUMPDEST PUSH1 0x0 PUSH20 0xFFFFFFFFFFFFFFFFFFFFFFFFFFFFFFFFFFFFFFFF AND PUSH1 0x0 DUP1 DUP4 DUP2 MSTORE PUSH1 0x20 ADD SWAP1 DUP2 MSTORE PUSH1 0x20 ADD PUSH1 0x0 KECCAK256 PUSH1 0x1 ADD PUSH1 0x0 SWAP1 SLOAD SWAP1 PUSH2 0x100 EXP SWAP1 DIV PUSH20 0xFFFFFFFFFFFFFFFFFFFFFFFFFFFFFFFFFFFFFFFF AND PUSH20 0xFFFFFFFFFFFFFFFFFFFFFFFFFFFFFFFFFFFFFFFF AND EQ PUSH2 0x33B JUMPI PUSH1 0x40 MLOAD PUSH32 0x8C379A000000000000000000000000000000000000000000000000000000000 DUP2 MSTORE PUSH1 0x4 ADD PUSH2 0x332 SWAP1 PUSH2 0xBF5 JUMP JUMPDEST PUSH1 0x40 MLOAD DUP1 SWAP2 SUB SWAP1 REVERT JUMPDEST DUP1 PUSH1 0x0 DUP1 DUP4 DUP2 MSTORE PUSH1 0x20 ADD SWAP1 DUP2 MSTORE PUSH1 0x20 ADD PUSH1 0x0 KECCAK256 PUSH1 0x0 ADD DUP2 SWAP1 SSTORE POP CALLER PUSH1 0x0 DUP1 DUP4 DUP2 MSTORE PUSH1 0x20 ADD SWAP1 DUP2 MSTORE PUSH1 0x20 ADD PUSH1 0x0 KECCAK256 PUSH1 0x1 ADD PUSH1 0x0 PUSH2 0x100 EXP DUP2 SLOAD DUP2 PUSH20 0xFFFFFFFFFFFFFFFFFFFFFFFFFFFFFFFFFFFFFFFF MUL NOT AND SWAP1 DUP4 PUSH20 0xFFFFFFFFFFFFFFFFFFFFFFFFFFFFFFFFFFFFFFFF AND MUL OR SWAP1 SSTORE POP CALLER PUSH20 0xFFFFFFFFFFFFFFFFFFFFFFFFFFFFFFFFFFFFFFFF AND PUSH32 0xC8BDD2E21FC72EF506ADD6F2D2FF44EE36C315BD1A0EEF1CF149A73A0659D0EB DUP3 PUSH1 0x40 MLOAD PUSH2 0x3EF SWAP2 SWAP1 PUSH2 0xC15 JUMP JUMPDEST PUSH1 0x40 MLOAD DUP1 SWAP2 SUB SWAP1 LOG2 POP JUMP JUMPDEST PUSH1 0x0 DUP1 PUSH1 0x0 DUP1 PUSH1 0x0 DUP1 DUP7 DUP2 MSTORE PUSH1 0x20 ADD SWAP1 DUP2 MSTORE PUSH1 0x20 ADD PUSH1 0x0 KECCAK256 SWAP1 POP DUP1 PUSH1 0x0 ADD SLOAD DUP2 PUSH1 0x1 ADD PUSH1 0x0 SWAP1 SLOAD SWAP1 PUSH2 0x100 EXP SWAP1 DIV PUSH20 0xFFFFFFFFFFFFFFFFFFFFFFFFFFFFFFFFFFFFFFFF AND DUP3 PUSH1 0x2 ADD SLOAD SWAP4 POP SWAP4 POP SWAP4 POP POP SWAP2 SWAP4 SWAP1 SWAP3 POP JUMP JUMPDEST PUSH1 0x1 PUSH1 0x0 CALLER PUSH20 0xFFFFFFFFFFFFFFFFFFFFFFFFFFFFFFFFFFFFFFFF AND PUSH20 0xFFFFFFFFFFFFFFFFFFFFFFFFFFFFFFFFFFFFFFFF AND DUP2 MSTORE PUSH1 0x20 ADD SWAP1 DUP2 MSTORE PUSH1 0x20 ADD PUSH1 0x0 KECCAK256 PUSH1 0x0 SWAP1 SLOAD SWAP1 PUSH2 0x100 EXP SWAP1 DIV PUSH1 0xFF AND PUSH2 0x4DD JUMPI PUSH1 0x40 MLOAD PUSH32 0x8C379A000000000000000000000000000000000000000000000000000000000 DUP2 MSTORE PUSH1 0x4 ADD PUSH2 0x4D4 SWAP1 PUSH2 0xB63 JUMP JUMPDEST PUSH1 0x40 MLOAD DUP1 SWAP2 SUB SWAP1 REVERT JUMPDEST PUSH1 0x0 PUSH1 0x1 PUSH1 0x0 DUP4 PUSH20 0xFFFFFFFFFFFFFFFFFFFFFFFFFFFFFFFFFFFFFFFF AND PUSH20 0xFFFFFFFFFFFFFFFFFFFFFFFFFFFFFFFFFFFFFFFF AND DUP2 MSTORE PUSH1 0x20 ADD SWAP1 DUP2 MSTORE PUSH1 0x20 ADD PUSH1 0x0 KECCAK256 PUSH1 0x0 PUSH2 0x100 EXP DUP2 SLOAD DUP2 PUSH1 0xFF MUL NOT AND SWAP1 DUP4 ISZERO ISZERO MUL OR SWAP1 SSTORE POP POP JUMP JUMPDEST PUSH1 0x1 PUSH1 0x0 CALLER PUSH20 0xFFFFFFFFFFFFFFFFFFFFFFFFFFFFFFFFFFFFFFFF AND PUSH20 0xFFFFFFFFFFFFFFFFFFFFFFFFFFFFFFFFFFFFFFFF AND DUP2 MSTORE PUSH1 0x20 ADD SWAP1 DUP2 MSTORE PUSH1 0x20 ADD PUSH1 0x0 KECCAK256 PUSH1 0x0 SWAP1 SLOAD SWAP1 PUSH2 0x100 EXP SWAP1 DIV PUSH1 0xFF AND PUSH2 0x5C4 JUMPI PUSH1 0x40 MLOAD PUSH32 0x8C379A000000000000000000000000000000000000000000000000000000000 DUP2 MSTORE PUSH1 0x4 ADD PUSH2 0x5BB SWAP1 PUSH2 0xB63 JUMP JUMPDEST PUSH1 0x40 MLOAD DUP1 SWAP2 SUB SWAP1 REVERT JUMPDEST PUSH1 0x0 PUSH20 0xFFFFFFFFFFFFFFFFFFFFFFFFFFFFFFFFFFFFFFFF AND PUSH1 0x0 DUP1 DUP4 DUP2 MSTORE PUSH1 0x20 ADD SWAP1 DUP2 MSTORE PUSH1 0x20 ADD PUSH1 0x0 KECCAK256 PUSH1 0x1 ADD PUSH1 0x0 SWAP1 SLOAD SWAP1 PUSH2 0x100 EXP SWAP1 DIV PUSH20 0xFFFFFFFFFFFFFFFFFFFFFFFFFFFFFFFFFFFFFFFF AND PUSH20 0xFFFFFFFFFFFFFFFFFFFFFFFFFFFFFFFFFFFFFFFF AND SUB PUSH2 0x668 JUMPI PUSH1 0x40 MLOAD PUSH32 0x8C379A000000000000000000000000000000000000000000000000000000000 DUP2 MSTORE PUSH1 0x4 ADD PUSH2 0x65F SWAP1 PUSH2 0xCA2 JUMP JUMPDEST PUSH1 0x40 MLOAD DUP1 SWAP2 SUB SWAP1 REVERT JUMPDEST PUSH1 0x0 DUP1 DUP3 DUP2 MSTORE PUSH1 0x20 ADD SWAP1 DUP2 MSTORE PUSH1 0x20 ADD PUSH1 0x0 KECCAK256 PUSH1 0x2 ADD PUSH1 0x0 DUP2 SLOAD DUP1 SWAP3 SWAP2 SWAP1 PUSH2 0x68E SWAP1 PUSH2 0xCF1 JUMP JUMPDEST SWAP2 SWAP1 POP SSTORE POP CALLER PUSH20 0xFFFFFFFFFFFFFFFFFFFFFFFFFFFFFFFFFFFFFFFF AND PUSH32 0xA63A4117CD87827E5CE15E73D6D2005C70FDD3804B62F3BC8FC0B3DC4830716A DUP3 PUSH1 0x40 MLOAD PUSH2 0x6D9 SWAP2 SWAP1 PUSH2 0xC15 JUMP JUMPDEST PUSH1 0x40 MLOAD DUP1 SWAP2 SUB SWAP1 LOG2 POP JUMP JUMPDEST PUSH1 0x1 PUSH1 0x0 CALLER PUSH20 0xFFFFFFFFFFFFFFFFFFFFFFFFFFFFFFFFFFFFFFFF AND PUSH20 0xFFFFFFFFFFFFFFFFFFFFFFFFFFFFFFFFFFFFFFFF AND DUP2 MSTORE PUSH1 0x20 ADD SWAP1 DUP2 MSTORE PUSH1 0x20 ADD PUSH1 0x0 KECCAK256 PUSH1 0x0 SWAP1 SLOAD SWAP1 PUSH2 0x100 EXP SWAP1 DIV PUSH1 0xFF AND PUSH2 0x770 JUMPI PUSH1 0x40 MLOAD PUSH32 0x8C379A000000000000000000000000000000000000000000000000000000000 DUP2 MSTORE PUSH1 0x4 ADD PUSH2 0x767 SWAP1 PUSH2 0xB63 JUMP JUMPDEST PUSH1 0x40 MLOAD DUP1 SWAP2 SUB SWAP1 REVERT JUMPDEST CALLER PUSH20 0xFFFFFFFFFFFFFFFFFFFFFFFFFFFFFFFFFFFFFFFF AND PUSH1 0x0 DUP1 DUP5 DUP2 MSTORE PUSH1 0x20 ADD SWAP1 DUP2 MSTORE PUSH1 0x20 ADD PUSH1 0x0 KECCAK256 PUSH1 0x1 ADD PUSH1 0x0 SWAP1 SLOAD SWAP1 PUSH2 0x100 EXP SWAP1 DIV PUSH20 0xFFFFFFFFFFFFFFFFFFFFFFFFFFFFFFFFFFFFFFFF AND PUSH20 0xFFFFFFFFFFFFFFFFFFFFFFFFFFFFFFFFFFFFFFFF AND EQ PUSH2 0x813 JUMPI PUSH1 0x40 MLOAD PUSH32 0x8C379A000000000000000000000000000000000000000000000000000000000 DUP2 MSTORE PUSH1 0x4 ADD PUSH2 0x80A SWAP1 PUSH2 0xDAB JUMP JUMPDEST PUSH1 0x40 MLOAD DUP1 SWAP2 SUB SWAP1 REVERT JUMPDEST PUSH1 0x0 PUSH20 0xFFFFFFFFFFFFFFFFFFFFFFFFFFFFFFFFFFFFFFFF AND DUP2 PUSH20 0xFFFFFFFFFFFFFFFFFFFFFFFFFFFFFFFFFFFFFFFF AND SUB PUSH2 0x882 JUMPI PUSH1 0x40 MLOAD PUSH32 0x8C379A000000000000000000000000000000000000000000000000000000000 DUP2 MSTORE PUSH1 0x4 ADD PUSH2 0x879 SWAP1 PUSH2 0xE17 JUMP JUMPDEST PUSH1 0x40 MLOAD DUP1 SWAP2 SUB SWAP1 REVERT JUMPDEST DUP1 PUSH1 0x0 DUP1 DUP5 DUP2 MSTORE PUSH1 0x20 ADD SWAP1 DUP2 MSTORE PUSH1 0x20 ADD PUSH1 0x0 KECCAK256 PUSH1 0x1 ADD PUSH1 0x0 PUSH2 0x100 EXP DUP2 SLOAD DUP2 PUSH20 0xFFFFFFFFFFFFFFFFFFFFFFFFFFFFFFFFFFFFFFFF MUL NOT AND SWAP1 DUP4 PUSH20 0xFFFFFFFFFFFFFFFFFFFFFFFFFFFFFFFFFFFFFFFF AND MUL OR SWAP1 SSTORE POP DUP1 PUSH20 0xFFFFFFFFFFFFFFFFFFFFFFFFFFFFFFFFFFFFFFFF AND CALLER PUSH20 0xFFFFFFFFFFFFFFFFFFFFFFFFFFFFFFFFFFFFFFFF AND PUSH32 0xF60883F3FD15D49A456F482BC652839BB73BA00F5D0219B9B2E11C80FE953D7D DUP5 PUSH1 0x40 MLOAD PUSH2 0x933 SWAP2 SWAP1 PUSH2 0xC15 JUMP JUMPDEST PUSH1 0x40 MLOAD DUP1 SWAP2 SUB SWAP1 LOG3 POP POP JUMP JUMPDEST PUSH1 0x0 DUP1 REVERT JUMPDEST PUSH1 0x0 PUSH20 0xFFFFFFFFFFFFFFFFFFFFFFFFFFFFFFFFFFFFFFFF DUP3 AND SWAP1 POP SWAP2 SWAP1 POP JUMP JUMPDEST PUSH1 0x0 PUSH2 0x96F DUP3 PUSH2 0x944 JUMP JUMPDEST SWAP1 POP SWAP2 SWAP1 POP JUMP JUMPDEST PUSH2 0x97F DUP2 PUSH2 0x964 JUMP JUMPDEST DUP2 EQ PUSH2 0x98A JUMPI PUSH1 0x0 DUP1 REVERT JUMPDEST POP JUMP JUMPDEST PUSH1 0x0 DUP2 CALLDATALOAD SWAP1 POP PUSH2 0x99C DUP2 PUSH2 0x976 JUMP JUMPDEST SWAP3 SWAP2 POP POP JUMP JUMPDEST PUSH1 0x0 PUSH1 0x20 DUP3 DUP5 SUB SLT ISZERO PUSH2 0x9B8 JUMPI PUSH2 0x9B7 PUSH2 0x93F JUMP JUMPDEST JUMPDEST PUSH1 0x0 PUSH2 0x9C6 DUP5 DUP3 DUP6 ADD PUSH2 0x98D JUMP JUMPDEST SWAP2 POP POP SWAP3 SWAP2 POP POP JUMP JUMPDEST PUSH1 0x0 DUP2 SWAP1 POP SWAP2 SWAP1 POP JUMP JUMPDEST PUSH2 0x9E2 DUP2 PUSH2 0x9CF JUMP JUMPDEST DUP2 EQ PUSH2 0x9ED JUMPI PUSH1 0x0 DUP1 REVERT JUMPDEST POP JUMP JUMPDEST PUSH1 0x0 DUP2 CALLDATALOAD SWAP1 POP PUSH2 0x9FF DUP2 PUSH2 0x9D9 JUMP JUMPDEST SWAP3 SWAP2 POP POP JUMP JUMPDEST PUSH1 0x0 PUSH1 0x20 DUP3 DUP5 SUB SLT ISZERO PUSH2 0xA1B JUMPI PUSH2 0xA1A PUSH2 0x93F JUMP JUMPDEST JUMPDEST PUSH1 0x0 PUSH2 0xA29 DUP5 DUP3 DUP6 ADD PUSH2 0x9F0 JUMP JUMPDEST SWAP2 POP POP SWAP3 SWAP2 POP POP JUMP JUMPDEST PUSH2 0xA3B DUP2 PUSH2 0x9CF JUMP JUMPDEST DUP3 MSTORE POP POP JUMP JUMPDEST PUSH2 0xA4A DUP2 PUSH2 0x964 JUMP JUMPDEST DUP3 MSTORE POP POP JUMP JUMPDEST PUSH1 0x0 DUP2 SWAP1 POP SWAP2 SWAP1 POP JUMP JUMPDEST PUSH2 0xA63 DUP2 PUSH2 0xA50 JUMP JUMPDEST DUP3 MSTORE POP POP JUMP JUMPDEST PUSH1 0x0 PUSH1 0x60 DUP3 ADD SWAP1 POP PUSH2 0xA7E PUSH1 0x0 DUP4 ADD DUP7 PUSH2 0xA32 JUMP JUMPDEST PUSH2 0xA8B PUSH1 0x20 DUP4 ADD DUP6 PUSH2 0xA41 JUMP JUMPDEST PUSH2 0xA98 PUSH1 0x40 DUP4 ADD DUP5 PUSH2 0xA5A JUMP JUMPDEST SWAP5 SWAP4 POP POP POP POP JUMP JUMPDEST PUSH1 0x0 DUP1 PUSH1 0x40 DUP4 DUP6 SUB SLT ISZERO PUSH2 0xAB7 JUMPI PUSH2 0xAB6 PUSH2 0x93F JUMP JUMPDEST JUMPDEST PUSH1 0x0 PUSH2 0xAC5 DUP6 DUP3 DUP7 ADD PUSH2 0x9F0 JUMP JUMPDEST SWAP3 POP POP PUSH1 0x20 PUSH2 0xAD6 DUP6 DUP3 DUP7 ADD PUSH2 0x98D JUMP JUMPDEST SWAP2 POP POP SWAP3 POP SWAP3 SWAP1 POP JUMP JUMPDEST PUSH1 0x0 DUP3 DUP3 MSTORE PUSH1 0x20 DUP3 ADD SWAP1 POP SWAP3 SWAP2 POP POP JUMP JUMPDEST PUSH32 0x4F6E6C7920617574686F72697A65642075736572732063616E2063616C6C2074 PUSH1 0x0 DUP3 ADD MSTORE PUSH32 0x6869732066756E6374696F6E0000000000000000000000000000000000000000 PUSH1 0x20 DUP3 ADD MSTORE POP JUMP JUMPDEST PUSH1 0x0 PUSH2 0xB4D PUSH1 0x2C DUP4 PUSH2 0xAE0 JUMP JUMPDEST SWAP2 POP PUSH2 0xB58 DUP3 PUSH2 0xAF1 JUMP JUMPDEST PUSH1 0x40 DUP3 ADD SWAP1 POP SWAP2 SWAP1 POP JUMP JUMPDEST PUSH1 0x0 PUSH1 0x20 DUP3 ADD SWAP1 POP DUP2 DUP2 SUB PUSH1 0x0 DUP4 ADD MSTORE PUSH2 0xB7C DUP2 PUSH2 0xB40 JUMP JUMPDEST SWAP1 POP SWAP2 SWAP1 POP JUMP JUMPDEST PUSH32 0x4461746120776974682074686973206861736820616C72656164792065786973 PUSH1 0x0 DUP3 ADD MSTORE PUSH32 0x7473000000000000000000000000000000000000000000000000000000000000 PUSH1 0x20 DUP3 ADD MSTORE POP JUMP JUMPDEST PUSH1 0x0 PUSH2 0xBDF PUSH1 0x22 DUP4 PUSH2 0xAE0 JUMP JUMPDEST SWAP2 POP PUSH2 0xBEA DUP3 PUSH2 0xB83 JUMP JUMPDEST PUSH1 0x40 DUP3 ADD SWAP1 POP SWAP2 SWAP1 POP JUMP JUMPDEST PUSH1 0x0 PUSH1 0x20 DUP3 ADD SWAP1 POP DUP2 DUP2 SUB PUSH1 0x0 DUP4 ADD MSTORE PUSH2 0xC0E DUP2 PUSH2 0xBD2 JUMP JUMPDEST SWAP1 POP SWAP2 SWAP1 POP JUMP JUMPDEST PUSH1 0x0 PUSH1 0x20 DUP3 ADD SWAP1 POP PUSH2 0xC2A PUSH1 0x0 DUP4 ADD DUP5 PUSH2 0xA32 JUMP JUMPDEST SWAP3 SWAP2 POP POP JUMP JUMPDEST PUSH32 0x4461746120776974682074686973206861736820646F6573206E6F7420657869 PUSH1 0x0 DUP3 ADD MSTORE PUSH32 0x7374000000000000000000000000000000000000000000000000000000000000 PUSH1 0x20 DUP3 ADD MSTORE POP JUMP JUMPDEST PUSH1 0x0 PUSH2 0xC8C PUSH1 0x22 DUP4 PUSH2 0xAE0 JUMP JUMPDEST SWAP2 POP PUSH2 0xC97 DUP3 PUSH2 0xC30 JUMP JUMPDEST PUSH1 0x40 DUP3 ADD SWAP1 POP SWAP2 SWAP1 POP JUMP JUMPDEST PUSH1 0x0 PUSH1 0x20 DUP3 ADD SWAP1 POP DUP2 DUP2 SUB PUSH1 0x0 DUP4 ADD MSTORE PUSH2 0xCBB DUP2 PUSH2 0xC7F JUMP JUMPDEST SWAP1 POP SWAP2 SWAP1 POP JUMP JUMPDEST PUSH32 0x4E487B7100000000000000000000000000000000000000000000000000000000 PUSH1 0x0 MSTORE PUSH1 0x11 PUSH1 0x4 MSTORE PUSH1 0x24 PUSH1 0x0 REVERT JUMPDEST PUSH1 0x0 PUSH2 0xCFC DUP3 PUSH2 0xA50 JUMP JUMPDEST SWAP2 POP PUSH32 0xFFFFFFFFFFFFFFFFFFFFFFFFFFFFFFFFFFFFFFFFFFFFFFFFFFFFFFFFFFFFFFFF DUP3 SUB PUSH2 0xD2E JUMPI PUSH2 0xD2D PUSH2 0xCC2 JUMP JUMPDEST JUMPDEST PUSH1 0x1 DUP3 ADD SWAP1 POP SWAP2 SWAP1 POP JUMP JUMPDEST PUSH32 0x596F7520617265206E6F7420746865206F776E6572206F662074686973206461 PUSH1 0x0 DUP3 ADD MSTORE PUSH32 0x7461000000000000000000000000000000000000000000000000000000000000 PUSH1 0x20 DUP3 ADD MSTORE POP JUMP JUMPDEST PUSH1 0x0 PUSH2 0xD95 PUSH1 0x22 DUP4 PUSH2 0xAE0 JUMP JUMPDEST SWAP2 POP PUSH2 0xDA0 DUP3 PUSH2 0xD39 JUMP JUMPDEST PUSH1 0x40 DUP3 ADD SWAP1 POP SWAP2 SWAP1 POP JUMP JUMPDEST PUSH1 0x0 PUSH1 0x20 DUP3 ADD SWAP1 POP DUP2 DUP2 SUB PUSH1 0x0 DUP4 ADD MSTORE PUSH2 0xDC4 DUP2 PUSH2 0xD88 JUMP JUMPDEST SWAP1 POP SWAP2 SWAP1 POP JUMP JUMPDEST PUSH32 0x496E76616C696420726563697069656E74206164647265737300000000000000 PUSH1 0x0 DUP3 ADD MSTORE POP JUMP JUMPDEST PUSH1 0x0 PUSH2 0xE01 PUSH1 0x19 DUP4 PUSH2 0xAE0 JUMP JUMPDEST SWAP2 POP PUSH2 0xE0C DUP3 PUSH2 0xDCB JUMP JUMPDEST PUSH1 0x20 DUP3 ADD SWAP1 POP SWAP2 SWAP1 POP JUMP JUMPDEST PUSH1 0x0 PUSH1 0x20 DUP3 ADD SWAP1 POP DUP2 DUP2 SUB PUSH1 0x0 DUP4 ADD MSTORE PUSH2 0xE30 DUP2 PUSH2 0xDF4 JUMP JUMPDEST SWAP1 POP SWAP2 SWAP1 POP JUMP INVALID LOG2 PUSH5 0x6970667358 0x22 SLT KECCAK256 CALLVALUE 0x2F 0x4A CODESIZE DIV 0xEF ADDMOD 0xA7 0xE8 SAR LOG2 0xF8 0xE9 LOG1 0xE8 OR 0xEE 0xD9 ORIGIN 0xD8 0x5F 0xEC PUSH22 0xB02C35063A3EF80D464736F6C634300081200330000 "
				},
				"gasEstimates": {
					"creation": {
						"codeDepositCost": "738600",
						"executionCost": "25129",
						"totalCost": "763729"
					},
					"external": {
						"addAuthorizedUser(address)": "27032",
						"getData(bytes32)": "infinite",
						"removeAuthorizedUser(address)": "27098",
						"storeData(bytes32)": "infinite",
						"transferData(bytes32,address)": "infinite",
						"vote(bytes32)": "infinite"
					}
				},
				"methodIdentifiers": {
					"addAuthorizedUser(address)": "177d2a74",
					"getData(bytes32)": "54f6127f",
					"removeAuthorizedUser(address)": "89fabc80",
					"storeData(bytes32)": "3fc906c5",
					"transferData(bytes32,address)": "f3c6f6e1",
					"vote(bytes32)": "a69beaba"
				}
			},
			"storageLayout": {
				"storage": [
					{
						"astId": 13,
						"contract": "contracts/3_Ballot.sol:Ballot",
						"label": "dataStore",
						"offset": 0,
						"slot": "0",
						"type": "t_mapping(t_bytes32,t_struct(Data)8_storage)"
					},
					{
						"astId": 17,
						"contract": "contracts/3_Ballot.sol:Ballot",
						"label": "authorizedUsers",
						"offset": 0,
						"slot": "1",
						"type": "t_mapping(t_address,t_bool)"
					}
				],
				"types": {
					"t_address": {
						"encoding": "inplace",
						"label": "address",
						"numberOfBytes": "20"
					},
					"t_bool": {
						"encoding": "inplace",
						"label": "bool",
						"numberOfBytes": "1"
					},
					"t_bytes32": {
						"encoding": "inplace",
						"label": "bytes32",
						"numberOfBytes": "32"
					},
					"t_mapping(t_address,t_bool)": {
						"encoding": "mapping",
						"key": "t_address",
						"label": "mapping(address => bool)",
						"numberOfBytes": "32",
						"value": "t_bool"
					},
					"t_mapping(t_bytes32,t_struct(Data)8_storage)": {
						"encoding": "mapping",
						"key": "t_bytes32",
						"label": "mapping(bytes32 => struct Ballot.Data)",
						"numberOfBytes": "32",
						"value": "t_struct(Data)8_storage"
					},
					"t_struct(Data)8_storage": {
						"encoding": "inplace",
						"label": "struct Ballot.Data",
						"members": [
							{
								"astId": 3,
								"contract": "contracts/3_Ballot.sol:Ballot",
								"label": "dataHash",
								"offset": 0,
								"slot": "0",
								"type": "t_bytes32"
							},
							{
								"astId": 5,
								"contract": "contracts/3_Ballot.sol:Ballot",
								"label": "owner",
								"offset": 0,
								"slot": "1",
								"type": "t_address"
							},
							{
								"astId": 7,
								"contract": "contracts/3_Ballot.sol:Ballot",
								"label": "voteCount",
								"offset": 0,
								"slot": "2",
								"type": "t_uint256"
							}
						],
						"numberOfBytes": "96"
					},
					"t_uint256": {
						"encoding": "inplace",
						"label": "uint256",
						"numberOfBytes": "32"
					}
				}
			},
			"userdoc": {
				"kind": "user",
				"methods": {},
				"version": 1
			}
		}
	}
}