{
	"contracts/2_Owner.sol": {
		"Storage": {
			"abi": [
				{
					"anonymous": false,
					"inputs": [
						{
							"indexed": true,
							"internalType": "uint256",
							"name": "dataId",
							"type": "uint256"
						},
						{
							"indexed": true,
							"internalType": "address",
							"name": "owner",
							"type": "address"
						},
						{
							"indexed": false,
							"internalType": "string",
							"name": "dataHash",
							"type": "string"
						}
					],
					"name": "DataStored",
					"type": "event"
				},
				{
					"anonymous": false,
					"inputs": [
						{
							"indexed": true,
							"internalType": "uint256",
							"name": "dataId",
							"type": "uint256"
						},
						{
							"indexed": true,
							"internalType": "address",
							"name": "from",
							"type": "address"
						},
						{
							"indexed": true,
							"internalType": "address",
							"name": "to",
							"type": "address"
						}
					],
					"name": "DataTransferred",
					"type": "event"
				},
				{
					"inputs": [
						{
							"internalType": "uint256",
							"name": "_dataId",
							"type": "uint256"
						}
					],
					"name": "getDataEntry",
					"outputs": [
						{
							"internalType": "address",
							"name": "",
							"type": "address"
						},
						{
							"internalType": "string",
							"name": "",
							"type": "string"
						}
					],
					"stateMutability": "view",
					"type": "function"
				},
				{
					"inputs": [
						{
							"internalType": "string",
							"name": "_dataHash",
							"type": "string"
						}
					],
					"name": "storeData",
					"outputs": [],
					"stateMutability": "nonpayable",
					"type": "function"
				},
				{
					"inputs": [
						{
							"internalType": "uint256",
							"name": "_dataId",
							"type": "uint256"
						},
						{
							"internalType": "address",
							"name": "_toAddress",
							"type": "address"
						}
					],
					"name": "transferData",
					"outputs": [],
					"stateMutability": "nonpayable",
					"type": "function"
				}
			],
			"devdoc": {
				"kind": "dev",
				"methods": {},
				"version": 1
			},
			"evm": {
				"assembly": "    /* \"contracts/2_Owner.sol\":57:1199  contract Storage {... */\n  mstore(0x40, 0x80)\n  callvalue\n  dup1\n  iszero\n  tag_1\n  jumpi\n  0x00\n  dup1\n  revert\ntag_1:\n  pop\n  dataSize(sub_0)\n  dup1\n  dataOffset(sub_0)\n  0x00\n  codecopy\n  0x00\n  return\nstop\n\nsub_0: assembly {\n        /* \"contracts/2_Owner.sol\":57:1199  contract Storage {... */\n      mstore(0x40, 0x80)\n      callvalue\n      dup1\n      iszero\n      tag_1\n      jumpi\n      0x00\n      dup1\n      revert\n    tag_1:\n      pop\n      jumpi(tag_2, lt(calldatasize, 0x04))\n      shr(0xe0, calldataload(0x00))\n      dup1\n      0xeca5343a\n      eq\n      tag_3\n      jumpi\n      dup1\n      0xf75d8ada\n      eq\n      tag_4\n      jumpi\n      dup1\n      0xfb218f5f\n      eq\n      tag_5\n      jumpi\n    tag_2:\n      0x00\n      dup1\n      revert\n        /* \"contracts/2_Owner.sol\":650:986  function transferData(uint256 _dataId, address _toAddress) external {... */\n    tag_3:\n      tag_6\n      0x04\n      dup1\n      calldatasize\n      sub\n      dup2\n      add\n      swap1\n      tag_7\n      swap2\n      swap1\n      tag_8\n      jump\t// in\n    tag_7:\n      tag_9\n      jump\t// in\n    tag_6:\n      stop\n        /* \"contracts/2_Owner.sol\":992:1197  function getDataEntry(uint256 _dataId) public view returns (address, string memory) {... */\n    tag_4:\n      tag_10\n      0x04\n      dup1\n      calldatasize\n      sub\n      dup2\n      add\n      swap1\n      tag_11\n      swap2\n      swap1\n      tag_12\n      jump\t// in\n    tag_11:\n      tag_13\n      jump\t// in\n    tag_10:\n      mload(0x40)\n      tag_14\n      swap3\n      swap2\n      swap1\n      tag_15\n      jump\t// in\n    tag_14:\n      mload(0x40)\n      dup1\n      swap2\n      sub\n      swap1\n      return\n        /* \"contracts/2_Owner.sol\":428:644  function storeData(string memory _dataHash) external {... */\n    tag_5:\n      tag_16\n      0x04\n      dup1\n      calldatasize\n      sub\n      dup2\n      add\n      swap1\n      tag_17\n      swap2\n      swap1\n      tag_18\n      jump\t// in\n    tag_17:\n      tag_19\n      jump\t// in\n    tag_16:\n      stop\n        /* \"contracts/2_Owner.sol\":650:986  function transferData(uint256 _dataId, address _toAddress) external {... */\n    tag_9:\n        /* \"contracts/2_Owner.sol\":728:755  DataEntry storage dataEntry */\n      0x00\n        /* \"contracts/2_Owner.sol\":758:769  dataEntries */\n      dup1\n        /* \"contracts/2_Owner.sol\":758:778  dataEntries[_dataId] */\n      0x00\n        /* \"contracts/2_Owner.sol\":770:777  _dataId */\n      dup5\n        /* \"contracts/2_Owner.sol\":758:778  dataEntries[_dataId] */\n      dup2\n      mstore\n      0x20\n      add\n      swap1\n      dup2\n      mstore\n      0x20\n      add\n      0x00\n      keccak256\n        /* \"contracts/2_Owner.sol\":728:778  DataEntry storage dataEntry = dataEntries[_dataId] */\n      swap1\n      pop\n        /* \"contracts/2_Owner.sol\":815:825  msg.sender */\n      caller\n        /* \"contracts/2_Owner.sol\":796:825  dataEntry.owner == msg.sender */\n      0xffffffffffffffffffffffffffffffffffffffff\n      and\n        /* \"contracts/2_Owner.sol\":796:805  dataEntry */\n      dup2\n        /* \"contracts/2_Owner.sol\":796:811  dataEntry.owner */\n      0x00\n      add\n      0x00\n      swap1\n      sload\n      swap1\n      0x0100\n      exp\n      swap1\n      div\n      0xffffffffffffffffffffffffffffffffffffffff\n      and\n        /* \"contracts/2_Owner.sol\":796:825  dataEntry.owner == msg.sender */\n      0xffffffffffffffffffffffffffffffffffffffff\n      and\n      eq\n        /* \"contracts/2_Owner.sol\":788:869  require(dataEntry.owner == msg.sender, \"You are not the owner of the data entry\") */\n      tag_21\n      jumpi\n      mload(0x40)\n      0x08c379a000000000000000000000000000000000000000000000000000000000\n      dup2\n      mstore\n      0x04\n      add\n      tag_22\n      swap1\n      tag_23\n      jump\t// in\n    tag_22:\n      mload(0x40)\n      dup1\n      swap2\n      sub\n      swap1\n      revert\n    tag_21:\n        /* \"contracts/2_Owner.sol\":906:916  _toAddress */\n      dup2\n        /* \"contracts/2_Owner.sol\":888:897  dataEntry */\n      dup2\n        /* \"contracts/2_Owner.sol\":888:903  dataEntry.owner */\n      0x00\n      add\n      0x00\n        /* \"contracts/2_Owner.sol\":888:916  dataEntry.owner = _toAddress */\n      0x0100\n      exp\n      dup2\n      sload\n      dup2\n      0xffffffffffffffffffffffffffffffffffffffff\n      mul\n      not\n      and\n      swap1\n      dup4\n      0xffffffffffffffffffffffffffffffffffffffff\n      and\n      mul\n      or\n      swap1\n      sstore\n      pop\n        /* \"contracts/2_Owner.sol\":968:978  _toAddress */\n      dup2\n        /* \"contracts/2_Owner.sol\":931:979  DataTransferred(_dataId, msg.sender, _toAddress) */\n      0xffffffffffffffffffffffffffffffffffffffff\n      and\n        /* \"contracts/2_Owner.sol\":956:966  msg.sender */\n      caller\n        /* \"contracts/2_Owner.sol\":931:979  DataTransferred(_dataId, msg.sender, _toAddress) */\n      0xffffffffffffffffffffffffffffffffffffffff\n      and\n        /* \"contracts/2_Owner.sol\":947:954  _dataId */\n      dup5\n        /* \"contracts/2_Owner.sol\":931:979  DataTransferred(_dataId, msg.sender, _toAddress) */\n      0x03c2228d803843715da05894c8b0f90b4a80cbfc618a268031091b7139697176\n      mload(0x40)\n      mload(0x40)\n      dup1\n      swap2\n      sub\n      swap1\n      log4\n        /* \"contracts/2_Owner.sol\":718:986  {... */\n      pop\n        /* \"contracts/2_Owner.sol\":650:986  function transferData(uint256 _dataId, address _toAddress) external {... */\n      pop\n      pop\n      jump\t// out\n        /* \"contracts/2_Owner.sol\":992:1197  function getDataEntry(uint256 _dataId) public view returns (address, string memory) {... */\n    tag_13:\n        /* \"contracts/2_Owner.sol\":1052:1059  address */\n      0x00\n        /* \"contracts/2_Owner.sol\":1061:1074  string memory */\n      0x60\n        /* \"contracts/2_Owner.sol\":1086:1113  DataEntry storage dataEntry */\n      0x00\n        /* \"contracts/2_Owner.sol\":1116:1127  dataEntries */\n      dup1\n        /* \"contracts/2_Owner.sol\":1116:1136  dataEntries[_dataId] */\n      0x00\n        /* \"contracts/2_Owner.sol\":1128:1135  _dataId */\n      dup6\n        /* \"contracts/2_Owner.sol\":1116:1136  dataEntries[_dataId] */\n      dup2\n      mstore\n      0x20\n      add\n      swap1\n      dup2\n      mstore\n      0x20\n      add\n      0x00\n      keccak256\n        /* \"contracts/2_Owner.sol\":1086:1136  DataEntry storage dataEntry = dataEntries[_dataId] */\n      swap1\n      pop\n        /* \"contracts/2_Owner.sol\":1154:1163  dataEntry */\n      dup1\n        /* \"contracts/2_Owner.sol\":1154:1169  dataEntry.owner */\n      0x00\n      add\n      0x00\n      swap1\n      sload\n      swap1\n      0x0100\n      exp\n      swap1\n      div\n      0xffffffffffffffffffffffffffffffffffffffff\n      and\n        /* \"contracts/2_Owner.sol\":1171:1180  dataEntry */\n      dup2\n        /* \"contracts/2_Owner.sol\":1171:1189  dataEntry.dataHash */\n      0x01\n      add\n        /* \"contracts/2_Owner.sol\":1146:1190  return (dataEntry.owner, dataEntry.dataHash) */\n      dup1\n      dup1\n      sload\n      tag_25\n      swap1\n      tag_26\n      jump\t// in\n    tag_25:\n      dup1\n      0x1f\n      add\n      0x20\n      dup1\n      swap2\n      div\n      mul\n      0x20\n      add\n      mload(0x40)\n      swap1\n      dup2\n      add\n      0x40\n      mstore\n      dup1\n      swap3\n      swap2\n      swap1\n      dup2\n      dup2\n      mstore\n      0x20\n      add\n      dup3\n      dup1\n      sload\n      tag_27\n      swap1\n      tag_26\n      jump\t// in\n    tag_27:\n      dup1\n      iszero\n      tag_28\n      jumpi\n      dup1\n      0x1f\n      lt\n      tag_29\n      jumpi\n      0x0100\n      dup1\n      dup4\n      sload\n      div\n      mul\n      dup4\n      mstore\n      swap2\n      0x20\n      add\n      swap2\n      jump(tag_28)\n    tag_29:\n      dup3\n      add\n      swap2\n      swap1\n      0x00\n      mstore\n      keccak256(0x00, 0x20)\n      swap1\n    tag_30:\n      dup2\n      sload\n      dup2\n      mstore\n      swap1\n      0x01\n      add\n      swap1\n      0x20\n      add\n      dup1\n      dup4\n      gt\n      tag_30\n      jumpi\n      dup3\n      swap1\n      sub\n      0x1f\n      and\n      dup3\n      add\n      swap2\n    tag_28:\n      pop\n      pop\n      pop\n      pop\n      pop\n      swap1\n      pop\n      swap3\n      pop\n      swap3\n      pop\n      pop\n        /* \"contracts/2_Owner.sol\":992:1197  function getDataEntry(uint256 _dataId) public view returns (address, string memory) {... */\n      swap2\n      pop\n      swap2\n      jump\t// out\n        /* \"contracts/2_Owner.sol\":428:644  function storeData(string memory _dataHash) external {... */\n    tag_19:\n        /* \"contracts/2_Owner.sol\":491:503  latestDataId */\n      0x01\n      0x00\n        /* \"contracts/2_Owner.sol\":491:505  latestDataId++ */\n      dup2\n      sload\n      dup1\n      swap3\n      swap2\n      swap1\n      tag_32\n      swap1\n      tag_33\n      jump\t// in\n    tag_32:\n      swap2\n      swap1\n      pop\n      sstore\n      pop\n        /* \"contracts/2_Owner.sol\":543:575  DataEntry(msg.sender, _dataHash) */\n      mload(0x40)\n      dup1\n      0x40\n      add\n      0x40\n      mstore\n      dup1\n        /* \"contracts/2_Owner.sol\":553:563  msg.sender */\n      caller\n        /* \"contracts/2_Owner.sol\":543:575  DataEntry(msg.sender, _dataHash) */\n      0xffffffffffffffffffffffffffffffffffffffff\n      and\n      dup2\n      mstore\n      0x20\n      add\n        /* \"contracts/2_Owner.sol\":565:574  _dataHash */\n      dup3\n        /* \"contracts/2_Owner.sol\":543:575  DataEntry(msg.sender, _dataHash) */\n      dup2\n      mstore\n      pop\n        /* \"contracts/2_Owner.sol\":515:526  dataEntries */\n      0x00\n        /* \"contracts/2_Owner.sol\":515:540  dataEntries[latestDataId] */\n      dup1\n        /* \"contracts/2_Owner.sol\":527:539  latestDataId */\n      sload(0x01)\n        /* \"contracts/2_Owner.sol\":515:540  dataEntries[latestDataId] */\n      dup2\n      mstore\n      0x20\n      add\n      swap1\n      dup2\n      mstore\n      0x20\n      add\n      0x00\n      keccak256\n        /* \"contracts/2_Owner.sol\":515:575  dataEntries[latestDataId] = DataEntry(msg.sender, _dataHash) */\n      0x00\n      dup3\n      add\n      mload\n      dup2\n      0x00\n      add\n      exp(0x0100, 0x00)\n      dup2\n      sload\n      dup2\n      0xffffffffffffffffffffffffffffffffffffffff\n      mul\n      not\n      and\n      swap1\n      dup4\n      0xffffffffffffffffffffffffffffffffffffffff\n      and\n      mul\n      or\n      swap1\n      sstore\n      pop\n      0x20\n      dup3\n      add\n      mload\n      dup2\n      0x01\n      add\n      swap1\n      dup2\n      tag_34\n      swap2\n      swap1\n      tag_35\n      jump\t// in\n    tag_34:\n      pop\n      swap1\n      pop\n      pop\n        /* \"contracts/2_Owner.sol\":615:625  msg.sender */\n      caller\n        /* \"contracts/2_Owner.sol\":590:637  DataStored(latestDataId, msg.sender, _dataHash) */\n      0xffffffffffffffffffffffffffffffffffffffff\n      and\n        /* \"contracts/2_Owner.sol\":601:613  latestDataId */\n      sload(0x01)\n        /* \"contracts/2_Owner.sol\":590:637  DataStored(latestDataId, msg.sender, _dataHash) */\n      0x632fb8d70caa7976aa17a1528dbb14fd2b3a577de3b2cfa3a048cf53cb658474\n        /* \"contracts/2_Owner.sol\":627:636  _dataHash */\n      dup4\n        /* \"contracts/2_Owner.sol\":590:637  DataStored(latestDataId, msg.sender, _dataHash) */\n      mload(0x40)\n      tag_36\n      swap2\n      swap1\n      tag_37\n      jump\t// in\n    tag_36:\n      mload(0x40)\n      dup1\n      swap2\n      sub\n      swap1\n      log3\n        /* \"contracts/2_Owner.sol\":428:644  function storeData(string memory _dataHash) external {... */\n      pop\n      jump\t// out\n        /* \"#utility.yul\":7:82   */\n    tag_38:\n        /* \"#utility.yul\":40:46   */\n      0x00\n        /* \"#utility.yul\":73:75   */\n      0x40\n        /* \"#utility.yul\":67:76   */\n      mload\n        /* \"#utility.yul\":57:76   */\n      swap1\n      pop\n        /* \"#utility.yul\":7:82   */\n      swap1\n      jump\t// out\n        /* \"#utility.yul\":88:205   */\n    tag_39:\n        /* \"#utility.yul\":197:198   */\n      0x00\n        /* \"#utility.yul\":194:195   */\n      dup1\n        /* \"#utility.yul\":187:199   */\n      revert\n        /* \"#utility.yul\":211:328   */\n    tag_40:\n        /* \"#utility.yul\":320:321   */\n      0x00\n        /* \"#utility.yul\":317:318   */\n      dup1\n        /* \"#utility.yul\":310:322   */\n      revert\n        /* \"#utility.yul\":334:411   */\n    tag_41:\n        /* \"#utility.yul\":371:378   */\n      0x00\n        /* \"#utility.yul\":400:405   */\n      dup2\n        /* \"#utility.yul\":389:405   */\n      swap1\n      pop\n        /* \"#utility.yul\":334:411   */\n      swap2\n      swap1\n      pop\n      jump\t// out\n        /* \"#utility.yul\":417:539   */\n    tag_42:\n        /* \"#utility.yul\":490:514   */\n      tag_88\n        /* \"#utility.yul\":508:513   */\n      dup2\n        /* \"#utility.yul\":490:514   */\n      tag_41\n      jump\t// in\n    tag_88:\n        /* \"#utility.yul\":483:488   */\n      dup2\n        /* \"#utility.yul\":480:515   */\n      eq\n        /* \"#utility.yul\":470:533   */\n      tag_89\n      jumpi\n        /* \"#utility.yul\":529:530   */\n      0x00\n        /* \"#utility.yul\":526:527   */\n      dup1\n        /* \"#utility.yul\":519:531   */\n      revert\n        /* \"#utility.yul\":470:533   */\n    tag_89:\n        /* \"#utility.yul\":417:539   */\n      pop\n      jump\t// out\n        /* \"#utility.yul\":545:684   */\n    tag_43:\n        /* \"#utility.yul\":591:596   */\n      0x00\n        /* \"#utility.yul\":629:635   */\n      dup2\n        /* \"#utility.yul\":616:636   */\n      calldataload\n        /* \"#utility.yul\":607:636   */\n      swap1\n      pop\n        /* \"#utility.yul\":645:678   */\n      tag_91\n        /* \"#utility.yul\":672:677   */\n      dup2\n        /* \"#utility.yul\":645:678   */\n      tag_42\n      jump\t// in\n    tag_91:\n        /* \"#utility.yul\":545:684   */\n      swap3\n      swap2\n      pop\n      pop\n      jump\t// out\n        /* \"#utility.yul\":690:816   */\n    tag_44:\n        /* \"#utility.yul\":727:734   */\n      0x00\n        /* \"#utility.yul\":767:809   */\n      0xffffffffffffffffffffffffffffffffffffffff\n        /* \"#utility.yul\":760:765   */\n      dup3\n        /* \"#utility.yul\":756:810   */\n      and\n        /* \"#utility.yul\":745:810   */\n      swap1\n      pop\n        /* \"#utility.yul\":690:816   */\n      swap2\n      swap1\n      pop\n      jump\t// out\n        /* \"#utility.yul\":822:918   */\n    tag_45:\n        /* \"#utility.yul\":859:866   */\n      0x00\n        /* \"#utility.yul\":888:912   */\n      tag_94\n        /* \"#utility.yul\":906:911   */\n      dup3\n        /* \"#utility.yul\":888:912   */\n      tag_44\n      jump\t// in\n    tag_94:\n        /* \"#utility.yul\":877:912   */\n      swap1\n      pop\n        /* \"#utility.yul\":822:918   */\n      swap2\n      swap1\n      pop\n      jump\t// out\n        /* \"#utility.yul\":924:1046   */\n    tag_46:\n        /* \"#utility.yul\":997:1021   */\n      tag_96\n        /* \"#utility.yul\":1015:1020   */\n      dup2\n        /* \"#utility.yul\":997:1021   */\n      tag_45\n      jump\t// in\n    tag_96:\n        /* \"#utility.yul\":990:995   */\n      dup2\n        /* \"#utility.yul\":987:1022   */\n      eq\n        /* \"#utility.yul\":977:1040   */\n      tag_97\n      jumpi\n        /* \"#utility.yul\":1036:1037   */\n      0x00\n        /* \"#utility.yul\":1033:1034   */\n      dup1\n        /* \"#utility.yul\":1026:1038   */\n      revert\n        /* \"#utility.yul\":977:1040   */\n    tag_97:\n        /* \"#utility.yul\":924:1046   */\n      pop\n      jump\t// out\n        /* \"#utility.yul\":1052:1191   */\n    tag_47:\n        /* \"#utility.yul\":1098:1103   */\n      0x00\n        /* \"#utility.yul\":1136:1142   */\n      dup2\n        /* \"#utility.yul\":1123:1143   */\n      calldataload\n        /* \"#utility.yul\":1114:1143   */\n      swap1\n      pop\n        /* \"#utility.yul\":1152:1185   */\n      tag_99\n        /* \"#utility.yul\":1179:1184   */\n      dup2\n        /* \"#utility.yul\":1152:1185   */\n      tag_46\n      jump\t// in\n    tag_99:\n        /* \"#utility.yul\":1052:1191   */\n      swap3\n      swap2\n      pop\n      pop\n      jump\t// out\n        /* \"#utility.yul\":1197:1671   */\n    tag_8:\n        /* \"#utility.yul\":1265:1271   */\n      0x00\n        /* \"#utility.yul\":1273:1279   */\n      dup1\n        /* \"#utility.yul\":1322:1324   */\n      0x40\n        /* \"#utility.yul\":1310:1319   */\n      dup4\n        /* \"#utility.yul\":1301:1308   */\n      dup6\n        /* \"#utility.yul\":1297:1320   */\n      sub\n        /* \"#utility.yul\":1293:1325   */\n      slt\n        /* \"#utility.yul\":1290:1409   */\n      iszero\n      tag_101\n      jumpi\n        /* \"#utility.yul\":1328:1407   */\n      tag_102\n      tag_39\n      jump\t// in\n    tag_102:\n        /* \"#utility.yul\":1290:1409   */\n    tag_101:\n        /* \"#utility.yul\":1448:1449   */\n      0x00\n        /* \"#utility.yul\":1473:1526   */\n      tag_103\n        /* \"#utility.yul\":1518:1525   */\n      dup6\n        /* \"#utility.yul\":1509:1515   */\n      dup3\n        /* \"#utility.yul\":1498:1507   */\n      dup7\n        /* \"#utility.yul\":1494:1516   */\n      add\n        /* \"#utility.yul\":1473:1526   */\n      tag_43\n      jump\t// in\n    tag_103:\n        /* \"#utility.yul\":1463:1526   */\n      swap3\n      pop\n        /* \"#utility.yul\":1419:1536   */\n      pop\n        /* \"#utility.yul\":1575:1577   */\n      0x20\n        /* \"#utility.yul\":1601:1654   */\n      tag_104\n        /* \"#utility.yul\":1646:1653   */\n      dup6\n        /* \"#utility.yul\":1637:1643   */\n      dup3\n        /* \"#utility.yul\":1626:1635   */\n      dup7\n        /* \"#utility.yul\":1622:1644   */\n      add\n        /* \"#utility.yul\":1601:1654   */\n      tag_47\n      jump\t// in\n    tag_104:\n        /* \"#utility.yul\":1591:1654   */\n      swap2\n      pop\n        /* \"#utility.yul\":1546:1664   */\n      pop\n        /* \"#utility.yul\":1197:1671   */\n      swap3\n      pop\n      swap3\n      swap1\n      pop\n      jump\t// out\n        /* \"#utility.yul\":1677:2006   */\n    tag_12:\n        /* \"#utility.yul\":1736:1742   */\n      0x00\n        /* \"#utility.yul\":1785:1787   */\n      0x20\n        /* \"#utility.yul\":1773:1782   */\n      dup3\n        /* \"#utility.yul\":1764:1771   */\n      dup5\n        /* \"#utility.yul\":1760:1783   */\n      sub\n        /* \"#utility.yul\":1756:1788   */\n      slt\n        /* \"#utility.yul\":1753:1872   */\n      iszero\n      tag_106\n      jumpi\n        /* \"#utility.yul\":1791:1870   */\n      tag_107\n      tag_39\n      jump\t// in\n    tag_107:\n        /* \"#utility.yul\":1753:1872   */\n    tag_106:\n        /* \"#utility.yul\":1911:1912   */\n      0x00\n        /* \"#utility.yul\":1936:1989   */\n      tag_108\n        /* \"#utility.yul\":1981:1988   */\n      dup5\n        /* \"#utility.yul\":1972:1978   */\n      dup3\n        /* \"#utility.yul\":1961:1970   */\n      dup6\n        /* \"#utility.yul\":1957:1979   */\n      add\n        /* \"#utility.yul\":1936:1989   */\n      tag_43\n      jump\t// in\n    tag_108:\n        /* \"#utility.yul\":1926:1989   */\n      swap2\n      pop\n        /* \"#utility.yul\":1882:1999   */\n      pop\n        /* \"#utility.yul\":1677:2006   */\n      swap3\n      swap2\n      pop\n      pop\n      jump\t// out\n        /* \"#utility.yul\":2012:2130   */\n    tag_48:\n        /* \"#utility.yul\":2099:2123   */\n      tag_110\n        /* \"#utility.yul\":2117:2122   */\n      dup2\n        /* \"#utility.yul\":2099:2123   */\n      tag_45\n      jump\t// in\n    tag_110:\n        /* \"#utility.yul\":2094:2097   */\n      dup3\n        /* \"#utility.yul\":2087:2124   */\n      mstore\n        /* \"#utility.yul\":2012:2130   */\n      pop\n      pop\n      jump\t// out\n        /* \"#utility.yul\":2136:2235   */\n    tag_49:\n        /* \"#utility.yul\":2188:2194   */\n      0x00\n        /* \"#utility.yul\":2222:2227   */\n      dup2\n        /* \"#utility.yul\":2216:2228   */\n      mload\n        /* \"#utility.yul\":2206:2228   */\n      swap1\n      pop\n        /* \"#utility.yul\":2136:2235   */\n      swap2\n      swap1\n      pop\n      jump\t// out\n        /* \"#utility.yul\":2241:2410   */\n    tag_50:\n        /* \"#utility.yul\":2325:2336   */\n      0x00\n        /* \"#utility.yul\":2359:2365   */\n      dup3\n        /* \"#utility.yul\":2354:2357   */\n      dup3\n        /* \"#utility.yul\":2347:2366   */\n      mstore\n        /* \"#utility.yul\":2399:2403   */\n      0x20\n        /* \"#utility.yul\":2394:2397   */\n      dup3\n        /* \"#utility.yul\":2390:2404   */\n      add\n        /* \"#utility.yul\":2375:2404   */\n      swap1\n      pop\n        /* \"#utility.yul\":2241:2410   */\n      swap3\n      swap2\n      pop\n      pop\n      jump\t// out\n        /* \"#utility.yul\":2416:2662   */\n    tag_51:\n        /* \"#utility.yul\":2497:2498   */\n      0x00\n        /* \"#utility.yul\":2507:2620   */\n    tag_114:\n        /* \"#utility.yul\":2521:2527   */\n      dup4\n        /* \"#utility.yul\":2518:2519   */\n      dup2\n        /* \"#utility.yul\":2515:2528   */\n      lt\n        /* \"#utility.yul\":2507:2620   */\n      iszero\n      tag_116\n      jumpi\n        /* \"#utility.yul\":2606:2607   */\n      dup1\n        /* \"#utility.yul\":2601:2604   */\n      dup3\n        /* \"#utility.yul\":2597:2608   */\n      add\n        /* \"#utility.yul\":2591:2609   */\n      mload\n        /* \"#utility.yul\":2587:2588   */\n      dup2\n        /* \"#utility.yul\":2582:2585   */\n      dup5\n        /* \"#utility.yul\":2578:2589   */\n      add\n        /* \"#utility.yul\":2571:2610   */\n      mstore\n        /* \"#utility.yul\":2543:2545   */\n      0x20\n        /* \"#utility.yul\":2540:2541   */\n      dup2\n        /* \"#utility.yul\":2536:2546   */\n      add\n        /* \"#utility.yul\":2531:2546   */\n      swap1\n      pop\n        /* \"#utility.yul\":2507:2620   */\n      jump(tag_114)\n    tag_116:\n        /* \"#utility.yul\":2654:2655   */\n      0x00\n        /* \"#utility.yul\":2645:2651   */\n      dup5\n        /* \"#utility.yul\":2640:2643   */\n      dup5\n        /* \"#utility.yul\":2636:2652   */\n      add\n        /* \"#utility.yul\":2629:2656   */\n      mstore\n        /* \"#utility.yul\":2478:2662   */\n      pop\n        /* \"#utility.yul\":2416:2662   */\n      pop\n      pop\n      pop\n      jump\t// out\n        /* \"#utility.yul\":2668:2770   */\n    tag_52:\n        /* \"#utility.yul\":2709:2715   */\n      0x00\n        /* \"#utility.yul\":2760:2762   */\n      0x1f\n        /* \"#utility.yul\":2756:2763   */\n      not\n        /* \"#utility.yul\":2751:2753   */\n      0x1f\n        /* \"#utility.yul\":2744:2749   */\n      dup4\n        /* \"#utility.yul\":2740:2754   */\n      add\n        /* \"#utility.yul\":2736:2764   */\n      and\n        /* \"#utility.yul\":2726:2764   */\n      swap1\n      pop\n        /* \"#utility.yul\":2668:2770   */\n      swap2\n      swap1\n      pop\n      jump\t// out\n        /* \"#utility.yul\":2776:3153   */\n    tag_53:\n        /* \"#utility.yul\":2864:2867   */\n      0x00\n        /* \"#utility.yul\":2892:2931   */\n      tag_119\n        /* \"#utility.yul\":2925:2930   */\n      dup3\n        /* \"#utility.yul\":2892:2931   */\n      tag_49\n      jump\t// in\n    tag_119:\n        /* \"#utility.yul\":2947:3018   */\n      tag_120\n        /* \"#utility.yul\":3011:3017   */\n      dup2\n        /* \"#utility.yul\":3006:3009   */\n      dup6\n        /* \"#utility.yul\":2947:3018   */\n      tag_50\n      jump\t// in\n    tag_120:\n        /* \"#utility.yul\":2940:3018   */\n      swap4\n      pop\n        /* \"#utility.yul\":3027:3092   */\n      tag_121\n        /* \"#utility.yul\":3085:3091   */\n      dup2\n        /* \"#utility.yul\":3080:3083   */\n      dup6\n        /* \"#utility.yul\":3073:3077   */\n      0x20\n        /* \"#utility.yul\":3066:3071   */\n      dup7\n        /* \"#utility.yul\":3062:3078   */\n      add\n        /* \"#utility.yul\":3027:3092   */\n      tag_51\n      jump\t// in\n    tag_121:\n        /* \"#utility.yul\":3117:3146   */\n      tag_122\n        /* \"#utility.yul\":3139:3145   */\n      dup2\n        /* \"#utility.yul\":3117:3146   */\n      tag_52\n      jump\t// in\n    tag_122:\n        /* \"#utility.yul\":3112:3115   */\n      dup5\n        /* \"#utility.yul\":3108:3147   */\n      add\n        /* \"#utility.yul\":3101:3147   */\n      swap2\n      pop\n        /* \"#utility.yul\":2868:3153   */\n      pop\n        /* \"#utility.yul\":2776:3153   */\n      swap3\n      swap2\n      pop\n      pop\n      jump\t// out\n        /* \"#utility.yul\":3159:3582   */\n    tag_15:\n        /* \"#utility.yul\":3300:3304   */\n      0x00\n        /* \"#utility.yul\":3338:3340   */\n      0x40\n        /* \"#utility.yul\":3327:3336   */\n      dup3\n        /* \"#utility.yul\":3323:3341   */\n      add\n        /* \"#utility.yul\":3315:3341   */\n      swap1\n      pop\n        /* \"#utility.yul\":3351:3422   */\n      tag_124\n        /* \"#utility.yul\":3419:3420   */\n      0x00\n        /* \"#utility.yul\":3408:3417   */\n      dup4\n        /* \"#utility.yul\":3404:3421   */\n      add\n        /* \"#utility.yul\":3395:3401   */\n      dup6\n        /* \"#utility.yul\":3351:3422   */\n      tag_48\n      jump\t// in\n    tag_124:\n        /* \"#utility.yul\":3469:3478   */\n      dup2\n        /* \"#utility.yul\":3463:3467   */\n      dup2\n        /* \"#utility.yul\":3459:3479   */\n      sub\n        /* \"#utility.yul\":3454:3456   */\n      0x20\n        /* \"#utility.yul\":3443:3452   */\n      dup4\n        /* \"#utility.yul\":3439:3457   */\n      add\n        /* \"#utility.yul\":3432:3480   */\n      mstore\n        /* \"#utility.yul\":3497:3575   */\n      tag_125\n        /* \"#utility.yul\":3570:3574   */\n      dup2\n        /* \"#utility.yul\":3561:3567   */\n      dup5\n        /* \"#utility.yul\":3497:3575   */\n      tag_53\n      jump\t// in\n    tag_125:\n        /* \"#utility.yul\":3489:3575   */\n      swap1\n      pop\n        /* \"#utility.yul\":3159:3582   */\n      swap4\n      swap3\n      pop\n      pop\n      pop\n      jump\t// out\n        /* \"#utility.yul\":3588:3705   */\n    tag_54:\n        /* \"#utility.yul\":3697:3698   */\n      0x00\n        /* \"#utility.yul\":3694:3695   */\n      dup1\n        /* \"#utility.yul\":3687:3699   */\n      revert\n        /* \"#utility.yul\":3711:3828   */\n    tag_55:\n        /* \"#utility.yul\":3820:3821   */\n      0x00\n        /* \"#utility.yul\":3817:3818   */\n      dup1\n        /* \"#utility.yul\":3810:3822   */\n      revert\n        /* \"#utility.yul\":3834:4014   */\n    tag_56:\n        /* \"#utility.yul\":3882:3959   */\n      0x4e487b7100000000000000000000000000000000000000000000000000000000\n        /* \"#utility.yul\":3879:3880   */\n      0x00\n        /* \"#utility.yul\":3872:3960   */\n      mstore\n        /* \"#utility.yul\":3979:3983   */\n      0x41\n        /* \"#utility.yul\":3976:3977   */\n      0x04\n        /* \"#utility.yul\":3969:3984   */\n      mstore\n        /* \"#utility.yul\":4003:4007   */\n      0x24\n        /* \"#utility.yul\":4000:4001   */\n      0x00\n        /* \"#utility.yul\":3993:4008   */\n      revert\n        /* \"#utility.yul\":4020:4301   */\n    tag_57:\n        /* \"#utility.yul\":4103:4130   */\n      tag_130\n        /* \"#utility.yul\":4125:4129   */\n      dup3\n        /* \"#utility.yul\":4103:4130   */\n      tag_52\n      jump\t// in\n    tag_130:\n        /* \"#utility.yul\":4095:4101   */\n      dup2\n        /* \"#utility.yul\":4091:4131   */\n      add\n        /* \"#utility.yul\":4233:4239   */\n      dup2\n        /* \"#utility.yul\":4221:4231   */\n      dup2\n        /* \"#utility.yul\":4218:4240   */\n      lt\n        /* \"#utility.yul\":4197:4215   */\n      0xffffffffffffffff\n        /* \"#utility.yul\":4185:4195   */\n      dup3\n        /* \"#utility.yul\":4182:4216   */\n      gt\n        /* \"#utility.yul\":4179:4241   */\n      or\n        /* \"#utility.yul\":4176:4264   */\n      iszero\n      tag_131\n      jumpi\n        /* \"#utility.yul\":4244:4262   */\n      tag_132\n      tag_56\n      jump\t// in\n    tag_132:\n        /* \"#utility.yul\":4176:4264   */\n    tag_131:\n        /* \"#utility.yul\":4284:4294   */\n      dup1\n        /* \"#utility.yul\":4280:4282   */\n      0x40\n        /* \"#utility.yul\":4273:4295   */\n      mstore\n        /* \"#utility.yul\":4063:4301   */\n      pop\n        /* \"#utility.yul\":4020:4301   */\n      pop\n      pop\n      jump\t// out\n        /* \"#utility.yul\":4307:4436   */\n    tag_58:\n        /* \"#utility.yul\":4341:4347   */\n      0x00\n        /* \"#utility.yul\":4368:4388   */\n      tag_134\n      tag_38\n      jump\t// in\n    tag_134:\n        /* \"#utility.yul\":4358:4388   */\n      swap1\n      pop\n        /* \"#utility.yul\":4397:4430   */\n      tag_135\n        /* \"#utility.yul\":4425:4429   */\n      dup3\n        /* \"#utility.yul\":4417:4423   */\n      dup3\n        /* \"#utility.yul\":4397:4430   */\n      tag_57\n      jump\t// in\n    tag_135:\n        /* \"#utility.yul\":4307:4436   */\n      swap2\n      swap1\n      pop\n      jump\t// out\n        /* \"#utility.yul\":4442:4750   */\n    tag_59:\n        /* \"#utility.yul\":4504:4508   */\n      0x00\n        /* \"#utility.yul\":4594:4612   */\n      0xffffffffffffffff\n        /* \"#utility.yul\":4586:4592   */\n      dup3\n        /* \"#utility.yul\":4583:4613   */\n      gt\n        /* \"#utility.yul\":4580:4636   */\n      iszero\n      tag_137\n      jumpi\n        /* \"#utility.yul\":4616:4634   */\n      tag_138\n      tag_56\n      jump\t// in\n    tag_138:\n        /* \"#utility.yul\":4580:4636   */\n    tag_137:\n        /* \"#utility.yul\":4654:4683   */\n      tag_139\n        /* \"#utility.yul\":4676:4682   */\n      dup3\n        /* \"#utility.yul\":4654:4683   */\n      tag_52\n      jump\t// in\n    tag_139:\n        /* \"#utility.yul\":4646:4683   */\n      swap1\n      pop\n        /* \"#utility.yul\":4738:4742   */\n      0x20\n        /* \"#utility.yul\":4732:4736   */\n      dup2\n        /* \"#utility.yul\":4728:4743   */\n      add\n        /* \"#utility.yul\":4720:4743   */\n      swap1\n      pop\n        /* \"#utility.yul\":4442:4750   */\n      swap2\n      swap1\n      pop\n      jump\t// out\n        /* \"#utility.yul\":4756:4902   */\n    tag_60:\n        /* \"#utility.yul\":4853:4859   */\n      dup3\n        /* \"#utility.yul\":4848:4851   */\n      dup2\n        /* \"#utility.yul\":4843:4846   */\n      dup4\n        /* \"#utility.yul\":4830:4860   */\n      calldatacopy\n        /* \"#utility.yul\":4894:4895   */\n      0x00\n        /* \"#utility.yul\":4885:4891   */\n      dup4\n        /* \"#utility.yul\":4880:4883   */\n      dup4\n        /* \"#utility.yul\":4876:4892   */\n      add\n        /* \"#utility.yul\":4869:4896   */\n      mstore\n        /* \"#utility.yul\":4756:4902   */\n      pop\n      pop\n      pop\n      jump\t// out\n        /* \"#utility.yul\":4908:5333   */\n    tag_61:\n        /* \"#utility.yul\":4986:4991   */\n      0x00\n        /* \"#utility.yul\":5011:5077   */\n      tag_142\n        /* \"#utility.yul\":5027:5076   */\n      tag_143\n        /* \"#utility.yul\":5069:5075   */\n      dup5\n        /* \"#utility.yul\":5027:5076   */\n      tag_59\n      jump\t// in\n    tag_143:\n        /* \"#utility.yul\":5011:5077   */\n      tag_58\n      jump\t// in\n    tag_142:\n        /* \"#utility.yul\":5002:5077   */\n      swap1\n      pop\n        /* \"#utility.yul\":5100:5106   */\n      dup3\n        /* \"#utility.yul\":5093:5098   */\n      dup2\n        /* \"#utility.yul\":5086:5107   */\n      mstore\n        /* \"#utility.yul\":5138:5142   */\n      0x20\n        /* \"#utility.yul\":5131:5136   */\n      dup2\n        /* \"#utility.yul\":5127:5143   */\n      add\n        /* \"#utility.yul\":5176:5179   */\n      dup5\n        /* \"#utility.yul\":5167:5173   */\n      dup5\n        /* \"#utility.yul\":5162:5165   */\n      dup5\n        /* \"#utility.yul\":5158:5174   */\n      add\n        /* \"#utility.yul\":5155:5180   */\n      gt\n        /* \"#utility.yul\":5152:5264   */\n      iszero\n      tag_144\n      jumpi\n        /* \"#utility.yul\":5183:5262   */\n      tag_145\n      tag_55\n      jump\t// in\n    tag_145:\n        /* \"#utility.yul\":5152:5264   */\n    tag_144:\n        /* \"#utility.yul\":5273:5327   */\n      tag_146\n        /* \"#utility.yul\":5320:5326   */\n      dup5\n        /* \"#utility.yul\":5315:5318   */\n      dup3\n        /* \"#utility.yul\":5310:5313   */\n      dup6\n        /* \"#utility.yul\":5273:5327   */\n      tag_60\n      jump\t// in\n    tag_146:\n        /* \"#utility.yul\":4992:5333   */\n      pop\n        /* \"#utility.yul\":4908:5333   */\n      swap4\n      swap3\n      pop\n      pop\n      pop\n      jump\t// out\n        /* \"#utility.yul\":5353:5693   */\n    tag_62:\n        /* \"#utility.yul\":5409:5414   */\n      0x00\n        /* \"#utility.yul\":5458:5461   */\n      dup3\n        /* \"#utility.yul\":5451:5455   */\n      0x1f\n        /* \"#utility.yul\":5443:5449   */\n      dup4\n        /* \"#utility.yul\":5439:5456   */\n      add\n        /* \"#utility.yul\":5435:5462   */\n      slt\n        /* \"#utility.yul\":5425:5547   */\n      tag_148\n      jumpi\n        /* \"#utility.yul\":5466:5545   */\n      tag_149\n      tag_54\n      jump\t// in\n    tag_149:\n        /* \"#utility.yul\":5425:5547   */\n    tag_148:\n        /* \"#utility.yul\":5583:5589   */\n      dup2\n        /* \"#utility.yul\":5570:5590   */\n      calldataload\n        /* \"#utility.yul\":5608:5687   */\n      tag_150\n        /* \"#utility.yul\":5683:5686   */\n      dup5\n        /* \"#utility.yul\":5675:5681   */\n      dup3\n        /* \"#utility.yul\":5668:5672   */\n      0x20\n        /* \"#utility.yul\":5660:5666   */\n      dup7\n        /* \"#utility.yul\":5656:5673   */\n      add\n        /* \"#utility.yul\":5608:5687   */\n      tag_61\n      jump\t// in\n    tag_150:\n        /* \"#utility.yul\":5599:5687   */\n      swap2\n      pop\n        /* \"#utility.yul\":5415:5693   */\n      pop\n        /* \"#utility.yul\":5353:5693   */\n      swap3\n      swap2\n      pop\n      pop\n      jump\t// out\n        /* \"#utility.yul\":5699:6208   */\n    tag_18:\n        /* \"#utility.yul\":5768:5774   */\n      0x00\n        /* \"#utility.yul\":5817:5819   */\n      0x20\n        /* \"#utility.yul\":5805:5814   */\n      dup3\n        /* \"#utility.yul\":5796:5803   */\n      dup5\n        /* \"#utility.yul\":5792:5815   */\n      sub\n        /* \"#utility.yul\":5788:5820   */\n      slt\n        /* \"#utility.yul\":5785:5904   */\n      iszero\n      tag_152\n      jumpi\n        /* \"#utility.yul\":5823:5902   */\n      tag_153\n      tag_39\n      jump\t// in\n    tag_153:\n        /* \"#utility.yul\":5785:5904   */\n    tag_152:\n        /* \"#utility.yul\":5971:5972   */\n      0x00\n        /* \"#utility.yul\":5960:5969   */\n      dup3\n        /* \"#utility.yul\":5956:5973   */\n      add\n        /* \"#utility.yul\":5943:5974   */\n      calldataload\n        /* \"#utility.yul\":6001:6019   */\n      0xffffffffffffffff\n        /* \"#utility.yul\":5993:5999   */\n      dup2\n        /* \"#utility.yul\":5990:6020   */\n      gt\n        /* \"#utility.yul\":5987:6104   */\n      iszero\n      tag_154\n      jumpi\n        /* \"#utility.yul\":6023:6102   */\n      tag_155\n      tag_40\n      jump\t// in\n    tag_155:\n        /* \"#utility.yul\":5987:6104   */\n    tag_154:\n        /* \"#utility.yul\":6128:6191   */\n      tag_156\n        /* \"#utility.yul\":6183:6190   */\n      dup5\n        /* \"#utility.yul\":6174:6180   */\n      dup3\n        /* \"#utility.yul\":6163:6172   */\n      dup6\n        /* \"#utility.yul\":6159:6181   */\n      add\n        /* \"#utility.yul\":6128:6191   */\n      tag_62\n      jump\t// in\n    tag_156:\n        /* \"#utility.yul\":6118:6191   */\n      swap2\n      pop\n        /* \"#utility.yul\":5914:6201   */\n      pop\n        /* \"#utility.yul\":5699:6208   */\n      swap3\n      swap2\n      pop\n      pop\n      jump\t// out\n        /* \"#utility.yul\":6214:6440   */\n    tag_63:\n        /* \"#utility.yul\":6354:6388   */\n      0x596f7520617265206e6f7420746865206f776e6572206f662074686520646174\n        /* \"#utility.yul\":6350:6351   */\n      0x00\n        /* \"#utility.yul\":6342:6348   */\n      dup3\n        /* \"#utility.yul\":6338:6352   */\n      add\n        /* \"#utility.yul\":6331:6389   */\n      mstore\n        /* \"#utility.yul\":6423:6432   */\n      0x6120656e74727900000000000000000000000000000000000000000000000000\n        /* \"#utility.yul\":6418:6420   */\n      0x20\n        /* \"#utility.yul\":6410:6416   */\n      dup3\n        /* \"#utility.yul\":6406:6421   */\n      add\n        /* \"#utility.yul\":6399:6433   */\n      mstore\n        /* \"#utility.yul\":6214:6440   */\n      pop\n      jump\t// out\n        /* \"#utility.yul\":6446:6812   */\n    tag_64:\n        /* \"#utility.yul\":6588:6591   */\n      0x00\n        /* \"#utility.yul\":6609:6676   */\n      tag_159\n        /* \"#utility.yul\":6673:6675   */\n      0x27\n        /* \"#utility.yul\":6668:6671   */\n      dup4\n        /* \"#utility.yul\":6609:6676   */\n      tag_50\n      jump\t// in\n    tag_159:\n        /* \"#utility.yul\":6602:6676   */\n      swap2\n      pop\n        /* \"#utility.yul\":6685:6778   */\n      tag_160\n        /* \"#utility.yul\":6774:6777   */\n      dup3\n        /* \"#utility.yul\":6685:6778   */\n      tag_63\n      jump\t// in\n    tag_160:\n        /* \"#utility.yul\":6803:6805   */\n      0x40\n        /* \"#utility.yul\":6798:6801   */\n      dup3\n        /* \"#utility.yul\":6794:6806   */\n      add\n        /* \"#utility.yul\":6787:6806   */\n      swap1\n      pop\n        /* \"#utility.yul\":6446:6812   */\n      swap2\n      swap1\n      pop\n      jump\t// out\n        /* \"#utility.yul\":6818:7237   */\n    tag_23:\n        /* \"#utility.yul\":6984:6988   */\n      0x00\n        /* \"#utility.yul\":7022:7024   */\n      0x20\n        /* \"#utility.yul\":7011:7020   */\n      dup3\n        /* \"#utility.yul\":7007:7025   */\n      add\n        /* \"#utility.yul\":6999:7025   */\n      swap1\n      pop\n        /* \"#utility.yul\":7071:7080   */\n      dup2\n        /* \"#utility.yul\":7065:7069   */\n      dup2\n        /* \"#utility.yul\":7061:7081   */\n      sub\n        /* \"#utility.yul\":7057:7058   */\n      0x00\n        /* \"#utility.yul\":7046:7055   */\n      dup4\n        /* \"#utility.yul\":7042:7059   */\n      add\n        /* \"#utility.yul\":7035:7082   */\n      mstore\n        /* \"#utility.yul\":7099:7230   */\n      tag_162\n        /* \"#utility.yul\":7225:7229   */\n      dup2\n        /* \"#utility.yul\":7099:7230   */\n      tag_64\n      jump\t// in\n    tag_162:\n        /* \"#utility.yul\":7091:7230   */\n      swap1\n      pop\n        /* \"#utility.yul\":6818:7237   */\n      swap2\n      swap1\n      pop\n      jump\t// out\n        /* \"#utility.yul\":7243:7423   */\n    tag_65:\n        /* \"#utility.yul\":7291:7368   */\n      0x4e487b7100000000000000000000000000000000000000000000000000000000\n        /* \"#utility.yul\":7288:7289   */\n      0x00\n        /* \"#utility.yul\":7281:7369   */\n      mstore\n        /* \"#utility.yul\":7388:7392   */\n      0x22\n        /* \"#utility.yul\":7385:7386   */\n      0x04\n        /* \"#utility.yul\":7378:7393   */\n      mstore\n        /* \"#utility.yul\":7412:7416   */\n      0x24\n        /* \"#utility.yul\":7409:7410   */\n      0x00\n        /* \"#utility.yul\":7402:7417   */\n      revert\n        /* \"#utility.yul\":7429:7749   */\n    tag_26:\n        /* \"#utility.yul\":7473:7479   */\n      0x00\n        /* \"#utility.yul\":7510:7511   */\n      0x02\n        /* \"#utility.yul\":7504:7508   */\n      dup3\n        /* \"#utility.yul\":7500:7512   */\n      div\n        /* \"#utility.yul\":7490:7512   */\n      swap1\n      pop\n        /* \"#utility.yul\":7557:7558   */\n      0x01\n        /* \"#utility.yul\":7551:7555   */\n      dup3\n        /* \"#utility.yul\":7547:7559   */\n      and\n        /* \"#utility.yul\":7578:7596   */\n      dup1\n        /* \"#utility.yul\":7568:7649   */\n      tag_165\n      jumpi\n        /* \"#utility.yul\":7634:7638   */\n      0x7f\n        /* \"#utility.yul\":7626:7632   */\n      dup3\n        /* \"#utility.yul\":7622:7639   */\n      and\n        /* \"#utility.yul\":7612:7639   */\n      swap2\n      pop\n        /* \"#utility.yul\":7568:7649   */\n    tag_165:\n        /* \"#utility.yul\":7696:7698   */\n      0x20\n        /* \"#utility.yul\":7688:7694   */\n      dup3\n        /* \"#utility.yul\":7685:7699   */\n      lt\n        /* \"#utility.yul\":7665:7683   */\n      dup2\n        /* \"#utility.yul\":7662:7700   */\n      sub\n        /* \"#utility.yul\":7659:7743   */\n      tag_166\n      jumpi\n        /* \"#utility.yul\":7715:7733   */\n      tag_167\n      tag_65\n      jump\t// in\n    tag_167:\n        /* \"#utility.yul\":7659:7743   */\n    tag_166:\n        /* \"#utility.yul\":7480:7749   */\n      pop\n        /* \"#utility.yul\":7429:7749   */\n      swap2\n      swap1\n      pop\n      jump\t// out\n        /* \"#utility.yul\":7755:7935   */\n    tag_66:\n        /* \"#utility.yul\":7803:7880   */\n      0x4e487b7100000000000000000000000000000000000000000000000000000000\n        /* \"#utility.yul\":7800:7801   */\n      0x00\n        /* \"#utility.yul\":7793:7881   */\n      mstore\n        /* \"#utility.yul\":7900:7904   */\n      0x11\n        /* \"#utility.yul\":7897:7898   */\n      0x04\n        /* \"#utility.yul\":7890:7905   */\n      mstore\n        /* \"#utility.yul\":7924:7928   */\n      0x24\n        /* \"#utility.yul\":7921:7922   */\n      0x00\n        /* \"#utility.yul\":7914:7929   */\n      revert\n        /* \"#utility.yul\":7941:8174   */\n    tag_33:\n        /* \"#utility.yul\":7980:7983   */\n      0x00\n        /* \"#utility.yul\":8003:8027   */\n      tag_170\n        /* \"#utility.yul\":8021:8026   */\n      dup3\n        /* \"#utility.yul\":8003:8027   */\n      tag_41\n      jump\t// in\n    tag_170:\n        /* \"#utility.yul\":7994:8027   */\n      swap2\n      pop\n        /* \"#utility.yul\":8049:8115   */\n      0xffffffffffffffffffffffffffffffffffffffffffffffffffffffffffffffff\n        /* \"#utility.yul\":8042:8047   */\n      dup3\n        /* \"#utility.yul\":8039:8116   */\n      sub\n        /* \"#utility.yul\":8036:8139   */\n      tag_171\n      jumpi\n        /* \"#utility.yul\":8119:8137   */\n      tag_172\n      tag_66\n      jump\t// in\n    tag_172:\n        /* \"#utility.yul\":8036:8139   */\n    tag_171:\n        /* \"#utility.yul\":8166:8167   */\n      0x01\n        /* \"#utility.yul\":8159:8164   */\n      dup3\n        /* \"#utility.yul\":8155:8168   */\n      add\n        /* \"#utility.yul\":8148:8168   */\n      swap1\n      pop\n        /* \"#utility.yul\":7941:8174   */\n      swap2\n      swap1\n      pop\n      jump\t// out\n        /* \"#utility.yul\":8180:8321   */\n    tag_67:\n        /* \"#utility.yul\":8229:8233   */\n      0x00\n        /* \"#utility.yul\":8252:8255   */\n      dup2\n        /* \"#utility.yul\":8244:8255   */\n      swap1\n      pop\n        /* \"#utility.yul\":8275:8278   */\n      dup2\n        /* \"#utility.yul\":8272:8273   */\n      0x00\n        /* \"#utility.yul\":8265:8279   */\n      mstore\n        /* \"#utility.yul\":8309:8313   */\n      0x20\n        /* \"#utility.yul\":8306:8307   */\n      0x00\n        /* \"#utility.yul\":8296:8314   */\n      keccak256\n        /* \"#utility.yul\":8288:8314   */\n      swap1\n      pop\n        /* \"#utility.yul\":8180:8321   */\n      swap2\n      swap1\n      pop\n      jump\t// out\n        /* \"#utility.yul\":8327:8420   */\n    tag_68:\n        /* \"#utility.yul\":8364:8370   */\n      0x00\n        /* \"#utility.yul\":8411:8413   */\n      0x20\n        /* \"#utility.yul\":8406:8408   */\n      0x1f\n        /* \"#utility.yul\":8399:8404   */\n      dup4\n        /* \"#utility.yul\":8395:8409   */\n      add\n        /* \"#utility.yul\":8391:8414   */\n      div\n        /* \"#utility.yul\":8381:8414   */\n      swap1\n      pop\n        /* \"#utility.yul\":8327:8420   */\n      swap2\n      swap1\n      pop\n      jump\t// out\n        /* \"#utility.yul\":8426:8533   */\n    tag_69:\n        /* \"#utility.yul\":8470:8478   */\n      0x00\n        /* \"#utility.yul\":8520:8525   */\n      dup3\n        /* \"#utility.yul\":8514:8518   */\n      dup3\n        /* \"#utility.yul\":8510:8526   */\n      shl\n        /* \"#utility.yul\":8489:8526   */\n      swap1\n      pop\n        /* \"#utility.yul\":8426:8533   */\n      swap3\n      swap2\n      pop\n      pop\n      jump\t// out\n        /* \"#utility.yul\":8539:8932   */\n    tag_70:\n        /* \"#utility.yul\":8608:8614   */\n      0x00\n        /* \"#utility.yul\":8658:8659   */\n      0x08\n        /* \"#utility.yul\":8646:8656   */\n      dup4\n        /* \"#utility.yul\":8642:8660   */\n      mul\n        /* \"#utility.yul\":8681:8778   */\n      tag_177\n        /* \"#utility.yul\":8711:8777   */\n      0xffffffffffffffffffffffffffffffffffffffffffffffffffffffffffffffff\n        /* \"#utility.yul\":8700:8709   */\n      dup3\n        /* \"#utility.yul\":8681:8778   */\n      tag_69\n      jump\t// in\n    tag_177:\n        /* \"#utility.yul\":8799:8838   */\n      tag_178\n        /* \"#utility.yul\":8829:8837   */\n      dup7\n        /* \"#utility.yul\":8818:8827   */\n      dup4\n        /* \"#utility.yul\":8799:8838   */\n      tag_69\n      jump\t// in\n    tag_178:\n        /* \"#utility.yul\":8787:8838   */\n      swap6\n      pop\n        /* \"#utility.yul\":8871:8875   */\n      dup1\n        /* \"#utility.yul\":8867:8876   */\n      not\n        /* \"#utility.yul\":8860:8865   */\n      dup5\n        /* \"#utility.yul\":8856:8877   */\n      and\n        /* \"#utility.yul\":8847:8877   */\n      swap4\n      pop\n        /* \"#utility.yul\":8920:8924   */\n      dup1\n        /* \"#utility.yul\":8910:8918   */\n      dup7\n        /* \"#utility.yul\":8906:8925   */\n      and\n        /* \"#utility.yul\":8899:8904   */\n      dup5\n        /* \"#utility.yul\":8896:8926   */\n      or\n        /* \"#utility.yul\":8886:8926   */\n      swap3\n      pop\n        /* \"#utility.yul\":8615:8932   */\n      pop\n      pop\n        /* \"#utility.yul\":8539:8932   */\n      swap4\n      swap3\n      pop\n      pop\n      pop\n      jump\t// out\n        /* \"#utility.yul\":8938:8998   */\n    tag_71:\n        /* \"#utility.yul\":8966:8969   */\n      0x00\n        /* \"#utility.yul\":8987:8992   */\n      dup2\n        /* \"#utility.yul\":8980:8992   */\n      swap1\n      pop\n        /* \"#utility.yul\":8938:8998   */\n      swap2\n      swap1\n      pop\n      jump\t// out\n        /* \"#utility.yul\":9004:9146   */\n    tag_72:\n        /* \"#utility.yul\":9054:9063   */\n      0x00\n        /* \"#utility.yul\":9087:9140   */\n      tag_181\n        /* \"#utility.yul\":9105:9139   */\n      tag_182\n        /* \"#utility.yul\":9114:9138   */\n      tag_183\n        /* \"#utility.yul\":9132:9137   */\n      dup5\n        /* \"#utility.yul\":9114:9138   */\n      tag_41\n      jump\t// in\n    tag_183:\n        /* \"#utility.yul\":9105:9139   */\n      tag_71\n      jump\t// in\n    tag_182:\n        /* \"#utility.yul\":9087:9140   */\n      tag_41\n      jump\t// in\n    tag_181:\n        /* \"#utility.yul\":9074:9140   */\n      swap1\n      pop\n        /* \"#utility.yul\":9004:9146   */\n      swap2\n      swap1\n      pop\n      jump\t// out\n        /* \"#utility.yul\":9152:9227   */\n    tag_73:\n        /* \"#utility.yul\":9195:9198   */\n      0x00\n        /* \"#utility.yul\":9216:9221   */\n      dup2\n        /* \"#utility.yul\":9209:9221   */\n      swap1\n      pop\n        /* \"#utility.yul\":9152:9227   */\n      swap2\n      swap1\n      pop\n      jump\t// out\n        /* \"#utility.yul\":9233:9502   */\n    tag_74:\n        /* \"#utility.yul\":9343:9382   */\n      tag_186\n        /* \"#utility.yul\":9374:9381   */\n      dup4\n        /* \"#utility.yul\":9343:9382   */\n      tag_72\n      jump\t// in\n    tag_186:\n        /* \"#utility.yul\":9404:9495   */\n      tag_187\n        /* \"#utility.yul\":9453:9494   */\n      tag_188\n        /* \"#utility.yul\":9477:9493   */\n      dup3\n        /* \"#utility.yul\":9453:9494   */\n      tag_73\n      jump\t// in\n    tag_188:\n        /* \"#utility.yul\":9445:9451   */\n      dup5\n        /* \"#utility.yul\":9438:9442   */\n      dup5\n        /* \"#utility.yul\":9432:9443   */\n      sload\n        /* \"#utility.yul\":9404:9495   */\n      tag_70\n      jump\t// in\n    tag_187:\n        /* \"#utility.yul\":9398:9402   */\n      dup3\n        /* \"#utility.yul\":9391:9496   */\n      sstore\n        /* \"#utility.yul\":9309:9502   */\n      pop\n        /* \"#utility.yul\":9233:9502   */\n      pop\n      pop\n      pop\n      jump\t// out\n        /* \"#utility.yul\":9508:9581   */\n    tag_75:\n        /* \"#utility.yul\":9553:9556   */\n      0x00\n        /* \"#utility.yul\":9508:9581   */\n      swap1\n      jump\t// out\n        /* \"#utility.yul\":9587:9776   */\n    tag_76:\n        /* \"#utility.yul\":9664:9696   */\n      tag_191\n      tag_75\n      jump\t// in\n    tag_191:\n        /* \"#utility.yul\":9705:9770   */\n      tag_192\n        /* \"#utility.yul\":9763:9769   */\n      dup2\n        /* \"#utility.yul\":9755:9761   */\n      dup5\n        /* \"#utility.yul\":9749:9753   */\n      dup5\n        /* \"#utility.yul\":9705:9770   */\n      tag_74\n      jump\t// in\n    tag_192:\n        /* \"#utility.yul\":9640:9776   */\n      pop\n        /* \"#utility.yul\":9587:9776   */\n      pop\n      pop\n      jump\t// out\n        /* \"#utility.yul\":9782:9968   */\n    tag_77:\n        /* \"#utility.yul\":9842:9962   */\n    tag_194:\n        /* \"#utility.yul\":9859:9862   */\n      dup2\n        /* \"#utility.yul\":9852:9857   */\n      dup2\n        /* \"#utility.yul\":9849:9863   */\n      lt\n        /* \"#utility.yul\":9842:9962   */\n      iszero\n      tag_196\n      jumpi\n        /* \"#utility.yul\":9913:9952   */\n      tag_197\n        /* \"#utility.yul\":9950:9951   */\n      0x00\n        /* \"#utility.yul\":9943:9948   */\n      dup3\n        /* \"#utility.yul\":9913:9952   */\n      tag_76\n      jump\t// in\n    tag_197:\n        /* \"#utility.yul\":9886:9887   */\n      0x01\n        /* \"#utility.yul\":9879:9884   */\n      dup2\n        /* \"#utility.yul\":9875:9888   */\n      add\n        /* \"#utility.yul\":9866:9888   */\n      swap1\n      pop\n        /* \"#utility.yul\":9842:9962   */\n      jump(tag_194)\n    tag_196:\n        /* \"#utility.yul\":9782:9968   */\n      pop\n      pop\n      jump\t// out\n        /* \"#utility.yul\":9974:10517   */\n    tag_78:\n        /* \"#utility.yul\":10075:10077   */\n      0x1f\n        /* \"#utility.yul\":10070:10073   */\n      dup3\n        /* \"#utility.yul\":10067:10078   */\n      gt\n        /* \"#utility.yul\":10064:10510   */\n      iszero\n      tag_199\n      jumpi\n        /* \"#utility.yul\":10109:10147   */\n      tag_200\n        /* \"#utility.yul\":10141:10146   */\n      dup2\n        /* \"#utility.yul\":10109:10147   */\n      tag_67\n      jump\t// in\n    tag_200:\n        /* \"#utility.yul\":10193:10222   */\n      tag_201\n        /* \"#utility.yul\":10211:10221   */\n      dup5\n        /* \"#utility.yul\":10193:10222   */\n      tag_68\n      jump\t// in\n    tag_201:\n        /* \"#utility.yul\":10183:10191   */\n      dup2\n        /* \"#utility.yul\":10179:10223   */\n      add\n        /* \"#utility.yul\":10376:10378   */\n      0x20\n        /* \"#utility.yul\":10364:10374   */\n      dup6\n        /* \"#utility.yul\":10361:10379   */\n      lt\n        /* \"#utility.yul\":10358:10407   */\n      iszero\n      tag_202\n      jumpi\n        /* \"#utility.yul\":10397:10405   */\n      dup2\n        /* \"#utility.yul\":10382:10405   */\n      swap1\n      pop\n        /* \"#utility.yul\":10358:10407   */\n    tag_202:\n        /* \"#utility.yul\":10420:10500   */\n      tag_203\n        /* \"#utility.yul\":10476:10498   */\n      tag_204\n        /* \"#utility.yul\":10494:10497   */\n      dup6\n        /* \"#utility.yul\":10476:10498   */\n      tag_68\n      jump\t// in\n    tag_204:\n        /* \"#utility.yul\":10466:10474   */\n      dup4\n        /* \"#utility.yul\":10462:10499   */\n      add\n        /* \"#utility.yul\":10449:10460   */\n      dup3\n        /* \"#utility.yul\":10420:10500   */\n      tag_77\n      jump\t// in\n    tag_203:\n        /* \"#utility.yul\":10079:10510   */\n      pop\n      pop\n        /* \"#utility.yul\":10064:10510   */\n    tag_199:\n        /* \"#utility.yul\":9974:10517   */\n      pop\n      pop\n      pop\n      jump\t// out\n        /* \"#utility.yul\":10523:10640   */\n    tag_79:\n        /* \"#utility.yul\":10577:10585   */\n      0x00\n        /* \"#utility.yul\":10627:10632   */\n      dup3\n        /* \"#utility.yul\":10621:10625   */\n      dup3\n        /* \"#utility.yul\":10617:10633   */\n      shr\n        /* \"#utility.yul\":10596:10633   */\n      swap1\n      pop\n        /* \"#utility.yul\":10523:10640   */\n      swap3\n      swap2\n      pop\n      pop\n      jump\t// out\n        /* \"#utility.yul\":10646:10815   */\n    tag_80:\n        /* \"#utility.yul\":10690:10696   */\n      0x00\n        /* \"#utility.yul\":10723:10774   */\n      tag_207\n        /* \"#utility.yul\":10771:10772   */\n      0x00\n        /* \"#utility.yul\":10767:10773   */\n      not\n        /* \"#utility.yul\":10759:10764   */\n      dup5\n        /* \"#utility.yul\":10756:10757   */\n      0x08\n        /* \"#utility.yul\":10752:10765   */\n      mul\n        /* \"#utility.yul\":10723:10774   */\n      tag_79\n      jump\t// in\n    tag_207:\n        /* \"#utility.yul\":10719:10775   */\n      not\n        /* \"#utility.yul\":10804:10808   */\n      dup1\n        /* \"#utility.yul\":10798:10802   */\n      dup4\n        /* \"#utility.yul\":10794:10809   */\n      and\n        /* \"#utility.yul\":10784:10809   */\n      swap2\n      pop\n        /* \"#utility.yul\":10697:10815   */\n      pop\n        /* \"#utility.yul\":10646:10815   */\n      swap3\n      swap2\n      pop\n      pop\n      jump\t// out\n        /* \"#utility.yul\":10820:11115   */\n    tag_81:\n        /* \"#utility.yul\":10896:10900   */\n      0x00\n        /* \"#utility.yul\":11042:11071   */\n      tag_209\n        /* \"#utility.yul\":11067:11070   */\n      dup4\n        /* \"#utility.yul\":11061:11065   */\n      dup4\n        /* \"#utility.yul\":11042:11071   */\n      tag_80\n      jump\t// in\n    tag_209:\n        /* \"#utility.yul\":11034:11071   */\n      swap2\n      pop\n        /* \"#utility.yul\":11104:11107   */\n      dup3\n        /* \"#utility.yul\":11101:11102   */\n      0x02\n        /* \"#utility.yul\":11097:11108   */\n      mul\n        /* \"#utility.yul\":11091:11095   */\n      dup3\n        /* \"#utility.yul\":11088:11109   */\n      or\n        /* \"#utility.yul\":11080:11109   */\n      swap1\n      pop\n        /* \"#utility.yul\":10820:11115   */\n      swap3\n      swap2\n      pop\n      pop\n      jump\t// out\n        /* \"#utility.yul\":11120:12515   */\n    tag_35:\n        /* \"#utility.yul\":11237:11274   */\n      tag_211\n        /* \"#utility.yul\":11270:11273   */\n      dup3\n        /* \"#utility.yul\":11237:11274   */\n      tag_49\n      jump\t// in\n    tag_211:\n        /* \"#utility.yul\":11339:11357   */\n      0xffffffffffffffff\n        /* \"#utility.yul\":11331:11337   */\n      dup2\n        /* \"#utility.yul\":11328:11358   */\n      gt\n        /* \"#utility.yul\":11325:11381   */\n      iszero\n      tag_212\n      jumpi\n        /* \"#utility.yul\":11361:11379   */\n      tag_213\n      tag_56\n      jump\t// in\n    tag_213:\n        /* \"#utility.yul\":11325:11381   */\n    tag_212:\n        /* \"#utility.yul\":11405:11443   */\n      tag_214\n        /* \"#utility.yul\":11437:11441   */\n      dup3\n        /* \"#utility.yul\":11431:11442   */\n      sload\n        /* \"#utility.yul\":11405:11443   */\n      tag_26\n      jump\t// in\n    tag_214:\n        /* \"#utility.yul\":11490:11557   */\n      tag_215\n        /* \"#utility.yul\":11550:11556   */\n      dup3\n        /* \"#utility.yul\":11542:11548   */\n      dup3\n        /* \"#utility.yul\":11536:11540   */\n      dup6\n        /* \"#utility.yul\":11490:11557   */\n      tag_78\n      jump\t// in\n    tag_215:\n        /* \"#utility.yul\":11584:11585   */\n      0x00\n        /* \"#utility.yul\":11608:11612   */\n      0x20\n        /* \"#utility.yul\":11595:11612   */\n      swap1\n      pop\n        /* \"#utility.yul\":11640:11642   */\n      0x1f\n        /* \"#utility.yul\":11632:11638   */\n      dup4\n        /* \"#utility.yul\":11629:11643   */\n      gt\n        /* \"#utility.yul\":11657:11658   */\n      0x01\n        /* \"#utility.yul\":11652:12270   */\n      dup2\n      eq\n      tag_217\n      jumpi\n        /* \"#utility.yul\":12314:12315   */\n      0x00\n        /* \"#utility.yul\":12331:12337   */\n      dup5\n        /* \"#utility.yul\":12328:12405   */\n      iszero\n      tag_218\n      jumpi\n        /* \"#utility.yul\":12380:12389   */\n      dup3\n        /* \"#utility.yul\":12375:12378   */\n      dup8\n        /* \"#utility.yul\":12371:12390   */\n      add\n        /* \"#utility.yul\":12365:12391   */\n      mload\n        /* \"#utility.yul\":12356:12391   */\n      swap1\n      pop\n        /* \"#utility.yul\":12328:12405   */\n    tag_218:\n        /* \"#utility.yul\":12431:12498   */\n      tag_219\n        /* \"#utility.yul\":12491:12497   */\n      dup6\n        /* \"#utility.yul\":12484:12489   */\n      dup3\n        /* \"#utility.yul\":12431:12498   */\n      tag_81\n      jump\t// in\n    tag_219:\n        /* \"#utility.yul\":12425:12429   */\n      dup7\n        /* \"#utility.yul\":12418:12499   */\n      sstore\n        /* \"#utility.yul\":12287:12509   */\n      pop\n        /* \"#utility.yul\":11622:12509   */\n      jump(tag_216)\n        /* \"#utility.yul\":11652:12270   */\n    tag_217:\n        /* \"#utility.yul\":11704:11708   */\n      0x1f\n        /* \"#utility.yul\":11700:11709   */\n      not\n        /* \"#utility.yul\":11692:11698   */\n      dup5\n        /* \"#utility.yul\":11688:11710   */\n      and\n        /* \"#utility.yul\":11738:11775   */\n      tag_220\n        /* \"#utility.yul\":11770:11774   */\n      dup7\n        /* \"#utility.yul\":11738:11775   */\n      tag_67\n      jump\t// in\n    tag_220:\n        /* \"#utility.yul\":11797:11798   */\n      0x00\n        /* \"#utility.yul\":11811:12019   */\n    tag_221:\n        /* \"#utility.yul\":11825:11832   */\n      dup3\n        /* \"#utility.yul\":11822:11823   */\n      dup2\n        /* \"#utility.yul\":11819:11833   */\n      lt\n        /* \"#utility.yul\":11811:12019   */\n      iszero\n      tag_223\n      jumpi\n        /* \"#utility.yul\":11904:11913   */\n      dup5\n        /* \"#utility.yul\":11899:11902   */\n      dup10\n        /* \"#utility.yul\":11895:11914   */\n      add\n        /* \"#utility.yul\":11889:11915   */\n      mload\n        /* \"#utility.yul\":11881:11887   */\n      dup3\n        /* \"#utility.yul\":11874:11916   */\n      sstore\n        /* \"#utility.yul\":11955:11956   */\n      0x01\n        /* \"#utility.yul\":11947:11953   */\n      dup3\n        /* \"#utility.yul\":11943:11957   */\n      add\n        /* \"#utility.yul\":11933:11957   */\n      swap2\n      pop\n        /* \"#utility.yul\":12002:12004   */\n      0x20\n        /* \"#utility.yul\":11991:12000   */\n      dup6\n        /* \"#utility.yul\":11987:12005   */\n      add\n        /* \"#utility.yul\":11974:12005   */\n      swap5\n      pop\n        /* \"#utility.yul\":11848:11852   */\n      0x20\n        /* \"#utility.yul\":11845:11846   */\n      dup2\n        /* \"#utility.yul\":11841:11853   */\n      add\n        /* \"#utility.yul\":11836:11853   */\n      swap1\n      pop\n        /* \"#utility.yul\":11811:12019   */\n      jump(tag_221)\n    tag_223:\n        /* \"#utility.yul\":12047:12053   */\n      dup7\n        /* \"#utility.yul\":12038:12045   */\n      dup4\n        /* \"#utility.yul\":12035:12054   */\n      lt\n        /* \"#utility.yul\":12032:12211   */\n      iszero\n      tag_224\n      jumpi\n        /* \"#utility.yul\":12105:12114   */\n      dup5\n        /* \"#utility.yul\":12100:12103   */\n      dup10\n        /* \"#utility.yul\":12096:12115   */\n      add\n        /* \"#utility.yul\":12090:12116   */\n      mload\n        /* \"#utility.yul\":12148:12196   */\n      tag_225\n        /* \"#utility.yul\":12190:12194   */\n      0x1f\n        /* \"#utility.yul\":12182:12188   */\n      dup10\n        /* \"#utility.yul\":12178:12195   */\n      and\n        /* \"#utility.yul\":12167:12176   */\n      dup3\n        /* \"#utility.yul\":12148:12196   */\n      tag_80\n      jump\t// in\n    tag_225:\n        /* \"#utility.yul\":12140:12146   */\n      dup4\n        /* \"#utility.yul\":12133:12197   */\n      sstore\n        /* \"#utility.yul\":12055:12211   */\n      pop\n        /* \"#utility.yul\":12032:12211   */\n    tag_224:\n        /* \"#utility.yul\":12257:12258   */\n      0x01\n        /* \"#utility.yul\":12253:12254   */\n      0x02\n        /* \"#utility.yul\":12245:12251   */\n      dup9\n        /* \"#utility.yul\":12241:12255   */\n      mul\n        /* \"#utility.yul\":12237:12259   */\n      add\n        /* \"#utility.yul\":12231:12235   */\n      dup9\n        /* \"#utility.yul\":12224:12260   */\n      sstore\n        /* \"#utility.yul\":11659:12270   */\n      pop\n      pop\n      pop\n        /* \"#utility.yul\":11622:12509   */\n    tag_216:\n      pop\n        /* \"#utility.yul\":11212:12515   */\n      pop\n      pop\n      pop\n        /* \"#utility.yul\":11120:12515   */\n      pop\n      pop\n      jump\t// out\n        /* \"#utility.yul\":12521:12834   */\n    tag_37:\n        /* \"#utility.yul\":12634:12638   */\n      0x00\n        /* \"#utility.yul\":12672:12674   */\n      0x20\n        /* \"#utility.yul\":12661:12670   */\n      dup3\n        /* \"#utility.yul\":12657:12675   */\n      add\n        /* \"#utility.yul\":12649:12675   */\n      swap1\n      pop\n        /* \"#utility.yul\":12721:12730   */\n      dup2\n        /* \"#utility.yul\":12715:12719   */\n      dup2\n        /* \"#utility.yul\":12711:12731   */\n      sub\n        /* \"#utility.yul\":12707:12708   */\n      0x00\n        /* \"#utility.yul\":12696:12705   */\n      dup4\n        /* \"#utility.yul\":12692:12709   */\n      add\n        /* \"#utility.yul\":12685:12732   */\n      mstore\n        /* \"#utility.yul\":12749:12827   */\n      tag_227\n        /* \"#utility.yul\":12822:12826   */\n      dup2\n        /* \"#utility.yul\":12813:12819   */\n      dup5\n        /* \"#utility.yul\":12749:12827   */\n      tag_53\n      jump\t// in\n    tag_227:\n        /* \"#utility.yul\":12741:12827   */\n      swap1\n      pop\n        /* \"#utility.yul\":12521:12834   */\n      swap3\n      swap2\n      pop\n      pop\n      jump\t// out\n\n    auxdata: 0xa2646970667358221220aa029be605412e0c17a022b87a666de061bfcb4a9c2af0f8b717274b6d82e22864736f6c63430008120033\n}\n",
				"bytecode": {
					"linkReferences": {},
					"object": "608060405234801561001057600080fd5b50610b7f806100206000396000f3fe608060405234801561001057600080fd5b50600436106100415760003560e01c8063eca5343a14610046578063f75d8ada14610062578063fb218f5f14610093575b600080fd5b610060600480360381019061005b9190610486565b6100af565b005b61007c600480360381019061007791906104c6565b6101fa565b60405161008a929190610592565b60405180910390f35b6100ad60048036038101906100a891906106f7565b6102d3565b005b600080600084815260200190815260200160002090503373ffffffffffffffffffffffffffffffffffffffff168160000160009054906101000a900473ffffffffffffffffffffffffffffffffffffffff1673ffffffffffffffffffffffffffffffffffffffff1614610157576040517f08c379a000000000000000000000000000000000000000000000000000000000815260040161014e906107b2565b60405180910390fd5b818160000160006101000a81548173ffffffffffffffffffffffffffffffffffffffff021916908373ffffffffffffffffffffffffffffffffffffffff1602179055508173ffffffffffffffffffffffffffffffffffffffff163373ffffffffffffffffffffffffffffffffffffffff16847f03c2228d803843715da05894c8b0f90b4a80cbfc618a268031091b713969717660405160405180910390a4505050565b60006060600080600085815260200190815260200160002090508060000160009054906101000a900473ffffffffffffffffffffffffffffffffffffffff168160010180805461024990610801565b80601f016020809104026020016040519081016040528092919081815260200182805461027590610801565b80156102c25780601f10610297576101008083540402835291602001916102c2565b820191906000526020600020905b8154815290600101906020018083116102a557829003601f168201915b505050505090509250925050915091565b600160008154809291906102e690610861565b919050555060405180604001604052803373ffffffffffffffffffffffffffffffffffffffff16815260200182815250600080600154815260200190815260200160002060008201518160000160006101000a81548173ffffffffffffffffffffffffffffffffffffffff021916908373ffffffffffffffffffffffffffffffffffffffff16021790555060208201518160010190816103869190610a55565b509050503373ffffffffffffffffffffffffffffffffffffffff166001547f632fb8d70caa7976aa17a1528dbb14fd2b3a577de3b2cfa3a048cf53cb658474836040516103d39190610b27565b60405180910390a350565b6000604051905090565b600080fd5b600080fd5b6000819050919050565b610405816103f2565b811461041057600080fd5b50565b600081359050610422816103fc565b92915050565b600073ffffffffffffffffffffffffffffffffffffffff82169050919050565b600061045382610428565b9050919050565b61046381610448565b811461046e57600080fd5b50565b6000813590506104808161045a565b92915050565b6000806040838503121561049d5761049c6103e8565b5b60006104ab85828601610413565b92505060206104bc85828601610471565b9150509250929050565b6000602082840312156104dc576104db6103e8565b5b60006104ea84828501610413565b91505092915050565b6104fc81610448565b82525050565b600081519050919050565b600082825260208201905092915050565b60005b8381101561053c578082015181840152602081019050610521565b60008484015250505050565b6000601f19601f8301169050919050565b600061056482610502565b61056e818561050d565b935061057e81856020860161051e565b61058781610548565b840191505092915050565b60006040820190506105a760008301856104f3565b81810360208301526105b98184610559565b90509392505050565b600080fd5b600080fd5b7f4e487b7100000000000000000000000000000000000000000000000000000000600052604160045260246000fd5b61060482610548565b810181811067ffffffffffffffff82111715610623576106226105cc565b5b80604052505050565b60006106366103de565b905061064282826105fb565b919050565b600067ffffffffffffffff821115610662576106616105cc565b5b61066b82610548565b9050602081019050919050565b82818337600083830152505050565b600061069a61069584610647565b61062c565b9050828152602081018484840111156106b6576106b56105c7565b5b6106c1848285610678565b509392505050565b600082601f8301126106de576106dd6105c2565b5b81356106ee848260208601610687565b91505092915050565b60006020828403121561070d5761070c6103e8565b5b600082013567ffffffffffffffff81111561072b5761072a6103ed565b5b610737848285016106c9565b91505092915050565b7f596f7520617265206e6f7420746865206f776e6572206f66207468652064617460008201527f6120656e74727900000000000000000000000000000000000000000000000000602082015250565b600061079c60278361050d565b91506107a782610740565b604082019050919050565b600060208201905081810360008301526107cb8161078f565b9050919050565b7f4e487b7100000000000000000000000000000000000000000000000000000000600052602260045260246000fd5b6000600282049050600182168061081957607f821691505b60208210810361082c5761082b6107d2565b5b50919050565b7f4e487b7100000000000000000000000000000000000000000000000000000000600052601160045260246000fd5b600061086c826103f2565b91507fffffffffffffffffffffffffffffffffffffffffffffffffffffffffffffffff820361089e5761089d610832565b5b600182019050919050565b60008190508160005260206000209050919050565b60006020601f8301049050919050565b600082821b905092915050565b60006008830261090b7fffffffffffffffffffffffffffffffffffffffffffffffffffffffffffffffff826108ce565b61091586836108ce565b95508019841693508086168417925050509392505050565b6000819050919050565b600061095261094d610948846103f2565b61092d565b6103f2565b9050919050565b6000819050919050565b61096c83610937565b61098061097882610959565b8484546108db565b825550505050565b600090565b610995610988565b6109a0818484610963565b505050565b5b818110156109c4576109b960008261098d565b6001810190506109a6565b5050565b601f821115610a09576109da816108a9565b6109e3846108be565b810160208510156109f2578190505b610a066109fe856108be565b8301826109a5565b50505b505050565b600082821c905092915050565b6000610a2c60001984600802610a0e565b1980831691505092915050565b6000610a458383610a1b565b9150826002028217905092915050565b610a5e82610502565b67ffffffffffffffff811115610a7757610a766105cc565b5b610a818254610801565b610a8c8282856109c8565b600060209050601f831160018114610abf5760008415610aad578287015190505b610ab78582610a39565b865550610b1f565b601f198416610acd866108a9565b60005b82811015610af557848901518255600182019150602085019450602081019050610ad0565b86831015610b125784890151610b0e601f891682610a1b565b8355505b6001600288020188555050505b505050505050565b60006020820190508181036000830152610b418184610559565b90509291505056fea2646970667358221220aa029be605412e0c17a022b87a666de061bfcb4a9c2af0f8b717274b6d82e22864736f6c63430008120033",
					"opcodes": "PUSH1 0x80 PUSH1 0x40 MSTORE CALLVALUE DUP1 ISZERO PUSH2 0x10 JUMPI PUSH1 0x0 DUP1 REVERT JUMPDEST POP PUSH2 0xB7F DUP1 PUSH2 0x20 PUSH1 0x0 CODECOPY PUSH1 0x0 RETURN INVALID PUSH1 0x80 PUSH1 0x40 MSTORE CALLVALUE DUP1 ISZERO PUSH2 0x10 JUMPI PUSH1 0x0 DUP1 REVERT JUMPDEST POP PUSH1 0x4 CALLDATASIZE LT PUSH2 0x41 JUMPI PUSH1 0x0 CALLDATALOAD PUSH1 0xE0 SHR DUP1 PUSH4 0xECA5343A EQ PUSH2 0x46 JUMPI DUP1 PUSH4 0xF75D8ADA EQ PUSH2 0x62 JUMPI DUP1 PUSH4 0xFB218F5F EQ PUSH2 0x93 JUMPI JUMPDEST PUSH1 0x0 DUP1 REVERT JUMPDEST PUSH2 0x60 PUSH1 0x4 DUP1 CALLDATASIZE SUB DUP2 ADD SWAP1 PUSH2 0x5B SWAP2 SWAP1 PUSH2 0x486 JUMP JUMPDEST PUSH2 0xAF JUMP JUMPDEST STOP JUMPDEST PUSH2 0x7C PUSH1 0x4 DUP1 CALLDATASIZE SUB DUP2 ADD SWAP1 PUSH2 0x77 SWAP2 SWAP1 PUSH2 0x4C6 JUMP JUMPDEST PUSH2 0x1FA JUMP JUMPDEST PUSH1 0x40 MLOAD PUSH2 0x8A SWAP3 SWAP2 SWAP1 PUSH2 0x592 JUMP JUMPDEST PUSH1 0x40 MLOAD DUP1 SWAP2 SUB SWAP1 RETURN JUMPDEST PUSH2 0xAD PUSH1 0x4 DUP1 CALLDATASIZE SUB DUP2 ADD SWAP1 PUSH2 0xA8 SWAP2 SWAP1 PUSH2 0x6F7 JUMP JUMPDEST PUSH2 0x2D3 JUMP JUMPDEST STOP JUMPDEST PUSH1 0x0 DUP1 PUSH1 0x0 DUP5 DUP2 MSTORE PUSH1 0x20 ADD SWAP1 DUP2 MSTORE PUSH1 0x20 ADD PUSH1 0x0 KECCAK256 SWAP1 POP CALLER PUSH20 0xFFFFFFFFFFFFFFFFFFFFFFFFFFFFFFFFFFFFFFFF AND DUP2 PUSH1 0x0 ADD PUSH1 0x0 SWAP1 SLOAD SWAP1 PUSH2 0x100 EXP SWAP1 DIV PUSH20 0xFFFFFFFFFFFFFFFFFFFFFFFFFFFFFFFFFFFFFFFF AND PUSH20 0xFFFFFFFFFFFFFFFFFFFFFFFFFFFFFFFFFFFFFFFF AND EQ PUSH2 0x157 JUMPI PUSH1 0x40 MLOAD PUSH32 0x8C379A000000000000000000000000000000000000000000000000000000000 DUP2 MSTORE PUSH1 0x4 ADD PUSH2 0x14E SWAP1 PUSH2 0x7B2 JUMP JUMPDEST PUSH1 0x40 MLOAD DUP1 SWAP2 SUB SWAP1 REVERT JUMPDEST DUP2 DUP2 PUSH1 0x0 ADD PUSH1 0x0 PUSH2 0x100 EXP DUP2 SLOAD DUP2 PUSH20 0xFFFFFFFFFFFFFFFFFFFFFFFFFFFFFFFFFFFFFFFF MUL NOT AND SWAP1 DUP4 PUSH20 0xFFFFFFFFFFFFFFFFFFFFFFFFFFFFFFFFFFFFFFFF AND MUL OR SWAP1 SSTORE POP DUP2 PUSH20 0xFFFFFFFFFFFFFFFFFFFFFFFFFFFFFFFFFFFFFFFF AND CALLER PUSH20 0xFFFFFFFFFFFFFFFFFFFFFFFFFFFFFFFFFFFFFFFF AND DUP5 PUSH32 0x3C2228D803843715DA05894C8B0F90B4A80CBFC618A268031091B7139697176 PUSH1 0x40 MLOAD PUSH1 0x40 MLOAD DUP1 SWAP2 SUB SWAP1 LOG4 POP POP POP JUMP JUMPDEST PUSH1 0x0 PUSH1 0x60 PUSH1 0x0 DUP1 PUSH1 0x0 DUP6 DUP2 MSTORE PUSH1 0x20 ADD SWAP1 DUP2 MSTORE PUSH1 0x20 ADD PUSH1 0x0 KECCAK256 SWAP1 POP DUP1 PUSH1 0x0 ADD PUSH1 0x0 SWAP1 SLOAD SWAP1 PUSH2 0x100 EXP SWAP1 DIV PUSH20 0xFFFFFFFFFFFFFFFFFFFFFFFFFFFFFFFFFFFFFFFF AND DUP2 PUSH1 0x1 ADD DUP1 DUP1 SLOAD PUSH2 0x249 SWAP1 PUSH2 0x801 JUMP JUMPDEST DUP1 PUSH1 0x1F ADD PUSH1 0x20 DUP1 SWAP2 DIV MUL PUSH1 0x20 ADD PUSH1 0x40 MLOAD SWAP1 DUP2 ADD PUSH1 0x40 MSTORE DUP1 SWAP3 SWAP2 SWAP1 DUP2 DUP2 MSTORE PUSH1 0x20 ADD DUP3 DUP1 SLOAD PUSH2 0x275 SWAP1 PUSH2 0x801 JUMP JUMPDEST DUP1 ISZERO PUSH2 0x2C2 JUMPI DUP1 PUSH1 0x1F LT PUSH2 0x297 JUMPI PUSH2 0x100 DUP1 DUP4 SLOAD DIV MUL DUP4 MSTORE SWAP2 PUSH1 0x20 ADD SWAP2 PUSH2 0x2C2 JUMP JUMPDEST DUP3 ADD SWAP2 SWAP1 PUSH1 0x0 MSTORE PUSH1 0x20 PUSH1 0x0 KECCAK256 SWAP1 JUMPDEST DUP2 SLOAD DUP2 MSTORE SWAP1 PUSH1 0x1 ADD SWAP1 PUSH1 0x20 ADD DUP1 DUP4 GT PUSH2 0x2A5 JUMPI DUP3 SWAP1 SUB PUSH1 0x1F AND DUP3 ADD SWAP2 JUMPDEST POP POP POP POP POP SWAP1 POP SWAP3 POP SWAP3 POP POP SWAP2 POP SWAP2 JUMP JUMPDEST PUSH1 0x1 PUSH1 0x0 DUP2 SLOAD DUP1 SWAP3 SWAP2 SWAP1 PUSH2 0x2E6 SWAP1 PUSH2 0x861 JUMP JUMPDEST SWAP2 SWAP1 POP SSTORE POP PUSH1 0x40 MLOAD DUP1 PUSH1 0x40 ADD PUSH1 0x40 MSTORE DUP1 CALLER PUSH20 0xFFFFFFFFFFFFFFFFFFFFFFFFFFFFFFFFFFFFFFFF AND DUP2 MSTORE PUSH1 0x20 ADD DUP3 DUP2 MSTORE POP PUSH1 0x0 DUP1 PUSH1 0x1 SLOAD DUP2 MSTORE PUSH1 0x20 ADD SWAP1 DUP2 MSTORE PUSH1 0x20 ADD PUSH1 0x0 KECCAK256 PUSH1 0x0 DUP3 ADD MLOAD DUP2 PUSH1 0x0 ADD PUSH1 0x0 PUSH2 0x100 EXP DUP2 SLOAD DUP2 PUSH20 0xFFFFFFFFFFFFFFFFFFFFFFFFFFFFFFFFFFFFFFFF MUL NOT AND SWAP1 DUP4 PUSH20 0xFFFFFFFFFFFFFFFFFFFFFFFFFFFFFFFFFFFFFFFF AND MUL OR SWAP1 SSTORE POP PUSH1 0x20 DUP3 ADD MLOAD DUP2 PUSH1 0x1 ADD SWAP1 DUP2 PUSH2 0x386 SWAP2 SWAP1 PUSH2 0xA55 JUMP JUMPDEST POP SWAP1 POP POP CALLER PUSH20 0xFFFFFFFFFFFFFFFFFFFFFFFFFFFFFFFFFFFFFFFF AND PUSH1 0x1 SLOAD PUSH32 0x632FB8D70CAA7976AA17A1528DBB14FD2B3A577DE3B2CFA3A048CF53CB658474 DUP4 PUSH1 0x40 MLOAD PUSH2 0x3D3 SWAP2 SWAP1 PUSH2 0xB27 JUMP JUMPDEST PUSH1 0x40 MLOAD DUP1 SWAP2 SUB SWAP1 LOG3 POP JUMP JUMPDEST PUSH1 0x0 PUSH1 0x40 MLOAD SWAP1 POP SWAP1 JUMP JUMPDEST PUSH1 0x0 DUP1 REVERT JUMPDEST PUSH1 0x0 DUP1 REVERT JUMPDEST PUSH1 0x0 DUP2 SWAP1 POP SWAP2 SWAP1 POP JUMP JUMPDEST PUSH2 0x405 DUP2 PUSH2 0x3F2 JUMP JUMPDEST DUP2 EQ PUSH2 0x410 JUMPI PUSH1 0x0 DUP1 REVERT JUMPDEST POP JUMP JUMPDEST PUSH1 0x0 DUP2 CALLDATALOAD SWAP1 POP PUSH2 0x422 DUP2 PUSH2 0x3FC JUMP JUMPDEST SWAP3 SWAP2 POP POP JUMP JUMPDEST PUSH1 0x0 PUSH20 0xFFFFFFFFFFFFFFFFFFFFFFFFFFFFFFFFFFFFFFFF DUP3 AND SWAP1 POP SWAP2 SWAP1 POP JUMP JUMPDEST PUSH1 0x0 PUSH2 0x453 DUP3 PUSH2 0x428 JUMP JUMPDEST SWAP1 POP SWAP2 SWAP1 POP JUMP JUMPDEST PUSH2 0x463 DUP2 PUSH2 0x448 JUMP JUMPDEST DUP2 EQ PUSH2 0x46E JUMPI PUSH1 0x0 DUP1 REVERT JUMPDEST POP JUMP JUMPDEST PUSH1 0x0 DUP2 CALLDATALOAD SWAP1 POP PUSH2 0x480 DUP2 PUSH2 0x45A JUMP JUMPDEST SWAP3 SWAP2 POP POP JUMP JUMPDEST PUSH1 0x0 DUP1 PUSH1 0x40 DUP4 DUP6 SUB SLT ISZERO PUSH2 0x49D JUMPI PUSH2 0x49C PUSH2 0x3E8 JUMP JUMPDEST JUMPDEST PUSH1 0x0 PUSH2 0x4AB DUP6 DUP3 DUP7 ADD PUSH2 0x413 JUMP JUMPDEST SWAP3 POP POP PUSH1 0x20 PUSH2 0x4BC DUP6 DUP3 DUP7 ADD PUSH2 0x471 JUMP JUMPDEST SWAP2 POP POP SWAP3 POP SWAP3 SWAP1 POP JUMP JUMPDEST PUSH1 0x0 PUSH1 0x20 DUP3 DUP5 SUB SLT ISZERO PUSH2 0x4DC JUMPI PUSH2 0x4DB PUSH2 0x3E8 JUMP JUMPDEST JUMPDEST PUSH1 0x0 PUSH2 0x4EA DUP5 DUP3 DUP6 ADD PUSH2 0x413 JUMP JUMPDEST SWAP2 POP POP SWAP3 SWAP2 POP POP JUMP JUMPDEST PUSH2 0x4FC DUP2 PUSH2 0x448 JUMP JUMPDEST DUP3 MSTORE POP POP JUMP JUMPDEST PUSH1 0x0 DUP2 MLOAD SWAP1 POP SWAP2 SWAP1 POP JUMP JUMPDEST PUSH1 0x0 DUP3 DUP3 MSTORE PUSH1 0x20 DUP3 ADD SWAP1 POP SWAP3 SWAP2 POP POP JUMP JUMPDEST PUSH1 0x0 JUMPDEST DUP4 DUP2 LT ISZERO PUSH2 0x53C JUMPI DUP1 DUP3 ADD MLOAD DUP2 DUP5 ADD MSTORE PUSH1 0x20 DUP2 ADD SWAP1 POP PUSH2 0x521 JUMP JUMPDEST PUSH1 0x0 DUP5 DUP5 ADD MSTORE POP POP POP POP JUMP JUMPDEST PUSH1 0x0 PUSH1 0x1F NOT PUSH1 0x1F DUP4 ADD AND SWAP1 POP SWAP2 SWAP1 POP JUMP JUMPDEST PUSH1 0x0 PUSH2 0x564 DUP3 PUSH2 0x502 JUMP JUMPDEST PUSH2 0x56E DUP2 DUP6 PUSH2 0x50D JUMP JUMPDEST SWAP4 POP PUSH2 0x57E DUP2 DUP6 PUSH1 0x20 DUP7 ADD PUSH2 0x51E JUMP JUMPDEST PUSH2 0x587 DUP2 PUSH2 0x548 JUMP JUMPDEST DUP5 ADD SWAP2 POP POP SWAP3 SWAP2 POP POP JUMP JUMPDEST PUSH1 0x0 PUSH1 0x40 DUP3 ADD SWAP1 POP PUSH2 0x5A7 PUSH1 0x0 DUP4 ADD DUP6 PUSH2 0x4F3 JUMP JUMPDEST DUP2 DUP2 SUB PUSH1 0x20 DUP4 ADD MSTORE PUSH2 0x5B9 DUP2 DUP5 PUSH2 0x559 JUMP JUMPDEST SWAP1 POP SWAP4 SWAP3 POP POP POP JUMP JUMPDEST PUSH1 0x0 DUP1 REVERT JUMPDEST PUSH1 0x0 DUP1 REVERT JUMPDEST PUSH32 0x4E487B7100000000000000000000000000000000000000000000000000000000 PUSH1 0x0 MSTORE PUSH1 0x41 PUSH1 0x4 MSTORE PUSH1 0x24 PUSH1 0x0 REVERT JUMPDEST PUSH2 0x604 DUP3 PUSH2 0x548 JUMP JUMPDEST DUP2 ADD DUP2 DUP2 LT PUSH8 0xFFFFFFFFFFFFFFFF DUP3 GT OR ISZERO PUSH2 0x623 JUMPI PUSH2 0x622 PUSH2 0x5CC JUMP JUMPDEST JUMPDEST DUP1 PUSH1 0x40 MSTORE POP POP POP JUMP JUMPDEST PUSH1 0x0 PUSH2 0x636 PUSH2 0x3DE JUMP JUMPDEST SWAP1 POP PUSH2 0x642 DUP3 DUP3 PUSH2 0x5FB JUMP JUMPDEST SWAP2 SWAP1 POP JUMP JUMPDEST PUSH1 0x0 PUSH8 0xFFFFFFFFFFFFFFFF DUP3 GT ISZERO PUSH2 0x662 JUMPI PUSH2 0x661 PUSH2 0x5CC JUMP JUMPDEST JUMPDEST PUSH2 0x66B DUP3 PUSH2 0x548 JUMP JUMPDEST SWAP1 POP PUSH1 0x20 DUP2 ADD SWAP1 POP SWAP2 SWAP1 POP JUMP JUMPDEST DUP3 DUP2 DUP4 CALLDATACOPY PUSH1 0x0 DUP4 DUP4 ADD MSTORE POP POP POP JUMP JUMPDEST PUSH1 0x0 PUSH2 0x69A PUSH2 0x695 DUP5 PUSH2 0x647 JUMP JUMPDEST PUSH2 0x62C JUMP JUMPDEST SWAP1 POP DUP3 DUP2 MSTORE PUSH1 0x20 DUP2 ADD DUP5 DUP5 DUP5 ADD GT ISZERO PUSH2 0x6B6 JUMPI PUSH2 0x6B5 PUSH2 0x5C7 JUMP JUMPDEST JUMPDEST PUSH2 0x6C1 DUP5 DUP3 DUP6 PUSH2 0x678 JUMP JUMPDEST POP SWAP4 SWAP3 POP POP POP JUMP JUMPDEST PUSH1 0x0 DUP3 PUSH1 0x1F DUP4 ADD SLT PUSH2 0x6DE JUMPI PUSH2 0x6DD PUSH2 0x5C2 JUMP JUMPDEST JUMPDEST DUP2 CALLDATALOAD PUSH2 0x6EE DUP5 DUP3 PUSH1 0x20 DUP7 ADD PUSH2 0x687 JUMP JUMPDEST SWAP2 POP POP SWAP3 SWAP2 POP POP JUMP JUMPDEST PUSH1 0x0 PUSH1 0x20 DUP3 DUP5 SUB SLT ISZERO PUSH2 0x70D JUMPI PUSH2 0x70C PUSH2 0x3E8 JUMP JUMPDEST JUMPDEST PUSH1 0x0 DUP3 ADD CALLDATALOAD PUSH8 0xFFFFFFFFFFFFFFFF DUP2 GT ISZERO PUSH2 0x72B JUMPI PUSH2 0x72A PUSH2 0x3ED JUMP JUMPDEST JUMPDEST PUSH2 0x737 DUP5 DUP3 DUP6 ADD PUSH2 0x6C9 JUMP JUMPDEST SWAP2 POP POP SWAP3 SWAP2 POP POP JUMP JUMPDEST PUSH32 0x596F7520617265206E6F7420746865206F776E6572206F662074686520646174 PUSH1 0x0 DUP3 ADD MSTORE PUSH32 0x6120656E74727900000000000000000000000000000000000000000000000000 PUSH1 0x20 DUP3 ADD MSTORE POP JUMP JUMPDEST PUSH1 0x0 PUSH2 0x79C PUSH1 0x27 DUP4 PUSH2 0x50D JUMP JUMPDEST SWAP2 POP PUSH2 0x7A7 DUP3 PUSH2 0x740 JUMP JUMPDEST PUSH1 0x40 DUP3 ADD SWAP1 POP SWAP2 SWAP1 POP JUMP JUMPDEST PUSH1 0x0 PUSH1 0x20 DUP3 ADD SWAP1 POP DUP2 DUP2 SUB PUSH1 0x0 DUP4 ADD MSTORE PUSH2 0x7CB DUP2 PUSH2 0x78F JUMP JUMPDEST SWAP1 POP SWAP2 SWAP1 POP JUMP JUMPDEST PUSH32 0x4E487B7100000000000000000000000000000000000000000000000000000000 PUSH1 0x0 MSTORE PUSH1 0x22 PUSH1 0x4 MSTORE PUSH1 0x24 PUSH1 0x0 REVERT JUMPDEST PUSH1 0x0 PUSH1 0x2 DUP3 DIV SWAP1 POP PUSH1 0x1 DUP3 AND DUP1 PUSH2 0x819 JUMPI PUSH1 0x7F DUP3 AND SWAP2 POP JUMPDEST PUSH1 0x20 DUP3 LT DUP2 SUB PUSH2 0x82C JUMPI PUSH2 0x82B PUSH2 0x7D2 JUMP JUMPDEST JUMPDEST POP SWAP2 SWAP1 POP JUMP JUMPDEST PUSH32 0x4E487B7100000000000000000000000000000000000000000000000000000000 PUSH1 0x0 MSTORE PUSH1 0x11 PUSH1 0x4 MSTORE PUSH1 0x24 PUSH1 0x0 REVERT JUMPDEST PUSH1 0x0 PUSH2 0x86C DUP3 PUSH2 0x3F2 JUMP JUMPDEST SWAP2 POP PUSH32 0xFFFFFFFFFFFFFFFFFFFFFFFFFFFFFFFFFFFFFFFFFFFFFFFFFFFFFFFFFFFFFFFF DUP3 SUB PUSH2 0x89E JUMPI PUSH2 0x89D PUSH2 0x832 JUMP JUMPDEST JUMPDEST PUSH1 0x1 DUP3 ADD SWAP1 POP SWAP2 SWAP1 POP JUMP JUMPDEST PUSH1 0x0 DUP2 SWAP1 POP DUP2 PUSH1 0x0 MSTORE PUSH1 0x20 PUSH1 0x0 KECCAK256 SWAP1 POP SWAP2 SWAP1 POP JUMP JUMPDEST PUSH1 0x0 PUSH1 0x20 PUSH1 0x1F DUP4 ADD DIV SWAP1 POP SWAP2 SWAP1 POP JUMP JUMPDEST PUSH1 0x0 DUP3 DUP3 SHL SWAP1 POP SWAP3 SWAP2 POP POP JUMP JUMPDEST PUSH1 0x0 PUSH1 0x8 DUP4 MUL PUSH2 0x90B PUSH32 0xFFFFFFFFFFFFFFFFFFFFFFFFFFFFFFFFFFFFFFFFFFFFFFFFFFFFFFFFFFFFFFFF DUP3 PUSH2 0x8CE JUMP JUMPDEST PUSH2 0x915 DUP7 DUP4 PUSH2 0x8CE JUMP JUMPDEST SWAP6 POP DUP1 NOT DUP5 AND SWAP4 POP DUP1 DUP7 AND DUP5 OR SWAP3 POP POP POP SWAP4 SWAP3 POP POP POP JUMP JUMPDEST PUSH1 0x0 DUP2 SWAP1 POP SWAP2 SWAP1 POP JUMP JUMPDEST PUSH1 0x0 PUSH2 0x952 PUSH2 0x94D PUSH2 0x948 DUP5 PUSH2 0x3F2 JUMP JUMPDEST PUSH2 0x92D JUMP JUMPDEST PUSH2 0x3F2 JUMP JUMPDEST SWAP1 POP SWAP2 SWAP1 POP JUMP JUMPDEST PUSH1 0x0 DUP2 SWAP1 POP SWAP2 SWAP1 POP JUMP JUMPDEST PUSH2 0x96C DUP4 PUSH2 0x937 JUMP JUMPDEST PUSH2 0x980 PUSH2 0x978 DUP3 PUSH2 0x959 JUMP JUMPDEST DUP5 DUP5 SLOAD PUSH2 0x8DB JUMP JUMPDEST DUP3 SSTORE POP POP POP POP JUMP JUMPDEST PUSH1 0x0 SWAP1 JUMP JUMPDEST PUSH2 0x995 PUSH2 0x988 JUMP JUMPDEST PUSH2 0x9A0 DUP2 DUP5 DUP5 PUSH2 0x963 JUMP JUMPDEST POP POP POP JUMP JUMPDEST JUMPDEST DUP2 DUP2 LT ISZERO PUSH2 0x9C4 JUMPI PUSH2 0x9B9 PUSH1 0x0 DUP3 PUSH2 0x98D JUMP JUMPDEST PUSH1 0x1 DUP2 ADD SWAP1 POP PUSH2 0x9A6 JUMP JUMPDEST POP POP JUMP JUMPDEST PUSH1 0x1F DUP3 GT ISZERO PUSH2 0xA09 JUMPI PUSH2 0x9DA DUP2 PUSH2 0x8A9 JUMP JUMPDEST PUSH2 0x9E3 DUP5 PUSH2 0x8BE JUMP JUMPDEST DUP2 ADD PUSH1 0x20 DUP6 LT ISZERO PUSH2 0x9F2 JUMPI DUP2 SWAP1 POP JUMPDEST PUSH2 0xA06 PUSH2 0x9FE DUP6 PUSH2 0x8BE JUMP JUMPDEST DUP4 ADD DUP3 PUSH2 0x9A5 JUMP JUMPDEST POP POP JUMPDEST POP POP POP JUMP JUMPDEST PUSH1 0x0 DUP3 DUP3 SHR SWAP1 POP SWAP3 SWAP2 POP POP JUMP JUMPDEST PUSH1 0x0 PUSH2 0xA2C PUSH1 0x0 NOT DUP5 PUSH1 0x8 MUL PUSH2 0xA0E JUMP JUMPDEST NOT DUP1 DUP4 AND SWAP2 POP POP SWAP3 SWAP2 POP POP JUMP JUMPDEST PUSH1 0x0 PUSH2 0xA45 DUP4 DUP4 PUSH2 0xA1B JUMP JUMPDEST SWAP2 POP DUP3 PUSH1 0x2 MUL DUP3 OR SWAP1 POP SWAP3 SWAP2 POP POP JUMP JUMPDEST PUSH2 0xA5E DUP3 PUSH2 0x502 JUMP JUMPDEST PUSH8 0xFFFFFFFFFFFFFFFF DUP2 GT ISZERO PUSH2 0xA77 JUMPI PUSH2 0xA76 PUSH2 0x5CC JUMP JUMPDEST JUMPDEST PUSH2 0xA81 DUP3 SLOAD PUSH2 0x801 JUMP JUMPDEST PUSH2 0xA8C DUP3 DUP3 DUP6 PUSH2 0x9C8 JUMP JUMPDEST PUSH1 0x0 PUSH1 0x20 SWAP1 POP PUSH1 0x1F DUP4 GT PUSH1 0x1 DUP2 EQ PUSH2 0xABF JUMPI PUSH1 0x0 DUP5 ISZERO PUSH2 0xAAD JUMPI DUP3 DUP8 ADD MLOAD SWAP1 POP JUMPDEST PUSH2 0xAB7 DUP6 DUP3 PUSH2 0xA39 JUMP JUMPDEST DUP7 SSTORE POP PUSH2 0xB1F JUMP JUMPDEST PUSH1 0x1F NOT DUP5 AND PUSH2 0xACD DUP7 PUSH2 0x8A9 JUMP JUMPDEST PUSH1 0x0 JUMPDEST DUP3 DUP2 LT ISZERO PUSH2 0xAF5 JUMPI DUP5 DUP10 ADD MLOAD DUP3 SSTORE PUSH1 0x1 DUP3 ADD SWAP2 POP PUSH1 0x20 DUP6 ADD SWAP5 POP PUSH1 0x20 DUP2 ADD SWAP1 POP PUSH2 0xAD0 JUMP JUMPDEST DUP7 DUP4 LT ISZERO PUSH2 0xB12 JUMPI DUP5 DUP10 ADD MLOAD PUSH2 0xB0E PUSH1 0x1F DUP10 AND DUP3 PUSH2 0xA1B JUMP JUMPDEST DUP4 SSTORE POP JUMPDEST PUSH1 0x1 PUSH1 0x2 DUP9 MUL ADD DUP9 SSTORE POP POP POP JUMPDEST POP POP POP POP POP POP JUMP JUMPDEST PUSH1 0x0 PUSH1 0x20 DUP3 ADD SWAP1 POP DUP2 DUP2 SUB PUSH1 0x0 DUP4 ADD MSTORE PUSH2 0xB41 DUP2 DUP5 PUSH2 0x559 JUMP JUMPDEST SWAP1 POP SWAP3 SWAP2 POP POP JUMP INVALID LOG2 PUSH5 0x6970667358 0x22 SLT KECCAK256 0xAA MUL SWAP12 0xE6 SDIV COINBASE 0x2E 0xC OR LOG0 0x22 0xB8 PUSH27 0x666DE061BFCB4A9C2AF0F8B717274B6D82E22864736F6C63430008 SLT STOP CALLER "
				},
				"gasEstimates": {
					"creation": {
						"codeDepositCost": "588600",
						"executionCost": "619",
						"totalCost": "589219"
					},
					"external": {
						"getDataEntry(uint256)": "infinite",
						"storeData(string)": "infinite",
						"transferData(uint256,address)": "29068"
					}
				},
				"methodIdentifiers": {
					"getDataEntry(uint256)": "f75d8ada",
					"storeData(string)": "fb218f5f",
					"transferData(uint256,address)": "eca5343a"
				}
			},
			"storageLayout": {
				"storage": [
					{
						"astId": 11,
						"contract": "contracts/2_Owner.sol:Storage",
						"label": "dataEntries",
						"offset": 0,
						"slot": "0",
						"type": "t_mapping(t_uint256,t_struct(DataEntry)6_storage)"
					},
					{
						"astId": 13,
						"contract": "contracts/2_Owner.sol:Storage",
						"label": "latestDataId",
						"offset": 0,
						"slot": "1",
						"type": "t_uint256"
					}
				],
				"types": {
					"t_address": {
						"encoding": "inplace",
						"label": "address",
						"numberOfBytes": "20"
					},
					"t_mapping(t_uint256,t_struct(DataEntry)6_storage)": {
						"encoding": "mapping",
						"key": "t_uint256",
						"label": "mapping(uint256 => struct Storage.DataEntry)",
						"numberOfBytes": "32",
						"value": "t_struct(DataEntry)6_storage"
					},
					"t_string_storage": {
						"encoding": "bytes",
						"label": "string",
						"numberOfBytes": "32"
					},
					"t_struct(DataEntry)6_storage": {
						"encoding": "inplace",
						"label": "struct Storage.DataEntry",
						"members": [
							{
								"astId": 3,
								"contract": "contracts/2_Owner.sol:Storage",
								"label": "owner",
								"offset": 0,
								"slot": "0",
								"type": "t_address"
							},
							{
								"astId": 5,
								"contract": "contracts/2_Owner.sol:Storage",
								"label": "dataHash",
								"offset": 0,
								"slot": "1",
								"type": "t_string_storage"
							}
						],
						"numberOfBytes": "64"
					},
					"t_uint256": {
						"encoding": "inplace",
						"label": "uint256",
						"numberOfBytes": "32"
					}
				}
			},
			"userdoc": {
				"kind": "user",
				"methods": {},
				"version": 1
			}
		}
	}
}