{
	"contracts/DigitalDataStorage.sol": {
		"DigitalDataStorage": {
			"abi": [
				{
					"inputs": [],
					"stateMutability": "nonpayable",
					"type": "constructor"
				},
				{
					"anonymous": false,
					"inputs": [
						{
							"indexed": true,
							"internalType": "address",
							"name": "owner",
							"type": "address"
						},
						{
							"indexed": true,
							"internalType": "address",
							"name": "spender",
							"type": "address"
						},
						{
							"indexed": false,
							"internalType": "uint256",
							"name": "value",
							"type": "uint256"
						}
					],
					"name": "Approval",
					"type": "event"
				},
				{
					"anonymous": false,
					"inputs": [
						{
							"indexed": true,
							"internalType": "uint256",
							"name": "index",
							"type": "uint256"
						},
						{
							"indexed": false,
							"internalType": "string",
							"name": "data",
							"type": "string"
						}
					],
					"name": "DataStored",
					"type": "event"
				},
				{
					"anonymous": false,
					"inputs": [
						{
							"indexed": true,
							"internalType": "address",
							"name": "from",
							"type": "address"
						},
						{
							"indexed": true,
							"internalType": "address",
							"name": "to",
							"type": "address"
						},
						{
							"indexed": false,
							"internalType": "uint256",
							"name": "value",
							"type": "uint256"
						}
					],
					"name": "Transfer",
					"type": "event"
				},
				{
					"inputs": [
						{
							"internalType": "address",
							"name": "owner",
							"type": "address"
						},
						{
							"internalType": "address",
							"name": "spender",
							"type": "address"
						}
					],
					"name": "allowance",
					"outputs": [
						{
							"internalType": "uint256",
							"name": "",
							"type": "uint256"
						}
					],
					"stateMutability": "view",
					"type": "function"
				},
				{
					"inputs": [
						{
							"internalType": "address",
							"name": "spender",
							"type": "address"
						},
						{
							"internalType": "uint256",
							"name": "amount",
							"type": "uint256"
						}
					],
					"name": "approve",
					"outputs": [
						{
							"internalType": "bool",
							"name": "",
							"type": "bool"
						}
					],
					"stateMutability": "nonpayable",
					"type": "function"
				},
				{
					"inputs": [
						{
							"internalType": "address",
							"name": "account",
							"type": "address"
						}
					],
					"name": "balanceOf",
					"outputs": [
						{
							"internalType": "uint256",
							"name": "",
							"type": "uint256"
						}
					],
					"stateMutability": "view",
					"type": "function"
				},
				{
					"inputs": [],
					"name": "decimals",
					"outputs": [
						{
							"internalType": "uint8",
							"name": "",
							"type": "uint8"
						}
					],
					"stateMutability": "view",
					"type": "function"
				},
				{
					"inputs": [
						{
							"internalType": "address",
							"name": "spender",
							"type": "address"
						},
						{
							"internalType": "uint256",
							"name": "subtractedValue",
							"type": "uint256"
						}
					],
					"name": "decreaseAllowance",
					"outputs": [
						{
							"internalType": "bool",
							"name": "",
							"type": "bool"
						}
					],
					"stateMutability": "nonpayable",
					"type": "function"
				},
				{
					"inputs": [
						{
							"internalType": "uint256",
							"name": "index",
							"type": "uint256"
						}
					],
					"name": "getData",
					"outputs": [
						{
							"internalType": "string",
							"name": "",
							"type": "string"
						}
					],
					"stateMutability": "view",
					"type": "function"
				},
				{
					"inputs": [
						{
							"internalType": "address",
							"name": "spender",
							"type": "address"
						},
						{
							"internalType": "uint256",
							"name": "addedValue",
							"type": "uint256"
						}
					],
					"name": "increaseAllowance",
					"outputs": [
						{
							"internalType": "bool",
							"name": "",
							"type": "bool"
						}
					],
					"stateMutability": "nonpayable",
					"type": "function"
				},
				{
					"inputs": [],
					"name": "name",
					"outputs": [
						{
							"internalType": "string",
							"name": "",
							"type": "string"
						}
					],
					"stateMutability": "view",
					"type": "function"
				},
				{
					"inputs": [
						{
							"internalType": "string",
							"name": "data",
							"type": "string"
						}
					],
					"name": "storeData",
					"outputs": [],
					"stateMutability": "nonpayable",
					"type": "function"
				},
				{
					"inputs": [],
					"name": "symbol",
					"outputs": [
						{
							"internalType": "string",
							"name": "",
							"type": "string"
						}
					],
					"stateMutability": "view",
					"type": "function"
				},
				{
					"inputs": [],
					"name": "totalSupply",
					"outputs": [
						{
							"internalType": "uint256",
							"name": "",
							"type": "uint256"
						}
					],
					"stateMutability": "view",
					"type": "function"
				},
				{
					"inputs": [
						{
							"internalType": "address",
							"name": "to",
							"type": "address"
						},
						{
							"internalType": "uint256",
							"name": "amount",
							"type": "uint256"
						}
					],
					"name": "transfer",
					"outputs": [
						{
							"internalType": "bool",
							"name": "",
							"type": "bool"
						}
					],
					"stateMutability": "nonpayable",
					"type": "function"
				},
				{
					"inputs": [
						{
							"internalType": "uint256",
							"name": "index",
							"type": "uint256"
						},
						{
							"internalType": "address",
							"name": "to",
							"type": "address"
						}
					],
					"name": "transferData",
					"outputs": [],
					"stateMutability": "nonpayable",
					"type": "function"
				},
				{
					"inputs": [
						{
							"internalType": "address",
							"name": "from",
							"type": "address"
						},
						{
							"internalType": "address",
							"name": "to",
							"type": "address"
						},
						{
							"internalType": "uint256",
							"name": "amount",
							"type": "uint256"
						}
					],
					"name": "transferFrom",
					"outputs": [
						{
							"internalType": "bool",
							"name": "",
							"type": "bool"
						}
					],
					"stateMutability": "nonpayable",
					"type": "function"
				}
			],
			"devdoc": {
				"events": {
					"Approval(address,address,uint256)": {
						"details": "Emitted when the allowance of a `spender` for an `owner` is set by a call to {approve}. `value` is the new allowance."
					},
					"Transfer(address,address,uint256)": {
						"details": "Emitted when `value` tokens are moved from one account (`from`) to another (`to`). Note that `value` may be zero."
					}
				},
				"kind": "dev",
				"methods": {
					"allowance(address,address)": {
						"details": "See {IERC20-allowance}."
					},
					"approve(address,uint256)": {
						"details": "See {IERC20-approve}. NOTE: If `amount` is the maximum `uint256`, the allowance is not updated on `transferFrom`. This is semantically equivalent to an infinite approval. Requirements: - `spender` cannot be the zero address."
					},
					"balanceOf(address)": {
						"details": "See {IERC20-balanceOf}."
					},
					"decimals()": {
						"details": "Returns the number of decimals used to get its user representation. For example, if `decimals` equals `2`, a balance of `505` tokens should be displayed to a user as `5.05` (`505 / 10 ** 2`). Tokens usually opt for a value of 18, imitating the relationship between Ether and Wei. This is the value {ERC20} uses, unless this function is overridden; NOTE: This information is only used for _display_ purposes: it in no way affects any of the arithmetic of the contract, including {IERC20-balanceOf} and {IERC20-transfer}."
					},
					"decreaseAllowance(address,uint256)": {
						"details": "Atomically decreases the allowance granted to `spender` by the caller. This is an alternative to {approve} that can be used as a mitigation for problems described in {IERC20-approve}. Emits an {Approval} event indicating the updated allowance. Requirements: - `spender` cannot be the zero address. - `spender` must have allowance for the caller of at least `subtractedValue`."
					},
					"increaseAllowance(address,uint256)": {
						"details": "Atomically increases the allowance granted to `spender` by the caller. This is an alternative to {approve} that can be used as a mitigation for problems described in {IERC20-approve}. Emits an {Approval} event indicating the updated allowance. Requirements: - `spender` cannot be the zero address."
					},
					"name()": {
						"details": "Returns the name of the token."
					},
					"symbol()": {
						"details": "Returns the symbol of the token, usually a shorter version of the name."
					},
					"totalSupply()": {
						"details": "See {IERC20-totalSupply}."
					},
					"transfer(address,uint256)": {
						"details": "See {IERC20-transfer}. Requirements: - `to` cannot be the zero address. - the caller must have a balance of at least `amount`."
					},
					"transferFrom(address,address,uint256)": {
						"details": "See {IERC20-transferFrom}. Emits an {Approval} event indicating the updated allowance. This is not required by the EIP. See the note at the beginning of {ERC20}. NOTE: Does not update the allowance if the current allowance is the maximum `uint256`. Requirements: - `from` and `to` cannot be the zero address. - `from` must have a balance of at least `amount`. - the caller must have allowance for ``from``'s tokens of at least `amount`."
					}
				},
				"version": 1
			},
			"evm": {
				"assembly": "    /* \"contracts/DigitalDataStorage.sol\":114:1264  contract DigitalDataStorage is ERC20 {... */\n  mstore(0x40, 0x80)\n    /* \"contracts/DigitalDataStorage.sol\":332:452  constructor() ERC20(\"Digital Data Storage Token\", \"DDST\") {... */\n  callvalue\n  dup1\n  iszero\n  tag_1\n  jumpi\n  0x00\n  dup1\n  revert\ntag_1:\n  pop\n    /* \"@openzeppelin/contracts/token/ERC20/ERC20.sol\":1976:2089  constructor(string memory name_, string memory symbol_) {... */\n  mload(0x40)\n  dup1\n  0x40\n  add\n  0x40\n  mstore\n  dup1\n  0x1a\n  dup2\n  mstore\n  0x20\n  add\n  0x4469676974616c20446174612053746f7261676520546f6b656e000000000000\n  dup2\n  mstore\n  pop\n  mload(0x40)\n  dup1\n  0x40\n  add\n  0x40\n  mstore\n  dup1\n  0x04\n  dup2\n  mstore\n  0x20\n  add\n  0x4444535400000000000000000000000000000000000000000000000000000000\n  dup2\n  mstore\n  pop\n    /* \"@openzeppelin/contracts/token/ERC20/ERC20.sol\":2050:2055  name_ */\n  dup2\n    /* \"@openzeppelin/contracts/token/ERC20/ERC20.sol\":2042:2047  _name */\n  0x03\n    /* \"@openzeppelin/contracts/token/ERC20/ERC20.sol\":2042:2055  _name = name_ */\n  swap1\n  dup2\n  tag_5\n  swap2\n  swap1\n  tag_6\n  jump\t// in\ntag_5:\n  pop\n    /* \"@openzeppelin/contracts/token/ERC20/ERC20.sol\":2075:2082  symbol_ */\n  dup1\n    /* \"@openzeppelin/contracts/token/ERC20/ERC20.sol\":2065:2072  _symbol */\n  0x04\n    /* \"@openzeppelin/contracts/token/ERC20/ERC20.sol\":2065:2082  _symbol = symbol_ */\n  swap1\n  dup2\n  tag_7\n  swap2\n  swap1\n  tag_6\n  jump\t// in\ntag_7:\n  pop\n    /* \"@openzeppelin/contracts/token/ERC20/ERC20.sol\":1976:2089  constructor(string memory name_, string memory symbol_) {... */\n  pop\n  pop\n    /* \"contracts/DigitalDataStorage.sol\":415:416  0 */\n  0x00\n    /* \"contracts/DigitalDataStorage.sol\":400:412  _dataCounter */\n  0x05\n    /* \"contracts/DigitalDataStorage.sol\":400:416  _dataCounter = 0 */\n  dup2\n  swap1\n  sstore\n  pop\n    /* \"contracts/DigitalDataStorage.sol\":435:445  msg.sender */\n  caller\n    /* \"contracts/DigitalDataStorage.sol\":426:432  _owner */\n  0x07\n  0x00\n    /* \"contracts/DigitalDataStorage.sol\":426:445  _owner = msg.sender */\n  0x0100\n  exp\n  dup2\n  sload\n  dup2\n  0xffffffffffffffffffffffffffffffffffffffff\n  mul\n  not\n  and\n  swap1\n  dup4\n  0xffffffffffffffffffffffffffffffffffffffff\n  and\n  mul\n  or\n  swap1\n  sstore\n  pop\n    /* \"contracts/DigitalDataStorage.sol\":114:1264  contract DigitalDataStorage is ERC20 {... */\n  jump(tag_9)\n    /* \"#utility.yul\":7:106   */\ntag_10:\n    /* \"#utility.yul\":59:65   */\n  0x00\n    /* \"#utility.yul\":93:98   */\n  dup2\n    /* \"#utility.yul\":87:99   */\n  mload\n    /* \"#utility.yul\":77:99   */\n  swap1\n  pop\n    /* \"#utility.yul\":7:106   */\n  swap2\n  swap1\n  pop\n  jump\t// out\n    /* \"#utility.yul\":112:292   */\ntag_11:\n    /* \"#utility.yul\":160:237   */\n  0x4e487b7100000000000000000000000000000000000000000000000000000000\n    /* \"#utility.yul\":157:158   */\n  0x00\n    /* \"#utility.yul\":150:238   */\n  mstore\n    /* \"#utility.yul\":257:261   */\n  0x41\n    /* \"#utility.yul\":254:255   */\n  0x04\n    /* \"#utility.yul\":247:262   */\n  mstore\n    /* \"#utility.yul\":281:285   */\n  0x24\n    /* \"#utility.yul\":278:279   */\n  0x00\n    /* \"#utility.yul\":271:286   */\n  revert\n    /* \"#utility.yul\":298:478   */\ntag_12:\n    /* \"#utility.yul\":346:423   */\n  0x4e487b7100000000000000000000000000000000000000000000000000000000\n    /* \"#utility.yul\":343:344   */\n  0x00\n    /* \"#utility.yul\":336:424   */\n  mstore\n    /* \"#utility.yul\":443:447   */\n  0x22\n    /* \"#utility.yul\":440:441   */\n  0x04\n    /* \"#utility.yul\":433:448   */\n  mstore\n    /* \"#utility.yul\":467:471   */\n  0x24\n    /* \"#utility.yul\":464:465   */\n  0x00\n    /* \"#utility.yul\":457:472   */\n  revert\n    /* \"#utility.yul\":484:804   */\ntag_13:\n    /* \"#utility.yul\":528:534   */\n  0x00\n    /* \"#utility.yul\":565:566   */\n  0x02\n    /* \"#utility.yul\":559:563   */\n  dup3\n    /* \"#utility.yul\":555:567   */\n  div\n    /* \"#utility.yul\":545:567   */\n  swap1\n  pop\n    /* \"#utility.yul\":612:613   */\n  0x01\n    /* \"#utility.yul\":606:610   */\n  dup3\n    /* \"#utility.yul\":602:614   */\n  and\n    /* \"#utility.yul\":633:651   */\n  dup1\n    /* \"#utility.yul\":623:704   */\n  tag_35\n  jumpi\n    /* \"#utility.yul\":689:693   */\n  0x7f\n    /* \"#utility.yul\":681:687   */\n  dup3\n    /* \"#utility.yul\":677:694   */\n  and\n    /* \"#utility.yul\":667:694   */\n  swap2\n  pop\n    /* \"#utility.yul\":623:704   */\ntag_35:\n    /* \"#utility.yul\":751:753   */\n  0x20\n    /* \"#utility.yul\":743:749   */\n  dup3\n    /* \"#utility.yul\":740:754   */\n  lt\n    /* \"#utility.yul\":720:738   */\n  dup2\n    /* \"#utility.yul\":717:755   */\n  sub\n    /* \"#utility.yul\":714:798   */\n  tag_36\n  jumpi\n    /* \"#utility.yul\":770:788   */\n  tag_37\n  tag_12\n  jump\t// in\ntag_37:\n    /* \"#utility.yul\":714:798   */\ntag_36:\n    /* \"#utility.yul\":535:804   */\n  pop\n    /* \"#utility.yul\":484:804   */\n  swap2\n  swap1\n  pop\n  jump\t// out\n    /* \"#utility.yul\":810:951   */\ntag_14:\n    /* \"#utility.yul\":859:863   */\n  0x00\n    /* \"#utility.yul\":882:885   */\n  dup2\n    /* \"#utility.yul\":874:885   */\n  swap1\n  pop\n    /* \"#utility.yul\":905:908   */\n  dup2\n    /* \"#utility.yul\":902:903   */\n  0x00\n    /* \"#utility.yul\":895:909   */\n  mstore\n    /* \"#utility.yul\":939:943   */\n  0x20\n    /* \"#utility.yul\":936:937   */\n  0x00\n    /* \"#utility.yul\":926:944   */\n  keccak256\n    /* \"#utility.yul\":918:944   */\n  swap1\n  pop\n    /* \"#utility.yul\":810:951   */\n  swap2\n  swap1\n  pop\n  jump\t// out\n    /* \"#utility.yul\":957:1050   */\ntag_15:\n    /* \"#utility.yul\":994:1000   */\n  0x00\n    /* \"#utility.yul\":1041:1043   */\n  0x20\n    /* \"#utility.yul\":1036:1038   */\n  0x1f\n    /* \"#utility.yul\":1029:1034   */\n  dup4\n    /* \"#utility.yul\":1025:1039   */\n  add\n    /* \"#utility.yul\":1021:1044   */\n  div\n    /* \"#utility.yul\":1011:1044   */\n  swap1\n  pop\n    /* \"#utility.yul\":957:1050   */\n  swap2\n  swap1\n  pop\n  jump\t// out\n    /* \"#utility.yul\":1056:1163   */\ntag_16:\n    /* \"#utility.yul\":1100:1108   */\n  0x00\n    /* \"#utility.yul\":1150:1155   */\n  dup3\n    /* \"#utility.yul\":1144:1148   */\n  dup3\n    /* \"#utility.yul\":1140:1156   */\n  shl\n    /* \"#utility.yul\":1119:1156   */\n  swap1\n  pop\n    /* \"#utility.yul\":1056:1163   */\n  swap3\n  swap2\n  pop\n  pop\n  jump\t// out\n    /* \"#utility.yul\":1169:1562   */\ntag_17:\n    /* \"#utility.yul\":1238:1244   */\n  0x00\n    /* \"#utility.yul\":1288:1289   */\n  0x08\n    /* \"#utility.yul\":1276:1286   */\n  dup4\n    /* \"#utility.yul\":1272:1290   */\n  mul\n    /* \"#utility.yul\":1311:1408   */\n  tag_42\n    /* \"#utility.yul\":1341:1407   */\n  0xffffffffffffffffffffffffffffffffffffffffffffffffffffffffffffffff\n    /* \"#utility.yul\":1330:1339   */\n  dup3\n    /* \"#utility.yul\":1311:1408   */\n  tag_16\n  jump\t// in\ntag_42:\n    /* \"#utility.yul\":1429:1468   */\n  tag_43\n    /* \"#utility.yul\":1459:1467   */\n  dup7\n    /* \"#utility.yul\":1448:1457   */\n  dup4\n    /* \"#utility.yul\":1429:1468   */\n  tag_16\n  jump\t// in\ntag_43:\n    /* \"#utility.yul\":1417:1468   */\n  swap6\n  pop\n    /* \"#utility.yul\":1501:1505   */\n  dup1\n    /* \"#utility.yul\":1497:1506   */\n  not\n    /* \"#utility.yul\":1490:1495   */\n  dup5\n    /* \"#utility.yul\":1486:1507   */\n  and\n    /* \"#utility.yul\":1477:1507   */\n  swap4\n  pop\n    /* \"#utility.yul\":1550:1554   */\n  dup1\n    /* \"#utility.yul\":1540:1548   */\n  dup7\n    /* \"#utility.yul\":1536:1555   */\n  and\n    /* \"#utility.yul\":1529:1534   */\n  dup5\n    /* \"#utility.yul\":1526:1556   */\n  or\n    /* \"#utility.yul\":1516:1556   */\n  swap3\n  pop\n    /* \"#utility.yul\":1245:1562   */\n  pop\n  pop\n    /* \"#utility.yul\":1169:1562   */\n  swap4\n  swap3\n  pop\n  pop\n  pop\n  jump\t// out\n    /* \"#utility.yul\":1568:1645   */\ntag_18:\n    /* \"#utility.yul\":1605:1612   */\n  0x00\n    /* \"#utility.yul\":1634:1639   */\n  dup2\n    /* \"#utility.yul\":1623:1639   */\n  swap1\n  pop\n    /* \"#utility.yul\":1568:1645   */\n  swap2\n  swap1\n  pop\n  jump\t// out\n    /* \"#utility.yul\":1651:1711   */\ntag_19:\n    /* \"#utility.yul\":1679:1682   */\n  0x00\n    /* \"#utility.yul\":1700:1705   */\n  dup2\n    /* \"#utility.yul\":1693:1705   */\n  swap1\n  pop\n    /* \"#utility.yul\":1651:1711   */\n  swap2\n  swap1\n  pop\n  jump\t// out\n    /* \"#utility.yul\":1717:1859   */\ntag_20:\n    /* \"#utility.yul\":1767:1776   */\n  0x00\n    /* \"#utility.yul\":1800:1853   */\n  tag_47\n    /* \"#utility.yul\":1818:1852   */\n  tag_48\n    /* \"#utility.yul\":1827:1851   */\n  tag_49\n    /* \"#utility.yul\":1845:1850   */\n  dup5\n    /* \"#utility.yul\":1827:1851   */\n  tag_18\n  jump\t// in\ntag_49:\n    /* \"#utility.yul\":1818:1852   */\n  tag_19\n  jump\t// in\ntag_48:\n    /* \"#utility.yul\":1800:1853   */\n  tag_18\n  jump\t// in\ntag_47:\n    /* \"#utility.yul\":1787:1853   */\n  swap1\n  pop\n    /* \"#utility.yul\":1717:1859   */\n  swap2\n  swap1\n  pop\n  jump\t// out\n    /* \"#utility.yul\":1865:1940   */\ntag_21:\n    /* \"#utility.yul\":1908:1911   */\n  0x00\n    /* \"#utility.yul\":1929:1934   */\n  dup2\n    /* \"#utility.yul\":1922:1934   */\n  swap1\n  pop\n    /* \"#utility.yul\":1865:1940   */\n  swap2\n  swap1\n  pop\n  jump\t// out\n    /* \"#utility.yul\":1946:2215   */\ntag_22:\n    /* \"#utility.yul\":2056:2095   */\n  tag_52\n    /* \"#utility.yul\":2087:2094   */\n  dup4\n    /* \"#utility.yul\":2056:2095   */\n  tag_20\n  jump\t// in\ntag_52:\n    /* \"#utility.yul\":2117:2208   */\n  tag_53\n    /* \"#utility.yul\":2166:2207   */\n  tag_54\n    /* \"#utility.yul\":2190:2206   */\n  dup3\n    /* \"#utility.yul\":2166:2207   */\n  tag_21\n  jump\t// in\ntag_54:\n    /* \"#utility.yul\":2158:2164   */\n  dup5\n    /* \"#utility.yul\":2151:2155   */\n  dup5\n    /* \"#utility.yul\":2145:2156   */\n  sload\n    /* \"#utility.yul\":2117:2208   */\n  tag_17\n  jump\t// in\ntag_53:\n    /* \"#utility.yul\":2111:2115   */\n  dup3\n    /* \"#utility.yul\":2104:2209   */\n  sstore\n    /* \"#utility.yul\":2022:2215   */\n  pop\n    /* \"#utility.yul\":1946:2215   */\n  pop\n  pop\n  pop\n  jump\t// out\n    /* \"#utility.yul\":2221:2294   */\ntag_23:\n    /* \"#utility.yul\":2266:2269   */\n  0x00\n    /* \"#utility.yul\":2221:2294   */\n  swap1\n  jump\t// out\n    /* \"#utility.yul\":2300:2489   */\ntag_24:\n    /* \"#utility.yul\":2377:2409   */\n  tag_57\n  tag_23\n  jump\t// in\ntag_57:\n    /* \"#utility.yul\":2418:2483   */\n  tag_58\n    /* \"#utility.yul\":2476:2482   */\n  dup2\n    /* \"#utility.yul\":2468:2474   */\n  dup5\n    /* \"#utility.yul\":2462:2466   */\n  dup5\n    /* \"#utility.yul\":2418:2483   */\n  tag_22\n  jump\t// in\ntag_58:\n    /* \"#utility.yul\":2353:2489   */\n  pop\n    /* \"#utility.yul\":2300:2489   */\n  pop\n  pop\n  jump\t// out\n    /* \"#utility.yul\":2495:2681   */\ntag_25:\n    /* \"#utility.yul\":2555:2675   */\ntag_60:\n    /* \"#utility.yul\":2572:2575   */\n  dup2\n    /* \"#utility.yul\":2565:2570   */\n  dup2\n    /* \"#utility.yul\":2562:2576   */\n  lt\n    /* \"#utility.yul\":2555:2675   */\n  iszero\n  tag_62\n  jumpi\n    /* \"#utility.yul\":2626:2665   */\n  tag_63\n    /* \"#utility.yul\":2663:2664   */\n  0x00\n    /* \"#utility.yul\":2656:2661   */\n  dup3\n    /* \"#utility.yul\":2626:2665   */\n  tag_24\n  jump\t// in\ntag_63:\n    /* \"#utility.yul\":2599:2600   */\n  0x01\n    /* \"#utility.yul\":2592:2597   */\n  dup2\n    /* \"#utility.yul\":2588:2601   */\n  add\n    /* \"#utility.yul\":2579:2601   */\n  swap1\n  pop\n    /* \"#utility.yul\":2555:2675   */\n  jump(tag_60)\ntag_62:\n    /* \"#utility.yul\":2495:2681   */\n  pop\n  pop\n  jump\t// out\n    /* \"#utility.yul\":2687:3230   */\ntag_26:\n    /* \"#utility.yul\":2788:2790   */\n  0x1f\n    /* \"#utility.yul\":2783:2786   */\n  dup3\n    /* \"#utility.yul\":2780:2791   */\n  gt\n    /* \"#utility.yul\":2777:3223   */\n  iszero\n  tag_65\n  jumpi\n    /* \"#utility.yul\":2822:2860   */\n  tag_66\n    /* \"#utility.yul\":2854:2859   */\n  dup2\n    /* \"#utility.yul\":2822:2860   */\n  tag_14\n  jump\t// in\ntag_66:\n    /* \"#utility.yul\":2906:2935   */\n  tag_67\n    /* \"#utility.yul\":2924:2934   */\n  dup5\n    /* \"#utility.yul\":2906:2935   */\n  tag_15\n  jump\t// in\ntag_67:\n    /* \"#utility.yul\":2896:2904   */\n  dup2\n    /* \"#utility.yul\":2892:2936   */\n  add\n    /* \"#utility.yul\":3089:3091   */\n  0x20\n    /* \"#utility.yul\":3077:3087   */\n  dup6\n    /* \"#utility.yul\":3074:3092   */\n  lt\n    /* \"#utility.yul\":3071:3120   */\n  iszero\n  tag_68\n  jumpi\n    /* \"#utility.yul\":3110:3118   */\n  dup2\n    /* \"#utility.yul\":3095:3118   */\n  swap1\n  pop\n    /* \"#utility.yul\":3071:3120   */\ntag_68:\n    /* \"#utility.yul\":3133:3213   */\n  tag_69\n    /* \"#utility.yul\":3189:3211   */\n  tag_70\n    /* \"#utility.yul\":3207:3210   */\n  dup6\n    /* \"#utility.yul\":3189:3211   */\n  tag_15\n  jump\t// in\ntag_70:\n    /* \"#utility.yul\":3179:3187   */\n  dup4\n    /* \"#utility.yul\":3175:3212   */\n  add\n    /* \"#utility.yul\":3162:3173   */\n  dup3\n    /* \"#utility.yul\":3133:3213   */\n  tag_25\n  jump\t// in\ntag_69:\n    /* \"#utility.yul\":2792:3223   */\n  pop\n  pop\n    /* \"#utility.yul\":2777:3223   */\ntag_65:\n    /* \"#utility.yul\":2687:3230   */\n  pop\n  pop\n  pop\n  jump\t// out\n    /* \"#utility.yul\":3236:3353   */\ntag_27:\n    /* \"#utility.yul\":3290:3298   */\n  0x00\n    /* \"#utility.yul\":3340:3345   */\n  dup3\n    /* \"#utility.yul\":3334:3338   */\n  dup3\n    /* \"#utility.yul\":3330:3346   */\n  shr\n    /* \"#utility.yul\":3309:3346   */\n  swap1\n  pop\n    /* \"#utility.yul\":3236:3353   */\n  swap3\n  swap2\n  pop\n  pop\n  jump\t// out\n    /* \"#utility.yul\":3359:3528   */\ntag_28:\n    /* \"#utility.yul\":3403:3409   */\n  0x00\n    /* \"#utility.yul\":3436:3487   */\n  tag_73\n    /* \"#utility.yul\":3484:3485   */\n  0x00\n    /* \"#utility.yul\":3480:3486   */\n  not\n    /* \"#utility.yul\":3472:3477   */\n  dup5\n    /* \"#utility.yul\":3469:3470   */\n  0x08\n    /* \"#utility.yul\":3465:3478   */\n  mul\n    /* \"#utility.yul\":3436:3487   */\n  tag_27\n  jump\t// in\ntag_73:\n    /* \"#utility.yul\":3432:3488   */\n  not\n    /* \"#utility.yul\":3517:3521   */\n  dup1\n    /* \"#utility.yul\":3511:3515   */\n  dup4\n    /* \"#utility.yul\":3507:3522   */\n  and\n    /* \"#utility.yul\":3497:3522   */\n  swap2\n  pop\n    /* \"#utility.yul\":3410:3528   */\n  pop\n    /* \"#utility.yul\":3359:3528   */\n  swap3\n  swap2\n  pop\n  pop\n  jump\t// out\n    /* \"#utility.yul\":3533:3828   */\ntag_29:\n    /* \"#utility.yul\":3609:3613   */\n  0x00\n    /* \"#utility.yul\":3755:3784   */\n  tag_75\n    /* \"#utility.yul\":3780:3783   */\n  dup4\n    /* \"#utility.yul\":3774:3778   */\n  dup4\n    /* \"#utility.yul\":3755:3784   */\n  tag_28\n  jump\t// in\ntag_75:\n    /* \"#utility.yul\":3747:3784   */\n  swap2\n  pop\n    /* \"#utility.yul\":3817:3820   */\n  dup3\n    /* \"#utility.yul\":3814:3815   */\n  0x02\n    /* \"#utility.yul\":3810:3821   */\n  mul\n    /* \"#utility.yul\":3804:3808   */\n  dup3\n    /* \"#utility.yul\":3801:3822   */\n  or\n    /* \"#utility.yul\":3793:3822   */\n  swap1\n  pop\n    /* \"#utility.yul\":3533:3828   */\n  swap3\n  swap2\n  pop\n  pop\n  jump\t// out\n    /* \"#utility.yul\":3833:5228   */\ntag_6:\n    /* \"#utility.yul\":3950:3987   */\n  tag_77\n    /* \"#utility.yul\":3983:3986   */\n  dup3\n    /* \"#utility.yul\":3950:3987   */\n  tag_10\n  jump\t// in\ntag_77:\n    /* \"#utility.yul\":4052:4070   */\n  0xffffffffffffffff\n    /* \"#utility.yul\":4044:4050   */\n  dup2\n    /* \"#utility.yul\":4041:4071   */\n  gt\n    /* \"#utility.yul\":4038:4094   */\n  iszero\n  tag_78\n  jumpi\n    /* \"#utility.yul\":4074:4092   */\n  tag_79\n  tag_11\n  jump\t// in\ntag_79:\n    /* \"#utility.yul\":4038:4094   */\ntag_78:\n    /* \"#utility.yul\":4118:4156   */\n  tag_80\n    /* \"#utility.yul\":4150:4154   */\n  dup3\n    /* \"#utility.yul\":4144:4155   */\n  sload\n    /* \"#utility.yul\":4118:4156   */\n  tag_13\n  jump\t// in\ntag_80:\n    /* \"#utility.yul\":4203:4270   */\n  tag_81\n    /* \"#utility.yul\":4263:4269   */\n  dup3\n    /* \"#utility.yul\":4255:4261   */\n  dup3\n    /* \"#utility.yul\":4249:4253   */\n  dup6\n    /* \"#utility.yul\":4203:4270   */\n  tag_26\n  jump\t// in\ntag_81:\n    /* \"#utility.yul\":4297:4298   */\n  0x00\n    /* \"#utility.yul\":4321:4325   */\n  0x20\n    /* \"#utility.yul\":4308:4325   */\n  swap1\n  pop\n    /* \"#utility.yul\":4353:4355   */\n  0x1f\n    /* \"#utility.yul\":4345:4351   */\n  dup4\n    /* \"#utility.yul\":4342:4356   */\n  gt\n    /* \"#utility.yul\":4370:4371   */\n  0x01\n    /* \"#utility.yul\":4365:4983   */\n  dup2\n  eq\n  tag_83\n  jumpi\n    /* \"#utility.yul\":5027:5028   */\n  0x00\n    /* \"#utility.yul\":5044:5050   */\n  dup5\n    /* \"#utility.yul\":5041:5118   */\n  iszero\n  tag_84\n  jumpi\n    /* \"#utility.yul\":5093:5102   */\n  dup3\n    /* \"#utility.yul\":5088:5091   */\n  dup8\n    /* \"#utility.yul\":5084:5103   */\n  add\n    /* \"#utility.yul\":5078:5104   */\n  mload\n    /* \"#utility.yul\":5069:5104   */\n  swap1\n  pop\n    /* \"#utility.yul\":5041:5118   */\ntag_84:\n    /* \"#utility.yul\":5144:5211   */\n  tag_85\n    /* \"#utility.yul\":5204:5210   */\n  dup6\n    /* \"#utility.yul\":5197:5202   */\n  dup3\n    /* \"#utility.yul\":5144:5211   */\n  tag_29\n  jump\t// in\ntag_85:\n    /* \"#utility.yul\":5138:5142   */\n  dup7\n    /* \"#utility.yul\":5131:5212   */\n  sstore\n    /* \"#utility.yul\":5000:5222   */\n  pop\n    /* \"#utility.yul\":4335:5222   */\n  jump(tag_82)\n    /* \"#utility.yul\":4365:4983   */\ntag_83:\n    /* \"#utility.yul\":4417:4421   */\n  0x1f\n    /* \"#utility.yul\":4413:4422   */\n  not\n    /* \"#utility.yul\":4405:4411   */\n  dup5\n    /* \"#utility.yul\":4401:4423   */\n  and\n    /* \"#utility.yul\":4451:4488   */\n  tag_86\n    /* \"#utility.yul\":4483:4487   */\n  dup7\n    /* \"#utility.yul\":4451:4488   */\n  tag_14\n  jump\t// in\ntag_86:\n    /* \"#utility.yul\":4510:4511   */\n  0x00\n    /* \"#utility.yul\":4524:4732   */\ntag_87:\n    /* \"#utility.yul\":4538:4545   */\n  dup3\n    /* \"#utility.yul\":4535:4536   */\n  dup2\n    /* \"#utility.yul\":4532:4546   */\n  lt\n    /* \"#utility.yul\":4524:4732   */\n  iszero\n  tag_89\n  jumpi\n    /* \"#utility.yul\":4617:4626   */\n  dup5\n    /* \"#utility.yul\":4612:4615   */\n  dup10\n    /* \"#utility.yul\":4608:4627   */\n  add\n    /* \"#utility.yul\":4602:4628   */\n  mload\n    /* \"#utility.yul\":4594:4600   */\n  dup3\n    /* \"#utility.yul\":4587:4629   */\n  sstore\n    /* \"#utility.yul\":4668:4669   */\n  0x01\n    /* \"#utility.yul\":4660:4666   */\n  dup3\n    /* \"#utility.yul\":4656:4670   */\n  add\n    /* \"#utility.yul\":4646:4670   */\n  swap2\n  pop\n    /* \"#utility.yul\":4715:4717   */\n  0x20\n    /* \"#utility.yul\":4704:4713   */\n  dup6\n    /* \"#utility.yul\":4700:4718   */\n  add\n    /* \"#utility.yul\":4687:4718   */\n  swap5\n  pop\n    /* \"#utility.yul\":4561:4565   */\n  0x20\n    /* \"#utility.yul\":4558:4559   */\n  dup2\n    /* \"#utility.yul\":4554:4566   */\n  add\n    /* \"#utility.yul\":4549:4566   */\n  swap1\n  pop\n    /* \"#utility.yul\":4524:4732   */\n  jump(tag_87)\ntag_89:\n    /* \"#utility.yul\":4760:4766   */\n  dup7\n    /* \"#utility.yul\":4751:4758   */\n  dup4\n    /* \"#utility.yul\":4748:4767   */\n  lt\n    /* \"#utility.yul\":4745:4924   */\n  iszero\n  tag_90\n  jumpi\n    /* \"#utility.yul\":4818:4827   */\n  dup5\n    /* \"#utility.yul\":4813:4816   */\n  dup10\n    /* \"#utility.yul\":4809:4828   */\n  add\n    /* \"#utility.yul\":4803:4829   */\n  mload\n    /* \"#utility.yul\":4861:4909   */\n  tag_91\n    /* \"#utility.yul\":4903:4907   */\n  0x1f\n    /* \"#utility.yul\":4895:4901   */\n  dup10\n    /* \"#utility.yul\":4891:4908   */\n  and\n    /* \"#utility.yul\":4880:4889   */\n  dup3\n    /* \"#utility.yul\":4861:4909   */\n  tag_28\n  jump\t// in\ntag_91:\n    /* \"#utility.yul\":4853:4859   */\n  dup4\n    /* \"#utility.yul\":4846:4910   */\n  sstore\n    /* \"#utility.yul\":4768:4924   */\n  pop\n    /* \"#utility.yul\":4745:4924   */\ntag_90:\n    /* \"#utility.yul\":4970:4971   */\n  0x01\n    /* \"#utility.yul\":4966:4967   */\n  0x02\n    /* \"#utility.yul\":4958:4964   */\n  dup9\n    /* \"#utility.yul\":4954:4968   */\n  mul\n    /* \"#utility.yul\":4950:4972   */\n  add\n    /* \"#utility.yul\":4944:4948   */\n  dup9\n    /* \"#utility.yul\":4937:4973   */\n  sstore\n    /* \"#utility.yul\":4372:4983   */\n  pop\n  pop\n  pop\n    /* \"#utility.yul\":4335:5222   */\ntag_82:\n  pop\n    /* \"#utility.yul\":3925:5228   */\n  pop\n  pop\n  pop\n    /* \"#utility.yul\":3833:5228   */\n  pop\n  pop\n  jump\t// out\n    /* \"contracts/DigitalDataStorage.sol\":114:1264  contract DigitalDataStorage is ERC20 {... */\ntag_9:\n  dataSize(sub_0)\n  dup1\n  dataOffset(sub_0)\n  0x00\n  codecopy\n  0x00\n  return\nstop\n\nsub_0: assembly {\n        /* \"contracts/DigitalDataStorage.sol\":114:1264  contract DigitalDataStorage is ERC20 {... */\n      mstore(0x40, 0x80)\n      callvalue\n      dup1\n      iszero\n      tag_1\n      jumpi\n      0x00\n      dup1\n      revert\n    tag_1:\n      pop\n      jumpi(tag_2, lt(calldatasize, 0x04))\n      shr(0xe0, calldataload(0x00))\n      dup1\n      0x70a08231\n      gt\n      tag_17\n      jumpi\n      dup1\n      0xa9059cbb\n      gt\n      tag_18\n      jumpi\n      dup1\n      0xa9059cbb\n      eq\n      tag_13\n      jumpi\n      dup1\n      0xdd62ed3e\n      eq\n      tag_14\n      jumpi\n      dup1\n      0xeca5343a\n      eq\n      tag_15\n      jumpi\n      dup1\n      0xfb218f5f\n      eq\n      tag_16\n      jumpi\n      jump(tag_2)\n    tag_18:\n      dup1\n      0x70a08231\n      eq\n      tag_10\n      jumpi\n      dup1\n      0x95d89b41\n      eq\n      tag_11\n      jumpi\n      dup1\n      0xa457c2d7\n      eq\n      tag_12\n      jumpi\n      jump(tag_2)\n    tag_17:\n      dup1\n      0x18160ddd\n      gt\n      tag_19\n      jumpi\n      dup1\n      0x18160ddd\n      eq\n      tag_6\n      jumpi\n      dup1\n      0x23b872dd\n      eq\n      tag_7\n      jumpi\n      dup1\n      0x313ce567\n      eq\n      tag_8\n      jumpi\n      dup1\n      0x39509351\n      eq\n      tag_9\n      jumpi\n      jump(tag_2)\n    tag_19:\n      dup1\n      0x0178fe3f\n      eq\n      tag_3\n      jumpi\n      dup1\n      0x06fdde03\n      eq\n      tag_4\n      jumpi\n      dup1\n      0x095ea7b3\n      eq\n      tag_5\n      jumpi\n    tag_2:\n      0x00\n      dup1\n      revert\n        /* \"contracts/DigitalDataStorage.sol\":792:975  function getData(uint256 index) external view returns (string memory) {... */\n    tag_3:\n      tag_20\n      0x04\n      dup1\n      calldatasize\n      sub\n      dup2\n      add\n      swap1\n      tag_21\n      swap2\n      swap1\n      tag_22\n      jump\t// in\n    tag_21:\n      tag_23\n      jump\t// in\n    tag_20:\n      mload(0x40)\n      tag_24\n      swap2\n      swap1\n      tag_25\n      jump\t// in\n    tag_24:\n      mload(0x40)\n      dup1\n      swap2\n      sub\n      swap1\n      return\n        /* \"@openzeppelin/contracts/token/ERC20/ERC20.sol\":2154:2252  function name() public view virtual override returns (string memory) {... */\n    tag_4:\n      tag_26\n      tag_27\n      jump\t// in\n    tag_26:\n      mload(0x40)\n      tag_28\n      swap2\n      swap1\n      tag_25\n      jump\t// in\n    tag_28:\n      mload(0x40)\n      dup1\n      swap2\n      sub\n      swap1\n      return\n        /* \"@openzeppelin/contracts/token/ERC20/ERC20.sol\":4431:4628  function approve(address spender, uint256 amount) public virtual override returns (bool) {... */\n    tag_5:\n      tag_29\n      0x04\n      dup1\n      calldatasize\n      sub\n      dup2\n      add\n      swap1\n      tag_30\n      swap2\n      swap1\n      tag_31\n      jump\t// in\n    tag_30:\n      tag_32\n      jump\t// in\n    tag_29:\n      mload(0x40)\n      tag_33\n      swap2\n      swap1\n      tag_34\n      jump\t// in\n    tag_33:\n      mload(0x40)\n      dup1\n      swap2\n      sub\n      swap1\n      return\n        /* \"@openzeppelin/contracts/token/ERC20/ERC20.sol\":3242:3348  function totalSupply() public view virtual override returns (uint256) {... */\n    tag_6:\n      tag_35\n      tag_36\n      jump\t// in\n    tag_35:\n      mload(0x40)\n      tag_37\n      swap2\n      swap1\n      tag_38\n      jump\t// in\n    tag_37:\n      mload(0x40)\n      dup1\n      swap2\n      sub\n      swap1\n      return\n        /* \"@openzeppelin/contracts/token/ERC20/ERC20.sol\":5190:5476  function transferFrom(... */\n    tag_7:\n      tag_39\n      0x04\n      dup1\n      calldatasize\n      sub\n      dup2\n      add\n      swap1\n      tag_40\n      swap2\n      swap1\n      tag_41\n      jump\t// in\n    tag_40:\n      tag_42\n      jump\t// in\n    tag_39:\n      mload(0x40)\n      tag_43\n      swap2\n      swap1\n      tag_34\n      jump\t// in\n    tag_43:\n      mload(0x40)\n      dup1\n      swap2\n      sub\n      swap1\n      return\n        /* \"@openzeppelin/contracts/token/ERC20/ERC20.sol\":3091:3182  function decimals() public view virtual override returns (uint8) {... */\n    tag_8:\n      tag_44\n      tag_45\n      jump\t// in\n    tag_44:\n      mload(0x40)\n      tag_46\n      swap2\n      swap1\n      tag_47\n      jump\t// in\n    tag_46:\n      mload(0x40)\n      dup1\n      swap2\n      sub\n      swap1\n      return\n        /* \"@openzeppelin/contracts/token/ERC20/ERC20.sol\":5871:6105  function increaseAllowance(address spender, uint256 addedValue) public virtual returns (bool) {... */\n    tag_9:\n      tag_48\n      0x04\n      dup1\n      calldatasize\n      sub\n      dup2\n      add\n      swap1\n      tag_49\n      swap2\n      swap1\n      tag_31\n      jump\t// in\n    tag_49:\n      tag_50\n      jump\t// in\n    tag_48:\n      mload(0x40)\n      tag_51\n      swap2\n      swap1\n      tag_34\n      jump\t// in\n    tag_51:\n      mload(0x40)\n      dup1\n      swap2\n      sub\n      swap1\n      return\n        /* \"@openzeppelin/contracts/token/ERC20/ERC20.sol\":3406:3531  function balanceOf(address account) public view virtual override returns (uint256) {... */\n    tag_10:\n      tag_52\n      0x04\n      dup1\n      calldatasize\n      sub\n      dup2\n      add\n      swap1\n      tag_53\n      swap2\n      swap1\n      tag_54\n      jump\t// in\n    tag_53:\n      tag_55\n      jump\t// in\n    tag_52:\n      mload(0x40)\n      tag_56\n      swap2\n      swap1\n      tag_38\n      jump\t// in\n    tag_56:\n      mload(0x40)\n      dup1\n      swap2\n      sub\n      swap1\n      return\n        /* \"@openzeppelin/contracts/token/ERC20/ERC20.sol\":2365:2467  function symbol() public view virtual override returns (string memory) {... */\n    tag_11:\n      tag_57\n      tag_58\n      jump\t// in\n    tag_57:\n      mload(0x40)\n      tag_59\n      swap2\n      swap1\n      tag_25\n      jump\t// in\n    tag_59:\n      mload(0x40)\n      dup1\n      swap2\n      sub\n      swap1\n      return\n        /* \"@openzeppelin/contracts/token/ERC20/ERC20.sol\":6592:7019  function decreaseAllowance(address spender, uint256 subtractedValue) public virtual returns (bool) {... */\n    tag_12:\n      tag_60\n      0x04\n      dup1\n      calldatasize\n      sub\n      dup2\n      add\n      swap1\n      tag_61\n      swap2\n      swap1\n      tag_31\n      jump\t// in\n    tag_61:\n      tag_62\n      jump\t// in\n    tag_60:\n      mload(0x40)\n      tag_63\n      swap2\n      swap1\n      tag_34\n      jump\t// in\n    tag_63:\n      mload(0x40)\n      dup1\n      swap2\n      sub\n      swap1\n      return\n        /* \"@openzeppelin/contracts/token/ERC20/ERC20.sol\":3727:3916  function transfer(address to, uint256 amount) public virtual override returns (bool) {... */\n    tag_13:\n      tag_64\n      0x04\n      dup1\n      calldatasize\n      sub\n      dup2\n      add\n      swap1\n      tag_65\n      swap2\n      swap1\n      tag_31\n      jump\t// in\n    tag_65:\n      tag_66\n      jump\t// in\n    tag_64:\n      mload(0x40)\n      tag_67\n      swap2\n      swap1\n      tag_34\n      jump\t// in\n    tag_67:\n      mload(0x40)\n      dup1\n      swap2\n      sub\n      swap1\n      return\n        /* \"@openzeppelin/contracts/token/ERC20/ERC20.sol\":3974:4123  function allowance(address owner, address spender) public view virtual override returns (uint256) {... */\n    tag_14:\n      tag_68\n      0x04\n      dup1\n      calldatasize\n      sub\n      dup2\n      add\n      swap1\n      tag_69\n      swap2\n      swap1\n      tag_70\n      jump\t// in\n    tag_69:\n      tag_71\n      jump\t// in\n    tag_68:\n      mload(0x40)\n      tag_72\n      swap2\n      swap1\n      tag_38\n      jump\t// in\n    tag_72:\n      mload(0x40)\n      dup1\n      swap2\n      sub\n      swap1\n      return\n        /* \"contracts/DigitalDataStorage.sol\":981:1262  function transferData(uint256 index, address to) external onlyOwner {... */\n    tag_15:\n      tag_73\n      0x04\n      dup1\n      calldatasize\n      sub\n      dup2\n      add\n      swap1\n      tag_74\n      swap2\n      swap1\n      tag_75\n      jump\t// in\n    tag_74:\n      tag_76\n      jump\t// in\n    tag_73:\n      stop\n        /* \"contracts/DigitalDataStorage.sol\":589:786  function storeData(string memory data) external {... */\n    tag_16:\n      tag_77\n      0x04\n      dup1\n      calldatasize\n      sub\n      dup2\n      add\n      swap1\n      tag_78\n      swap2\n      swap1\n      tag_79\n      jump\t// in\n    tag_78:\n      tag_80\n      jump\t// in\n    tag_77:\n      stop\n        /* \"contracts/DigitalDataStorage.sol\":792:975  function getData(uint256 index) external view returns (string memory) {... */\n    tag_23:\n        /* \"contracts/DigitalDataStorage.sol\":847:860  string memory */\n      0x60\n        /* \"contracts/DigitalDataStorage.sol\":888:889  0 */\n      0x00\n        /* \"contracts/DigitalDataStorage.sol\":880:885  index */\n      dup3\n        /* \"contracts/DigitalDataStorage.sol\":880:889  index > 0 */\n      gt\n        /* \"contracts/DigitalDataStorage.sol\":880:914  index > 0 && index <= _dataCounter */\n      dup1\n      iszero\n      tag_82\n      jumpi\n      pop\n        /* \"contracts/DigitalDataStorage.sol\":902:914  _dataCounter */\n      sload(0x05)\n        /* \"contracts/DigitalDataStorage.sol\":893:898  index */\n      dup3\n        /* \"contracts/DigitalDataStorage.sol\":893:914  index <= _dataCounter */\n      gt\n      iszero\n        /* \"contracts/DigitalDataStorage.sol\":880:914  index > 0 && index <= _dataCounter */\n    tag_82:\n        /* \"contracts/DigitalDataStorage.sol\":872:932  require(index > 0 && index <= _dataCounter, \"Invalid index\") */\n      tag_83\n      jumpi\n      mload(0x40)\n      0x08c379a000000000000000000000000000000000000000000000000000000000\n      dup2\n      mstore\n      0x04\n      add\n      tag_84\n      swap1\n      tag_85\n      jump\t// in\n    tag_84:\n      mload(0x40)\n      dup1\n      swap2\n      sub\n      swap1\n      revert\n    tag_83:\n        /* \"contracts/DigitalDataStorage.sol\":949:961  _dataStorage */\n      0x06\n        /* \"contracts/DigitalDataStorage.sol\":949:968  _dataStorage[index] */\n      0x00\n        /* \"contracts/DigitalDataStorage.sol\":962:967  index */\n      dup4\n        /* \"contracts/DigitalDataStorage.sol\":949:968  _dataStorage[index] */\n      dup2\n      mstore\n      0x20\n      add\n      swap1\n      dup2\n      mstore\n      0x20\n      add\n      0x00\n      keccak256\n        /* \"contracts/DigitalDataStorage.sol\":942:968  return _dataStorage[index] */\n      dup1\n      sload\n      tag_86\n      swap1\n      tag_87\n      jump\t// in\n    tag_86:\n      dup1\n      0x1f\n      add\n      0x20\n      dup1\n      swap2\n      div\n      mul\n      0x20\n      add\n      mload(0x40)\n      swap1\n      dup2\n      add\n      0x40\n      mstore\n      dup1\n      swap3\n      swap2\n      swap1\n      dup2\n      dup2\n      mstore\n      0x20\n      add\n      dup3\n      dup1\n      sload\n      tag_88\n      swap1\n      tag_87\n      jump\t// in\n    tag_88:\n      dup1\n      iszero\n      tag_89\n      jumpi\n      dup1\n      0x1f\n      lt\n      tag_90\n      jumpi\n      0x0100\n      dup1\n      dup4\n      sload\n      div\n      mul\n      dup4\n      mstore\n      swap2\n      0x20\n      add\n      swap2\n      jump(tag_89)\n    tag_90:\n      dup3\n      add\n      swap2\n      swap1\n      0x00\n      mstore\n      keccak256(0x00, 0x20)\n      swap1\n    tag_91:\n      dup2\n      sload\n      dup2\n      mstore\n      swap1\n      0x01\n      add\n      swap1\n      0x20\n      add\n      dup1\n      dup4\n      gt\n      tag_91\n      jumpi\n      dup3\n      swap1\n      sub\n      0x1f\n      and\n      dup3\n      add\n      swap2\n    tag_89:\n      pop\n      pop\n      pop\n      pop\n      pop\n      swap1\n      pop\n        /* \"contracts/DigitalDataStorage.sol\":792:975  function getData(uint256 index) external view returns (string memory) {... */\n      swap2\n      swap1\n      pop\n      jump\t// out\n        /* \"@openzeppelin/contracts/token/ERC20/ERC20.sol\":2154:2252  function name() public view virtual override returns (string memory) {... */\n    tag_27:\n        /* \"@openzeppelin/contracts/token/ERC20/ERC20.sol\":2208:2221  string memory */\n      0x60\n        /* \"@openzeppelin/contracts/token/ERC20/ERC20.sol\":2240:2245  _name */\n      0x03\n        /* \"@openzeppelin/contracts/token/ERC20/ERC20.sol\":2233:2245  return _name */\n      dup1\n      sload\n      tag_93\n      swap1\n      tag_87\n      jump\t// in\n    tag_93:\n      dup1\n      0x1f\n      add\n      0x20\n      dup1\n      swap2\n      div\n      mul\n      0x20\n      add\n      mload(0x40)\n      swap1\n      dup2\n      add\n      0x40\n      mstore\n      dup1\n      swap3\n      swap2\n      swap1\n      dup2\n      dup2\n      mstore\n      0x20\n      add\n      dup3\n      dup1\n      sload\n      tag_94\n      swap1\n      tag_87\n      jump\t// in\n    tag_94:\n      dup1\n      iszero\n      tag_95\n      jumpi\n      dup1\n      0x1f\n      lt\n      tag_96\n      jumpi\n      0x0100\n      dup1\n      dup4\n      sload\n      div\n      mul\n      dup4\n      mstore\n      swap2\n      0x20\n      add\n      swap2\n      jump(tag_95)\n    tag_96:\n      dup3\n      add\n      swap2\n      swap1\n      0x00\n      mstore\n      keccak256(0x00, 0x20)\n      swap1\n    tag_97:\n      dup2\n      sload\n      dup2\n      mstore\n      swap1\n      0x01\n      add\n      swap1\n      0x20\n      add\n      dup1\n      dup4\n      gt\n      tag_97\n      jumpi\n      dup3\n      swap1\n      sub\n      0x1f\n      and\n      dup3\n      add\n      swap2\n    tag_95:\n      pop\n      pop\n      pop\n      pop\n      pop\n      swap1\n      pop\n        /* \"@openzeppelin/contracts/token/ERC20/ERC20.sol\":2154:2252  function name() public view virtual override returns (string memory) {... */\n      swap1\n      jump\t// out\n        /* \"@openzeppelin/contracts/token/ERC20/ERC20.sol\":4431:4628  function approve(address spender, uint256 amount) public virtual override returns (bool) {... */\n    tag_32:\n        /* \"@openzeppelin/contracts/token/ERC20/ERC20.sol\":4514:4518  bool */\n      0x00\n        /* \"@openzeppelin/contracts/token/ERC20/ERC20.sol\":4530:4543  address owner */\n      dup1\n        /* \"@openzeppelin/contracts/token/ERC20/ERC20.sol\":4546:4558  _msgSender() */\n      tag_99\n        /* \"@openzeppelin/contracts/token/ERC20/ERC20.sol\":4546:4556  _msgSender */\n      tag_100\n        /* \"@openzeppelin/contracts/token/ERC20/ERC20.sol\":4546:4558  _msgSender() */\n      jump\t// in\n    tag_99:\n        /* \"@openzeppelin/contracts/token/ERC20/ERC20.sol\":4530:4558  address owner = _msgSender() */\n      swap1\n      pop\n        /* \"@openzeppelin/contracts/token/ERC20/ERC20.sol\":4568:4600  _approve(owner, spender, amount) */\n      tag_101\n        /* \"@openzeppelin/contracts/token/ERC20/ERC20.sol\":4577:4582  owner */\n      dup2\n        /* \"@openzeppelin/contracts/token/ERC20/ERC20.sol\":4584:4591  spender */\n      dup6\n        /* \"@openzeppelin/contracts/token/ERC20/ERC20.sol\":4593:4599  amount */\n      dup6\n        /* \"@openzeppelin/contracts/token/ERC20/ERC20.sol\":4568:4576  _approve */\n      tag_102\n        /* \"@openzeppelin/contracts/token/ERC20/ERC20.sol\":4568:4600  _approve(owner, spender, amount) */\n      jump\t// in\n    tag_101:\n        /* \"@openzeppelin/contracts/token/ERC20/ERC20.sol\":4617:4621  true */\n      0x01\n        /* \"@openzeppelin/contracts/token/ERC20/ERC20.sol\":4610:4621  return true */\n      swap2\n      pop\n      pop\n        /* \"@openzeppelin/contracts/token/ERC20/ERC20.sol\":4431:4628  function approve(address spender, uint256 amount) public virtual override returns (bool) {... */\n      swap3\n      swap2\n      pop\n      pop\n      jump\t// out\n        /* \"@openzeppelin/contracts/token/ERC20/ERC20.sol\":3242:3348  function totalSupply() public view virtual override returns (uint256) {... */\n    tag_36:\n        /* \"@openzeppelin/contracts/token/ERC20/ERC20.sol\":3303:3310  uint256 */\n      0x00\n        /* \"@openzeppelin/contracts/token/ERC20/ERC20.sol\":3329:3341  _totalSupply */\n      sload(0x02)\n        /* \"@openzeppelin/contracts/token/ERC20/ERC20.sol\":3322:3341  return _totalSupply */\n      swap1\n      pop\n        /* \"@openzeppelin/contracts/token/ERC20/ERC20.sol\":3242:3348  function totalSupply() public view virtual override returns (uint256) {... */\n      swap1\n      jump\t// out\n        /* \"@openzeppelin/contracts/token/ERC20/ERC20.sol\":5190:5476  function transferFrom(... */\n    tag_42:\n        /* \"@openzeppelin/contracts/token/ERC20/ERC20.sol\":5317:5321  bool */\n      0x00\n        /* \"@openzeppelin/contracts/token/ERC20/ERC20.sol\":5333:5348  address spender */\n      dup1\n        /* \"@openzeppelin/contracts/token/ERC20/ERC20.sol\":5351:5363  _msgSender() */\n      tag_105\n        /* \"@openzeppelin/contracts/token/ERC20/ERC20.sol\":5351:5361  _msgSender */\n      tag_100\n        /* \"@openzeppelin/contracts/token/ERC20/ERC20.sol\":5351:5363  _msgSender() */\n      jump\t// in\n    tag_105:\n        /* \"@openzeppelin/contracts/token/ERC20/ERC20.sol\":5333:5363  address spender = _msgSender() */\n      swap1\n      pop\n        /* \"@openzeppelin/contracts/token/ERC20/ERC20.sol\":5373:5411  _spendAllowance(from, spender, amount) */\n      tag_106\n        /* \"@openzeppelin/contracts/token/ERC20/ERC20.sol\":5389:5393  from */\n      dup6\n        /* \"@openzeppelin/contracts/token/ERC20/ERC20.sol\":5395:5402  spender */\n      dup3\n        /* \"@openzeppelin/contracts/token/ERC20/ERC20.sol\":5404:5410  amount */\n      dup6\n        /* \"@openzeppelin/contracts/token/ERC20/ERC20.sol\":5373:5388  _spendAllowance */\n      tag_107\n        /* \"@openzeppelin/contracts/token/ERC20/ERC20.sol\":5373:5411  _spendAllowance(from, spender, amount) */\n      jump\t// in\n    tag_106:\n        /* \"@openzeppelin/contracts/token/ERC20/ERC20.sol\":5421:5448  _transfer(from, to, amount) */\n      tag_108\n        /* \"@openzeppelin/contracts/token/ERC20/ERC20.sol\":5431:5435  from */\n      dup6\n        /* \"@openzeppelin/contracts/token/ERC20/ERC20.sol\":5437:5439  to */\n      dup6\n        /* \"@openzeppelin/contracts/token/ERC20/ERC20.sol\":5441:5447  amount */\n      dup6\n        /* \"@openzeppelin/contracts/token/ERC20/ERC20.sol\":5421:5430  _transfer */\n      tag_109\n        /* \"@openzeppelin/contracts/token/ERC20/ERC20.sol\":5421:5448  _transfer(from, to, amount) */\n      jump\t// in\n    tag_108:\n        /* \"@openzeppelin/contracts/token/ERC20/ERC20.sol\":5465:5469  true */\n      0x01\n        /* \"@openzeppelin/contracts/token/ERC20/ERC20.sol\":5458:5469  return true */\n      swap2\n      pop\n      pop\n        /* \"@openzeppelin/contracts/token/ERC20/ERC20.sol\":5190:5476  function transferFrom(... */\n      swap4\n      swap3\n      pop\n      pop\n      pop\n      jump\t// out\n        /* \"@openzeppelin/contracts/token/ERC20/ERC20.sol\":3091:3182  function decimals() public view virtual override returns (uint8) {... */\n    tag_45:\n        /* \"@openzeppelin/contracts/token/ERC20/ERC20.sol\":3149:3154  uint8 */\n      0x00\n        /* \"@openzeppelin/contracts/token/ERC20/ERC20.sol\":3173:3175  18 */\n      0x12\n        /* \"@openzeppelin/contracts/token/ERC20/ERC20.sol\":3166:3175  return 18 */\n      swap1\n      pop\n        /* \"@openzeppelin/contracts/token/ERC20/ERC20.sol\":3091:3182  function decimals() public view virtual override returns (uint8) {... */\n      swap1\n      jump\t// out\n        /* \"@openzeppelin/contracts/token/ERC20/ERC20.sol\":5871:6105  function increaseAllowance(address spender, uint256 addedValue) public virtual returns (bool) {... */\n    tag_50:\n        /* \"@openzeppelin/contracts/token/ERC20/ERC20.sol\":5959:5963  bool */\n      0x00\n        /* \"@openzeppelin/contracts/token/ERC20/ERC20.sol\":5975:5988  address owner */\n      dup1\n        /* \"@openzeppelin/contracts/token/ERC20/ERC20.sol\":5991:6003  _msgSender() */\n      tag_112\n        /* \"@openzeppelin/contracts/token/ERC20/ERC20.sol\":5991:6001  _msgSender */\n      tag_100\n        /* \"@openzeppelin/contracts/token/ERC20/ERC20.sol\":5991:6003  _msgSender() */\n      jump\t// in\n    tag_112:\n        /* \"@openzeppelin/contracts/token/ERC20/ERC20.sol\":5975:6003  address owner = _msgSender() */\n      swap1\n      pop\n        /* \"@openzeppelin/contracts/token/ERC20/ERC20.sol\":6013:6077  _approve(owner, spender, allowance(owner, spender) + addedValue) */\n      tag_113\n        /* \"@openzeppelin/contracts/token/ERC20/ERC20.sol\":6022:6027  owner */\n      dup2\n        /* \"@openzeppelin/contracts/token/ERC20/ERC20.sol\":6029:6036  spender */\n      dup6\n        /* \"@openzeppelin/contracts/token/ERC20/ERC20.sol\":6066:6076  addedValue */\n      dup6\n        /* \"@openzeppelin/contracts/token/ERC20/ERC20.sol\":6038:6063  allowance(owner, spender) */\n      tag_114\n        /* \"@openzeppelin/contracts/token/ERC20/ERC20.sol\":6048:6053  owner */\n      dup6\n        /* \"@openzeppelin/contracts/token/ERC20/ERC20.sol\":6055:6062  spender */\n      dup10\n        /* \"@openzeppelin/contracts/token/ERC20/ERC20.sol\":6038:6047  allowance */\n      tag_71\n        /* \"@openzeppelin/contracts/token/ERC20/ERC20.sol\":6038:6063  allowance(owner, spender) */\n      jump\t// in\n    tag_114:\n        /* \"@openzeppelin/contracts/token/ERC20/ERC20.sol\":6038:6076  allowance(owner, spender) + addedValue */\n      tag_115\n      swap2\n      swap1\n      tag_116\n      jump\t// in\n    tag_115:\n        /* \"@openzeppelin/contracts/token/ERC20/ERC20.sol\":6013:6021  _approve */\n      tag_102\n        /* \"@openzeppelin/contracts/token/ERC20/ERC20.sol\":6013:6077  _approve(owner, spender, allowance(owner, spender) + addedValue) */\n      jump\t// in\n    tag_113:\n        /* \"@openzeppelin/contracts/token/ERC20/ERC20.sol\":6094:6098  true */\n      0x01\n        /* \"@openzeppelin/contracts/token/ERC20/ERC20.sol\":6087:6098  return true */\n      swap2\n      pop\n      pop\n        /* \"@openzeppelin/contracts/token/ERC20/ERC20.sol\":5871:6105  function increaseAllowance(address spender, uint256 addedValue) public virtual returns (bool) {... */\n      swap3\n      swap2\n      pop\n      pop\n      jump\t// out\n        /* \"@openzeppelin/contracts/token/ERC20/ERC20.sol\":3406:3531  function balanceOf(address account) public view virtual override returns (uint256) {... */\n    tag_55:\n        /* \"@openzeppelin/contracts/token/ERC20/ERC20.sol\":3480:3487  uint256 */\n      0x00\n        /* \"@openzeppelin/contracts/token/ERC20/ERC20.sol\":3506:3515  _balances */\n      dup1\n        /* \"@openzeppelin/contracts/token/ERC20/ERC20.sol\":3506:3524  _balances[account] */\n      0x00\n        /* \"@openzeppelin/contracts/token/ERC20/ERC20.sol\":3516:3523  account */\n      dup4\n        /* \"@openzeppelin/contracts/token/ERC20/ERC20.sol\":3506:3524  _balances[account] */\n      0xffffffffffffffffffffffffffffffffffffffff\n      and\n      0xffffffffffffffffffffffffffffffffffffffff\n      and\n      dup2\n      mstore\n      0x20\n      add\n      swap1\n      dup2\n      mstore\n      0x20\n      add\n      0x00\n      keccak256\n      sload\n        /* \"@openzeppelin/contracts/token/ERC20/ERC20.sol\":3499:3524  return _balances[account] */\n      swap1\n      pop\n        /* \"@openzeppelin/contracts/token/ERC20/ERC20.sol\":3406:3531  function balanceOf(address account) public view virtual override returns (uint256) {... */\n      swap2\n      swap1\n      pop\n      jump\t// out\n        /* \"@openzeppelin/contracts/token/ERC20/ERC20.sol\":2365:2467  function symbol() public view virtual override returns (string memory) {... */\n    tag_58:\n        /* \"@openzeppelin/contracts/token/ERC20/ERC20.sol\":2421:2434  string memory */\n      0x60\n        /* \"@openzeppelin/contracts/token/ERC20/ERC20.sol\":2453:2460  _symbol */\n      0x04\n        /* \"@openzeppelin/contracts/token/ERC20/ERC20.sol\":2446:2460  return _symbol */\n      dup1\n      sload\n      tag_119\n      swap1\n      tag_87\n      jump\t// in\n    tag_119:\n      dup1\n      0x1f\n      add\n      0x20\n      dup1\n      swap2\n      div\n      mul\n      0x20\n      add\n      mload(0x40)\n      swap1\n      dup2\n      add\n      0x40\n      mstore\n      dup1\n      swap3\n      swap2\n      swap1\n      dup2\n      dup2\n      mstore\n      0x20\n      add\n      dup3\n      dup1\n      sload\n      tag_120\n      swap1\n      tag_87\n      jump\t// in\n    tag_120:\n      dup1\n      iszero\n      tag_121\n      jumpi\n      dup1\n      0x1f\n      lt\n      tag_122\n      jumpi\n      0x0100\n      dup1\n      dup4\n      sload\n      div\n      mul\n      dup4\n      mstore\n      swap2\n      0x20\n      add\n      swap2\n      jump(tag_121)\n    tag_122:\n      dup3\n      add\n      swap2\n      swap1\n      0x00\n      mstore\n      keccak256(0x00, 0x20)\n      swap1\n    tag_123:\n      dup2\n      sload\n      dup2\n      mstore\n      swap1\n      0x01\n      add\n      swap1\n      0x20\n      add\n      dup1\n      dup4\n      gt\n      tag_123\n      jumpi\n      dup3\n      swap1\n      sub\n      0x1f\n      and\n      dup3\n      add\n      swap2\n    tag_121:\n      pop\n      pop\n      pop\n      pop\n      pop\n      swap1\n      pop\n        /* \"@openzeppelin/contracts/token/ERC20/ERC20.sol\":2365:2467  function symbol() public view virtual override returns (string memory) {... */\n      swap1\n      jump\t// out\n        /* \"@openzeppelin/contracts/token/ERC20/ERC20.sol\":6592:7019  function decreaseAllowance(address spender, uint256 subtractedValue) public virtual returns (bool) {... */\n    tag_62:\n        /* \"@openzeppelin/contracts/token/ERC20/ERC20.sol\":6685:6689  bool */\n      0x00\n        /* \"@openzeppelin/contracts/token/ERC20/ERC20.sol\":6701:6714  address owner */\n      dup1\n        /* \"@openzeppelin/contracts/token/ERC20/ERC20.sol\":6717:6729  _msgSender() */\n      tag_125\n        /* \"@openzeppelin/contracts/token/ERC20/ERC20.sol\":6717:6727  _msgSender */\n      tag_100\n        /* \"@openzeppelin/contracts/token/ERC20/ERC20.sol\":6717:6729  _msgSender() */\n      jump\t// in\n    tag_125:\n        /* \"@openzeppelin/contracts/token/ERC20/ERC20.sol\":6701:6729  address owner = _msgSender() */\n      swap1\n      pop\n        /* \"@openzeppelin/contracts/token/ERC20/ERC20.sol\":6739:6763  uint256 currentAllowance */\n      0x00\n        /* \"@openzeppelin/contracts/token/ERC20/ERC20.sol\":6766:6791  allowance(owner, spender) */\n      tag_126\n        /* \"@openzeppelin/contracts/token/ERC20/ERC20.sol\":6776:6781  owner */\n      dup3\n        /* \"@openzeppelin/contracts/token/ERC20/ERC20.sol\":6783:6790  spender */\n      dup7\n        /* \"@openzeppelin/contracts/token/ERC20/ERC20.sol\":6766:6775  allowance */\n      tag_71\n        /* \"@openzeppelin/contracts/token/ERC20/ERC20.sol\":6766:6791  allowance(owner, spender) */\n      jump\t// in\n    tag_126:\n        /* \"@openzeppelin/contracts/token/ERC20/ERC20.sol\":6739:6791  uint256 currentAllowance = allowance(owner, spender) */\n      swap1\n      pop\n        /* \"@openzeppelin/contracts/token/ERC20/ERC20.sol\":6829:6844  subtractedValue */\n      dup4\n        /* \"@openzeppelin/contracts/token/ERC20/ERC20.sol\":6809:6825  currentAllowance */\n      dup2\n        /* \"@openzeppelin/contracts/token/ERC20/ERC20.sol\":6809:6844  currentAllowance >= subtractedValue */\n      lt\n      iszero\n        /* \"@openzeppelin/contracts/token/ERC20/ERC20.sol\":6801:6886  require(currentAllowance >= subtractedValue, \"ERC20: decreased allowance below zero\") */\n      tag_127\n      jumpi\n      mload(0x40)\n      0x08c379a000000000000000000000000000000000000000000000000000000000\n      dup2\n      mstore\n      0x04\n      add\n      tag_128\n      swap1\n      tag_129\n      jump\t// in\n    tag_128:\n      mload(0x40)\n      dup1\n      swap2\n      sub\n      swap1\n      revert\n    tag_127:\n        /* \"@openzeppelin/contracts/token/ERC20/ERC20.sol\":6920:6980  _approve(owner, spender, currentAllowance - subtractedValue) */\n      tag_130\n        /* \"@openzeppelin/contracts/token/ERC20/ERC20.sol\":6929:6934  owner */\n      dup3\n        /* \"@openzeppelin/contracts/token/ERC20/ERC20.sol\":6936:6943  spender */\n      dup7\n        /* \"@openzeppelin/contracts/token/ERC20/ERC20.sol\":6964:6979  subtractedValue */\n      dup7\n        /* \"@openzeppelin/contracts/token/ERC20/ERC20.sol\":6945:6961  currentAllowance */\n      dup5\n        /* \"@openzeppelin/contracts/token/ERC20/ERC20.sol\":6945:6979  currentAllowance - subtractedValue */\n      sub\n        /* \"@openzeppelin/contracts/token/ERC20/ERC20.sol\":6920:6928  _approve */\n      tag_102\n        /* \"@openzeppelin/contracts/token/ERC20/ERC20.sol\":6920:6980  _approve(owner, spender, currentAllowance - subtractedValue) */\n      jump\t// in\n    tag_130:\n        /* \"@openzeppelin/contracts/token/ERC20/ERC20.sol\":7008:7012  true */\n      0x01\n        /* \"@openzeppelin/contracts/token/ERC20/ERC20.sol\":7001:7012  return true */\n      swap3\n      pop\n      pop\n      pop\n        /* \"@openzeppelin/contracts/token/ERC20/ERC20.sol\":6592:7019  function decreaseAllowance(address spender, uint256 subtractedValue) public virtual returns (bool) {... */\n      swap3\n      swap2\n      pop\n      pop\n      jump\t// out\n        /* \"@openzeppelin/contracts/token/ERC20/ERC20.sol\":3727:3916  function transfer(address to, uint256 amount) public virtual override returns (bool) {... */\n    tag_66:\n        /* \"@openzeppelin/contracts/token/ERC20/ERC20.sol\":3806:3810  bool */\n      0x00\n        /* \"@openzeppelin/contracts/token/ERC20/ERC20.sol\":3822:3835  address owner */\n      dup1\n        /* \"@openzeppelin/contracts/token/ERC20/ERC20.sol\":3838:3850  _msgSender() */\n      tag_132\n        /* \"@openzeppelin/contracts/token/ERC20/ERC20.sol\":3838:3848  _msgSender */\n      tag_100\n        /* \"@openzeppelin/contracts/token/ERC20/ERC20.sol\":3838:3850  _msgSender() */\n      jump\t// in\n    tag_132:\n        /* \"@openzeppelin/contracts/token/ERC20/ERC20.sol\":3822:3850  address owner = _msgSender() */\n      swap1\n      pop\n        /* \"@openzeppelin/contracts/token/ERC20/ERC20.sol\":3860:3888  _transfer(owner, to, amount) */\n      tag_133\n        /* \"@openzeppelin/contracts/token/ERC20/ERC20.sol\":3870:3875  owner */\n      dup2\n        /* \"@openzeppelin/contracts/token/ERC20/ERC20.sol\":3877:3879  to */\n      dup6\n        /* \"@openzeppelin/contracts/token/ERC20/ERC20.sol\":3881:3887  amount */\n      dup6\n        /* \"@openzeppelin/contracts/token/ERC20/ERC20.sol\":3860:3869  _transfer */\n      tag_109\n        /* \"@openzeppelin/contracts/token/ERC20/ERC20.sol\":3860:3888  _transfer(owner, to, amount) */\n      jump\t// in\n    tag_133:\n        /* \"@openzeppelin/contracts/token/ERC20/ERC20.sol\":3905:3909  true */\n      0x01\n        /* \"@openzeppelin/contracts/token/ERC20/ERC20.sol\":3898:3909  return true */\n      swap2\n      pop\n      pop\n        /* \"@openzeppelin/contracts/token/ERC20/ERC20.sol\":3727:3916  function transfer(address to, uint256 amount) public virtual override returns (bool) {... */\n      swap3\n      swap2\n      pop\n      pop\n      jump\t// out\n        /* \"@openzeppelin/contracts/token/ERC20/ERC20.sol\":3974:4123  function allowance(address owner, address spender) public view virtual override returns (uint256) {... */\n    tag_71:\n        /* \"@openzeppelin/contracts/token/ERC20/ERC20.sol\":4063:4070  uint256 */\n      0x00\n        /* \"@openzeppelin/contracts/token/ERC20/ERC20.sol\":4089:4100  _allowances */\n      0x01\n        /* \"@openzeppelin/contracts/token/ERC20/ERC20.sol\":4089:4107  _allowances[owner] */\n      0x00\n        /* \"@openzeppelin/contracts/token/ERC20/ERC20.sol\":4101:4106  owner */\n      dup5\n        /* \"@openzeppelin/contracts/token/ERC20/ERC20.sol\":4089:4107  _allowances[owner] */\n      0xffffffffffffffffffffffffffffffffffffffff\n      and\n      0xffffffffffffffffffffffffffffffffffffffff\n      and\n      dup2\n      mstore\n      0x20\n      add\n      swap1\n      dup2\n      mstore\n      0x20\n      add\n      0x00\n      keccak256\n        /* \"@openzeppelin/contracts/token/ERC20/ERC20.sol\":4089:4116  _allowances[owner][spender] */\n      0x00\n        /* \"@openzeppelin/contracts/token/ERC20/ERC20.sol\":4108:4115  spender */\n      dup4\n        /* \"@openzeppelin/contracts/token/ERC20/ERC20.sol\":4089:4116  _allowances[owner][spender] */\n      0xffffffffffffffffffffffffffffffffffffffff\n      and\n      0xffffffffffffffffffffffffffffffffffffffff\n      and\n      dup2\n      mstore\n      0x20\n      add\n      swap1\n      dup2\n      mstore\n      0x20\n      add\n      0x00\n      keccak256\n      sload\n        /* \"@openzeppelin/contracts/token/ERC20/ERC20.sol\":4082:4116  return _allowances[owner][spender] */\n      swap1\n      pop\n        /* \"@openzeppelin/contracts/token/ERC20/ERC20.sol\":3974:4123  function allowance(address owner, address spender) public view virtual override returns (uint256) {... */\n      swap3\n      swap2\n      pop\n      pop\n      jump\t// out\n        /* \"contracts/DigitalDataStorage.sol\":981:1262  function transferData(uint256 index, address to) external onlyOwner {... */\n    tag_76:\n        /* \"contracts/DigitalDataStorage.sol\":511:517  _owner */\n      0x07\n      0x00\n      swap1\n      sload\n      swap1\n      0x0100\n      exp\n      swap1\n      div\n      0xffffffffffffffffffffffffffffffffffffffff\n      and\n        /* \"contracts/DigitalDataStorage.sol\":497:517  msg.sender == _owner */\n      0xffffffffffffffffffffffffffffffffffffffff\n      and\n        /* \"contracts/DigitalDataStorage.sol\":497:507  msg.sender */\n      caller\n        /* \"contracts/DigitalDataStorage.sol\":497:517  msg.sender == _owner */\n      0xffffffffffffffffffffffffffffffffffffffff\n      and\n      eq\n        /* \"contracts/DigitalDataStorage.sol\":489:565  require(msg.sender == _owner, \"Only contract owner can perform this action\") */\n      tag_136\n      jumpi\n      mload(0x40)\n      0x08c379a000000000000000000000000000000000000000000000000000000000\n      dup2\n      mstore\n      0x04\n      add\n      tag_137\n      swap1\n      tag_138\n      jump\t// in\n    tag_137:\n      mload(0x40)\n      dup1\n      swap2\n      sub\n      swap1\n      revert\n    tag_136:\n        /* \"contracts/DigitalDataStorage.sol\":1075:1076  0 */\n      0x00\n        /* \"contracts/DigitalDataStorage.sol\":1067:1072  index */\n      dup3\n        /* \"contracts/DigitalDataStorage.sol\":1067:1076  index > 0 */\n      gt\n        /* \"contracts/DigitalDataStorage.sol\":1067:1101  index > 0 && index <= _dataCounter */\n      dup1\n      iszero\n      tag_140\n      jumpi\n      pop\n        /* \"contracts/DigitalDataStorage.sol\":1089:1101  _dataCounter */\n      sload(0x05)\n        /* \"contracts/DigitalDataStorage.sol\":1080:1085  index */\n      dup3\n        /* \"contracts/DigitalDataStorage.sol\":1080:1101  index <= _dataCounter */\n      gt\n      iszero\n        /* \"contracts/DigitalDataStorage.sol\":1067:1101  index > 0 && index <= _dataCounter */\n    tag_140:\n        /* \"contracts/DigitalDataStorage.sol\":1059:1119  require(index > 0 && index <= _dataCounter, \"Invalid index\") */\n      tag_141\n      jumpi\n      mload(0x40)\n      0x08c379a000000000000000000000000000000000000000000000000000000000\n      dup2\n      mstore\n      0x04\n      add\n      tag_142\n      swap1\n      tag_85\n      jump\t// in\n    tag_142:\n      mload(0x40)\n      dup1\n      swap2\n      sub\n      swap1\n      revert\n    tag_141:\n        /* \"contracts/DigitalDataStorage.sol\":1151:1152  0 */\n      0x00\n        /* \"contracts/DigitalDataStorage.sol\":1137:1153  to != address(0) */\n      0xffffffffffffffffffffffffffffffffffffffff\n      and\n        /* \"contracts/DigitalDataStorage.sol\":1137:1139  to */\n      dup2\n        /* \"contracts/DigitalDataStorage.sol\":1137:1153  to != address(0) */\n      0xffffffffffffffffffffffffffffffffffffffff\n      and\n      sub\n        /* \"contracts/DigitalDataStorage.sol\":1129:1183  require(to != address(0), \"Invalid recipient address\") */\n      tag_143\n      jumpi\n      mload(0x40)\n      0x08c379a000000000000000000000000000000000000000000000000000000000\n      dup2\n      mstore\n      0x04\n      add\n      tag_144\n      swap1\n      tag_145\n      jump\t// in\n    tag_144:\n      mload(0x40)\n      dup1\n      swap2\n      sub\n      swap1\n      revert\n    tag_143:\n        /* \"contracts/DigitalDataStorage.sol\":1193:1217  _dataStorage[index] = \"\" */\n      mload(0x40)\n      dup1\n      0x20\n      add\n      0x40\n      mstore\n      dup1\n      0x00\n      dup2\n      mstore\n      pop\n        /* \"contracts/DigitalDataStorage.sol\":1193:1205  _dataStorage */\n      0x06\n        /* \"contracts/DigitalDataStorage.sol\":1193:1212  _dataStorage[index] */\n      0x00\n        /* \"contracts/DigitalDataStorage.sol\":1206:1211  index */\n      dup5\n        /* \"contracts/DigitalDataStorage.sol\":1193:1212  _dataStorage[index] */\n      dup2\n      mstore\n      0x20\n      add\n      swap1\n      dup2\n      mstore\n      0x20\n      add\n      0x00\n      keccak256\n        /* \"contracts/DigitalDataStorage.sol\":1193:1217  _dataStorage[index] = \"\" */\n      swap1\n      dup2\n      tag_146\n      swap2\n      swap1\n      tag_147\n      jump\t// in\n    tag_146:\n      pop\n        /* \"contracts/DigitalDataStorage.sol\":1227:1255  _transfer(msg.sender, to, 1) */\n      tag_148\n        /* \"contracts/DigitalDataStorage.sol\":1237:1247  msg.sender */\n      caller\n        /* \"contracts/DigitalDataStorage.sol\":1249:1251  to */\n      dup3\n        /* \"contracts/DigitalDataStorage.sol\":1253:1254  1 */\n      0x01\n        /* \"contracts/DigitalDataStorage.sol\":1227:1236  _transfer */\n      tag_109\n        /* \"contracts/DigitalDataStorage.sol\":1227:1255  _transfer(msg.sender, to, 1) */\n      jump\t// in\n    tag_148:\n        /* \"contracts/DigitalDataStorage.sol\":981:1262  function transferData(uint256 index, address to) external onlyOwner {... */\n      pop\n      pop\n      jump\t// out\n        /* \"contracts/DigitalDataStorage.sol\":589:786  function storeData(string memory data) external {... */\n    tag_80:\n        /* \"contracts/DigitalDataStorage.sol\":647:659  _dataCounter */\n      0x05\n      0x00\n        /* \"contracts/DigitalDataStorage.sol\":647:661  _dataCounter++ */\n      dup2\n      sload\n      dup1\n      swap3\n      swap2\n      swap1\n      tag_150\n      swap1\n      tag_151\n      jump\t// in\n    tag_150:\n      swap2\n      swap1\n      pop\n      sstore\n      pop\n        /* \"contracts/DigitalDataStorage.sol\":700:704  data */\n      dup1\n        /* \"contracts/DigitalDataStorage.sol\":671:683  _dataStorage */\n      0x06\n        /* \"contracts/DigitalDataStorage.sol\":671:697  _dataStorage[_dataCounter] */\n      0x00\n        /* \"contracts/DigitalDataStorage.sol\":684:696  _dataCounter */\n      sload(0x05)\n        /* \"contracts/DigitalDataStorage.sol\":671:697  _dataStorage[_dataCounter] */\n      dup2\n      mstore\n      0x20\n      add\n      swap1\n      dup2\n      mstore\n      0x20\n      add\n      0x00\n      keccak256\n        /* \"contracts/DigitalDataStorage.sol\":671:704  _dataStorage[_dataCounter] = data */\n      swap1\n      dup2\n      tag_152\n      swap2\n      swap1\n      tag_147\n      jump\t// in\n    tag_152:\n      pop\n        /* \"contracts/DigitalDataStorage.sol\":714:734  _mint(msg.sender, 1) */\n      tag_153\n        /* \"contracts/DigitalDataStorage.sol\":720:730  msg.sender */\n      caller\n        /* \"contracts/DigitalDataStorage.sol\":732:733  1 */\n      0x01\n        /* \"contracts/DigitalDataStorage.sol\":714:719  _mint */\n      tag_154\n        /* \"contracts/DigitalDataStorage.sol\":714:734  _mint(msg.sender, 1) */\n      jump\t// in\n    tag_153:\n        /* \"contracts/DigitalDataStorage.sol\":760:772  _dataCounter */\n      sload(0x05)\n        /* \"contracts/DigitalDataStorage.sol\":749:779  DataStored(_dataCounter, data) */\n      0x56ae0cf797dc5c06b48e3f1f0ac14db02bbbeff12a70e489e5a2403ffc021bb8\n        /* \"contracts/DigitalDataStorage.sol\":774:778  data */\n      dup3\n        /* \"contracts/DigitalDataStorage.sol\":749:779  DataStored(_dataCounter, data) */\n      mload(0x40)\n      tag_155\n      swap2\n      swap1\n      tag_25\n      jump\t// in\n    tag_155:\n      mload(0x40)\n      dup1\n      swap2\n      sub\n      swap1\n      log2\n        /* \"contracts/DigitalDataStorage.sol\":589:786  function storeData(string memory data) external {... */\n      pop\n      jump\t// out\n        /* \"@openzeppelin/contracts/utils/Context.sol\":640:736  function _msgSender() internal view virtual returns (address) {... */\n    tag_100:\n        /* \"@openzeppelin/contracts/utils/Context.sol\":693:700  address */\n      0x00\n        /* \"@openzeppelin/contracts/utils/Context.sol\":719:729  msg.sender */\n      caller\n        /* \"@openzeppelin/contracts/utils/Context.sol\":712:729  return msg.sender */\n      swap1\n      pop\n        /* \"@openzeppelin/contracts/utils/Context.sol\":640:736  function _msgSender() internal view virtual returns (address) {... */\n      swap1\n      jump\t// out\n        /* \"@openzeppelin/contracts/token/ERC20/ERC20.sol\":10504:10874  function _approve(... */\n    tag_102:\n        /* \"@openzeppelin/contracts/token/ERC20/ERC20.sol\":10652:10653  0 */\n      0x00\n        /* \"@openzeppelin/contracts/token/ERC20/ERC20.sol\":10635:10654  owner != address(0) */\n      0xffffffffffffffffffffffffffffffffffffffff\n      and\n        /* \"@openzeppelin/contracts/token/ERC20/ERC20.sol\":10635:10640  owner */\n      dup4\n        /* \"@openzeppelin/contracts/token/ERC20/ERC20.sol\":10635:10654  owner != address(0) */\n      0xffffffffffffffffffffffffffffffffffffffff\n      and\n      sub\n        /* \"@openzeppelin/contracts/token/ERC20/ERC20.sol\":10627:10695  require(owner != address(0), \"ERC20: approve from the zero address\") */\n      tag_158\n      jumpi\n      mload(0x40)\n      0x08c379a000000000000000000000000000000000000000000000000000000000\n      dup2\n      mstore\n      0x04\n      add\n      tag_159\n      swap1\n      tag_160\n      jump\t// in\n    tag_159:\n      mload(0x40)\n      dup1\n      swap2\n      sub\n      swap1\n      revert\n    tag_158:\n        /* \"@openzeppelin/contracts/token/ERC20/ERC20.sol\":10732:10733  0 */\n      0x00\n        /* \"@openzeppelin/contracts/token/ERC20/ERC20.sol\":10713:10734  spender != address(0) */\n      0xffffffffffffffffffffffffffffffffffffffff\n      and\n        /* \"@openzeppelin/contracts/token/ERC20/ERC20.sol\":10713:10720  spender */\n      dup3\n        /* \"@openzeppelin/contracts/token/ERC20/ERC20.sol\":10713:10734  spender != address(0) */\n      0xffffffffffffffffffffffffffffffffffffffff\n      and\n      sub\n        /* \"@openzeppelin/contracts/token/ERC20/ERC20.sol\":10705:10773  require(spender != address(0), \"ERC20: approve to the zero address\") */\n      tag_161\n      jumpi\n      mload(0x40)\n      0x08c379a000000000000000000000000000000000000000000000000000000000\n      dup2\n      mstore\n      0x04\n      add\n      tag_162\n      swap1\n      tag_163\n      jump\t// in\n    tag_162:\n      mload(0x40)\n      dup1\n      swap2\n      sub\n      swap1\n      revert\n    tag_161:\n        /* \"@openzeppelin/contracts/token/ERC20/ERC20.sol\":10814:10820  amount */\n      dup1\n        /* \"@openzeppelin/contracts/token/ERC20/ERC20.sol\":10784:10795  _allowances */\n      0x01\n        /* \"@openzeppelin/contracts/token/ERC20/ERC20.sol\":10784:10802  _allowances[owner] */\n      0x00\n        /* \"@openzeppelin/contracts/token/ERC20/ERC20.sol\":10796:10801  owner */\n      dup6\n        /* \"@openzeppelin/contracts/token/ERC20/ERC20.sol\":10784:10802  _allowances[owner] */\n      0xffffffffffffffffffffffffffffffffffffffff\n      and\n      0xffffffffffffffffffffffffffffffffffffffff\n      and\n      dup2\n      mstore\n      0x20\n      add\n      swap1\n      dup2\n      mstore\n      0x20\n      add\n      0x00\n      keccak256\n        /* \"@openzeppelin/contracts/token/ERC20/ERC20.sol\":10784:10811  _allowances[owner][spender] */\n      0x00\n        /* \"@openzeppelin/contracts/token/ERC20/ERC20.sol\":10803:10810  spender */\n      dup5\n        /* \"@openzeppelin/contracts/token/ERC20/ERC20.sol\":10784:10811  _allowances[owner][spender] */\n      0xffffffffffffffffffffffffffffffffffffffff\n      and\n      0xffffffffffffffffffffffffffffffffffffffff\n      and\n      dup2\n      mstore\n      0x20\n      add\n      swap1\n      dup2\n      mstore\n      0x20\n      add\n      0x00\n      keccak256\n        /* \"@openzeppelin/contracts/token/ERC20/ERC20.sol\":10784:10820  _allowances[owner][spender] = amount */\n      dup2\n      swap1\n      sstore\n      pop\n        /* \"@openzeppelin/contracts/token/ERC20/ERC20.sol\":10851:10858  spender */\n      dup2\n        /* \"@openzeppelin/contracts/token/ERC20/ERC20.sol\":10835:10867  Approval(owner, spender, amount) */\n      0xffffffffffffffffffffffffffffffffffffffff\n      and\n        /* \"@openzeppelin/contracts/token/ERC20/ERC20.sol\":10844:10849  owner */\n      dup4\n        /* \"@openzeppelin/contracts/token/ERC20/ERC20.sol\":10835:10867  Approval(owner, spender, amount) */\n      0xffffffffffffffffffffffffffffffffffffffff\n      and\n      0x8c5be1e5ebec7d5bd14f71427d1e84f3dd0314c0f7b2291e5b200ac8c7c3b925\n        /* \"@openzeppelin/contracts/token/ERC20/ERC20.sol\":10860:10866  amount */\n      dup4\n        /* \"@openzeppelin/contracts/token/ERC20/ERC20.sol\":10835:10867  Approval(owner, spender, amount) */\n      mload(0x40)\n      tag_164\n      swap2\n      swap1\n      tag_38\n      jump\t// in\n    tag_164:\n      mload(0x40)\n      dup1\n      swap2\n      sub\n      swap1\n      log3\n        /* \"@openzeppelin/contracts/token/ERC20/ERC20.sol\":10504:10874  function _approve(... */\n      pop\n      pop\n      pop\n      jump\t// out\n        /* \"@openzeppelin/contracts/token/ERC20/ERC20.sol\":11155:11596  function _spendAllowance(... */\n    tag_107:\n        /* \"@openzeppelin/contracts/token/ERC20/ERC20.sol\":11285:11309  uint256 currentAllowance */\n      0x00\n        /* \"@openzeppelin/contracts/token/ERC20/ERC20.sol\":11312:11337  allowance(owner, spender) */\n      tag_166\n        /* \"@openzeppelin/contracts/token/ERC20/ERC20.sol\":11322:11327  owner */\n      dup5\n        /* \"@openzeppelin/contracts/token/ERC20/ERC20.sol\":11329:11336  spender */\n      dup5\n        /* \"@openzeppelin/contracts/token/ERC20/ERC20.sol\":11312:11321  allowance */\n      tag_71\n        /* \"@openzeppelin/contracts/token/ERC20/ERC20.sol\":11312:11337  allowance(owner, spender) */\n      jump\t// in\n    tag_166:\n        /* \"@openzeppelin/contracts/token/ERC20/ERC20.sol\":11285:11337  uint256 currentAllowance = allowance(owner, spender) */\n      swap1\n      pop\n        /* \"@openzeppelin/contracts/token/ERC20/ERC20.sol\":11371:11388  type(uint256).max */\n      0xffffffffffffffffffffffffffffffffffffffffffffffffffffffffffffffff\n        /* \"@openzeppelin/contracts/token/ERC20/ERC20.sol\":11351:11367  currentAllowance */\n      dup2\n        /* \"@openzeppelin/contracts/token/ERC20/ERC20.sol\":11351:11388  currentAllowance != type(uint256).max */\n      eq\n        /* \"@openzeppelin/contracts/token/ERC20/ERC20.sol\":11347:11590  if (currentAllowance != type(uint256).max) {... */\n      tag_167\n      jumpi\n        /* \"@openzeppelin/contracts/token/ERC20/ERC20.sol\":11432:11438  amount */\n      dup2\n        /* \"@openzeppelin/contracts/token/ERC20/ERC20.sol\":11412:11428  currentAllowance */\n      dup2\n        /* \"@openzeppelin/contracts/token/ERC20/ERC20.sol\":11412:11438  currentAllowance >= amount */\n      lt\n      iszero\n        /* \"@openzeppelin/contracts/token/ERC20/ERC20.sol\":11404:11472  require(currentAllowance >= amount, \"ERC20: insufficient allowance\") */\n      tag_168\n      jumpi\n      mload(0x40)\n      0x08c379a000000000000000000000000000000000000000000000000000000000\n      dup2\n      mstore\n      0x04\n      add\n      tag_169\n      swap1\n      tag_170\n      jump\t// in\n    tag_169:\n      mload(0x40)\n      dup1\n      swap2\n      sub\n      swap1\n      revert\n    tag_168:\n        /* \"@openzeppelin/contracts/token/ERC20/ERC20.sol\":11514:11565  _approve(owner, spender, currentAllowance - amount) */\n      tag_171\n        /* \"@openzeppelin/contracts/token/ERC20/ERC20.sol\":11523:11528  owner */\n      dup5\n        /* \"@openzeppelin/contracts/token/ERC20/ERC20.sol\":11530:11537  spender */\n      dup5\n        /* \"@openzeppelin/contracts/token/ERC20/ERC20.sol\":11558:11564  amount */\n      dup5\n        /* \"@openzeppelin/contracts/token/ERC20/ERC20.sol\":11539:11555  currentAllowance */\n      dup5\n        /* \"@openzeppelin/contracts/token/ERC20/ERC20.sol\":11539:11564  currentAllowance - amount */\n      sub\n        /* \"@openzeppelin/contracts/token/ERC20/ERC20.sol\":11514:11522  _approve */\n      tag_102\n        /* \"@openzeppelin/contracts/token/ERC20/ERC20.sol\":11514:11565  _approve(owner, spender, currentAllowance - amount) */\n      jump\t// in\n    tag_171:\n        /* \"@openzeppelin/contracts/token/ERC20/ERC20.sol\":11347:11590  if (currentAllowance != type(uint256).max) {... */\n    tag_167:\n        /* \"@openzeppelin/contracts/token/ERC20/ERC20.sol\":11275:11596  {... */\n      pop\n        /* \"@openzeppelin/contracts/token/ERC20/ERC20.sol\":11155:11596  function _spendAllowance(... */\n      pop\n      pop\n      pop\n      jump\t// out\n        /* \"@openzeppelin/contracts/token/ERC20/ERC20.sol\":7473:8291  function _transfer(... */\n    tag_109:\n        /* \"@openzeppelin/contracts/token/ERC20/ERC20.sol\":7615:7616  0 */\n      0x00\n        /* \"@openzeppelin/contracts/token/ERC20/ERC20.sol\":7599:7617  from != address(0) */\n      0xffffffffffffffffffffffffffffffffffffffff\n      and\n        /* \"@openzeppelin/contracts/token/ERC20/ERC20.sol\":7599:7603  from */\n      dup4\n        /* \"@openzeppelin/contracts/token/ERC20/ERC20.sol\":7599:7617  from != address(0) */\n      0xffffffffffffffffffffffffffffffffffffffff\n      and\n      sub\n        /* \"@openzeppelin/contracts/token/ERC20/ERC20.sol\":7591:7659  require(from != address(0), \"ERC20: transfer from the zero address\") */\n      tag_173\n      jumpi\n      mload(0x40)\n      0x08c379a000000000000000000000000000000000000000000000000000000000\n      dup2\n      mstore\n      0x04\n      add\n      tag_174\n      swap1\n      tag_175\n      jump\t// in\n    tag_174:\n      mload(0x40)\n      dup1\n      swap2\n      sub\n      swap1\n      revert\n    tag_173:\n        /* \"@openzeppelin/contracts/token/ERC20/ERC20.sol\":7691:7692  0 */\n      0x00\n        /* \"@openzeppelin/contracts/token/ERC20/ERC20.sol\":7677:7693  to != address(0) */\n      0xffffffffffffffffffffffffffffffffffffffff\n      and\n        /* \"@openzeppelin/contracts/token/ERC20/ERC20.sol\":7677:7679  to */\n      dup3\n        /* \"@openzeppelin/contracts/token/ERC20/ERC20.sol\":7677:7693  to != address(0) */\n      0xffffffffffffffffffffffffffffffffffffffff\n      and\n      sub\n        /* \"@openzeppelin/contracts/token/ERC20/ERC20.sol\":7669:7733  require(to != address(0), \"ERC20: transfer to the zero address\") */\n      tag_176\n      jumpi\n      mload(0x40)\n      0x08c379a000000000000000000000000000000000000000000000000000000000\n      dup2\n      mstore\n      0x04\n      add\n      tag_177\n      swap1\n      tag_178\n      jump\t// in\n    tag_177:\n      mload(0x40)\n      dup1\n      swap2\n      sub\n      swap1\n      revert\n    tag_176:\n        /* \"@openzeppelin/contracts/token/ERC20/ERC20.sol\":7744:7782  _beforeTokenTransfer(from, to, amount) */\n      tag_179\n        /* \"@openzeppelin/contracts/token/ERC20/ERC20.sol\":7765:7769  from */\n      dup4\n        /* \"@openzeppelin/contracts/token/ERC20/ERC20.sol\":7771:7773  to */\n      dup4\n        /* \"@openzeppelin/contracts/token/ERC20/ERC20.sol\":7775:7781  amount */\n      dup4\n        /* \"@openzeppelin/contracts/token/ERC20/ERC20.sol\":7744:7764  _beforeTokenTransfer */\n      tag_180\n        /* \"@openzeppelin/contracts/token/ERC20/ERC20.sol\":7744:7782  _beforeTokenTransfer(from, to, amount) */\n      jump\t// in\n    tag_179:\n        /* \"@openzeppelin/contracts/token/ERC20/ERC20.sol\":7793:7812  uint256 fromBalance */\n      0x00\n        /* \"@openzeppelin/contracts/token/ERC20/ERC20.sol\":7815:7824  _balances */\n      dup1\n        /* \"@openzeppelin/contracts/token/ERC20/ERC20.sol\":7815:7830  _balances[from] */\n      0x00\n        /* \"@openzeppelin/contracts/token/ERC20/ERC20.sol\":7825:7829  from */\n      dup6\n        /* \"@openzeppelin/contracts/token/ERC20/ERC20.sol\":7815:7830  _balances[from] */\n      0xffffffffffffffffffffffffffffffffffffffff\n      and\n      0xffffffffffffffffffffffffffffffffffffffff\n      and\n      dup2\n      mstore\n      0x20\n      add\n      swap1\n      dup2\n      mstore\n      0x20\n      add\n      0x00\n      keccak256\n      sload\n        /* \"@openzeppelin/contracts/token/ERC20/ERC20.sol\":7793:7830  uint256 fromBalance = _balances[from] */\n      swap1\n      pop\n        /* \"@openzeppelin/contracts/token/ERC20/ERC20.sol\":7863:7869  amount */\n      dup2\n        /* \"@openzeppelin/contracts/token/ERC20/ERC20.sol\":7848:7859  fromBalance */\n      dup2\n        /* \"@openzeppelin/contracts/token/ERC20/ERC20.sol\":7848:7869  fromBalance >= amount */\n      lt\n      iszero\n        /* \"@openzeppelin/contracts/token/ERC20/ERC20.sol\":7840:7912  require(fromBalance >= amount, \"ERC20: transfer amount exceeds balance\") */\n      tag_181\n      jumpi\n      mload(0x40)\n      0x08c379a000000000000000000000000000000000000000000000000000000000\n      dup2\n      mstore\n      0x04\n      add\n      tag_182\n      swap1\n      tag_183\n      jump\t// in\n    tag_182:\n      mload(0x40)\n      dup1\n      swap2\n      sub\n      swap1\n      revert\n    tag_181:\n        /* \"@openzeppelin/contracts/token/ERC20/ERC20.sol\":7978:7984  amount */\n      dup2\n        /* \"@openzeppelin/contracts/token/ERC20/ERC20.sol\":7964:7975  fromBalance */\n      dup2\n        /* \"@openzeppelin/contracts/token/ERC20/ERC20.sol\":7964:7984  fromBalance - amount */\n      sub\n        /* \"@openzeppelin/contracts/token/ERC20/ERC20.sol\":7946:7955  _balances */\n      0x00\n        /* \"@openzeppelin/contracts/token/ERC20/ERC20.sol\":7946:7961  _balances[from] */\n      dup1\n        /* \"@openzeppelin/contracts/token/ERC20/ERC20.sol\":7956:7960  from */\n      dup7\n        /* \"@openzeppelin/contracts/token/ERC20/ERC20.sol\":7946:7961  _balances[from] */\n      0xffffffffffffffffffffffffffffffffffffffff\n      and\n      0xffffffffffffffffffffffffffffffffffffffff\n      and\n      dup2\n      mstore\n      0x20\n      add\n      swap1\n      dup2\n      mstore\n      0x20\n      add\n      0x00\n      keccak256\n        /* \"@openzeppelin/contracts/token/ERC20/ERC20.sol\":7946:7984  _balances[from] = fromBalance - amount */\n      dup2\n      swap1\n      sstore\n      pop\n        /* \"@openzeppelin/contracts/token/ERC20/ERC20.sol\":8178:8184  amount */\n      dup2\n        /* \"@openzeppelin/contracts/token/ERC20/ERC20.sol\":8161:8170  _balances */\n      0x00\n        /* \"@openzeppelin/contracts/token/ERC20/ERC20.sol\":8161:8174  _balances[to] */\n      dup1\n        /* \"@openzeppelin/contracts/token/ERC20/ERC20.sol\":8171:8173  to */\n      dup6\n        /* \"@openzeppelin/contracts/token/ERC20/ERC20.sol\":8161:8174  _balances[to] */\n      0xffffffffffffffffffffffffffffffffffffffff\n      and\n      0xffffffffffffffffffffffffffffffffffffffff\n      and\n      dup2\n      mstore\n      0x20\n      add\n      swap1\n      dup2\n      mstore\n      0x20\n      add\n      0x00\n      keccak256\n      0x00\n        /* \"@openzeppelin/contracts/token/ERC20/ERC20.sol\":8161:8184  _balances[to] += amount */\n      dup3\n      dup3\n      sload\n      add\n      swap3\n      pop\n      pop\n      dup2\n      swap1\n      sstore\n      pop\n        /* \"@openzeppelin/contracts/token/ERC20/ERC20.sol\":8225:8227  to */\n      dup3\n        /* \"@openzeppelin/contracts/token/ERC20/ERC20.sol\":8210:8236  Transfer(from, to, amount) */\n      0xffffffffffffffffffffffffffffffffffffffff\n      and\n        /* \"@openzeppelin/contracts/token/ERC20/ERC20.sol\":8219:8223  from */\n      dup5\n        /* \"@openzeppelin/contracts/token/ERC20/ERC20.sol\":8210:8236  Transfer(from, to, amount) */\n      0xffffffffffffffffffffffffffffffffffffffff\n      and\n      0xddf252ad1be2c89b69c2b068fc378daa952ba7f163c4a11628f55a4df523b3ef\n        /* \"@openzeppelin/contracts/token/ERC20/ERC20.sol\":8229:8235  amount */\n      dup5\n        /* \"@openzeppelin/contracts/token/ERC20/ERC20.sol\":8210:8236  Transfer(from, to, amount) */\n      mload(0x40)\n      tag_184\n      swap2\n      swap1\n      tag_38\n      jump\t// in\n    tag_184:\n      mload(0x40)\n      dup1\n      swap2\n      sub\n      swap1\n      log3\n        /* \"@openzeppelin/contracts/token/ERC20/ERC20.sol\":8247:8284  _afterTokenTransfer(from, to, amount) */\n      tag_185\n        /* \"@openzeppelin/contracts/token/ERC20/ERC20.sol\":8267:8271  from */\n      dup5\n        /* \"@openzeppelin/contracts/token/ERC20/ERC20.sol\":8273:8275  to */\n      dup5\n        /* \"@openzeppelin/contracts/token/ERC20/ERC20.sol\":8277:8283  amount */\n      dup5\n        /* \"@openzeppelin/contracts/token/ERC20/ERC20.sol\":8247:8266  _afterTokenTransfer */\n      tag_186\n        /* \"@openzeppelin/contracts/token/ERC20/ERC20.sol\":8247:8284  _afterTokenTransfer(from, to, amount) */\n      jump\t// in\n    tag_185:\n        /* \"@openzeppelin/contracts/token/ERC20/ERC20.sol\":7581:8291  {... */\n      pop\n        /* \"@openzeppelin/contracts/token/ERC20/ERC20.sol\":7473:8291  function _transfer(... */\n      pop\n      pop\n      pop\n      jump\t// out\n        /* \"@openzeppelin/contracts/token/ERC20/ERC20.sol\":8567:9102  function _mint(address account, uint256 amount) internal virtual {... */\n    tag_154:\n        /* \"@openzeppelin/contracts/token/ERC20/ERC20.sol\":8669:8670  0 */\n      0x00\n        /* \"@openzeppelin/contracts/token/ERC20/ERC20.sol\":8650:8671  account != address(0) */\n      0xffffffffffffffffffffffffffffffffffffffff\n      and\n        /* \"@openzeppelin/contracts/token/ERC20/ERC20.sol\":8650:8657  account */\n      dup3\n        /* \"@openzeppelin/contracts/token/ERC20/ERC20.sol\":8650:8671  account != address(0) */\n      0xffffffffffffffffffffffffffffffffffffffff\n      and\n      sub\n        /* \"@openzeppelin/contracts/token/ERC20/ERC20.sol\":8642:8707  require(account != address(0), \"ERC20: mint to the zero address\") */\n      tag_188\n      jumpi\n      mload(0x40)\n      0x08c379a000000000000000000000000000000000000000000000000000000000\n      dup2\n      mstore\n      0x04\n      add\n      tag_189\n      swap1\n      tag_190\n      jump\t// in\n    tag_189:\n      mload(0x40)\n      dup1\n      swap2\n      sub\n      swap1\n      revert\n    tag_188:\n        /* \"@openzeppelin/contracts/token/ERC20/ERC20.sol\":8718:8767  _beforeTokenTransfer(address(0), account, amount) */\n      tag_191\n        /* \"@openzeppelin/contracts/token/ERC20/ERC20.sol\":8747:8748  0 */\n      0x00\n        /* \"@openzeppelin/contracts/token/ERC20/ERC20.sol\":8751:8758  account */\n      dup4\n        /* \"@openzeppelin/contracts/token/ERC20/ERC20.sol\":8760:8766  amount */\n      dup4\n        /* \"@openzeppelin/contracts/token/ERC20/ERC20.sol\":8718:8738  _beforeTokenTransfer */\n      tag_180\n        /* \"@openzeppelin/contracts/token/ERC20/ERC20.sol\":8718:8767  _beforeTokenTransfer(address(0), account, amount) */\n      jump\t// in\n    tag_191:\n        /* \"@openzeppelin/contracts/token/ERC20/ERC20.sol\":8794:8800  amount */\n      dup1\n        /* \"@openzeppelin/contracts/token/ERC20/ERC20.sol\":8778:8790  _totalSupply */\n      0x02\n      0x00\n        /* \"@openzeppelin/contracts/token/ERC20/ERC20.sol\":8778:8800  _totalSupply += amount */\n      dup3\n      dup3\n      sload\n      tag_192\n      swap2\n      swap1\n      tag_116\n      jump\t// in\n    tag_192:\n      swap3\n      pop\n      pop\n      dup2\n      swap1\n      sstore\n      pop\n        /* \"@openzeppelin/contracts/token/ERC20/ERC20.sol\":8968:8974  amount */\n      dup1\n        /* \"@openzeppelin/contracts/token/ERC20/ERC20.sol\":8946:8955  _balances */\n      0x00\n        /* \"@openzeppelin/contracts/token/ERC20/ERC20.sol\":8946:8964  _balances[account] */\n      dup1\n        /* \"@openzeppelin/contracts/token/ERC20/ERC20.sol\":8956:8963  account */\n      dup5\n        /* \"@openzeppelin/contracts/token/ERC20/ERC20.sol\":8946:8964  _balances[account] */\n      0xffffffffffffffffffffffffffffffffffffffff\n      and\n      0xffffffffffffffffffffffffffffffffffffffff\n      and\n      dup2\n      mstore\n      0x20\n      add\n      swap1\n      dup2\n      mstore\n      0x20\n      add\n      0x00\n      keccak256\n      0x00\n        /* \"@openzeppelin/contracts/token/ERC20/ERC20.sol\":8946:8974  _balances[account] += amount */\n      dup3\n      dup3\n      sload\n      add\n      swap3\n      pop\n      pop\n      dup2\n      swap1\n      sstore\n      pop\n        /* \"@openzeppelin/contracts/token/ERC20/ERC20.sol\":9020:9027  account */\n      dup2\n        /* \"@openzeppelin/contracts/token/ERC20/ERC20.sol\":8999:9036  Transfer(address(0), account, amount) */\n      0xffffffffffffffffffffffffffffffffffffffff\n      and\n        /* \"@openzeppelin/contracts/token/ERC20/ERC20.sol\":9016:9017  0 */\n      0x00\n        /* \"@openzeppelin/contracts/token/ERC20/ERC20.sol\":8999:9036  Transfer(address(0), account, amount) */\n      0xffffffffffffffffffffffffffffffffffffffff\n      and\n      0xddf252ad1be2c89b69c2b068fc378daa952ba7f163c4a11628f55a4df523b3ef\n        /* \"@openzeppelin/contracts/token/ERC20/ERC20.sol\":9029:9035  amount */\n      dup4\n        /* \"@openzeppelin/contracts/token/ERC20/ERC20.sol\":8999:9036  Transfer(address(0), account, amount) */\n      mload(0x40)\n      tag_193\n      swap2\n      swap1\n      tag_38\n      jump\t// in\n    tag_193:\n      mload(0x40)\n      dup1\n      swap2\n      sub\n      swap1\n      log3\n        /* \"@openzeppelin/contracts/token/ERC20/ERC20.sol\":9047:9095  _afterTokenTransfer(address(0), account, amount) */\n      tag_194\n        /* \"@openzeppelin/contracts/token/ERC20/ERC20.sol\":9075:9076  0 */\n      0x00\n        /* \"@openzeppelin/contracts/token/ERC20/ERC20.sol\":9079:9086  account */\n      dup4\n        /* \"@openzeppelin/contracts/token/ERC20/ERC20.sol\":9088:9094  amount */\n      dup4\n        /* \"@openzeppelin/contracts/token/ERC20/ERC20.sol\":9047:9066  _afterTokenTransfer */\n      tag_186\n        /* \"@openzeppelin/contracts/token/ERC20/ERC20.sol\":9047:9095  _afterTokenTransfer(address(0), account, amount) */\n      jump\t// in\n    tag_194:\n        /* \"@openzeppelin/contracts/token/ERC20/ERC20.sol\":8567:9102  function _mint(address account, uint256 amount) internal virtual {... */\n      pop\n      pop\n      jump\t// out\n        /* \"@openzeppelin/contracts/token/ERC20/ERC20.sol\":12180:12301  function _beforeTokenTransfer(... */\n    tag_180:\n      pop\n      pop\n      pop\n      jump\t// out\n        /* \"@openzeppelin/contracts/token/ERC20/ERC20.sol\":12889:13009  function _afterTokenTransfer(... */\n    tag_186:\n      pop\n      pop\n      pop\n      jump\t// out\n        /* \"#utility.yul\":7:82   */\n    tag_197:\n        /* \"#utility.yul\":40:46   */\n      0x00\n        /* \"#utility.yul\":73:75   */\n      0x40\n        /* \"#utility.yul\":67:76   */\n      mload\n        /* \"#utility.yul\":57:76   */\n      swap1\n      pop\n        /* \"#utility.yul\":7:82   */\n      swap1\n      jump\t// out\n        /* \"#utility.yul\":88:205   */\n    tag_198:\n        /* \"#utility.yul\":197:198   */\n      0x00\n        /* \"#utility.yul\":194:195   */\n      dup1\n        /* \"#utility.yul\":187:199   */\n      revert\n        /* \"#utility.yul\":211:328   */\n    tag_199:\n        /* \"#utility.yul\":320:321   */\n      0x00\n        /* \"#utility.yul\":317:318   */\n      dup1\n        /* \"#utility.yul\":310:322   */\n      revert\n        /* \"#utility.yul\":334:411   */\n    tag_200:\n        /* \"#utility.yul\":371:378   */\n      0x00\n        /* \"#utility.yul\":400:405   */\n      dup2\n        /* \"#utility.yul\":389:405   */\n      swap1\n      pop\n        /* \"#utility.yul\":334:411   */\n      swap2\n      swap1\n      pop\n      jump\t// out\n        /* \"#utility.yul\":417:539   */\n    tag_201:\n        /* \"#utility.yul\":490:514   */\n      tag_271\n        /* \"#utility.yul\":508:513   */\n      dup2\n        /* \"#utility.yul\":490:514   */\n      tag_200\n      jump\t// in\n    tag_271:\n        /* \"#utility.yul\":483:488   */\n      dup2\n        /* \"#utility.yul\":480:515   */\n      eq\n        /* \"#utility.yul\":470:533   */\n      tag_272\n      jumpi\n        /* \"#utility.yul\":529:530   */\n      0x00\n        /* \"#utility.yul\":526:527   */\n      dup1\n        /* \"#utility.yul\":519:531   */\n      revert\n        /* \"#utility.yul\":470:533   */\n    tag_272:\n        /* \"#utility.yul\":417:539   */\n      pop\n      jump\t// out\n        /* \"#utility.yul\":545:684   */\n    tag_202:\n        /* \"#utility.yul\":591:596   */\n      0x00\n        /* \"#utility.yul\":629:635   */\n      dup2\n        /* \"#utility.yul\":616:636   */\n      calldataload\n        /* \"#utility.yul\":607:636   */\n      swap1\n      pop\n        /* \"#utility.yul\":645:678   */\n      tag_274\n        /* \"#utility.yul\":672:677   */\n      dup2\n        /* \"#utility.yul\":645:678   */\n      tag_201\n      jump\t// in\n    tag_274:\n        /* \"#utility.yul\":545:684   */\n      swap3\n      swap2\n      pop\n      pop\n      jump\t// out\n        /* \"#utility.yul\":690:1019   */\n    tag_22:\n        /* \"#utility.yul\":749:755   */\n      0x00\n        /* \"#utility.yul\":798:800   */\n      0x20\n        /* \"#utility.yul\":786:795   */\n      dup3\n        /* \"#utility.yul\":777:784   */\n      dup5\n        /* \"#utility.yul\":773:796   */\n      sub\n        /* \"#utility.yul\":769:801   */\n      slt\n        /* \"#utility.yul\":766:885   */\n      iszero\n      tag_276\n      jumpi\n        /* \"#utility.yul\":804:883   */\n      tag_277\n      tag_198\n      jump\t// in\n    tag_277:\n        /* \"#utility.yul\":766:885   */\n    tag_276:\n        /* \"#utility.yul\":924:925   */\n      0x00\n        /* \"#utility.yul\":949:1002   */\n      tag_278\n        /* \"#utility.yul\":994:1001   */\n      dup5\n        /* \"#utility.yul\":985:991   */\n      dup3\n        /* \"#utility.yul\":974:983   */\n      dup6\n        /* \"#utility.yul\":970:992   */\n      add\n        /* \"#utility.yul\":949:1002   */\n      tag_202\n      jump\t// in\n    tag_278:\n        /* \"#utility.yul\":939:1002   */\n      swap2\n      pop\n        /* \"#utility.yul\":895:1012   */\n      pop\n        /* \"#utility.yul\":690:1019   */\n      swap3\n      swap2\n      pop\n      pop\n      jump\t// out\n        /* \"#utility.yul\":1025:1124   */\n    tag_203:\n        /* \"#utility.yul\":1077:1083   */\n      0x00\n        /* \"#utility.yul\":1111:1116   */\n      dup2\n        /* \"#utility.yul\":1105:1117   */\n      mload\n        /* \"#utility.yul\":1095:1117   */\n      swap1\n      pop\n        /* \"#utility.yul\":1025:1124   */\n      swap2\n      swap1\n      pop\n      jump\t// out\n        /* \"#utility.yul\":1130:1299   */\n    tag_204:\n        /* \"#utility.yul\":1214:1225   */\n      0x00\n        /* \"#utility.yul\":1248:1254   */\n      dup3\n        /* \"#utility.yul\":1243:1246   */\n      dup3\n        /* \"#utility.yul\":1236:1255   */\n      mstore\n        /* \"#utility.yul\":1288:1292   */\n      0x20\n        /* \"#utility.yul\":1283:1286   */\n      dup3\n        /* \"#utility.yul\":1279:1293   */\n      add\n        /* \"#utility.yul\":1264:1293   */\n      swap1\n      pop\n        /* \"#utility.yul\":1130:1299   */\n      swap3\n      swap2\n      pop\n      pop\n      jump\t// out\n        /* \"#utility.yul\":1305:1551   */\n    tag_205:\n        /* \"#utility.yul\":1386:1387   */\n      0x00\n        /* \"#utility.yul\":1396:1509   */\n    tag_282:\n        /* \"#utility.yul\":1410:1416   */\n      dup4\n        /* \"#utility.yul\":1407:1408   */\n      dup2\n        /* \"#utility.yul\":1404:1417   */\n      lt\n        /* \"#utility.yul\":1396:1509   */\n      iszero\n      tag_284\n      jumpi\n        /* \"#utility.yul\":1495:1496   */\n      dup1\n        /* \"#utility.yul\":1490:1493   */\n      dup3\n        /* \"#utility.yul\":1486:1497   */\n      add\n        /* \"#utility.yul\":1480:1498   */\n      mload\n        /* \"#utility.yul\":1476:1477   */\n      dup2\n        /* \"#utility.yul\":1471:1474   */\n      dup5\n        /* \"#utility.yul\":1467:1478   */\n      add\n        /* \"#utility.yul\":1460:1499   */\n      mstore\n        /* \"#utility.yul\":1432:1434   */\n      0x20\n        /* \"#utility.yul\":1429:1430   */\n      dup2\n        /* \"#utility.yul\":1425:1435   */\n      add\n        /* \"#utility.yul\":1420:1435   */\n      swap1\n      pop\n        /* \"#utility.yul\":1396:1509   */\n      jump(tag_282)\n    tag_284:\n        /* \"#utility.yul\":1543:1544   */\n      0x00\n        /* \"#utility.yul\":1534:1540   */\n      dup5\n        /* \"#utility.yul\":1529:1532   */\n      dup5\n        /* \"#utility.yul\":1525:1541   */\n      add\n        /* \"#utility.yul\":1518:1545   */\n      mstore\n        /* \"#utility.yul\":1367:1551   */\n      pop\n        /* \"#utility.yul\":1305:1551   */\n      pop\n      pop\n      pop\n      jump\t// out\n        /* \"#utility.yul\":1557:1659   */\n    tag_206:\n        /* \"#utility.yul\":1598:1604   */\n      0x00\n        /* \"#utility.yul\":1649:1651   */\n      0x1f\n        /* \"#utility.yul\":1645:1652   */\n      not\n        /* \"#utility.yul\":1640:1642   */\n      0x1f\n        /* \"#utility.yul\":1633:1638   */\n      dup4\n        /* \"#utility.yul\":1629:1643   */\n      add\n        /* \"#utility.yul\":1625:1653   */\n      and\n        /* \"#utility.yul\":1615:1653   */\n      swap1\n      pop\n        /* \"#utility.yul\":1557:1659   */\n      swap2\n      swap1\n      pop\n      jump\t// out\n        /* \"#utility.yul\":1665:2042   */\n    tag_207:\n        /* \"#utility.yul\":1753:1756   */\n      0x00\n        /* \"#utility.yul\":1781:1820   */\n      tag_287\n        /* \"#utility.yul\":1814:1819   */\n      dup3\n        /* \"#utility.yul\":1781:1820   */\n      tag_203\n      jump\t// in\n    tag_287:\n        /* \"#utility.yul\":1836:1907   */\n      tag_288\n        /* \"#utility.yul\":1900:1906   */\n      dup2\n        /* \"#utility.yul\":1895:1898   */\n      dup6\n        /* \"#utility.yul\":1836:1907   */\n      tag_204\n      jump\t// in\n    tag_288:\n        /* \"#utility.yul\":1829:1907   */\n      swap4\n      pop\n        /* \"#utility.yul\":1916:1981   */\n      tag_289\n        /* \"#utility.yul\":1974:1980   */\n      dup2\n        /* \"#utility.yul\":1969:1972   */\n      dup6\n        /* \"#utility.yul\":1962:1966   */\n      0x20\n        /* \"#utility.yul\":1955:1960   */\n      dup7\n        /* \"#utility.yul\":1951:1967   */\n      add\n        /* \"#utility.yul\":1916:1981   */\n      tag_205\n      jump\t// in\n    tag_289:\n        /* \"#utility.yul\":2006:2035   */\n      tag_290\n        /* \"#utility.yul\":2028:2034   */\n      dup2\n        /* \"#utility.yul\":2006:2035   */\n      tag_206\n      jump\t// in\n    tag_290:\n        /* \"#utility.yul\":2001:2004   */\n      dup5\n        /* \"#utility.yul\":1997:2036   */\n      add\n        /* \"#utility.yul\":1990:2036   */\n      swap2\n      pop\n        /* \"#utility.yul\":1757:2042   */\n      pop\n        /* \"#utility.yul\":1665:2042   */\n      swap3\n      swap2\n      pop\n      pop\n      jump\t// out\n        /* \"#utility.yul\":2048:2361   */\n    tag_25:\n        /* \"#utility.yul\":2161:2165   */\n      0x00\n        /* \"#utility.yul\":2199:2201   */\n      0x20\n        /* \"#utility.yul\":2188:2197   */\n      dup3\n        /* \"#utility.yul\":2184:2202   */\n      add\n        /* \"#utility.yul\":2176:2202   */\n      swap1\n      pop\n        /* \"#utility.yul\":2248:2257   */\n      dup2\n        /* \"#utility.yul\":2242:2246   */\n      dup2\n        /* \"#utility.yul\":2238:2258   */\n      sub\n        /* \"#utility.yul\":2234:2235   */\n      0x00\n        /* \"#utility.yul\":2223:2232   */\n      dup4\n        /* \"#utility.yul\":2219:2236   */\n      add\n        /* \"#utility.yul\":2212:2259   */\n      mstore\n        /* \"#utility.yul\":2276:2354   */\n      tag_292\n        /* \"#utility.yul\":2349:2353   */\n      dup2\n        /* \"#utility.yul\":2340:2346   */\n      dup5\n        /* \"#utility.yul\":2276:2354   */\n      tag_207\n      jump\t// in\n    tag_292:\n        /* \"#utility.yul\":2268:2354   */\n      swap1\n      pop\n        /* \"#utility.yul\":2048:2361   */\n      swap3\n      swap2\n      pop\n      pop\n      jump\t// out\n        /* \"#utility.yul\":2367:2493   */\n    tag_208:\n        /* \"#utility.yul\":2404:2411   */\n      0x00\n        /* \"#utility.yul\":2444:2486   */\n      0xffffffffffffffffffffffffffffffffffffffff\n        /* \"#utility.yul\":2437:2442   */\n      dup3\n        /* \"#utility.yul\":2433:2487   */\n      and\n        /* \"#utility.yul\":2422:2487   */\n      swap1\n      pop\n        /* \"#utility.yul\":2367:2493   */\n      swap2\n      swap1\n      pop\n      jump\t// out\n        /* \"#utility.yul\":2499:2595   */\n    tag_209:\n        /* \"#utility.yul\":2536:2543   */\n      0x00\n        /* \"#utility.yul\":2565:2589   */\n      tag_295\n        /* \"#utility.yul\":2583:2588   */\n      dup3\n        /* \"#utility.yul\":2565:2589   */\n      tag_208\n      jump\t// in\n    tag_295:\n        /* \"#utility.yul\":2554:2589   */\n      swap1\n      pop\n        /* \"#utility.yul\":2499:2595   */\n      swap2\n      swap1\n      pop\n      jump\t// out\n        /* \"#utility.yul\":2601:2723   */\n    tag_210:\n        /* \"#utility.yul\":2674:2698   */\n      tag_297\n        /* \"#utility.yul\":2692:2697   */\n      dup2\n        /* \"#utility.yul\":2674:2698   */\n      tag_209\n      jump\t// in\n    tag_297:\n        /* \"#utility.yul\":2667:2672   */\n      dup2\n        /* \"#utility.yul\":2664:2699   */\n      eq\n        /* \"#utility.yul\":2654:2717   */\n      tag_298\n      jumpi\n        /* \"#utility.yul\":2713:2714   */\n      0x00\n        /* \"#utility.yul\":2710:2711   */\n      dup1\n        /* \"#utility.yul\":2703:2715   */\n      revert\n        /* \"#utility.yul\":2654:2717   */\n    tag_298:\n        /* \"#utility.yul\":2601:2723   */\n      pop\n      jump\t// out\n        /* \"#utility.yul\":2729:2868   */\n    tag_211:\n        /* \"#utility.yul\":2775:2780   */\n      0x00\n        /* \"#utility.yul\":2813:2819   */\n      dup2\n        /* \"#utility.yul\":2800:2820   */\n      calldataload\n        /* \"#utility.yul\":2791:2820   */\n      swap1\n      pop\n        /* \"#utility.yul\":2829:2862   */\n      tag_300\n        /* \"#utility.yul\":2856:2861   */\n      dup2\n        /* \"#utility.yul\":2829:2862   */\n      tag_210\n      jump\t// in\n    tag_300:\n        /* \"#utility.yul\":2729:2868   */\n      swap3\n      swap2\n      pop\n      pop\n      jump\t// out\n        /* \"#utility.yul\":2874:3348   */\n    tag_31:\n        /* \"#utility.yul\":2942:2948   */\n      0x00\n        /* \"#utility.yul\":2950:2956   */\n      dup1\n        /* \"#utility.yul\":2999:3001   */\n      0x40\n        /* \"#utility.yul\":2987:2996   */\n      dup4\n        /* \"#utility.yul\":2978:2985   */\n      dup6\n        /* \"#utility.yul\":2974:2997   */\n      sub\n        /* \"#utility.yul\":2970:3002   */\n      slt\n        /* \"#utility.yul\":2967:3086   */\n      iszero\n      tag_302\n      jumpi\n        /* \"#utility.yul\":3005:3084   */\n      tag_303\n      tag_198\n      jump\t// in\n    tag_303:\n        /* \"#utility.yul\":2967:3086   */\n    tag_302:\n        /* \"#utility.yul\":3125:3126   */\n      0x00\n        /* \"#utility.yul\":3150:3203   */\n      tag_304\n        /* \"#utility.yul\":3195:3202   */\n      dup6\n        /* \"#utility.yul\":3186:3192   */\n      dup3\n        /* \"#utility.yul\":3175:3184   */\n      dup7\n        /* \"#utility.yul\":3171:3193   */\n      add\n        /* \"#utility.yul\":3150:3203   */\n      tag_211\n      jump\t// in\n    tag_304:\n        /* \"#utility.yul\":3140:3203   */\n      swap3\n      pop\n        /* \"#utility.yul\":3096:3213   */\n      pop\n        /* \"#utility.yul\":3252:3254   */\n      0x20\n        /* \"#utility.yul\":3278:3331   */\n      tag_305\n        /* \"#utility.yul\":3323:3330   */\n      dup6\n        /* \"#utility.yul\":3314:3320   */\n      dup3\n        /* \"#utility.yul\":3303:3312   */\n      dup7\n        /* \"#utility.yul\":3299:3321   */\n      add\n        /* \"#utility.yul\":3278:3331   */\n      tag_202\n      jump\t// in\n    tag_305:\n        /* \"#utility.yul\":3268:3331   */\n      swap2\n      pop\n        /* \"#utility.yul\":3223:3341   */\n      pop\n        /* \"#utility.yul\":2874:3348   */\n      swap3\n      pop\n      swap3\n      swap1\n      pop\n      jump\t// out\n        /* \"#utility.yul\":3354:3444   */\n    tag_212:\n        /* \"#utility.yul\":3388:3395   */\n      0x00\n        /* \"#utility.yul\":3431:3436   */\n      dup2\n        /* \"#utility.yul\":3424:3437   */\n      iszero\n        /* \"#utility.yul\":3417:3438   */\n      iszero\n        /* \"#utility.yul\":3406:3438   */\n      swap1\n      pop\n        /* \"#utility.yul\":3354:3444   */\n      swap2\n      swap1\n      pop\n      jump\t// out\n        /* \"#utility.yul\":3450:3559   */\n    tag_213:\n        /* \"#utility.yul\":3531:3552   */\n      tag_308\n        /* \"#utility.yul\":3546:3551   */\n      dup2\n        /* \"#utility.yul\":3531:3552   */\n      tag_212\n      jump\t// in\n    tag_308:\n        /* \"#utility.yul\":3526:3529   */\n      dup3\n        /* \"#utility.yul\":3519:3553   */\n      mstore\n        /* \"#utility.yul\":3450:3559   */\n      pop\n      pop\n      jump\t// out\n        /* \"#utility.yul\":3565:3775   */\n    tag_34:\n        /* \"#utility.yul\":3652:3656   */\n      0x00\n        /* \"#utility.yul\":3690:3692   */\n      0x20\n        /* \"#utility.yul\":3679:3688   */\n      dup3\n        /* \"#utility.yul\":3675:3693   */\n      add\n        /* \"#utility.yul\":3667:3693   */\n      swap1\n      pop\n        /* \"#utility.yul\":3703:3768   */\n      tag_310\n        /* \"#utility.yul\":3765:3766   */\n      0x00\n        /* \"#utility.yul\":3754:3763   */\n      dup4\n        /* \"#utility.yul\":3750:3767   */\n      add\n        /* \"#utility.yul\":3741:3747   */\n      dup5\n        /* \"#utility.yul\":3703:3768   */\n      tag_213\n      jump\t// in\n    tag_310:\n        /* \"#utility.yul\":3565:3775   */\n      swap3\n      swap2\n      pop\n      pop\n      jump\t// out\n        /* \"#utility.yul\":3781:3899   */\n    tag_214:\n        /* \"#utility.yul\":3868:3892   */\n      tag_312\n        /* \"#utility.yul\":3886:3891   */\n      dup2\n        /* \"#utility.yul\":3868:3892   */\n      tag_200\n      jump\t// in\n    tag_312:\n        /* \"#utility.yul\":3863:3866   */\n      dup3\n        /* \"#utility.yul\":3856:3893   */\n      mstore\n        /* \"#utility.yul\":3781:3899   */\n      pop\n      pop\n      jump\t// out\n        /* \"#utility.yul\":3905:4127   */\n    tag_38:\n        /* \"#utility.yul\":3998:4002   */\n      0x00\n        /* \"#utility.yul\":4036:4038   */\n      0x20\n        /* \"#utility.yul\":4025:4034   */\n      dup3\n        /* \"#utility.yul\":4021:4039   */\n      add\n        /* \"#utility.yul\":4013:4039   */\n      swap1\n      pop\n        /* \"#utility.yul\":4049:4120   */\n      tag_314\n        /* \"#utility.yul\":4117:4118   */\n      0x00\n        /* \"#utility.yul\":4106:4115   */\n      dup4\n        /* \"#utility.yul\":4102:4119   */\n      add\n        /* \"#utility.yul\":4093:4099   */\n      dup5\n        /* \"#utility.yul\":4049:4120   */\n      tag_214\n      jump\t// in\n    tag_314:\n        /* \"#utility.yul\":3905:4127   */\n      swap3\n      swap2\n      pop\n      pop\n      jump\t// out\n        /* \"#utility.yul\":4133:4752   */\n    tag_41:\n        /* \"#utility.yul\":4210:4216   */\n      0x00\n        /* \"#utility.yul\":4218:4224   */\n      dup1\n        /* \"#utility.yul\":4226:4232   */\n      0x00\n        /* \"#utility.yul\":4275:4277   */\n      0x60\n        /* \"#utility.yul\":4263:4272   */\n      dup5\n        /* \"#utility.yul\":4254:4261   */\n      dup7\n        /* \"#utility.yul\":4250:4273   */\n      sub\n        /* \"#utility.yul\":4246:4278   */\n      slt\n        /* \"#utility.yul\":4243:4362   */\n      iszero\n      tag_316\n      jumpi\n        /* \"#utility.yul\":4281:4360   */\n      tag_317\n      tag_198\n      jump\t// in\n    tag_317:\n        /* \"#utility.yul\":4243:4362   */\n    tag_316:\n        /* \"#utility.yul\":4401:4402   */\n      0x00\n        /* \"#utility.yul\":4426:4479   */\n      tag_318\n        /* \"#utility.yul\":4471:4478   */\n      dup7\n        /* \"#utility.yul\":4462:4468   */\n      dup3\n        /* \"#utility.yul\":4451:4460   */\n      dup8\n        /* \"#utility.yul\":4447:4469   */\n      add\n        /* \"#utility.yul\":4426:4479   */\n      tag_211\n      jump\t// in\n    tag_318:\n        /* \"#utility.yul\":4416:4479   */\n      swap4\n      pop\n        /* \"#utility.yul\":4372:4489   */\n      pop\n        /* \"#utility.yul\":4528:4530   */\n      0x20\n        /* \"#utility.yul\":4554:4607   */\n      tag_319\n        /* \"#utility.yul\":4599:4606   */\n      dup7\n        /* \"#utility.yul\":4590:4596   */\n      dup3\n        /* \"#utility.yul\":4579:4588   */\n      dup8\n        /* \"#utility.yul\":4575:4597   */\n      add\n        /* \"#utility.yul\":4554:4607   */\n      tag_211\n      jump\t// in\n    tag_319:\n        /* \"#utility.yul\":4544:4607   */\n      swap3\n      pop\n        /* \"#utility.yul\":4499:4617   */\n      pop\n        /* \"#utility.yul\":4656:4658   */\n      0x40\n        /* \"#utility.yul\":4682:4735   */\n      tag_320\n        /* \"#utility.yul\":4727:4734   */\n      dup7\n        /* \"#utility.yul\":4718:4724   */\n      dup3\n        /* \"#utility.yul\":4707:4716   */\n      dup8\n        /* \"#utility.yul\":4703:4725   */\n      add\n        /* \"#utility.yul\":4682:4735   */\n      tag_202\n      jump\t// in\n    tag_320:\n        /* \"#utility.yul\":4672:4735   */\n      swap2\n      pop\n        /* \"#utility.yul\":4627:4745   */\n      pop\n        /* \"#utility.yul\":4133:4752   */\n      swap3\n      pop\n      swap3\n      pop\n      swap3\n      jump\t// out\n        /* \"#utility.yul\":4758:4844   */\n    tag_215:\n        /* \"#utility.yul\":4793:4800   */\n      0x00\n        /* \"#utility.yul\":4833:4837   */\n      0xff\n        /* \"#utility.yul\":4826:4831   */\n      dup3\n        /* \"#utility.yul\":4822:4838   */\n      and\n        /* \"#utility.yul\":4811:4838   */\n      swap1\n      pop\n        /* \"#utility.yul\":4758:4844   */\n      swap2\n      swap1\n      pop\n      jump\t// out\n        /* \"#utility.yul\":4850:4962   */\n    tag_216:\n        /* \"#utility.yul\":4933:4955   */\n      tag_323\n        /* \"#utility.yul\":4949:4954   */\n      dup2\n        /* \"#utility.yul\":4933:4955   */\n      tag_215\n      jump\t// in\n    tag_323:\n        /* \"#utility.yul\":4928:4931   */\n      dup3\n        /* \"#utility.yul\":4921:4956   */\n      mstore\n        /* \"#utility.yul\":4850:4962   */\n      pop\n      pop\n      jump\t// out\n        /* \"#utility.yul\":4968:5182   */\n    tag_47:\n        /* \"#utility.yul\":5057:5061   */\n      0x00\n        /* \"#utility.yul\":5095:5097   */\n      0x20\n        /* \"#utility.yul\":5084:5093   */\n      dup3\n        /* \"#utility.yul\":5080:5098   */\n      add\n        /* \"#utility.yul\":5072:5098   */\n      swap1\n      pop\n        /* \"#utility.yul\":5108:5175   */\n      tag_325\n        /* \"#utility.yul\":5172:5173   */\n      0x00\n        /* \"#utility.yul\":5161:5170   */\n      dup4\n        /* \"#utility.yul\":5157:5174   */\n      add\n        /* \"#utility.yul\":5148:5154   */\n      dup5\n        /* \"#utility.yul\":5108:5175   */\n      tag_216\n      jump\t// in\n    tag_325:\n        /* \"#utility.yul\":4968:5182   */\n      swap3\n      swap2\n      pop\n      pop\n      jump\t// out\n        /* \"#utility.yul\":5188:5517   */\n    tag_54:\n        /* \"#utility.yul\":5247:5253   */\n      0x00\n        /* \"#utility.yul\":5296:5298   */\n      0x20\n        /* \"#utility.yul\":5284:5293   */\n      dup3\n        /* \"#utility.yul\":5275:5282   */\n      dup5\n        /* \"#utility.yul\":5271:5294   */\n      sub\n        /* \"#utility.yul\":5267:5299   */\n      slt\n        /* \"#utility.yul\":5264:5383   */\n      iszero\n      tag_327\n      jumpi\n        /* \"#utility.yul\":5302:5381   */\n      tag_328\n      tag_198\n      jump\t// in\n    tag_328:\n        /* \"#utility.yul\":5264:5383   */\n    tag_327:\n        /* \"#utility.yul\":5422:5423   */\n      0x00\n        /* \"#utility.yul\":5447:5500   */\n      tag_329\n        /* \"#utility.yul\":5492:5499   */\n      dup5\n        /* \"#utility.yul\":5483:5489   */\n      dup3\n        /* \"#utility.yul\":5472:5481   */\n      dup6\n        /* \"#utility.yul\":5468:5490   */\n      add\n        /* \"#utility.yul\":5447:5500   */\n      tag_211\n      jump\t// in\n    tag_329:\n        /* \"#utility.yul\":5437:5500   */\n      swap2\n      pop\n        /* \"#utility.yul\":5393:5510   */\n      pop\n        /* \"#utility.yul\":5188:5517   */\n      swap3\n      swap2\n      pop\n      pop\n      jump\t// out\n        /* \"#utility.yul\":5523:5997   */\n    tag_70:\n        /* \"#utility.yul\":5591:5597   */\n      0x00\n        /* \"#utility.yul\":5599:5605   */\n      dup1\n        /* \"#utility.yul\":5648:5650   */\n      0x40\n        /* \"#utility.yul\":5636:5645   */\n      dup4\n        /* \"#utility.yul\":5627:5634   */\n      dup6\n        /* \"#utility.yul\":5623:5646   */\n      sub\n        /* \"#utility.yul\":5619:5651   */\n      slt\n        /* \"#utility.yul\":5616:5735   */\n      iszero\n      tag_331\n      jumpi\n        /* \"#utility.yul\":5654:5733   */\n      tag_332\n      tag_198\n      jump\t// in\n    tag_332:\n        /* \"#utility.yul\":5616:5735   */\n    tag_331:\n        /* \"#utility.yul\":5774:5775   */\n      0x00\n        /* \"#utility.yul\":5799:5852   */\n      tag_333\n        /* \"#utility.yul\":5844:5851   */\n      dup6\n        /* \"#utility.yul\":5835:5841   */\n      dup3\n        /* \"#utility.yul\":5824:5833   */\n      dup7\n        /* \"#utility.yul\":5820:5842   */\n      add\n        /* \"#utility.yul\":5799:5852   */\n      tag_211\n      jump\t// in\n    tag_333:\n        /* \"#utility.yul\":5789:5852   */\n      swap3\n      pop\n        /* \"#utility.yul\":5745:5862   */\n      pop\n        /* \"#utility.yul\":5901:5903   */\n      0x20\n        /* \"#utility.yul\":5927:5980   */\n      tag_334\n        /* \"#utility.yul\":5972:5979   */\n      dup6\n        /* \"#utility.yul\":5963:5969   */\n      dup3\n        /* \"#utility.yul\":5952:5961   */\n      dup7\n        /* \"#utility.yul\":5948:5970   */\n      add\n        /* \"#utility.yul\":5927:5980   */\n      tag_211\n      jump\t// in\n    tag_334:\n        /* \"#utility.yul\":5917:5980   */\n      swap2\n      pop\n        /* \"#utility.yul\":5872:5990   */\n      pop\n        /* \"#utility.yul\":5523:5997   */\n      swap3\n      pop\n      swap3\n      swap1\n      pop\n      jump\t// out\n        /* \"#utility.yul\":6003:6477   */\n    tag_75:\n        /* \"#utility.yul\":6071:6077   */\n      0x00\n        /* \"#utility.yul\":6079:6085   */\n      dup1\n        /* \"#utility.yul\":6128:6130   */\n      0x40\n        /* \"#utility.yul\":6116:6125   */\n      dup4\n        /* \"#utility.yul\":6107:6114   */\n      dup6\n        /* \"#utility.yul\":6103:6126   */\n      sub\n        /* \"#utility.yul\":6099:6131   */\n      slt\n        /* \"#utility.yul\":6096:6215   */\n      iszero\n      tag_336\n      jumpi\n        /* \"#utility.yul\":6134:6213   */\n      tag_337\n      tag_198\n      jump\t// in\n    tag_337:\n        /* \"#utility.yul\":6096:6215   */\n    tag_336:\n        /* \"#utility.yul\":6254:6255   */\n      0x00\n        /* \"#utility.yul\":6279:6332   */\n      tag_338\n        /* \"#utility.yul\":6324:6331   */\n      dup6\n        /* \"#utility.yul\":6315:6321   */\n      dup3\n        /* \"#utility.yul\":6304:6313   */\n      dup7\n        /* \"#utility.yul\":6300:6322   */\n      add\n        /* \"#utility.yul\":6279:6332   */\n      tag_202\n      jump\t// in\n    tag_338:\n        /* \"#utility.yul\":6269:6332   */\n      swap3\n      pop\n        /* \"#utility.yul\":6225:6342   */\n      pop\n        /* \"#utility.yul\":6381:6383   */\n      0x20\n        /* \"#utility.yul\":6407:6460   */\n      tag_339\n        /* \"#utility.yul\":6452:6459   */\n      dup6\n        /* \"#utility.yul\":6443:6449   */\n      dup3\n        /* \"#utility.yul\":6432:6441   */\n      dup7\n        /* \"#utility.yul\":6428:6450   */\n      add\n        /* \"#utility.yul\":6407:6460   */\n      tag_211\n      jump\t// in\n    tag_339:\n        /* \"#utility.yul\":6397:6460   */\n      swap2\n      pop\n        /* \"#utility.yul\":6352:6470   */\n      pop\n        /* \"#utility.yul\":6003:6477   */\n      swap3\n      pop\n      swap3\n      swap1\n      pop\n      jump\t// out\n        /* \"#utility.yul\":6483:6600   */\n    tag_217:\n        /* \"#utility.yul\":6592:6593   */\n      0x00\n        /* \"#utility.yul\":6589:6590   */\n      dup1\n        /* \"#utility.yul\":6582:6594   */\n      revert\n        /* \"#utility.yul\":6606:6723   */\n    tag_218:\n        /* \"#utility.yul\":6715:6716   */\n      0x00\n        /* \"#utility.yul\":6712:6713   */\n      dup1\n        /* \"#utility.yul\":6705:6717   */\n      revert\n        /* \"#utility.yul\":6729:6909   */\n    tag_219:\n        /* \"#utility.yul\":6777:6854   */\n      0x4e487b7100000000000000000000000000000000000000000000000000000000\n        /* \"#utility.yul\":6774:6775   */\n      0x00\n        /* \"#utility.yul\":6767:6855   */\n      mstore\n        /* \"#utility.yul\":6874:6878   */\n      0x41\n        /* \"#utility.yul\":6871:6872   */\n      0x04\n        /* \"#utility.yul\":6864:6879   */\n      mstore\n        /* \"#utility.yul\":6898:6902   */\n      0x24\n        /* \"#utility.yul\":6895:6896   */\n      0x00\n        /* \"#utility.yul\":6888:6903   */\n      revert\n        /* \"#utility.yul\":6915:7196   */\n    tag_220:\n        /* \"#utility.yul\":6998:7025   */\n      tag_344\n        /* \"#utility.yul\":7020:7024   */\n      dup3\n        /* \"#utility.yul\":6998:7025   */\n      tag_206\n      jump\t// in\n    tag_344:\n        /* \"#utility.yul\":6990:6996   */\n      dup2\n        /* \"#utility.yul\":6986:7026   */\n      add\n        /* \"#utility.yul\":7128:7134   */\n      dup2\n        /* \"#utility.yul\":7116:7126   */\n      dup2\n        /* \"#utility.yul\":7113:7135   */\n      lt\n        /* \"#utility.yul\":7092:7110   */\n      0xffffffffffffffff\n        /* \"#utility.yul\":7080:7090   */\n      dup3\n        /* \"#utility.yul\":7077:7111   */\n      gt\n        /* \"#utility.yul\":7074:7136   */\n      or\n        /* \"#utility.yul\":7071:7159   */\n      iszero\n      tag_345\n      jumpi\n        /* \"#utility.yul\":7139:7157   */\n      tag_346\n      tag_219\n      jump\t// in\n    tag_346:\n        /* \"#utility.yul\":7071:7159   */\n    tag_345:\n        /* \"#utility.yul\":7179:7189   */\n      dup1\n        /* \"#utility.yul\":7175:7177   */\n      0x40\n        /* \"#utility.yul\":7168:7190   */\n      mstore\n        /* \"#utility.yul\":6958:7196   */\n      pop\n        /* \"#utility.yul\":6915:7196   */\n      pop\n      pop\n      jump\t// out\n        /* \"#utility.yul\":7202:7331   */\n    tag_221:\n        /* \"#utility.yul\":7236:7242   */\n      0x00\n        /* \"#utility.yul\":7263:7283   */\n      tag_348\n      tag_197\n      jump\t// in\n    tag_348:\n        /* \"#utility.yul\":7253:7283   */\n      swap1\n      pop\n        /* \"#utility.yul\":7292:7325   */\n      tag_349\n        /* \"#utility.yul\":7320:7324   */\n      dup3\n        /* \"#utility.yul\":7312:7318   */\n      dup3\n        /* \"#utility.yul\":7292:7325   */\n      tag_220\n      jump\t// in\n    tag_349:\n        /* \"#utility.yul\":7202:7331   */\n      swap2\n      swap1\n      pop\n      jump\t// out\n        /* \"#utility.yul\":7337:7645   */\n    tag_222:\n        /* \"#utility.yul\":7399:7403   */\n      0x00\n        /* \"#utility.yul\":7489:7507   */\n      0xffffffffffffffff\n        /* \"#utility.yul\":7481:7487   */\n      dup3\n        /* \"#utility.yul\":7478:7508   */\n      gt\n        /* \"#utility.yul\":7475:7531   */\n      iszero\n      tag_351\n      jumpi\n        /* \"#utility.yul\":7511:7529   */\n      tag_352\n      tag_219\n      jump\t// in\n    tag_352:\n        /* \"#utility.yul\":7475:7531   */\n    tag_351:\n        /* \"#utility.yul\":7549:7578   */\n      tag_353\n        /* \"#utility.yul\":7571:7577   */\n      dup3\n        /* \"#utility.yul\":7549:7578   */\n      tag_206\n      jump\t// in\n    tag_353:\n        /* \"#utility.yul\":7541:7578   */\n      swap1\n      pop\n        /* \"#utility.yul\":7633:7637   */\n      0x20\n        /* \"#utility.yul\":7627:7631   */\n      dup2\n        /* \"#utility.yul\":7623:7638   */\n      add\n        /* \"#utility.yul\":7615:7638   */\n      swap1\n      pop\n        /* \"#utility.yul\":7337:7645   */\n      swap2\n      swap1\n      pop\n      jump\t// out\n        /* \"#utility.yul\":7651:7797   */\n    tag_223:\n        /* \"#utility.yul\":7748:7754   */\n      dup3\n        /* \"#utility.yul\":7743:7746   */\n      dup2\n        /* \"#utility.yul\":7738:7741   */\n      dup4\n        /* \"#utility.yul\":7725:7755   */\n      calldatacopy\n        /* \"#utility.yul\":7789:7790   */\n      0x00\n        /* \"#utility.yul\":7780:7786   */\n      dup4\n        /* \"#utility.yul\":7775:7778   */\n      dup4\n        /* \"#utility.yul\":7771:7787   */\n      add\n        /* \"#utility.yul\":7764:7791   */\n      mstore\n        /* \"#utility.yul\":7651:7797   */\n      pop\n      pop\n      pop\n      jump\t// out\n        /* \"#utility.yul\":7803:8228   */\n    tag_224:\n        /* \"#utility.yul\":7881:7886   */\n      0x00\n        /* \"#utility.yul\":7906:7972   */\n      tag_356\n        /* \"#utility.yul\":7922:7971   */\n      tag_357\n        /* \"#utility.yul\":7964:7970   */\n      dup5\n        /* \"#utility.yul\":7922:7971   */\n      tag_222\n      jump\t// in\n    tag_357:\n        /* \"#utility.yul\":7906:7972   */\n      tag_221\n      jump\t// in\n    tag_356:\n        /* \"#utility.yul\":7897:7972   */\n      swap1\n      pop\n        /* \"#utility.yul\":7995:8001   */\n      dup3\n        /* \"#utility.yul\":7988:7993   */\n      dup2\n        /* \"#utility.yul\":7981:8002   */\n      mstore\n        /* \"#utility.yul\":8033:8037   */\n      0x20\n        /* \"#utility.yul\":8026:8031   */\n      dup2\n        /* \"#utility.yul\":8022:8038   */\n      add\n        /* \"#utility.yul\":8071:8074   */\n      dup5\n        /* \"#utility.yul\":8062:8068   */\n      dup5\n        /* \"#utility.yul\":8057:8060   */\n      dup5\n        /* \"#utility.yul\":8053:8069   */\n      add\n        /* \"#utility.yul\":8050:8075   */\n      gt\n        /* \"#utility.yul\":8047:8159   */\n      iszero\n      tag_358\n      jumpi\n        /* \"#utility.yul\":8078:8157   */\n      tag_359\n      tag_218\n      jump\t// in\n    tag_359:\n        /* \"#utility.yul\":8047:8159   */\n    tag_358:\n        /* \"#utility.yul\":8168:8222   */\n      tag_360\n        /* \"#utility.yul\":8215:8221   */\n      dup5\n        /* \"#utility.yul\":8210:8213   */\n      dup3\n        /* \"#utility.yul\":8205:8208   */\n      dup6\n        /* \"#utility.yul\":8168:8222   */\n      tag_223\n      jump\t// in\n    tag_360:\n        /* \"#utility.yul\":7887:8228   */\n      pop\n        /* \"#utility.yul\":7803:8228   */\n      swap4\n      swap3\n      pop\n      pop\n      pop\n      jump\t// out\n        /* \"#utility.yul\":8248:8588   */\n    tag_225:\n        /* \"#utility.yul\":8304:8309   */\n      0x00\n        /* \"#utility.yul\":8353:8356   */\n      dup3\n        /* \"#utility.yul\":8346:8350   */\n      0x1f\n        /* \"#utility.yul\":8338:8344   */\n      dup4\n        /* \"#utility.yul\":8334:8351   */\n      add\n        /* \"#utility.yul\":8330:8357   */\n      slt\n        /* \"#utility.yul\":8320:8442   */\n      tag_362\n      jumpi\n        /* \"#utility.yul\":8361:8440   */\n      tag_363\n      tag_217\n      jump\t// in\n    tag_363:\n        /* \"#utility.yul\":8320:8442   */\n    tag_362:\n        /* \"#utility.yul\":8478:8484   */\n      dup2\n        /* \"#utility.yul\":8465:8485   */\n      calldataload\n        /* \"#utility.yul\":8503:8582   */\n      tag_364\n        /* \"#utility.yul\":8578:8581   */\n      dup5\n        /* \"#utility.yul\":8570:8576   */\n      dup3\n        /* \"#utility.yul\":8563:8567   */\n      0x20\n        /* \"#utility.yul\":8555:8561   */\n      dup7\n        /* \"#utility.yul\":8551:8568   */\n      add\n        /* \"#utility.yul\":8503:8582   */\n      tag_224\n      jump\t// in\n    tag_364:\n        /* \"#utility.yul\":8494:8582   */\n      swap2\n      pop\n        /* \"#utility.yul\":8310:8588   */\n      pop\n        /* \"#utility.yul\":8248:8588   */\n      swap3\n      swap2\n      pop\n      pop\n      jump\t// out\n        /* \"#utility.yul\":8594:9103   */\n    tag_79:\n        /* \"#utility.yul\":8663:8669   */\n      0x00\n        /* \"#utility.yul\":8712:8714   */\n      0x20\n        /* \"#utility.yul\":8700:8709   */\n      dup3\n        /* \"#utility.yul\":8691:8698   */\n      dup5\n        /* \"#utility.yul\":8687:8710   */\n      sub\n        /* \"#utility.yul\":8683:8715   */\n      slt\n        /* \"#utility.yul\":8680:8799   */\n      iszero\n      tag_366\n      jumpi\n        /* \"#utility.yul\":8718:8797   */\n      tag_367\n      tag_198\n      jump\t// in\n    tag_367:\n        /* \"#utility.yul\":8680:8799   */\n    tag_366:\n        /* \"#utility.yul\":8866:8867   */\n      0x00\n        /* \"#utility.yul\":8855:8864   */\n      dup3\n        /* \"#utility.yul\":8851:8868   */\n      add\n        /* \"#utility.yul\":8838:8869   */\n      calldataload\n        /* \"#utility.yul\":8896:8914   */\n      0xffffffffffffffff\n        /* \"#utility.yul\":8888:8894   */\n      dup2\n        /* \"#utility.yul\":8885:8915   */\n      gt\n        /* \"#utility.yul\":8882:8999   */\n      iszero\n      tag_368\n      jumpi\n        /* \"#utility.yul\":8918:8997   */\n      tag_369\n      tag_199\n      jump\t// in\n    tag_369:\n        /* \"#utility.yul\":8882:8999   */\n    tag_368:\n        /* \"#utility.yul\":9023:9086   */\n      tag_370\n        /* \"#utility.yul\":9078:9085   */\n      dup5\n        /* \"#utility.yul\":9069:9075   */\n      dup3\n        /* \"#utility.yul\":9058:9067   */\n      dup6\n        /* \"#utility.yul\":9054:9076   */\n      add\n        /* \"#utility.yul\":9023:9086   */\n      tag_225\n      jump\t// in\n    tag_370:\n        /* \"#utility.yul\":9013:9086   */\n      swap2\n      pop\n        /* \"#utility.yul\":8809:9096   */\n      pop\n        /* \"#utility.yul\":8594:9103   */\n      swap3\n      swap2\n      pop\n      pop\n      jump\t// out\n        /* \"#utility.yul\":9109:9272   */\n    tag_226:\n        /* \"#utility.yul\":9249:9264   */\n      0x496e76616c696420696e64657800000000000000000000000000000000000000\n        /* \"#utility.yul\":9245:9246   */\n      0x00\n        /* \"#utility.yul\":9237:9243   */\n      dup3\n        /* \"#utility.yul\":9233:9247   */\n      add\n        /* \"#utility.yul\":9226:9265   */\n      mstore\n        /* \"#utility.yul\":9109:9272   */\n      pop\n      jump\t// out\n        /* \"#utility.yul\":9278:9644   */\n    tag_227:\n        /* \"#utility.yul\":9420:9423   */\n      0x00\n        /* \"#utility.yul\":9441:9508   */\n      tag_373\n        /* \"#utility.yul\":9505:9507   */\n      0x0d\n        /* \"#utility.yul\":9500:9503   */\n      dup4\n        /* \"#utility.yul\":9441:9508   */\n      tag_204\n      jump\t// in\n    tag_373:\n        /* \"#utility.yul\":9434:9508   */\n      swap2\n      pop\n        /* \"#utility.yul\":9517:9610   */\n      tag_374\n        /* \"#utility.yul\":9606:9609   */\n      dup3\n        /* \"#utility.yul\":9517:9610   */\n      tag_226\n      jump\t// in\n    tag_374:\n        /* \"#utility.yul\":9635:9637   */\n      0x20\n        /* \"#utility.yul\":9630:9633   */\n      dup3\n        /* \"#utility.yul\":9626:9638   */\n      add\n        /* \"#utility.yul\":9619:9638   */\n      swap1\n      pop\n        /* \"#utility.yul\":9278:9644   */\n      swap2\n      swap1\n      pop\n      jump\t// out\n        /* \"#utility.yul\":9650:10069   */\n    tag_85:\n        /* \"#utility.yul\":9816:9820   */\n      0x00\n        /* \"#utility.yul\":9854:9856   */\n      0x20\n        /* \"#utility.yul\":9843:9852   */\n      dup3\n        /* \"#utility.yul\":9839:9857   */\n      add\n        /* \"#utility.yul\":9831:9857   */\n      swap1\n      pop\n        /* \"#utility.yul\":9903:9912   */\n      dup2\n        /* \"#utility.yul\":9897:9901   */\n      dup2\n        /* \"#utility.yul\":9893:9913   */\n      sub\n        /* \"#utility.yul\":9889:9890   */\n      0x00\n        /* \"#utility.yul\":9878:9887   */\n      dup4\n        /* \"#utility.yul\":9874:9891   */\n      add\n        /* \"#utility.yul\":9867:9914   */\n      mstore\n        /* \"#utility.yul\":9931:10062   */\n      tag_376\n        /* \"#utility.yul\":10057:10061   */\n      dup2\n        /* \"#utility.yul\":9931:10062   */\n      tag_227\n      jump\t// in\n    tag_376:\n        /* \"#utility.yul\":9923:10062   */\n      swap1\n      pop\n        /* \"#utility.yul\":9650:10069   */\n      swap2\n      swap1\n      pop\n      jump\t// out\n        /* \"#utility.yul\":10075:10255   */\n    tag_228:\n        /* \"#utility.yul\":10123:10200   */\n      0x4e487b7100000000000000000000000000000000000000000000000000000000\n        /* \"#utility.yul\":10120:10121   */\n      0x00\n        /* \"#utility.yul\":10113:10201   */\n      mstore\n        /* \"#utility.yul\":10220:10224   */\n      0x22\n        /* \"#utility.yul\":10217:10218   */\n      0x04\n        /* \"#utility.yul\":10210:10225   */\n      mstore\n        /* \"#utility.yul\":10244:10248   */\n      0x24\n        /* \"#utility.yul\":10241:10242   */\n      0x00\n        /* \"#utility.yul\":10234:10249   */\n      revert\n        /* \"#utility.yul\":10261:10581   */\n    tag_87:\n        /* \"#utility.yul\":10305:10311   */\n      0x00\n        /* \"#utility.yul\":10342:10343   */\n      0x02\n        /* \"#utility.yul\":10336:10340   */\n      dup3\n        /* \"#utility.yul\":10332:10344   */\n      div\n        /* \"#utility.yul\":10322:10344   */\n      swap1\n      pop\n        /* \"#utility.yul\":10389:10390   */\n      0x01\n        /* \"#utility.yul\":10383:10387   */\n      dup3\n        /* \"#utility.yul\":10379:10391   */\n      and\n        /* \"#utility.yul\":10410:10428   */\n      dup1\n        /* \"#utility.yul\":10400:10481   */\n      tag_379\n      jumpi\n        /* \"#utility.yul\":10466:10470   */\n      0x7f\n        /* \"#utility.yul\":10458:10464   */\n      dup3\n        /* \"#utility.yul\":10454:10471   */\n      and\n        /* \"#utility.yul\":10444:10471   */\n      swap2\n      pop\n        /* \"#utility.yul\":10400:10481   */\n    tag_379:\n        /* \"#utility.yul\":10528:10530   */\n      0x20\n        /* \"#utility.yul\":10520:10526   */\n      dup3\n        /* \"#utility.yul\":10517:10531   */\n      lt\n        /* \"#utility.yul\":10497:10515   */\n      dup2\n        /* \"#utility.yul\":10494:10532   */\n      sub\n        /* \"#utility.yul\":10491:10575   */\n      tag_380\n      jumpi\n        /* \"#utility.yul\":10547:10565   */\n      tag_381\n      tag_228\n      jump\t// in\n    tag_381:\n        /* \"#utility.yul\":10491:10575   */\n    tag_380:\n        /* \"#utility.yul\":10312:10581   */\n      pop\n        /* \"#utility.yul\":10261:10581   */\n      swap2\n      swap1\n      pop\n      jump\t// out\n        /* \"#utility.yul\":10587:10767   */\n    tag_229:\n        /* \"#utility.yul\":10635:10712   */\n      0x4e487b7100000000000000000000000000000000000000000000000000000000\n        /* \"#utility.yul\":10632:10633   */\n      0x00\n        /* \"#utility.yul\":10625:10713   */\n      mstore\n        /* \"#utility.yul\":10732:10736   */\n      0x11\n        /* \"#utility.yul\":10729:10730   */\n      0x04\n        /* \"#utility.yul\":10722:10737   */\n      mstore\n        /* \"#utility.yul\":10756:10760   */\n      0x24\n        /* \"#utility.yul\":10753:10754   */\n      0x00\n        /* \"#utility.yul\":10746:10761   */\n      revert\n        /* \"#utility.yul\":10773:10964   */\n    tag_116:\n        /* \"#utility.yul\":10813:10816   */\n      0x00\n        /* \"#utility.yul\":10832:10852   */\n      tag_384\n        /* \"#utility.yul\":10850:10851   */\n      dup3\n        /* \"#utility.yul\":10832:10852   */\n      tag_200\n      jump\t// in\n    tag_384:\n        /* \"#utility.yul\":10827:10852   */\n      swap2\n      pop\n        /* \"#utility.yul\":10866:10886   */\n      tag_385\n        /* \"#utility.yul\":10884:10885   */\n      dup4\n        /* \"#utility.yul\":10866:10886   */\n      tag_200\n      jump\t// in\n    tag_385:\n        /* \"#utility.yul\":10861:10886   */\n      swap3\n      pop\n        /* \"#utility.yul\":10909:10910   */\n      dup3\n        /* \"#utility.yul\":10906:10907   */\n      dup3\n        /* \"#utility.yul\":10902:10911   */\n      add\n        /* \"#utility.yul\":10895:10911   */\n      swap1\n      pop\n        /* \"#utility.yul\":10930:10933   */\n      dup1\n        /* \"#utility.yul\":10927:10928   */\n      dup3\n        /* \"#utility.yul\":10924:10934   */\n      gt\n        /* \"#utility.yul\":10921:10957   */\n      iszero\n      tag_386\n      jumpi\n        /* \"#utility.yul\":10937:10955   */\n      tag_387\n      tag_229\n      jump\t// in\n    tag_387:\n        /* \"#utility.yul\":10921:10957   */\n    tag_386:\n        /* \"#utility.yul\":10773:10964   */\n      swap3\n      swap2\n      pop\n      pop\n      jump\t// out\n        /* \"#utility.yul\":10970:11194   */\n    tag_230:\n        /* \"#utility.yul\":11110:11144   */\n      0x45524332303a2064656372656173656420616c6c6f77616e63652062656c6f77\n        /* \"#utility.yul\":11106:11107   */\n      0x00\n        /* \"#utility.yul\":11098:11104   */\n      dup3\n        /* \"#utility.yul\":11094:11108   */\n      add\n        /* \"#utility.yul\":11087:11145   */\n      mstore\n        /* \"#utility.yul\":11179:11186   */\n      0x207a65726f000000000000000000000000000000000000000000000000000000\n        /* \"#utility.yul\":11174:11176   */\n      0x20\n        /* \"#utility.yul\":11166:11172   */\n      dup3\n        /* \"#utility.yul\":11162:11177   */\n      add\n        /* \"#utility.yul\":11155:11187   */\n      mstore\n        /* \"#utility.yul\":10970:11194   */\n      pop\n      jump\t// out\n        /* \"#utility.yul\":11200:11566   */\n    tag_231:\n        /* \"#utility.yul\":11342:11345   */\n      0x00\n        /* \"#utility.yul\":11363:11430   */\n      tag_390\n        /* \"#utility.yul\":11427:11429   */\n      0x25\n        /* \"#utility.yul\":11422:11425   */\n      dup4\n        /* \"#utility.yul\":11363:11430   */\n      tag_204\n      jump\t// in\n    tag_390:\n        /* \"#utility.yul\":11356:11430   */\n      swap2\n      pop\n        /* \"#utility.yul\":11439:11532   */\n      tag_391\n        /* \"#utility.yul\":11528:11531   */\n      dup3\n        /* \"#utility.yul\":11439:11532   */\n      tag_230\n      jump\t// in\n    tag_391:\n        /* \"#utility.yul\":11557:11559   */\n      0x40\n        /* \"#utility.yul\":11552:11555   */\n      dup3\n        /* \"#utility.yul\":11548:11560   */\n      add\n        /* \"#utility.yul\":11541:11560   */\n      swap1\n      pop\n        /* \"#utility.yul\":11200:11566   */\n      swap2\n      swap1\n      pop\n      jump\t// out\n        /* \"#utility.yul\":11572:11991   */\n    tag_129:\n        /* \"#utility.yul\":11738:11742   */\n      0x00\n        /* \"#utility.yul\":11776:11778   */\n      0x20\n        /* \"#utility.yul\":11765:11774   */\n      dup3\n        /* \"#utility.yul\":11761:11779   */\n      add\n        /* \"#utility.yul\":11753:11779   */\n      swap1\n      pop\n        /* \"#utility.yul\":11825:11834   */\n      dup2\n        /* \"#utility.yul\":11819:11823   */\n      dup2\n        /* \"#utility.yul\":11815:11835   */\n      sub\n        /* \"#utility.yul\":11811:11812   */\n      0x00\n        /* \"#utility.yul\":11800:11809   */\n      dup4\n        /* \"#utility.yul\":11796:11813   */\n      add\n        /* \"#utility.yul\":11789:11836   */\n      mstore\n        /* \"#utility.yul\":11853:11984   */\n      tag_393\n        /* \"#utility.yul\":11979:11983   */\n      dup2\n        /* \"#utility.yul\":11853:11984   */\n      tag_231\n      jump\t// in\n    tag_393:\n        /* \"#utility.yul\":11845:11984   */\n      swap1\n      pop\n        /* \"#utility.yul\":11572:11991   */\n      swap2\n      swap1\n      pop\n      jump\t// out\n        /* \"#utility.yul\":11997:12227   */\n    tag_232:\n        /* \"#utility.yul\":12137:12171   */\n      0x4f6e6c7920636f6e7472616374206f776e65722063616e20706572666f726d20\n        /* \"#utility.yul\":12133:12134   */\n      0x00\n        /* \"#utility.yul\":12125:12131   */\n      dup3\n        /* \"#utility.yul\":12121:12135   */\n      add\n        /* \"#utility.yul\":12114:12172   */\n      mstore\n        /* \"#utility.yul\":12206:12219   */\n      0x7468697320616374696f6e000000000000000000000000000000000000000000\n        /* \"#utility.yul\":12201:12203   */\n      0x20\n        /* \"#utility.yul\":12193:12199   */\n      dup3\n        /* \"#utility.yul\":12189:12204   */\n      add\n        /* \"#utility.yul\":12182:12220   */\n      mstore\n        /* \"#utility.yul\":11997:12227   */\n      pop\n      jump\t// out\n        /* \"#utility.yul\":12233:12599   */\n    tag_233:\n        /* \"#utility.yul\":12375:12378   */\n      0x00\n        /* \"#utility.yul\":12396:12463   */\n      tag_396\n        /* \"#utility.yul\":12460:12462   */\n      0x2b\n        /* \"#utility.yul\":12455:12458   */\n      dup4\n        /* \"#utility.yul\":12396:12463   */\n      tag_204\n      jump\t// in\n    tag_396:\n        /* \"#utility.yul\":12389:12463   */\n      swap2\n      pop\n        /* \"#utility.yul\":12472:12565   */\n      tag_397\n        /* \"#utility.yul\":12561:12564   */\n      dup3\n        /* \"#utility.yul\":12472:12565   */\n      tag_232\n      jump\t// in\n    tag_397:\n        /* \"#utility.yul\":12590:12592   */\n      0x40\n        /* \"#utility.yul\":12585:12588   */\n      dup3\n        /* \"#utility.yul\":12581:12593   */\n      add\n        /* \"#utility.yul\":12574:12593   */\n      swap1\n      pop\n        /* \"#utility.yul\":12233:12599   */\n      swap2\n      swap1\n      pop\n      jump\t// out\n        /* \"#utility.yul\":12605:13024   */\n    tag_138:\n        /* \"#utility.yul\":12771:12775   */\n      0x00\n        /* \"#utility.yul\":12809:12811   */\n      0x20\n        /* \"#utility.yul\":12798:12807   */\n      dup3\n        /* \"#utility.yul\":12794:12812   */\n      add\n        /* \"#utility.yul\":12786:12812   */\n      swap1\n      pop\n        /* \"#utility.yul\":12858:12867   */\n      dup2\n        /* \"#utility.yul\":12852:12856   */\n      dup2\n        /* \"#utility.yul\":12848:12868   */\n      sub\n        /* \"#utility.yul\":12844:12845   */\n      0x00\n        /* \"#utility.yul\":12833:12842   */\n      dup4\n        /* \"#utility.yul\":12829:12846   */\n      add\n        /* \"#utility.yul\":12822:12869   */\n      mstore\n        /* \"#utility.yul\":12886:13017   */\n      tag_399\n        /* \"#utility.yul\":13012:13016   */\n      dup2\n        /* \"#utility.yul\":12886:13017   */\n      tag_233\n      jump\t// in\n    tag_399:\n        /* \"#utility.yul\":12878:13017   */\n      swap1\n      pop\n        /* \"#utility.yul\":12605:13024   */\n      swap2\n      swap1\n      pop\n      jump\t// out\n        /* \"#utility.yul\":13030:13205   */\n    tag_234:\n        /* \"#utility.yul\":13170:13197   */\n      0x496e76616c696420726563697069656e74206164647265737300000000000000\n        /* \"#utility.yul\":13166:13167   */\n      0x00\n        /* \"#utility.yul\":13158:13164   */\n      dup3\n        /* \"#utility.yul\":13154:13168   */\n      add\n        /* \"#utility.yul\":13147:13198   */\n      mstore\n        /* \"#utility.yul\":13030:13205   */\n      pop\n      jump\t// out\n        /* \"#utility.yul\":13211:13577   */\n    tag_235:\n        /* \"#utility.yul\":13353:13356   */\n      0x00\n        /* \"#utility.yul\":13374:13441   */\n      tag_402\n        /* \"#utility.yul\":13438:13440   */\n      0x19\n        /* \"#utility.yul\":13433:13436   */\n      dup4\n        /* \"#utility.yul\":13374:13441   */\n      tag_204\n      jump\t// in\n    tag_402:\n        /* \"#utility.yul\":13367:13441   */\n      swap2\n      pop\n        /* \"#utility.yul\":13450:13543   */\n      tag_403\n        /* \"#utility.yul\":13539:13542   */\n      dup3\n        /* \"#utility.yul\":13450:13543   */\n      tag_234\n      jump\t// in\n    tag_403:\n        /* \"#utility.yul\":13568:13570   */\n      0x20\n        /* \"#utility.yul\":13563:13566   */\n      dup3\n        /* \"#utility.yul\":13559:13571   */\n      add\n        /* \"#utility.yul\":13552:13571   */\n      swap1\n      pop\n        /* \"#utility.yul\":13211:13577   */\n      swap2\n      swap1\n      pop\n      jump\t// out\n        /* \"#utility.yul\":13583:14002   */\n    tag_145:\n        /* \"#utility.yul\":13749:13753   */\n      0x00\n        /* \"#utility.yul\":13787:13789   */\n      0x20\n        /* \"#utility.yul\":13776:13785   */\n      dup3\n        /* \"#utility.yul\":13772:13790   */\n      add\n        /* \"#utility.yul\":13764:13790   */\n      swap1\n      pop\n        /* \"#utility.yul\":13836:13845   */\n      dup2\n        /* \"#utility.yul\":13830:13834   */\n      dup2\n        /* \"#utility.yul\":13826:13846   */\n      sub\n        /* \"#utility.yul\":13822:13823   */\n      0x00\n        /* \"#utility.yul\":13811:13820   */\n      dup4\n        /* \"#utility.yul\":13807:13824   */\n      add\n        /* \"#utility.yul\":13800:13847   */\n      mstore\n        /* \"#utility.yul\":13864:13995   */\n      tag_405\n        /* \"#utility.yul\":13990:13994   */\n      dup2\n        /* \"#utility.yul\":13864:13995   */\n      tag_235\n      jump\t// in\n    tag_405:\n        /* \"#utility.yul\":13856:13995   */\n      swap1\n      pop\n        /* \"#utility.yul\":13583:14002   */\n      swap2\n      swap1\n      pop\n      jump\t// out\n        /* \"#utility.yul\":14008:14149   */\n    tag_236:\n        /* \"#utility.yul\":14057:14061   */\n      0x00\n        /* \"#utility.yul\":14080:14083   */\n      dup2\n        /* \"#utility.yul\":14072:14083   */\n      swap1\n      pop\n        /* \"#utility.yul\":14103:14106   */\n      dup2\n        /* \"#utility.yul\":14100:14101   */\n      0x00\n        /* \"#utility.yul\":14093:14107   */\n      mstore\n        /* \"#utility.yul\":14137:14141   */\n      0x20\n        /* \"#utility.yul\":14134:14135   */\n      0x00\n        /* \"#utility.yul\":14124:14142   */\n      keccak256\n        /* \"#utility.yul\":14116:14142   */\n      swap1\n      pop\n        /* \"#utility.yul\":14008:14149   */\n      swap2\n      swap1\n      pop\n      jump\t// out\n        /* \"#utility.yul\":14155:14248   */\n    tag_237:\n        /* \"#utility.yul\":14192:14198   */\n      0x00\n        /* \"#utility.yul\":14239:14241   */\n      0x20\n        /* \"#utility.yul\":14234:14236   */\n      0x1f\n        /* \"#utility.yul\":14227:14232   */\n      dup4\n        /* \"#utility.yul\":14223:14237   */\n      add\n        /* \"#utility.yul\":14219:14242   */\n      div\n        /* \"#utility.yul\":14209:14242   */\n      swap1\n      pop\n        /* \"#utility.yul\":14155:14248   */\n      swap2\n      swap1\n      pop\n      jump\t// out\n        /* \"#utility.yul\":14254:14361   */\n    tag_238:\n        /* \"#utility.yul\":14298:14306   */\n      0x00\n        /* \"#utility.yul\":14348:14353   */\n      dup3\n        /* \"#utility.yul\":14342:14346   */\n      dup3\n        /* \"#utility.yul\":14338:14354   */\n      shl\n        /* \"#utility.yul\":14317:14354   */\n      swap1\n      pop\n        /* \"#utility.yul\":14254:14361   */\n      swap3\n      swap2\n      pop\n      pop\n      jump\t// out\n        /* \"#utility.yul\":14367:14760   */\n    tag_239:\n        /* \"#utility.yul\":14436:14442   */\n      0x00\n        /* \"#utility.yul\":14486:14487   */\n      0x08\n        /* \"#utility.yul\":14474:14484   */\n      dup4\n        /* \"#utility.yul\":14470:14488   */\n      mul\n        /* \"#utility.yul\":14509:14606   */\n      tag_410\n        /* \"#utility.yul\":14539:14605   */\n      0xffffffffffffffffffffffffffffffffffffffffffffffffffffffffffffffff\n        /* \"#utility.yul\":14528:14537   */\n      dup3\n        /* \"#utility.yul\":14509:14606   */\n      tag_238\n      jump\t// in\n    tag_410:\n        /* \"#utility.yul\":14627:14666   */\n      tag_411\n        /* \"#utility.yul\":14657:14665   */\n      dup7\n        /* \"#utility.yul\":14646:14655   */\n      dup4\n        /* \"#utility.yul\":14627:14666   */\n      tag_238\n      jump\t// in\n    tag_411:\n        /* \"#utility.yul\":14615:14666   */\n      swap6\n      pop\n        /* \"#utility.yul\":14699:14703   */\n      dup1\n        /* \"#utility.yul\":14695:14704   */\n      not\n        /* \"#utility.yul\":14688:14693   */\n      dup5\n        /* \"#utility.yul\":14684:14705   */\n      and\n        /* \"#utility.yul\":14675:14705   */\n      swap4\n      pop\n        /* \"#utility.yul\":14748:14752   */\n      dup1\n        /* \"#utility.yul\":14738:14746   */\n      dup7\n        /* \"#utility.yul\":14734:14753   */\n      and\n        /* \"#utility.yul\":14727:14732   */\n      dup5\n        /* \"#utility.yul\":14724:14754   */\n      or\n        /* \"#utility.yul\":14714:14754   */\n      swap3\n      pop\n        /* \"#utility.yul\":14443:14760   */\n      pop\n      pop\n        /* \"#utility.yul\":14367:14760   */\n      swap4\n      swap3\n      pop\n      pop\n      pop\n      jump\t// out\n        /* \"#utility.yul\":14766:14826   */\n    tag_240:\n        /* \"#utility.yul\":14794:14797   */\n      0x00\n        /* \"#utility.yul\":14815:14820   */\n      dup2\n        /* \"#utility.yul\":14808:14820   */\n      swap1\n      pop\n        /* \"#utility.yul\":14766:14826   */\n      swap2\n      swap1\n      pop\n      jump\t// out\n        /* \"#utility.yul\":14832:14974   */\n    tag_241:\n        /* \"#utility.yul\":14882:14891   */\n      0x00\n        /* \"#utility.yul\":14915:14968   */\n      tag_414\n        /* \"#utility.yul\":14933:14967   */\n      tag_415\n        /* \"#utility.yul\":14942:14966   */\n      tag_416\n        /* \"#utility.yul\":14960:14965   */\n      dup5\n        /* \"#utility.yul\":14942:14966   */\n      tag_200\n      jump\t// in\n    tag_416:\n        /* \"#utility.yul\":14933:14967   */\n      tag_240\n      jump\t// in\n    tag_415:\n        /* \"#utility.yul\":14915:14968   */\n      tag_200\n      jump\t// in\n    tag_414:\n        /* \"#utility.yul\":14902:14968   */\n      swap1\n      pop\n        /* \"#utility.yul\":14832:14974   */\n      swap2\n      swap1\n      pop\n      jump\t// out\n        /* \"#utility.yul\":14980:15055   */\n    tag_242:\n        /* \"#utility.yul\":15023:15026   */\n      0x00\n        /* \"#utility.yul\":15044:15049   */\n      dup2\n        /* \"#utility.yul\":15037:15049   */\n      swap1\n      pop\n        /* \"#utility.yul\":14980:15055   */\n      swap2\n      swap1\n      pop\n      jump\t// out\n        /* \"#utility.yul\":15061:15330   */\n    tag_243:\n        /* \"#utility.yul\":15171:15210   */\n      tag_419\n        /* \"#utility.yul\":15202:15209   */\n      dup4\n        /* \"#utility.yul\":15171:15210   */\n      tag_241\n      jump\t// in\n    tag_419:\n        /* \"#utility.yul\":15232:15323   */\n      tag_420\n        /* \"#utility.yul\":15281:15322   */\n      tag_421\n        /* \"#utility.yul\":15305:15321   */\n      dup3\n        /* \"#utility.yul\":15281:15322   */\n      tag_242\n      jump\t// in\n    tag_421:\n        /* \"#utility.yul\":15273:15279   */\n      dup5\n        /* \"#utility.yul\":15266:15270   */\n      dup5\n        /* \"#utility.yul\":15260:15271   */\n      sload\n        /* \"#utility.yul\":15232:15323   */\n      tag_239\n      jump\t// in\n    tag_420:\n        /* \"#utility.yul\":15226:15230   */\n      dup3\n        /* \"#utility.yul\":15219:15324   */\n      sstore\n        /* \"#utility.yul\":15137:15330   */\n      pop\n        /* \"#utility.yul\":15061:15330   */\n      pop\n      pop\n      pop\n      jump\t// out\n        /* \"#utility.yul\":15336:15409   */\n    tag_244:\n        /* \"#utility.yul\":15381:15384   */\n      0x00\n        /* \"#utility.yul\":15336:15409   */\n      swap1\n      jump\t// out\n        /* \"#utility.yul\":15415:15604   */\n    tag_245:\n        /* \"#utility.yul\":15492:15524   */\n      tag_424\n      tag_244\n      jump\t// in\n    tag_424:\n        /* \"#utility.yul\":15533:15598   */\n      tag_425\n        /* \"#utility.yul\":15591:15597   */\n      dup2\n        /* \"#utility.yul\":15583:15589   */\n      dup5\n        /* \"#utility.yul\":15577:15581   */\n      dup5\n        /* \"#utility.yul\":15533:15598   */\n      tag_243\n      jump\t// in\n    tag_425:\n        /* \"#utility.yul\":15468:15604   */\n      pop\n        /* \"#utility.yul\":15415:15604   */\n      pop\n      pop\n      jump\t// out\n        /* \"#utility.yul\":15610:15796   */\n    tag_246:\n        /* \"#utility.yul\":15670:15790   */\n    tag_427:\n        /* \"#utility.yul\":15687:15690   */\n      dup2\n        /* \"#utility.yul\":15680:15685   */\n      dup2\n        /* \"#utility.yul\":15677:15691   */\n      lt\n        /* \"#utility.yul\":15670:15790   */\n      iszero\n      tag_429\n      jumpi\n        /* \"#utility.yul\":15741:15780   */\n      tag_430\n        /* \"#utility.yul\":15778:15779   */\n      0x00\n        /* \"#utility.yul\":15771:15776   */\n      dup3\n        /* \"#utility.yul\":15741:15780   */\n      tag_245\n      jump\t// in\n    tag_430:\n        /* \"#utility.yul\":15714:15715   */\n      0x01\n        /* \"#utility.yul\":15707:15712   */\n      dup2\n        /* \"#utility.yul\":15703:15716   */\n      add\n        /* \"#utility.yul\":15694:15716   */\n      swap1\n      pop\n        /* \"#utility.yul\":15670:15790   */\n      jump(tag_427)\n    tag_429:\n        /* \"#utility.yul\":15610:15796   */\n      pop\n      pop\n      jump\t// out\n        /* \"#utility.yul\":15802:16345   */\n    tag_247:\n        /* \"#utility.yul\":15903:15905   */\n      0x1f\n        /* \"#utility.yul\":15898:15901   */\n      dup3\n        /* \"#utility.yul\":15895:15906   */\n      gt\n        /* \"#utility.yul\":15892:16338   */\n      iszero\n      tag_432\n      jumpi\n        /* \"#utility.yul\":15937:15975   */\n      tag_433\n        /* \"#utility.yul\":15969:15974   */\n      dup2\n        /* \"#utility.yul\":15937:15975   */\n      tag_236\n      jump\t// in\n    tag_433:\n        /* \"#utility.yul\":16021:16050   */\n      tag_434\n        /* \"#utility.yul\":16039:16049   */\n      dup5\n        /* \"#utility.yul\":16021:16050   */\n      tag_237\n      jump\t// in\n    tag_434:\n        /* \"#utility.yul\":16011:16019   */\n      dup2\n        /* \"#utility.yul\":16007:16051   */\n      add\n        /* \"#utility.yul\":16204:16206   */\n      0x20\n        /* \"#utility.yul\":16192:16202   */\n      dup6\n        /* \"#utility.yul\":16189:16207   */\n      lt\n        /* \"#utility.yul\":16186:16235   */\n      iszero\n      tag_435\n      jumpi\n        /* \"#utility.yul\":16225:16233   */\n      dup2\n        /* \"#utility.yul\":16210:16233   */\n      swap1\n      pop\n        /* \"#utility.yul\":16186:16235   */\n    tag_435:\n        /* \"#utility.yul\":16248:16328   */\n      tag_436\n        /* \"#utility.yul\":16304:16326   */\n      tag_437\n        /* \"#utility.yul\":16322:16325   */\n      dup6\n        /* \"#utility.yul\":16304:16326   */\n      tag_237\n      jump\t// in\n    tag_437:\n        /* \"#utility.yul\":16294:16302   */\n      dup4\n        /* \"#utility.yul\":16290:16327   */\n      add\n        /* \"#utility.yul\":16277:16288   */\n      dup3\n        /* \"#utility.yul\":16248:16328   */\n      tag_246\n      jump\t// in\n    tag_436:\n        /* \"#utility.yul\":15907:16338   */\n      pop\n      pop\n        /* \"#utility.yul\":15892:16338   */\n    tag_432:\n        /* \"#utility.yul\":15802:16345   */\n      pop\n      pop\n      pop\n      jump\t// out\n        /* \"#utility.yul\":16351:16468   */\n    tag_248:\n        /* \"#utility.yul\":16405:16413   */\n      0x00\n        /* \"#utility.yul\":16455:16460   */\n      dup3\n        /* \"#utility.yul\":16449:16453   */\n      dup3\n        /* \"#utility.yul\":16445:16461   */\n      shr\n        /* \"#utility.yul\":16424:16461   */\n      swap1\n      pop\n        /* \"#utility.yul\":16351:16468   */\n      swap3\n      swap2\n      pop\n      pop\n      jump\t// out\n        /* \"#utility.yul\":16474:16643   */\n    tag_249:\n        /* \"#utility.yul\":16518:16524   */\n      0x00\n        /* \"#utility.yul\":16551:16602   */\n      tag_440\n        /* \"#utility.yul\":16599:16600   */\n      0x00\n        /* \"#utility.yul\":16595:16601   */\n      not\n        /* \"#utility.yul\":16587:16592   */\n      dup5\n        /* \"#utility.yul\":16584:16585   */\n      0x08\n        /* \"#utility.yul\":16580:16593   */\n      mul\n        /* \"#utility.yul\":16551:16602   */\n      tag_248\n      jump\t// in\n    tag_440:\n        /* \"#utility.yul\":16547:16603   */\n      not\n        /* \"#utility.yul\":16632:16636   */\n      dup1\n        /* \"#utility.yul\":16626:16630   */\n      dup4\n        /* \"#utility.yul\":16622:16637   */\n      and\n        /* \"#utility.yul\":16612:16637   */\n      swap2\n      pop\n        /* \"#utility.yul\":16525:16643   */\n      pop\n        /* \"#utility.yul\":16474:16643   */\n      swap3\n      swap2\n      pop\n      pop\n      jump\t// out\n        /* \"#utility.yul\":16648:16943   */\n    tag_250:\n        /* \"#utility.yul\":16724:16728   */\n      0x00\n        /* \"#utility.yul\":16870:16899   */\n      tag_442\n        /* \"#utility.yul\":16895:16898   */\n      dup4\n        /* \"#utility.yul\":16889:16893   */\n      dup4\n        /* \"#utility.yul\":16870:16899   */\n      tag_249\n      jump\t// in\n    tag_442:\n        /* \"#utility.yul\":16862:16899   */\n      swap2\n      pop\n        /* \"#utility.yul\":16932:16935   */\n      dup3\n        /* \"#utility.yul\":16929:16930   */\n      0x02\n        /* \"#utility.yul\":16925:16936   */\n      mul\n        /* \"#utility.yul\":16919:16923   */\n      dup3\n        /* \"#utility.yul\":16916:16937   */\n      or\n        /* \"#utility.yul\":16908:16937   */\n      swap1\n      pop\n        /* \"#utility.yul\":16648:16943   */\n      swap3\n      swap2\n      pop\n      pop\n      jump\t// out\n        /* \"#utility.yul\":16948:18343   */\n    tag_147:\n        /* \"#utility.yul\":17065:17102   */\n      tag_444\n        /* \"#utility.yul\":17098:17101   */\n      dup3\n        /* \"#utility.yul\":17065:17102   */\n      tag_203\n      jump\t// in\n    tag_444:\n        /* \"#utility.yul\":17167:17185   */\n      0xffffffffffffffff\n        /* \"#utility.yul\":17159:17165   */\n      dup2\n        /* \"#utility.yul\":17156:17186   */\n      gt\n        /* \"#utility.yul\":17153:17209   */\n      iszero\n      tag_445\n      jumpi\n        /* \"#utility.yul\":17189:17207   */\n      tag_446\n      tag_219\n      jump\t// in\n    tag_446:\n        /* \"#utility.yul\":17153:17209   */\n    tag_445:\n        /* \"#utility.yul\":17233:17271   */\n      tag_447\n        /* \"#utility.yul\":17265:17269   */\n      dup3\n        /* \"#utility.yul\":17259:17270   */\n      sload\n        /* \"#utility.yul\":17233:17271   */\n      tag_87\n      jump\t// in\n    tag_447:\n        /* \"#utility.yul\":17318:17385   */\n      tag_448\n        /* \"#utility.yul\":17378:17384   */\n      dup3\n        /* \"#utility.yul\":17370:17376   */\n      dup3\n        /* \"#utility.yul\":17364:17368   */\n      dup6\n        /* \"#utility.yul\":17318:17385   */\n      tag_247\n      jump\t// in\n    tag_448:\n        /* \"#utility.yul\":17412:17413   */\n      0x00\n        /* \"#utility.yul\":17436:17440   */\n      0x20\n        /* \"#utility.yul\":17423:17440   */\n      swap1\n      pop\n        /* \"#utility.yul\":17468:17470   */\n      0x1f\n        /* \"#utility.yul\":17460:17466   */\n      dup4\n        /* \"#utility.yul\":17457:17471   */\n      gt\n        /* \"#utility.yul\":17485:17486   */\n      0x01\n        /* \"#utility.yul\":17480:18098   */\n      dup2\n      eq\n      tag_450\n      jumpi\n        /* \"#utility.yul\":18142:18143   */\n      0x00\n        /* \"#utility.yul\":18159:18165   */\n      dup5\n        /* \"#utility.yul\":18156:18233   */\n      iszero\n      tag_451\n      jumpi\n        /* \"#utility.yul\":18208:18217   */\n      dup3\n        /* \"#utility.yul\":18203:18206   */\n      dup8\n        /* \"#utility.yul\":18199:18218   */\n      add\n        /* \"#utility.yul\":18193:18219   */\n      mload\n        /* \"#utility.yul\":18184:18219   */\n      swap1\n      pop\n        /* \"#utility.yul\":18156:18233   */\n    tag_451:\n        /* \"#utility.yul\":18259:18326   */\n      tag_452\n        /* \"#utility.yul\":18319:18325   */\n      dup6\n        /* \"#utility.yul\":18312:18317   */\n      dup3\n        /* \"#utility.yul\":18259:18326   */\n      tag_250\n      jump\t// in\n    tag_452:\n        /* \"#utility.yul\":18253:18257   */\n      dup7\n        /* \"#utility.yul\":18246:18327   */\n      sstore\n        /* \"#utility.yul\":18115:18337   */\n      pop\n        /* \"#utility.yul\":17450:18337   */\n      jump(tag_449)\n        /* \"#utility.yul\":17480:18098   */\n    tag_450:\n        /* \"#utility.yul\":17532:17536   */\n      0x1f\n        /* \"#utility.yul\":17528:17537   */\n      not\n        /* \"#utility.yul\":17520:17526   */\n      dup5\n        /* \"#utility.yul\":17516:17538   */\n      and\n        /* \"#utility.yul\":17566:17603   */\n      tag_453\n        /* \"#utility.yul\":17598:17602   */\n      dup7\n        /* \"#utility.yul\":17566:17603   */\n      tag_236\n      jump\t// in\n    tag_453:\n        /* \"#utility.yul\":17625:17626   */\n      0x00\n        /* \"#utility.yul\":17639:17847   */\n    tag_454:\n        /* \"#utility.yul\":17653:17660   */\n      dup3\n        /* \"#utility.yul\":17650:17651   */\n      dup2\n        /* \"#utility.yul\":17647:17661   */\n      lt\n        /* \"#utility.yul\":17639:17847   */\n      iszero\n      tag_456\n      jumpi\n        /* \"#utility.yul\":17732:17741   */\n      dup5\n        /* \"#utility.yul\":17727:17730   */\n      dup10\n        /* \"#utility.yul\":17723:17742   */\n      add\n        /* \"#utility.yul\":17717:17743   */\n      mload\n        /* \"#utility.yul\":17709:17715   */\n      dup3\n        /* \"#utility.yul\":17702:17744   */\n      sstore\n        /* \"#utility.yul\":17783:17784   */\n      0x01\n        /* \"#utility.yul\":17775:17781   */\n      dup3\n        /* \"#utility.yul\":17771:17785   */\n      add\n        /* \"#utility.yul\":17761:17785   */\n      swap2\n      pop\n        /* \"#utility.yul\":17830:17832   */\n      0x20\n        /* \"#utility.yul\":17819:17828   */\n      dup6\n        /* \"#utility.yul\":17815:17833   */\n      add\n        /* \"#utility.yul\":17802:17833   */\n      swap5\n      pop\n        /* \"#utility.yul\":17676:17680   */\n      0x20\n        /* \"#utility.yul\":17673:17674   */\n      dup2\n        /* \"#utility.yul\":17669:17681   */\n      add\n        /* \"#utility.yul\":17664:17681   */\n      swap1\n      pop\n        /* \"#utility.yul\":17639:17847   */\n      jump(tag_454)\n    tag_456:\n        /* \"#utility.yul\":17875:17881   */\n      dup7\n        /* \"#utility.yul\":17866:17873   */\n      dup4\n        /* \"#utility.yul\":17863:17882   */\n      lt\n        /* \"#utility.yul\":17860:18039   */\n      iszero\n      tag_457\n      jumpi\n        /* \"#utility.yul\":17933:17942   */\n      dup5\n        /* \"#utility.yul\":17928:17931   */\n      dup10\n        /* \"#utility.yul\":17924:17943   */\n      add\n        /* \"#utility.yul\":17918:17944   */\n      mload\n        /* \"#utility.yul\":17976:18024   */\n      tag_458\n        /* \"#utility.yul\":18018:18022   */\n      0x1f\n        /* \"#utility.yul\":18010:18016   */\n      dup10\n        /* \"#utility.yul\":18006:18023   */\n      and\n        /* \"#utility.yul\":17995:18004   */\n      dup3\n        /* \"#utility.yul\":17976:18024   */\n      tag_249\n      jump\t// in\n    tag_458:\n        /* \"#utility.yul\":17968:17974   */\n      dup4\n        /* \"#utility.yul\":17961:18025   */\n      sstore\n        /* \"#utility.yul\":17883:18039   */\n      pop\n        /* \"#utility.yul\":17860:18039   */\n    tag_457:\n        /* \"#utility.yul\":18085:18086   */\n      0x01\n        /* \"#utility.yul\":18081:18082   */\n      0x02\n        /* \"#utility.yul\":18073:18079   */\n      dup9\n        /* \"#utility.yul\":18069:18083   */\n      mul\n        /* \"#utility.yul\":18065:18087   */\n      add\n        /* \"#utility.yul\":18059:18063   */\n      dup9\n        /* \"#utility.yul\":18052:18088   */\n      sstore\n        /* \"#utility.yul\":17487:18098   */\n      pop\n      pop\n      pop\n        /* \"#utility.yul\":17450:18337   */\n    tag_449:\n      pop\n        /* \"#utility.yul\":17040:18343   */\n      pop\n      pop\n      pop\n        /* \"#utility.yul\":16948:18343   */\n      pop\n      pop\n      jump\t// out\n        /* \"#utility.yul\":18349:18582   */\n    tag_151:\n        /* \"#utility.yul\":18388:18391   */\n      0x00\n        /* \"#utility.yul\":18411:18435   */\n      tag_460\n        /* \"#utility.yul\":18429:18434   */\n      dup3\n        /* \"#utility.yul\":18411:18435   */\n      tag_200\n      jump\t// in\n    tag_460:\n        /* \"#utility.yul\":18402:18435   */\n      swap2\n      pop\n        /* \"#utility.yul\":18457:18523   */\n      0xffffffffffffffffffffffffffffffffffffffffffffffffffffffffffffffff\n        /* \"#utility.yul\":18450:18455   */\n      dup3\n        /* \"#utility.yul\":18447:18524   */\n      sub\n        /* \"#utility.yul\":18444:18547   */\n      tag_461\n      jumpi\n        /* \"#utility.yul\":18527:18545   */\n      tag_462\n      tag_229\n      jump\t// in\n    tag_462:\n        /* \"#utility.yul\":18444:18547   */\n    tag_461:\n        /* \"#utility.yul\":18574:18575   */\n      0x01\n        /* \"#utility.yul\":18567:18572   */\n      dup3\n        /* \"#utility.yul\":18563:18576   */\n      add\n        /* \"#utility.yul\":18556:18576   */\n      swap1\n      pop\n        /* \"#utility.yul\":18349:18582   */\n      swap2\n      swap1\n      pop\n      jump\t// out\n        /* \"#utility.yul\":18588:18811   */\n    tag_251:\n        /* \"#utility.yul\":18728:18762   */\n      0x45524332303a20617070726f76652066726f6d20746865207a65726f20616464\n        /* \"#utility.yul\":18724:18725   */\n      0x00\n        /* \"#utility.yul\":18716:18722   */\n      dup3\n        /* \"#utility.yul\":18712:18726   */\n      add\n        /* \"#utility.yul\":18705:18763   */\n      mstore\n        /* \"#utility.yul\":18797:18803   */\n      0x7265737300000000000000000000000000000000000000000000000000000000\n        /* \"#utility.yul\":18792:18794   */\n      0x20\n        /* \"#utility.yul\":18784:18790   */\n      dup3\n        /* \"#utility.yul\":18780:18795   */\n      add\n        /* \"#utility.yul\":18773:18804   */\n      mstore\n        /* \"#utility.yul\":18588:18811   */\n      pop\n      jump\t// out\n        /* \"#utility.yul\":18817:19183   */\n    tag_252:\n        /* \"#utility.yul\":18959:18962   */\n      0x00\n        /* \"#utility.yul\":18980:19047   */\n      tag_465\n        /* \"#utility.yul\":19044:19046   */\n      0x24\n        /* \"#utility.yul\":19039:19042   */\n      dup4\n        /* \"#utility.yul\":18980:19047   */\n      tag_204\n      jump\t// in\n    tag_465:\n        /* \"#utility.yul\":18973:19047   */\n      swap2\n      pop\n        /* \"#utility.yul\":19056:19149   */\n      tag_466\n        /* \"#utility.yul\":19145:19148   */\n      dup3\n        /* \"#utility.yul\":19056:19149   */\n      tag_251\n      jump\t// in\n    tag_466:\n        /* \"#utility.yul\":19174:19176   */\n      0x40\n        /* \"#utility.yul\":19169:19172   */\n      dup3\n        /* \"#utility.yul\":19165:19177   */\n      add\n        /* \"#utility.yul\":19158:19177   */\n      swap1\n      pop\n        /* \"#utility.yul\":18817:19183   */\n      swap2\n      swap1\n      pop\n      jump\t// out\n        /* \"#utility.yul\":19189:19608   */\n    tag_160:\n        /* \"#utility.yul\":19355:19359   */\n      0x00\n        /* \"#utility.yul\":19393:19395   */\n      0x20\n        /* \"#utility.yul\":19382:19391   */\n      dup3\n        /* \"#utility.yul\":19378:19396   */\n      add\n        /* \"#utility.yul\":19370:19396   */\n      swap1\n      pop\n        /* \"#utility.yul\":19442:19451   */\n      dup2\n        /* \"#utility.yul\":19436:19440   */\n      dup2\n        /* \"#utility.yul\":19432:19452   */\n      sub\n        /* \"#utility.yul\":19428:19429   */\n      0x00\n        /* \"#utility.yul\":19417:19426   */\n      dup4\n        /* \"#utility.yul\":19413:19430   */\n      add\n        /* \"#utility.yul\":19406:19453   */\n      mstore\n        /* \"#utility.yul\":19470:19601   */\n      tag_468\n        /* \"#utility.yul\":19596:19600   */\n      dup2\n        /* \"#utility.yul\":19470:19601   */\n      tag_252\n      jump\t// in\n    tag_468:\n        /* \"#utility.yul\":19462:19601   */\n      swap1\n      pop\n        /* \"#utility.yul\":19189:19608   */\n      swap2\n      swap1\n      pop\n      jump\t// out\n        /* \"#utility.yul\":19614:19835   */\n    tag_253:\n        /* \"#utility.yul\":19754:19788   */\n      0x45524332303a20617070726f766520746f20746865207a65726f206164647265\n        /* \"#utility.yul\":19750:19751   */\n      0x00\n        /* \"#utility.yul\":19742:19748   */\n      dup3\n        /* \"#utility.yul\":19738:19752   */\n      add\n        /* \"#utility.yul\":19731:19789   */\n      mstore\n        /* \"#utility.yul\":19823:19827   */\n      0x7373000000000000000000000000000000000000000000000000000000000000\n        /* \"#utility.yul\":19818:19820   */\n      0x20\n        /* \"#utility.yul\":19810:19816   */\n      dup3\n        /* \"#utility.yul\":19806:19821   */\n      add\n        /* \"#utility.yul\":19799:19828   */\n      mstore\n        /* \"#utility.yul\":19614:19835   */\n      pop\n      jump\t// out\n        /* \"#utility.yul\":19841:20207   */\n    tag_254:\n        /* \"#utility.yul\":19983:19986   */\n      0x00\n        /* \"#utility.yul\":20004:20071   */\n      tag_471\n        /* \"#utility.yul\":20068:20070   */\n      0x22\n        /* \"#utility.yul\":20063:20066   */\n      dup4\n        /* \"#utility.yul\":20004:20071   */\n      tag_204\n      jump\t// in\n    tag_471:\n        /* \"#utility.yul\":19997:20071   */\n      swap2\n      pop\n        /* \"#utility.yul\":20080:20173   */\n      tag_472\n        /* \"#utility.yul\":20169:20172   */\n      dup3\n        /* \"#utility.yul\":20080:20173   */\n      tag_253\n      jump\t// in\n    tag_472:\n        /* \"#utility.yul\":20198:20200   */\n      0x40\n        /* \"#utility.yul\":20193:20196   */\n      dup3\n        /* \"#utility.yul\":20189:20201   */\n      add\n        /* \"#utility.yul\":20182:20201   */\n      swap1\n      pop\n        /* \"#utility.yul\":19841:20207   */\n      swap2\n      swap1\n      pop\n      jump\t// out\n        /* \"#utility.yul\":20213:20632   */\n    tag_163:\n        /* \"#utility.yul\":20379:20383   */\n      0x00\n        /* \"#utility.yul\":20417:20419   */\n      0x20\n        /* \"#utility.yul\":20406:20415   */\n      dup3\n        /* \"#utility.yul\":20402:20420   */\n      add\n        /* \"#utility.yul\":20394:20420   */\n      swap1\n      pop\n        /* \"#utility.yul\":20466:20475   */\n      dup2\n        /* \"#utility.yul\":20460:20464   */\n      dup2\n        /* \"#utility.yul\":20456:20476   */\n      sub\n        /* \"#utility.yul\":20452:20453   */\n      0x00\n        /* \"#utility.yul\":20441:20450   */\n      dup4\n        /* \"#utility.yul\":20437:20454   */\n      add\n        /* \"#utility.yul\":20430:20477   */\n      mstore\n        /* \"#utility.yul\":20494:20625   */\n      tag_474\n        /* \"#utility.yul\":20620:20624   */\n      dup2\n        /* \"#utility.yul\":20494:20625   */\n      tag_254\n      jump\t// in\n    tag_474:\n        /* \"#utility.yul\":20486:20625   */\n      swap1\n      pop\n        /* \"#utility.yul\":20213:20632   */\n      swap2\n      swap1\n      pop\n      jump\t// out\n        /* \"#utility.yul\":20638:20817   */\n    tag_255:\n        /* \"#utility.yul\":20778:20809   */\n      0x45524332303a20696e73756666696369656e7420616c6c6f77616e6365000000\n        /* \"#utility.yul\":20774:20775   */\n      0x00\n        /* \"#utility.yul\":20766:20772   */\n      dup3\n        /* \"#utility.yul\":20762:20776   */\n      add\n        /* \"#utility.yul\":20755:20810   */\n      mstore\n        /* \"#utility.yul\":20638:20817   */\n      pop\n      jump\t// out\n        /* \"#utility.yul\":20823:21189   */\n    tag_256:\n        /* \"#utility.yul\":20965:20968   */\n      0x00\n        /* \"#utility.yul\":20986:21053   */\n      tag_477\n        /* \"#utility.yul\":21050:21052   */\n      0x1d\n        /* \"#utility.yul\":21045:21048   */\n      dup4\n        /* \"#utility.yul\":20986:21053   */\n      tag_204\n      jump\t// in\n    tag_477:\n        /* \"#utility.yul\":20979:21053   */\n      swap2\n      pop\n        /* \"#utility.yul\":21062:21155   */\n      tag_478\n        /* \"#utility.yul\":21151:21154   */\n      dup3\n        /* \"#utility.yul\":21062:21155   */\n      tag_255\n      jump\t// in\n    tag_478:\n        /* \"#utility.yul\":21180:21182   */\n      0x20\n        /* \"#utility.yul\":21175:21178   */\n      dup3\n        /* \"#utility.yul\":21171:21183   */\n      add\n        /* \"#utility.yul\":21164:21183   */\n      swap1\n      pop\n        /* \"#utility.yul\":20823:21189   */\n      swap2\n      swap1\n      pop\n      jump\t// out\n        /* \"#utility.yul\":21195:21614   */\n    tag_170:\n        /* \"#utility.yul\":21361:21365   */\n      0x00\n        /* \"#utility.yul\":21399:21401   */\n      0x20\n        /* \"#utility.yul\":21388:21397   */\n      dup3\n        /* \"#utility.yul\":21384:21402   */\n      add\n        /* \"#utility.yul\":21376:21402   */\n      swap1\n      pop\n        /* \"#utility.yul\":21448:21457   */\n      dup2\n        /* \"#utility.yul\":21442:21446   */\n      dup2\n        /* \"#utility.yul\":21438:21458   */\n      sub\n        /* \"#utility.yul\":21434:21435   */\n      0x00\n        /* \"#utility.yul\":21423:21432   */\n      dup4\n        /* \"#utility.yul\":21419:21436   */\n      add\n        /* \"#utility.yul\":21412:21459   */\n      mstore\n        /* \"#utility.yul\":21476:21607   */\n      tag_480\n        /* \"#utility.yul\":21602:21606   */\n      dup2\n        /* \"#utility.yul\":21476:21607   */\n      tag_256\n      jump\t// in\n    tag_480:\n        /* \"#utility.yul\":21468:21607   */\n      swap1\n      pop\n        /* \"#utility.yul\":21195:21614   */\n      swap2\n      swap1\n      pop\n      jump\t// out\n        /* \"#utility.yul\":21620:21844   */\n    tag_257:\n        /* \"#utility.yul\":21760:21794   */\n      0x45524332303a207472616e736665722066726f6d20746865207a65726f206164\n        /* \"#utility.yul\":21756:21757   */\n      0x00\n        /* \"#utility.yul\":21748:21754   */\n      dup3\n        /* \"#utility.yul\":21744:21758   */\n      add\n        /* \"#utility.yul\":21737:21795   */\n      mstore\n        /* \"#utility.yul\":21829:21836   */\n      0x6472657373000000000000000000000000000000000000000000000000000000\n        /* \"#utility.yul\":21824:21826   */\n      0x20\n        /* \"#utility.yul\":21816:21822   */\n      dup3\n        /* \"#utility.yul\":21812:21827   */\n      add\n        /* \"#utility.yul\":21805:21837   */\n      mstore\n        /* \"#utility.yul\":21620:21844   */\n      pop\n      jump\t// out\n        /* \"#utility.yul\":21850:22216   */\n    tag_258:\n        /* \"#utility.yul\":21992:21995   */\n      0x00\n        /* \"#utility.yul\":22013:22080   */\n      tag_483\n        /* \"#utility.yul\":22077:22079   */\n      0x25\n        /* \"#utility.yul\":22072:22075   */\n      dup4\n        /* \"#utility.yul\":22013:22080   */\n      tag_204\n      jump\t// in\n    tag_483:\n        /* \"#utility.yul\":22006:22080   */\n      swap2\n      pop\n        /* \"#utility.yul\":22089:22182   */\n      tag_484\n        /* \"#utility.yul\":22178:22181   */\n      dup3\n        /* \"#utility.yul\":22089:22182   */\n      tag_257\n      jump\t// in\n    tag_484:\n        /* \"#utility.yul\":22207:22209   */\n      0x40\n        /* \"#utility.yul\":22202:22205   */\n      dup3\n        /* \"#utility.yul\":22198:22210   */\n      add\n        /* \"#utility.yul\":22191:22210   */\n      swap1\n      pop\n        /* \"#utility.yul\":21850:22216   */\n      swap2\n      swap1\n      pop\n      jump\t// out\n        /* \"#utility.yul\":22222:22641   */\n    tag_175:\n        /* \"#utility.yul\":22388:22392   */\n      0x00\n        /* \"#utility.yul\":22426:22428   */\n      0x20\n        /* \"#utility.yul\":22415:22424   */\n      dup3\n        /* \"#utility.yul\":22411:22429   */\n      add\n        /* \"#utility.yul\":22403:22429   */\n      swap1\n      pop\n        /* \"#utility.yul\":22475:22484   */\n      dup2\n        /* \"#utility.yul\":22469:22473   */\n      dup2\n        /* \"#utility.yul\":22465:22485   */\n      sub\n        /* \"#utility.yul\":22461:22462   */\n      0x00\n        /* \"#utility.yul\":22450:22459   */\n      dup4\n        /* \"#utility.yul\":22446:22463   */\n      add\n        /* \"#utility.yul\":22439:22486   */\n      mstore\n        /* \"#utility.yul\":22503:22634   */\n      tag_486\n        /* \"#utility.yul\":22629:22633   */\n      dup2\n        /* \"#utility.yul\":22503:22634   */\n      tag_258\n      jump\t// in\n    tag_486:\n        /* \"#utility.yul\":22495:22634   */\n      swap1\n      pop\n        /* \"#utility.yul\":22222:22641   */\n      swap2\n      swap1\n      pop\n      jump\t// out\n        /* \"#utility.yul\":22647:22869   */\n    tag_259:\n        /* \"#utility.yul\":22787:22821   */\n      0x45524332303a207472616e7366657220746f20746865207a65726f2061646472\n        /* \"#utility.yul\":22783:22784   */\n      0x00\n        /* \"#utility.yul\":22775:22781   */\n      dup3\n        /* \"#utility.yul\":22771:22785   */\n      add\n        /* \"#utility.yul\":22764:22822   */\n      mstore\n        /* \"#utility.yul\":22856:22861   */\n      0x6573730000000000000000000000000000000000000000000000000000000000\n        /* \"#utility.yul\":22851:22853   */\n      0x20\n        /* \"#utility.yul\":22843:22849   */\n      dup3\n        /* \"#utility.yul\":22839:22854   */\n      add\n        /* \"#utility.yul\":22832:22862   */\n      mstore\n        /* \"#utility.yul\":22647:22869   */\n      pop\n      jump\t// out\n        /* \"#utility.yul\":22875:23241   */\n    tag_260:\n        /* \"#utility.yul\":23017:23020   */\n      0x00\n        /* \"#utility.yul\":23038:23105   */\n      tag_489\n        /* \"#utility.yul\":23102:23104   */\n      0x23\n        /* \"#utility.yul\":23097:23100   */\n      dup4\n        /* \"#utility.yul\":23038:23105   */\n      tag_204\n      jump\t// in\n    tag_489:\n        /* \"#utility.yul\":23031:23105   */\n      swap2\n      pop\n        /* \"#utility.yul\":23114:23207   */\n      tag_490\n        /* \"#utility.yul\":23203:23206   */\n      dup3\n        /* \"#utility.yul\":23114:23207   */\n      tag_259\n      jump\t// in\n    tag_490:\n        /* \"#utility.yul\":23232:23234   */\n      0x40\n        /* \"#utility.yul\":23227:23230   */\n      dup3\n        /* \"#utility.yul\":23223:23235   */\n      add\n        /* \"#utility.yul\":23216:23235   */\n      swap1\n      pop\n        /* \"#utility.yul\":22875:23241   */\n      swap2\n      swap1\n      pop\n      jump\t// out\n        /* \"#utility.yul\":23247:23666   */\n    tag_178:\n        /* \"#utility.yul\":23413:23417   */\n      0x00\n        /* \"#utility.yul\":23451:23453   */\n      0x20\n        /* \"#utility.yul\":23440:23449   */\n      dup3\n        /* \"#utility.yul\":23436:23454   */\n      add\n        /* \"#utility.yul\":23428:23454   */\n      swap1\n      pop\n        /* \"#utility.yul\":23500:23509   */\n      dup2\n        /* \"#utility.yul\":23494:23498   */\n      dup2\n        /* \"#utility.yul\":23490:23510   */\n      sub\n        /* \"#utility.yul\":23486:23487   */\n      0x00\n        /* \"#utility.yul\":23475:23484   */\n      dup4\n        /* \"#utility.yul\":23471:23488   */\n      add\n        /* \"#utility.yul\":23464:23511   */\n      mstore\n        /* \"#utility.yul\":23528:23659   */\n      tag_492\n        /* \"#utility.yul\":23654:23658   */\n      dup2\n        /* \"#utility.yul\":23528:23659   */\n      tag_260\n      jump\t// in\n    tag_492:\n        /* \"#utility.yul\":23520:23659   */\n      swap1\n      pop\n        /* \"#utility.yul\":23247:23666   */\n      swap2\n      swap1\n      pop\n      jump\t// out\n        /* \"#utility.yul\":23672:23897   */\n    tag_261:\n        /* \"#utility.yul\":23812:23846   */\n      0x45524332303a207472616e7366657220616d6f756e7420657863656564732062\n        /* \"#utility.yul\":23808:23809   */\n      0x00\n        /* \"#utility.yul\":23800:23806   */\n      dup3\n        /* \"#utility.yul\":23796:23810   */\n      add\n        /* \"#utility.yul\":23789:23847   */\n      mstore\n        /* \"#utility.yul\":23881:23889   */\n      0x616c616e63650000000000000000000000000000000000000000000000000000\n        /* \"#utility.yul\":23876:23878   */\n      0x20\n        /* \"#utility.yul\":23868:23874   */\n      dup3\n        /* \"#utility.yul\":23864:23879   */\n      add\n        /* \"#utility.yul\":23857:23890   */\n      mstore\n        /* \"#utility.yul\":23672:23897   */\n      pop\n      jump\t// out\n        /* \"#utility.yul\":23903:24269   */\n    tag_262:\n        /* \"#utility.yul\":24045:24048   */\n      0x00\n        /* \"#utility.yul\":24066:24133   */\n      tag_495\n        /* \"#utility.yul\":24130:24132   */\n      0x26\n        /* \"#utility.yul\":24125:24128   */\n      dup4\n        /* \"#utility.yul\":24066:24133   */\n      tag_204\n      jump\t// in\n    tag_495:\n        /* \"#utility.yul\":24059:24133   */\n      swap2\n      pop\n        /* \"#utility.yul\":24142:24235   */\n      tag_496\n        /* \"#utility.yul\":24231:24234   */\n      dup3\n        /* \"#utility.yul\":24142:24235   */\n      tag_261\n      jump\t// in\n    tag_496:\n        /* \"#utility.yul\":24260:24262   */\n      0x40\n        /* \"#utility.yul\":24255:24258   */\n      dup3\n        /* \"#utility.yul\":24251:24263   */\n      add\n        /* \"#utility.yul\":24244:24263   */\n      swap1\n      pop\n        /* \"#utility.yul\":23903:24269   */\n      swap2\n      swap1\n      pop\n      jump\t// out\n        /* \"#utility.yul\":24275:24694   */\n    tag_183:\n        /* \"#utility.yul\":24441:24445   */\n      0x00\n        /* \"#utility.yul\":24479:24481   */\n      0x20\n        /* \"#utility.yul\":24468:24477   */\n      dup3\n        /* \"#utility.yul\":24464:24482   */\n      add\n        /* \"#utility.yul\":24456:24482   */\n      swap1\n      pop\n        /* \"#utility.yul\":24528:24537   */\n      dup2\n        /* \"#utility.yul\":24522:24526   */\n      dup2\n        /* \"#utility.yul\":24518:24538   */\n      sub\n        /* \"#utility.yul\":24514:24515   */\n      0x00\n        /* \"#utility.yul\":24503:24512   */\n      dup4\n        /* \"#utility.yul\":24499:24516   */\n      add\n        /* \"#utility.yul\":24492:24539   */\n      mstore\n        /* \"#utility.yul\":24556:24687   */\n      tag_498\n        /* \"#utility.yul\":24682:24686   */\n      dup2\n        /* \"#utility.yul\":24556:24687   */\n      tag_262\n      jump\t// in\n    tag_498:\n        /* \"#utility.yul\":24548:24687   */\n      swap1\n      pop\n        /* \"#utility.yul\":24275:24694   */\n      swap2\n      swap1\n      pop\n      jump\t// out\n        /* \"#utility.yul\":24700:24881   */\n    tag_263:\n        /* \"#utility.yul\":24840:24873   */\n      0x45524332303a206d696e7420746f20746865207a65726f206164647265737300\n        /* \"#utility.yul\":24836:24837   */\n      0x00\n        /* \"#utility.yul\":24828:24834   */\n      dup3\n        /* \"#utility.yul\":24824:24838   */\n      add\n        /* \"#utility.yul\":24817:24874   */\n      mstore\n        /* \"#utility.yul\":24700:24881   */\n      pop\n      jump\t// out\n        /* \"#utility.yul\":24887:25253   */\n    tag_264:\n        /* \"#utility.yul\":25029:25032   */\n      0x00\n        /* \"#utility.yul\":25050:25117   */\n      tag_501\n        /* \"#utility.yul\":25114:25116   */\n      0x1f\n        /* \"#utility.yul\":25109:25112   */\n      dup4\n        /* \"#utility.yul\":25050:25117   */\n      tag_204\n      jump\t// in\n    tag_501:\n        /* \"#utility.yul\":25043:25117   */\n      swap2\n      pop\n        /* \"#utility.yul\":25126:25219   */\n      tag_502\n        /* \"#utility.yul\":25215:25218   */\n      dup3\n        /* \"#utility.yul\":25126:25219   */\n      tag_263\n      jump\t// in\n    tag_502:\n        /* \"#utility.yul\":25244:25246   */\n      0x20\n        /* \"#utility.yul\":25239:25242   */\n      dup3\n        /* \"#utility.yul\":25235:25247   */\n      add\n        /* \"#utility.yul\":25228:25247   */\n      swap1\n      pop\n        /* \"#utility.yul\":24887:25253   */\n      swap2\n      swap1\n      pop\n      jump\t// out\n        /* \"#utility.yul\":25259:25678   */\n    tag_190:\n        /* \"#utility.yul\":25425:25429   */\n      0x00\n        /* \"#utility.yul\":25463:25465   */\n      0x20\n        /* \"#utility.yul\":25452:25461   */\n      dup3\n        /* \"#utility.yul\":25448:25466   */\n      add\n        /* \"#utility.yul\":25440:25466   */\n      swap1\n      pop\n        /* \"#utility.yul\":25512:25521   */\n      dup2\n        /* \"#utility.yul\":25506:25510   */\n      dup2\n        /* \"#utility.yul\":25502:25522   */\n      sub\n        /* \"#utility.yul\":25498:25499   */\n      0x00\n        /* \"#utility.yul\":25487:25496   */\n      dup4\n        /* \"#utility.yul\":25483:25500   */\n      add\n        /* \"#utility.yul\":25476:25523   */\n      mstore\n        /* \"#utility.yul\":25540:25671   */\n      tag_504\n        /* \"#utility.yul\":25666:25670   */\n      dup2\n        /* \"#utility.yul\":25540:25671   */\n      tag_264\n      jump\t// in\n    tag_504:\n        /* \"#utility.yul\":25532:25671   */\n      swap1\n      pop\n        /* \"#utility.yul\":25259:25678   */\n      swap2\n      swap1\n      pop\n      jump\t// out\n\n    auxdata: 0xa2646970667358221220fba29c5ed3b1f59c276eb192b4f8a6906ac84c16434c46a679b4d3c71d61284a64736f6c63430008120033\n}\n",
				"bytecode": {
					"linkReferences": {},
					"object": "60806040523480156200001157600080fd5b506040518060400160405280601a81526020017f4469676974616c20446174612053746f7261676520546f6b656e0000000000008152506040518060400160405280600481526020017f444453540000000000000000000000000000000000000000000000000000000081525081600390816200008f91906200036d565b508060049081620000a191906200036d565b505050600060058190555033600760006101000a81548173ffffffffffffffffffffffffffffffffffffffff021916908373ffffffffffffffffffffffffffffffffffffffff16021790555062000454565b600081519050919050565b7f4e487b7100000000000000000000000000000000000000000000000000000000600052604160045260246000fd5b7f4e487b7100000000000000000000000000000000000000000000000000000000600052602260045260246000fd5b600060028204905060018216806200017557607f821691505b6020821081036200018b576200018a6200012d565b5b50919050565b60008190508160005260206000209050919050565b60006020601f8301049050919050565b600082821b905092915050565b600060088302620001f57fffffffffffffffffffffffffffffffffffffffffffffffffffffffffffffffff82620001b6565b620002018683620001b6565b95508019841693508086168417925050509392505050565b6000819050919050565b6000819050919050565b60006200024e62000248620002428462000219565b62000223565b62000219565b9050919050565b6000819050919050565b6200026a836200022d565b62000282620002798262000255565b848454620001c3565b825550505050565b600090565b620002996200028a565b620002a68184846200025f565b505050565b5b81811015620002ce57620002c26000826200028f565b600181019050620002ac565b5050565b601f8211156200031d57620002e78162000191565b620002f284620001a6565b8101602085101562000302578190505b6200031a6200031185620001a6565b830182620002ab565b50505b505050565b600082821c905092915050565b6000620003426000198460080262000322565b1980831691505092915050565b60006200035d83836200032f565b9150826002028217905092915050565b6200037882620000f3565b67ffffffffffffffff811115620003945762000393620000fe565b5b620003a082546200015c565b620003ad828285620002d2565b600060209050601f831160018114620003e55760008415620003d0578287015190505b620003dc85826200034f565b8655506200044c565b601f198416620003f58662000191565b60005b828110156200041f57848901518255600182019150602085019450602081019050620003f8565b868310156200043f57848901516200043b601f8916826200032f565b8355505b6001600288020188555050505b505050505050565b611dcd80620004646000396000f3fe608060405234801561001057600080fd5b50600436106100ea5760003560e01c806370a082311161008c578063a9059cbb11610066578063a9059cbb14610287578063dd62ed3e146102b7578063eca5343a146102e7578063fb218f5f14610303576100ea565b806370a082311461020957806395d89b4114610239578063a457c2d714610257576100ea565b806318160ddd116100c857806318160ddd1461016d57806323b872dd1461018b578063313ce567146101bb57806339509351146101d9576100ea565b80630178fe3f146100ef57806306fdde031461011f578063095ea7b31461013d575b600080fd5b61010960048036038101906101049190610fce565b61031f565b604051610116919061108b565b60405180910390f35b610127610415565b604051610134919061108b565b60405180910390f35b6101576004803603810190610152919061110b565b6104a7565b6040516101649190611166565b60405180910390f35b6101756104ca565b6040516101829190611190565b60405180910390f35b6101a560048036038101906101a091906111ab565b6104d4565b6040516101b29190611166565b60405180910390f35b6101c3610503565b6040516101d0919061121a565b60405180910390f35b6101f360048036038101906101ee919061110b565b61050c565b6040516102009190611166565b60405180910390f35b610223600480360381019061021e9190611235565b610543565b6040516102309190611190565b60405180910390f35b61024161058b565b60405161024e919061108b565b60405180910390f35b610271600480360381019061026c919061110b565b61061d565b60405161027e9190611166565b60405180910390f35b6102a1600480360381019061029c919061110b565b610694565b6040516102ae9190611166565b60405180910390f35b6102d160048036038101906102cc9190611262565b6106b7565b6040516102de9190611190565b60405180910390f35b61030160048036038101906102fc91906112a2565b61073e565b005b61031d60048036038101906103189190611417565b6108ce565b005b606060008211801561033357506005548211155b610372576040517f08c379a0000000000000000000000000000000000000000000000000000000008152600401610369906114ac565b60405180910390fd5b600660008381526020019081526020016000208054610390906114fb565b80601f01602080910402602001604051908101604052809291908181526020018280546103bc906114fb565b80156104095780601f106103de57610100808354040283529160200191610409565b820191906000526020600020905b8154815290600101906020018083116103ec57829003601f168201915b50505050509050919050565b606060038054610424906114fb565b80601f0160208091040260200160405190810160405280929190818152602001828054610450906114fb565b801561049d5780601f106104725761010080835404028352916020019161049d565b820191906000526020600020905b81548152906001019060200180831161048057829003601f168201915b5050505050905090565b6000806104b2610951565b90506104bf818585610959565b600191505092915050565b6000600254905090565b6000806104df610951565b90506104ec858285610b22565b6104f7858585610bae565b60019150509392505050565b60006012905090565b600080610517610951565b905061053881858561052985896106b7565b610533919061155b565b610959565b600191505092915050565b60008060008373ffffffffffffffffffffffffffffffffffffffff1673ffffffffffffffffffffffffffffffffffffffff168152602001908152602001600020549050919050565b60606004805461059a906114fb565b80601f01602080910402602001604051908101604052809291908181526020018280546105c6906114fb565b80156106135780601f106105e857610100808354040283529160200191610613565b820191906000526020600020905b8154815290600101906020018083116105f657829003601f168201915b5050505050905090565b600080610628610951565b9050600061063682866106b7565b90508381101561067b576040517f08c379a000000000000000000000000000000000000000000000000000000000815260040161067290611601565b60405180910390fd5b6106888286868403610959565b60019250505092915050565b60008061069f610951565b90506106ac818585610bae565b600191505092915050565b6000600160008473ffffffffffffffffffffffffffffffffffffffff1673ffffffffffffffffffffffffffffffffffffffff16815260200190815260200160002060008373ffffffffffffffffffffffffffffffffffffffff1673ffffffffffffffffffffffffffffffffffffffff16815260200190815260200160002054905092915050565b600760009054906101000a900473ffffffffffffffffffffffffffffffffffffffff1673ffffffffffffffffffffffffffffffffffffffff163373ffffffffffffffffffffffffffffffffffffffff16146107ce576040517f08c379a00000000000000000000000000000000000000000000000000000000081526004016107c590611693565b60405180910390fd5b6000821180156107e057506005548211155b61081f576040517f08c379a0000000000000000000000000000000000000000000000000000000008152600401610816906114ac565b60405180910390fd5b600073ffffffffffffffffffffffffffffffffffffffff168173ffffffffffffffffffffffffffffffffffffffff160361088e576040517f08c379a0000000000000000000000000000000000000000000000000000000008152600401610885906116ff565b60405180910390fd5b604051806020016040528060008152506006600084815260200190815260200160002090816108bd91906118cb565b506108ca33826001610bae565b5050565b600560008154809291906108e19061199d565b919050555080600660006005548152602001908152602001600020908161090891906118cb565b50610914336001610e24565b6005547f56ae0cf797dc5c06b48e3f1f0ac14db02bbbeff12a70e489e5a2403ffc021bb882604051610946919061108b565b60405180910390a250565b600033905090565b600073ffffffffffffffffffffffffffffffffffffffff168373ffffffffffffffffffffffffffffffffffffffff16036109c8576040517f08c379a00000000000000000000000000000000000000000000000000000000081526004016109bf90611a57565b60405180910390fd5b600073ffffffffffffffffffffffffffffffffffffffff168273ffffffffffffffffffffffffffffffffffffffff1603610a37576040517f08c379a0000000000000000000000000000000000000000000000000000000008152600401610a2e90611ae9565b60405180910390fd5b80600160008573ffffffffffffffffffffffffffffffffffffffff1673ffffffffffffffffffffffffffffffffffffffff16815260200190815260200160002060008473ffffffffffffffffffffffffffffffffffffffff1673ffffffffffffffffffffffffffffffffffffffff168152602001908152602001600020819055508173ffffffffffffffffffffffffffffffffffffffff168373ffffffffffffffffffffffffffffffffffffffff167f8c5be1e5ebec7d5bd14f71427d1e84f3dd0314c0f7b2291e5b200ac8c7c3b92583604051610b159190611190565b60405180910390a3505050565b6000610b2e84846106b7565b90507fffffffffffffffffffffffffffffffffffffffffffffffffffffffffffffffff8114610ba85781811015610b9a576040517f08c379a0000000000000000000000000000000000000000000000000000000008152600401610b9190611b55565b60405180910390fd5b610ba78484848403610959565b5b50505050565b600073ffffffffffffffffffffffffffffffffffffffff168373ffffffffffffffffffffffffffffffffffffffff1603610c1d576040517f08c379a0000000000000000000000000000000000000000000000000000000008152600401610c1490611be7565b60405180910390fd5b600073ffffffffffffffffffffffffffffffffffffffff168273ffffffffffffffffffffffffffffffffffffffff1603610c8c576040517f08c379a0000000000000000000000000000000000000000000000000000000008152600401610c8390611c79565b60405180910390fd5b610c97838383610f7a565b60008060008573ffffffffffffffffffffffffffffffffffffffff1673ffffffffffffffffffffffffffffffffffffffff16815260200190815260200160002054905081811015610d1d576040517f08c379a0000000000000000000000000000000000000000000000000000000008152600401610d1490611d0b565b60405180910390fd5b8181036000808673ffffffffffffffffffffffffffffffffffffffff1673ffffffffffffffffffffffffffffffffffffffff16815260200190815260200160002081905550816000808573ffffffffffffffffffffffffffffffffffffffff1673ffffffffffffffffffffffffffffffffffffffff168152602001908152602001600020600082825401925050819055508273ffffffffffffffffffffffffffffffffffffffff168473ffffffffffffffffffffffffffffffffffffffff167fddf252ad1be2c89b69c2b068fc378daa952ba7f163c4a11628f55a4df523b3ef84604051610e0b9190611190565b60405180910390a3610e1e848484610f7f565b50505050565b600073ffffffffffffffffffffffffffffffffffffffff168273ffffffffffffffffffffffffffffffffffffffff1603610e93576040517f08c379a0000000000000000000000000000000000000000000000000000000008152600401610e8a90611d77565b60405180910390fd5b610e9f60008383610f7a565b8060026000828254610eb1919061155b565b92505081905550806000808473ffffffffffffffffffffffffffffffffffffffff1673ffffffffffffffffffffffffffffffffffffffff168152602001908152602001600020600082825401925050819055508173ffffffffffffffffffffffffffffffffffffffff16600073ffffffffffffffffffffffffffffffffffffffff167fddf252ad1be2c89b69c2b068fc378daa952ba7f163c4a11628f55a4df523b3ef83604051610f629190611190565b60405180910390a3610f7660008383610f7f565b5050565b505050565b505050565b6000604051905090565b600080fd5b600080fd5b6000819050919050565b610fab81610f98565b8114610fb657600080fd5b50565b600081359050610fc881610fa2565b92915050565b600060208284031215610fe457610fe3610f8e565b5b6000610ff284828501610fb9565b91505092915050565b600081519050919050565b600082825260208201905092915050565b60005b8381101561103557808201518184015260208101905061101a565b60008484015250505050565b6000601f19601f8301169050919050565b600061105d82610ffb565b6110678185611006565b9350611077818560208601611017565b61108081611041565b840191505092915050565b600060208201905081810360008301526110a58184611052565b905092915050565b600073ffffffffffffffffffffffffffffffffffffffff82169050919050565b60006110d8826110ad565b9050919050565b6110e8816110cd565b81146110f357600080fd5b50565b600081359050611105816110df565b92915050565b6000806040838503121561112257611121610f8e565b5b6000611130858286016110f6565b925050602061114185828601610fb9565b9150509250929050565b60008115159050919050565b6111608161114b565b82525050565b600060208201905061117b6000830184611157565b92915050565b61118a81610f98565b82525050565b60006020820190506111a56000830184611181565b92915050565b6000806000606084860312156111c4576111c3610f8e565b5b60006111d2868287016110f6565b93505060206111e3868287016110f6565b92505060406111f486828701610fb9565b9150509250925092565b600060ff82169050919050565b611214816111fe565b82525050565b600060208201905061122f600083018461120b565b92915050565b60006020828403121561124b5761124a610f8e565b5b6000611259848285016110f6565b91505092915050565b6000806040838503121561127957611278610f8e565b5b6000611287858286016110f6565b9250506020611298858286016110f6565b9150509250929050565b600080604083850312156112b9576112b8610f8e565b5b60006112c785828601610fb9565b92505060206112d8858286016110f6565b9150509250929050565b600080fd5b600080fd5b7f4e487b7100000000000000000000000000000000000000000000000000000000600052604160045260246000fd5b61132482611041565b810181811067ffffffffffffffff82111715611343576113426112ec565b5b80604052505050565b6000611356610f84565b9050611362828261131b565b919050565b600067ffffffffffffffff821115611382576113816112ec565b5b61138b82611041565b9050602081019050919050565b82818337600083830152505050565b60006113ba6113b584611367565b61134c565b9050828152602081018484840111156113d6576113d56112e7565b5b6113e1848285611398565b509392505050565b600082601f8301126113fe576113fd6112e2565b5b813561140e8482602086016113a7565b91505092915050565b60006020828403121561142d5761142c610f8e565b5b600082013567ffffffffffffffff81111561144b5761144a610f93565b5b611457848285016113e9565b91505092915050565b7f496e76616c696420696e64657800000000000000000000000000000000000000600082015250565b6000611496600d83611006565b91506114a182611460565b602082019050919050565b600060208201905081810360008301526114c581611489565b9050919050565b7f4e487b7100000000000000000000000000000000000000000000000000000000600052602260045260246000fd5b6000600282049050600182168061151357607f821691505b602082108103611526576115256114cc565b5b50919050565b7f4e487b7100000000000000000000000000000000000000000000000000000000600052601160045260246000fd5b600061156682610f98565b915061157183610f98565b92508282019050808211156115895761158861152c565b5b92915050565b7f45524332303a2064656372656173656420616c6c6f77616e63652062656c6f7760008201527f207a65726f000000000000000000000000000000000000000000000000000000602082015250565b60006115eb602583611006565b91506115f68261158f565b604082019050919050565b6000602082019050818103600083015261161a816115de565b9050919050565b7f4f6e6c7920636f6e7472616374206f776e65722063616e20706572666f726d2060008201527f7468697320616374696f6e000000000000000000000000000000000000000000602082015250565b600061167d602b83611006565b915061168882611621565b604082019050919050565b600060208201905081810360008301526116ac81611670565b9050919050565b7f496e76616c696420726563697069656e74206164647265737300000000000000600082015250565b60006116e9601983611006565b91506116f4826116b3565b602082019050919050565b60006020820190508181036000830152611718816116dc565b9050919050565b60008190508160005260206000209050919050565b60006020601f8301049050919050565b600082821b905092915050565b6000600883026117817fffffffffffffffffffffffffffffffffffffffffffffffffffffffffffffffff82611744565b61178b8683611744565b95508019841693508086168417925050509392505050565b6000819050919050565b60006117c86117c36117be84610f98565b6117a3565b610f98565b9050919050565b6000819050919050565b6117e2836117ad565b6117f66117ee826117cf565b848454611751565b825550505050565b600090565b61180b6117fe565b6118168184846117d9565b505050565b5b8181101561183a5761182f600082611803565b60018101905061181c565b5050565b601f82111561187f576118508161171f565b61185984611734565b81016020851015611868578190505b61187c61187485611734565b83018261181b565b50505b505050565b600082821c905092915050565b60006118a260001984600802611884565b1980831691505092915050565b60006118bb8383611891565b9150826002028217905092915050565b6118d482610ffb565b67ffffffffffffffff8111156118ed576118ec6112ec565b5b6118f782546114fb565b61190282828561183e565b600060209050601f8311600181146119355760008415611923578287015190505b61192d85826118af565b865550611995565b601f1984166119438661171f565b60005b8281101561196b57848901518255600182019150602085019450602081019050611946565b868310156119885784890151611984601f891682611891565b8355505b6001600288020188555050505b505050505050565b60006119a882610f98565b91507fffffffffffffffffffffffffffffffffffffffffffffffffffffffffffffffff82036119da576119d961152c565b5b600182019050919050565b7f45524332303a20617070726f76652066726f6d20746865207a65726f2061646460008201527f7265737300000000000000000000000000000000000000000000000000000000602082015250565b6000611a41602483611006565b9150611a4c826119e5565b604082019050919050565b60006020820190508181036000830152611a7081611a34565b9050919050565b7f45524332303a20617070726f766520746f20746865207a65726f20616464726560008201527f7373000000000000000000000000000000000000000000000000000000000000602082015250565b6000611ad3602283611006565b9150611ade82611a77565b604082019050919050565b60006020820190508181036000830152611b0281611ac6565b9050919050565b7f45524332303a20696e73756666696369656e7420616c6c6f77616e6365000000600082015250565b6000611b3f601d83611006565b9150611b4a82611b09565b602082019050919050565b60006020820190508181036000830152611b6e81611b32565b9050919050565b7f45524332303a207472616e736665722066726f6d20746865207a65726f20616460008201527f6472657373000000000000000000000000000000000000000000000000000000602082015250565b6000611bd1602583611006565b9150611bdc82611b75565b604082019050919050565b60006020820190508181036000830152611c0081611bc4565b9050919050565b7f45524332303a207472616e7366657220746f20746865207a65726f206164647260008201527f6573730000000000000000000000000000000000000000000000000000000000602082015250565b6000611c63602383611006565b9150611c6e82611c07565b604082019050919050565b60006020820190508181036000830152611c9281611c56565b9050919050565b7f45524332303a207472616e7366657220616d6f756e742065786365656473206260008201527f616c616e63650000000000000000000000000000000000000000000000000000602082015250565b6000611cf5602683611006565b9150611d0082611c99565b604082019050919050565b60006020820190508181036000830152611d2481611ce8565b9050919050565b7f45524332303a206d696e7420746f20746865207a65726f206164647265737300600082015250565b6000611d61601f83611006565b9150611d6c82611d2b565b602082019050919050565b60006020820190508181036000830152611d9081611d54565b905091905056fea2646970667358221220fba29c5ed3b1f59c276eb192b4f8a6906ac84c16434c46a679b4d3c71d61284a64736f6c63430008120033",
					"opcodes": "PUSH1 0x80 PUSH1 0x40 MSTORE CALLVALUE DUP1 ISZERO PUSH3 0x11 JUMPI PUSH1 0x0 DUP1 REVERT JUMPDEST POP PUSH1 0x40 MLOAD DUP1 PUSH1 0x40 ADD PUSH1 0x40 MSTORE DUP1 PUSH1 0x1A DUP2 MSTORE PUSH1 0x20 ADD PUSH32 0x4469676974616C20446174612053746F7261676520546F6B656E000000000000 DUP2 MSTORE POP PUSH1 0x40 MLOAD DUP1 PUSH1 0x40 ADD PUSH1 0x40 MSTORE DUP1 PUSH1 0x4 DUP2 MSTORE PUSH1 0x20 ADD PUSH32 0x4444535400000000000000000000000000000000000000000000000000000000 DUP2 MSTORE POP DUP2 PUSH1 0x3 SWAP1 DUP2 PUSH3 0x8F SWAP2 SWAP1 PUSH3 0x36D JUMP JUMPDEST POP DUP1 PUSH1 0x4 SWAP1 DUP2 PUSH3 0xA1 SWAP2 SWAP1 PUSH3 0x36D JUMP JUMPDEST POP POP POP PUSH1 0x0 PUSH1 0x5 DUP2 SWAP1 SSTORE POP CALLER PUSH1 0x7 PUSH1 0x0 PUSH2 0x100 EXP DUP2 SLOAD DUP2 PUSH20 0xFFFFFFFFFFFFFFFFFFFFFFFFFFFFFFFFFFFFFFFF MUL NOT AND SWAP1 DUP4 PUSH20 0xFFFFFFFFFFFFFFFFFFFFFFFFFFFFFFFFFFFFFFFF AND MUL OR SWAP1 SSTORE POP PUSH3 0x454 JUMP JUMPDEST PUSH1 0x0 DUP2 MLOAD SWAP1 POP SWAP2 SWAP1 POP JUMP JUMPDEST PUSH32 0x4E487B7100000000000000000000000000000000000000000000000000000000 PUSH1 0x0 MSTORE PUSH1 0x41 PUSH1 0x4 MSTORE PUSH1 0x24 PUSH1 0x0 REVERT JUMPDEST PUSH32 0x4E487B7100000000000000000000000000000000000000000000000000000000 PUSH1 0x0 MSTORE PUSH1 0x22 PUSH1 0x4 MSTORE PUSH1 0x24 PUSH1 0x0 REVERT JUMPDEST PUSH1 0x0 PUSH1 0x2 DUP3 DIV SWAP1 POP PUSH1 0x1 DUP3 AND DUP1 PUSH3 0x175 JUMPI PUSH1 0x7F DUP3 AND SWAP2 POP JUMPDEST PUSH1 0x20 DUP3 LT DUP2 SUB PUSH3 0x18B JUMPI PUSH3 0x18A PUSH3 0x12D JUMP JUMPDEST JUMPDEST POP SWAP2 SWAP1 POP JUMP JUMPDEST PUSH1 0x0 DUP2 SWAP1 POP DUP2 PUSH1 0x0 MSTORE PUSH1 0x20 PUSH1 0x0 KECCAK256 SWAP1 POP SWAP2 SWAP1 POP JUMP JUMPDEST PUSH1 0x0 PUSH1 0x20 PUSH1 0x1F DUP4 ADD DIV SWAP1 POP SWAP2 SWAP1 POP JUMP JUMPDEST PUSH1 0x0 DUP3 DUP3 SHL SWAP1 POP SWAP3 SWAP2 POP POP JUMP JUMPDEST PUSH1 0x0 PUSH1 0x8 DUP4 MUL PUSH3 0x1F5 PUSH32 0xFFFFFFFFFFFFFFFFFFFFFFFFFFFFFFFFFFFFFFFFFFFFFFFFFFFFFFFFFFFFFFFF DUP3 PUSH3 0x1B6 JUMP JUMPDEST PUSH3 0x201 DUP7 DUP4 PUSH3 0x1B6 JUMP JUMPDEST SWAP6 POP DUP1 NOT DUP5 AND SWAP4 POP DUP1 DUP7 AND DUP5 OR SWAP3 POP POP POP SWAP4 SWAP3 POP POP POP JUMP JUMPDEST PUSH1 0x0 DUP2 SWAP1 POP SWAP2 SWAP1 POP JUMP JUMPDEST PUSH1 0x0 DUP2 SWAP1 POP SWAP2 SWAP1 POP JUMP JUMPDEST PUSH1 0x0 PUSH3 0x24E PUSH3 0x248 PUSH3 0x242 DUP5 PUSH3 0x219 JUMP JUMPDEST PUSH3 0x223 JUMP JUMPDEST PUSH3 0x219 JUMP JUMPDEST SWAP1 POP SWAP2 SWAP1 POP JUMP JUMPDEST PUSH1 0x0 DUP2 SWAP1 POP SWAP2 SWAP1 POP JUMP JUMPDEST PUSH3 0x26A DUP4 PUSH3 0x22D JUMP JUMPDEST PUSH3 0x282 PUSH3 0x279 DUP3 PUSH3 0x255 JUMP JUMPDEST DUP5 DUP5 SLOAD PUSH3 0x1C3 JUMP JUMPDEST DUP3 SSTORE POP POP POP POP JUMP JUMPDEST PUSH1 0x0 SWAP1 JUMP JUMPDEST PUSH3 0x299 PUSH3 0x28A JUMP JUMPDEST PUSH3 0x2A6 DUP2 DUP5 DUP5 PUSH3 0x25F JUMP JUMPDEST POP POP POP JUMP JUMPDEST JUMPDEST DUP2 DUP2 LT ISZERO PUSH3 0x2CE JUMPI PUSH3 0x2C2 PUSH1 0x0 DUP3 PUSH3 0x28F JUMP JUMPDEST PUSH1 0x1 DUP2 ADD SWAP1 POP PUSH3 0x2AC JUMP JUMPDEST POP POP JUMP JUMPDEST PUSH1 0x1F DUP3 GT ISZERO PUSH3 0x31D JUMPI PUSH3 0x2E7 DUP2 PUSH3 0x191 JUMP JUMPDEST PUSH3 0x2F2 DUP5 PUSH3 0x1A6 JUMP JUMPDEST DUP2 ADD PUSH1 0x20 DUP6 LT ISZERO PUSH3 0x302 JUMPI DUP2 SWAP1 POP JUMPDEST PUSH3 0x31A PUSH3 0x311 DUP6 PUSH3 0x1A6 JUMP JUMPDEST DUP4 ADD DUP3 PUSH3 0x2AB JUMP JUMPDEST POP POP JUMPDEST POP POP POP JUMP JUMPDEST PUSH1 0x0 DUP3 DUP3 SHR SWAP1 POP SWAP3 SWAP2 POP POP JUMP JUMPDEST PUSH1 0x0 PUSH3 0x342 PUSH1 0x0 NOT DUP5 PUSH1 0x8 MUL PUSH3 0x322 JUMP JUMPDEST NOT DUP1 DUP4 AND SWAP2 POP POP SWAP3 SWAP2 POP POP JUMP JUMPDEST PUSH1 0x0 PUSH3 0x35D DUP4 DUP4 PUSH3 0x32F JUMP JUMPDEST SWAP2 POP DUP3 PUSH1 0x2 MUL DUP3 OR SWAP1 POP SWAP3 SWAP2 POP POP JUMP JUMPDEST PUSH3 0x378 DUP3 PUSH3 0xF3 JUMP JUMPDEST PUSH8 0xFFFFFFFFFFFFFFFF DUP2 GT ISZERO PUSH3 0x394 JUMPI PUSH3 0x393 PUSH3 0xFE JUMP JUMPDEST JUMPDEST PUSH3 0x3A0 DUP3 SLOAD PUSH3 0x15C JUMP JUMPDEST PUSH3 0x3AD DUP3 DUP3 DUP6 PUSH3 0x2D2 JUMP JUMPDEST PUSH1 0x0 PUSH1 0x20 SWAP1 POP PUSH1 0x1F DUP4 GT PUSH1 0x1 DUP2 EQ PUSH3 0x3E5 JUMPI PUSH1 0x0 DUP5 ISZERO PUSH3 0x3D0 JUMPI DUP3 DUP8 ADD MLOAD SWAP1 POP JUMPDEST PUSH3 0x3DC DUP6 DUP3 PUSH3 0x34F JUMP JUMPDEST DUP7 SSTORE POP PUSH3 0x44C JUMP JUMPDEST PUSH1 0x1F NOT DUP5 AND PUSH3 0x3F5 DUP7 PUSH3 0x191 JUMP JUMPDEST PUSH1 0x0 JUMPDEST DUP3 DUP2 LT ISZERO PUSH3 0x41F JUMPI DUP5 DUP10 ADD MLOAD DUP3 SSTORE PUSH1 0x1 DUP3 ADD SWAP2 POP PUSH1 0x20 DUP6 ADD SWAP5 POP PUSH1 0x20 DUP2 ADD SWAP1 POP PUSH3 0x3F8 JUMP JUMPDEST DUP7 DUP4 LT ISZERO PUSH3 0x43F JUMPI DUP5 DUP10 ADD MLOAD PUSH3 0x43B PUSH1 0x1F DUP10 AND DUP3 PUSH3 0x32F JUMP JUMPDEST DUP4 SSTORE POP JUMPDEST PUSH1 0x1 PUSH1 0x2 DUP9 MUL ADD DUP9 SSTORE POP POP POP JUMPDEST POP POP POP POP POP POP JUMP JUMPDEST PUSH2 0x1DCD DUP1 PUSH3 0x464 PUSH1 0x0 CODECOPY PUSH1 0x0 RETURN INVALID PUSH1 0x80 PUSH1 0x40 MSTORE CALLVALUE DUP1 ISZERO PUSH2 0x10 JUMPI PUSH1 0x0 DUP1 REVERT JUMPDEST POP PUSH1 0x4 CALLDATASIZE LT PUSH2 0xEA JUMPI PUSH1 0x0 CALLDATALOAD PUSH1 0xE0 SHR DUP1 PUSH4 0x70A08231 GT PUSH2 0x8C JUMPI DUP1 PUSH4 0xA9059CBB GT PUSH2 0x66 JUMPI DUP1 PUSH4 0xA9059CBB EQ PUSH2 0x287 JUMPI DUP1 PUSH4 0xDD62ED3E EQ PUSH2 0x2B7 JUMPI DUP1 PUSH4 0xECA5343A EQ PUSH2 0x2E7 JUMPI DUP1 PUSH4 0xFB218F5F EQ PUSH2 0x303 JUMPI PUSH2 0xEA JUMP JUMPDEST DUP1 PUSH4 0x70A08231 EQ PUSH2 0x209 JUMPI DUP1 PUSH4 0x95D89B41 EQ PUSH2 0x239 JUMPI DUP1 PUSH4 0xA457C2D7 EQ PUSH2 0x257 JUMPI PUSH2 0xEA JUMP JUMPDEST DUP1 PUSH4 0x18160DDD GT PUSH2 0xC8 JUMPI DUP1 PUSH4 0x18160DDD EQ PUSH2 0x16D JUMPI DUP1 PUSH4 0x23B872DD EQ PUSH2 0x18B JUMPI DUP1 PUSH4 0x313CE567 EQ PUSH2 0x1BB JUMPI DUP1 PUSH4 0x39509351 EQ PUSH2 0x1D9 JUMPI PUSH2 0xEA JUMP JUMPDEST DUP1 PUSH4 0x178FE3F EQ PUSH2 0xEF JUMPI DUP1 PUSH4 0x6FDDE03 EQ PUSH2 0x11F JUMPI DUP1 PUSH4 0x95EA7B3 EQ PUSH2 0x13D JUMPI JUMPDEST PUSH1 0x0 DUP1 REVERT JUMPDEST PUSH2 0x109 PUSH1 0x4 DUP1 CALLDATASIZE SUB DUP2 ADD SWAP1 PUSH2 0x104 SWAP2 SWAP1 PUSH2 0xFCE JUMP JUMPDEST PUSH2 0x31F JUMP JUMPDEST PUSH1 0x40 MLOAD PUSH2 0x116 SWAP2 SWAP1 PUSH2 0x108B JUMP JUMPDEST PUSH1 0x40 MLOAD DUP1 SWAP2 SUB SWAP1 RETURN JUMPDEST PUSH2 0x127 PUSH2 0x415 JUMP JUMPDEST PUSH1 0x40 MLOAD PUSH2 0x134 SWAP2 SWAP1 PUSH2 0x108B JUMP JUMPDEST PUSH1 0x40 MLOAD DUP1 SWAP2 SUB SWAP1 RETURN JUMPDEST PUSH2 0x157 PUSH1 0x4 DUP1 CALLDATASIZE SUB DUP2 ADD SWAP1 PUSH2 0x152 SWAP2 SWAP1 PUSH2 0x110B JUMP JUMPDEST PUSH2 0x4A7 JUMP JUMPDEST PUSH1 0x40 MLOAD PUSH2 0x164 SWAP2 SWAP1 PUSH2 0x1166 JUMP JUMPDEST PUSH1 0x40 MLOAD DUP1 SWAP2 SUB SWAP1 RETURN JUMPDEST PUSH2 0x175 PUSH2 0x4CA JUMP JUMPDEST PUSH1 0x40 MLOAD PUSH2 0x182 SWAP2 SWAP1 PUSH2 0x1190 JUMP JUMPDEST PUSH1 0x40 MLOAD DUP1 SWAP2 SUB SWAP1 RETURN JUMPDEST PUSH2 0x1A5 PUSH1 0x4 DUP1 CALLDATASIZE SUB DUP2 ADD SWAP1 PUSH2 0x1A0 SWAP2 SWAP1 PUSH2 0x11AB JUMP JUMPDEST PUSH2 0x4D4 JUMP JUMPDEST PUSH1 0x40 MLOAD PUSH2 0x1B2 SWAP2 SWAP1 PUSH2 0x1166 JUMP JUMPDEST PUSH1 0x40 MLOAD DUP1 SWAP2 SUB SWAP1 RETURN JUMPDEST PUSH2 0x1C3 PUSH2 0x503 JUMP JUMPDEST PUSH1 0x40 MLOAD PUSH2 0x1D0 SWAP2 SWAP1 PUSH2 0x121A JUMP JUMPDEST PUSH1 0x40 MLOAD DUP1 SWAP2 SUB SWAP1 RETURN JUMPDEST PUSH2 0x1F3 PUSH1 0x4 DUP1 CALLDATASIZE SUB DUP2 ADD SWAP1 PUSH2 0x1EE SWAP2 SWAP1 PUSH2 0x110B JUMP JUMPDEST PUSH2 0x50C JUMP JUMPDEST PUSH1 0x40 MLOAD PUSH2 0x200 SWAP2 SWAP1 PUSH2 0x1166 JUMP JUMPDEST PUSH1 0x40 MLOAD DUP1 SWAP2 SUB SWAP1 RETURN JUMPDEST PUSH2 0x223 PUSH1 0x4 DUP1 CALLDATASIZE SUB DUP2 ADD SWAP1 PUSH2 0x21E SWAP2 SWAP1 PUSH2 0x1235 JUMP JUMPDEST PUSH2 0x543 JUMP JUMPDEST PUSH1 0x40 MLOAD PUSH2 0x230 SWAP2 SWAP1 PUSH2 0x1190 JUMP JUMPDEST PUSH1 0x40 MLOAD DUP1 SWAP2 SUB SWAP1 RETURN JUMPDEST PUSH2 0x241 PUSH2 0x58B JUMP JUMPDEST PUSH1 0x40 MLOAD PUSH2 0x24E SWAP2 SWAP1 PUSH2 0x108B JUMP JUMPDEST PUSH1 0x40 MLOAD DUP1 SWAP2 SUB SWAP1 RETURN JUMPDEST PUSH2 0x271 PUSH1 0x4 DUP1 CALLDATASIZE SUB DUP2 ADD SWAP1 PUSH2 0x26C SWAP2 SWAP1 PUSH2 0x110B JUMP JUMPDEST PUSH2 0x61D JUMP JUMPDEST PUSH1 0x40 MLOAD PUSH2 0x27E SWAP2 SWAP1 PUSH2 0x1166 JUMP JUMPDEST PUSH1 0x40 MLOAD DUP1 SWAP2 SUB SWAP1 RETURN JUMPDEST PUSH2 0x2A1 PUSH1 0x4 DUP1 CALLDATASIZE SUB DUP2 ADD SWAP1 PUSH2 0x29C SWAP2 SWAP1 PUSH2 0x110B JUMP JUMPDEST PUSH2 0x694 JUMP JUMPDEST PUSH1 0x40 MLOAD PUSH2 0x2AE SWAP2 SWAP1 PUSH2 0x1166 JUMP JUMPDEST PUSH1 0x40 MLOAD DUP1 SWAP2 SUB SWAP1 RETURN JUMPDEST PUSH2 0x2D1 PUSH1 0x4 DUP1 CALLDATASIZE SUB DUP2 ADD SWAP1 PUSH2 0x2CC SWAP2 SWAP1 PUSH2 0x1262 JUMP JUMPDEST PUSH2 0x6B7 JUMP JUMPDEST PUSH1 0x40 MLOAD PUSH2 0x2DE SWAP2 SWAP1 PUSH2 0x1190 JUMP JUMPDEST PUSH1 0x40 MLOAD DUP1 SWAP2 SUB SWAP1 RETURN JUMPDEST PUSH2 0x301 PUSH1 0x4 DUP1 CALLDATASIZE SUB DUP2 ADD SWAP1 PUSH2 0x2FC SWAP2 SWAP1 PUSH2 0x12A2 JUMP JUMPDEST PUSH2 0x73E JUMP JUMPDEST STOP JUMPDEST PUSH2 0x31D PUSH1 0x4 DUP1 CALLDATASIZE SUB DUP2 ADD SWAP1 PUSH2 0x318 SWAP2 SWAP1 PUSH2 0x1417 JUMP JUMPDEST PUSH2 0x8CE JUMP JUMPDEST STOP JUMPDEST PUSH1 0x60 PUSH1 0x0 DUP3 GT DUP1 ISZERO PUSH2 0x333 JUMPI POP PUSH1 0x5 SLOAD DUP3 GT ISZERO JUMPDEST PUSH2 0x372 JUMPI PUSH1 0x40 MLOAD PUSH32 0x8C379A000000000000000000000000000000000000000000000000000000000 DUP2 MSTORE PUSH1 0x4 ADD PUSH2 0x369 SWAP1 PUSH2 0x14AC JUMP JUMPDEST PUSH1 0x40 MLOAD DUP1 SWAP2 SUB SWAP1 REVERT JUMPDEST PUSH1 0x6 PUSH1 0x0 DUP4 DUP2 MSTORE PUSH1 0x20 ADD SWAP1 DUP2 MSTORE PUSH1 0x20 ADD PUSH1 0x0 KECCAK256 DUP1 SLOAD PUSH2 0x390 SWAP1 PUSH2 0x14FB JUMP JUMPDEST DUP1 PUSH1 0x1F ADD PUSH1 0x20 DUP1 SWAP2 DIV MUL PUSH1 0x20 ADD PUSH1 0x40 MLOAD SWAP1 DUP2 ADD PUSH1 0x40 MSTORE DUP1 SWAP3 SWAP2 SWAP1 DUP2 DUP2 MSTORE PUSH1 0x20 ADD DUP3 DUP1 SLOAD PUSH2 0x3BC SWAP1 PUSH2 0x14FB JUMP JUMPDEST DUP1 ISZERO PUSH2 0x409 JUMPI DUP1 PUSH1 0x1F LT PUSH2 0x3DE JUMPI PUSH2 0x100 DUP1 DUP4 SLOAD DIV MUL DUP4 MSTORE SWAP2 PUSH1 0x20 ADD SWAP2 PUSH2 0x409 JUMP JUMPDEST DUP3 ADD SWAP2 SWAP1 PUSH1 0x0 MSTORE PUSH1 0x20 PUSH1 0x0 KECCAK256 SWAP1 JUMPDEST DUP2 SLOAD DUP2 MSTORE SWAP1 PUSH1 0x1 ADD SWAP1 PUSH1 0x20 ADD DUP1 DUP4 GT PUSH2 0x3EC JUMPI DUP3 SWAP1 SUB PUSH1 0x1F AND DUP3 ADD SWAP2 JUMPDEST POP POP POP POP POP SWAP1 POP SWAP2 SWAP1 POP JUMP JUMPDEST PUSH1 0x60 PUSH1 0x3 DUP1 SLOAD PUSH2 0x424 SWAP1 PUSH2 0x14FB JUMP JUMPDEST DUP1 PUSH1 0x1F ADD PUSH1 0x20 DUP1 SWAP2 DIV MUL PUSH1 0x20 ADD PUSH1 0x40 MLOAD SWAP1 DUP2 ADD PUSH1 0x40 MSTORE DUP1 SWAP3 SWAP2 SWAP1 DUP2 DUP2 MSTORE PUSH1 0x20 ADD DUP3 DUP1 SLOAD PUSH2 0x450 SWAP1 PUSH2 0x14FB JUMP JUMPDEST DUP1 ISZERO PUSH2 0x49D JUMPI DUP1 PUSH1 0x1F LT PUSH2 0x472 JUMPI PUSH2 0x100 DUP1 DUP4 SLOAD DIV MUL DUP4 MSTORE SWAP2 PUSH1 0x20 ADD SWAP2 PUSH2 0x49D JUMP JUMPDEST DUP3 ADD SWAP2 SWAP1 PUSH1 0x0 MSTORE PUSH1 0x20 PUSH1 0x0 KECCAK256 SWAP1 JUMPDEST DUP2 SLOAD DUP2 MSTORE SWAP1 PUSH1 0x1 ADD SWAP1 PUSH1 0x20 ADD DUP1 DUP4 GT PUSH2 0x480 JUMPI DUP3 SWAP1 SUB PUSH1 0x1F AND DUP3 ADD SWAP2 JUMPDEST POP POP POP POP POP SWAP1 POP SWAP1 JUMP JUMPDEST PUSH1 0x0 DUP1 PUSH2 0x4B2 PUSH2 0x951 JUMP JUMPDEST SWAP1 POP PUSH2 0x4BF DUP2 DUP6 DUP6 PUSH2 0x959 JUMP JUMPDEST PUSH1 0x1 SWAP2 POP POP SWAP3 SWAP2 POP POP JUMP JUMPDEST PUSH1 0x0 PUSH1 0x2 SLOAD SWAP1 POP SWAP1 JUMP JUMPDEST PUSH1 0x0 DUP1 PUSH2 0x4DF PUSH2 0x951 JUMP JUMPDEST SWAP1 POP PUSH2 0x4EC DUP6 DUP3 DUP6 PUSH2 0xB22 JUMP JUMPDEST PUSH2 0x4F7 DUP6 DUP6 DUP6 PUSH2 0xBAE JUMP JUMPDEST PUSH1 0x1 SWAP2 POP POP SWAP4 SWAP3 POP POP POP JUMP JUMPDEST PUSH1 0x0 PUSH1 0x12 SWAP1 POP SWAP1 JUMP JUMPDEST PUSH1 0x0 DUP1 PUSH2 0x517 PUSH2 0x951 JUMP JUMPDEST SWAP1 POP PUSH2 0x538 DUP2 DUP6 DUP6 PUSH2 0x529 DUP6 DUP10 PUSH2 0x6B7 JUMP JUMPDEST PUSH2 0x533 SWAP2 SWAP1 PUSH2 0x155B JUMP JUMPDEST PUSH2 0x959 JUMP JUMPDEST PUSH1 0x1 SWAP2 POP POP SWAP3 SWAP2 POP POP JUMP JUMPDEST PUSH1 0x0 DUP1 PUSH1 0x0 DUP4 PUSH20 0xFFFFFFFFFFFFFFFFFFFFFFFFFFFFFFFFFFFFFFFF AND PUSH20 0xFFFFFFFFFFFFFFFFFFFFFFFFFFFFFFFFFFFFFFFF AND DUP2 MSTORE PUSH1 0x20 ADD SWAP1 DUP2 MSTORE PUSH1 0x20 ADD PUSH1 0x0 KECCAK256 SLOAD SWAP1 POP SWAP2 SWAP1 POP JUMP JUMPDEST PUSH1 0x60 PUSH1 0x4 DUP1 SLOAD PUSH2 0x59A SWAP1 PUSH2 0x14FB JUMP JUMPDEST DUP1 PUSH1 0x1F ADD PUSH1 0x20 DUP1 SWAP2 DIV MUL PUSH1 0x20 ADD PUSH1 0x40 MLOAD SWAP1 DUP2 ADD PUSH1 0x40 MSTORE DUP1 SWAP3 SWAP2 SWAP1 DUP2 DUP2 MSTORE PUSH1 0x20 ADD DUP3 DUP1 SLOAD PUSH2 0x5C6 SWAP1 PUSH2 0x14FB JUMP JUMPDEST DUP1 ISZERO PUSH2 0x613 JUMPI DUP1 PUSH1 0x1F LT PUSH2 0x5E8 JUMPI PUSH2 0x100 DUP1 DUP4 SLOAD DIV MUL DUP4 MSTORE SWAP2 PUSH1 0x20 ADD SWAP2 PUSH2 0x613 JUMP JUMPDEST DUP3 ADD SWAP2 SWAP1 PUSH1 0x0 MSTORE PUSH1 0x20 PUSH1 0x0 KECCAK256 SWAP1 JUMPDEST DUP2 SLOAD DUP2 MSTORE SWAP1 PUSH1 0x1 ADD SWAP1 PUSH1 0x20 ADD DUP1 DUP4 GT PUSH2 0x5F6 JUMPI DUP3 SWAP1 SUB PUSH1 0x1F AND DUP3 ADD SWAP2 JUMPDEST POP POP POP POP POP SWAP1 POP SWAP1 JUMP JUMPDEST PUSH1 0x0 DUP1 PUSH2 0x628 PUSH2 0x951 JUMP JUMPDEST SWAP1 POP PUSH1 0x0 PUSH2 0x636 DUP3 DUP7 PUSH2 0x6B7 JUMP JUMPDEST SWAP1 POP DUP4 DUP2 LT ISZERO PUSH2 0x67B JUMPI PUSH1 0x40 MLOAD PUSH32 0x8C379A000000000000000000000000000000000000000000000000000000000 DUP2 MSTORE PUSH1 0x4 ADD PUSH2 0x672 SWAP1 PUSH2 0x1601 JUMP JUMPDEST PUSH1 0x40 MLOAD DUP1 SWAP2 SUB SWAP1 REVERT JUMPDEST PUSH2 0x688 DUP3 DUP7 DUP7 DUP5 SUB PUSH2 0x959 JUMP JUMPDEST PUSH1 0x1 SWAP3 POP POP POP SWAP3 SWAP2 POP POP JUMP JUMPDEST PUSH1 0x0 DUP1 PUSH2 0x69F PUSH2 0x951 JUMP JUMPDEST SWAP1 POP PUSH2 0x6AC DUP2 DUP6 DUP6 PUSH2 0xBAE JUMP JUMPDEST PUSH1 0x1 SWAP2 POP POP SWAP3 SWAP2 POP POP JUMP JUMPDEST PUSH1 0x0 PUSH1 0x1 PUSH1 0x0 DUP5 PUSH20 0xFFFFFFFFFFFFFFFFFFFFFFFFFFFFFFFFFFFFFFFF AND PUSH20 0xFFFFFFFFFFFFFFFFFFFFFFFFFFFFFFFFFFFFFFFF AND DUP2 MSTORE PUSH1 0x20 ADD SWAP1 DUP2 MSTORE PUSH1 0x20 ADD PUSH1 0x0 KECCAK256 PUSH1 0x0 DUP4 PUSH20 0xFFFFFFFFFFFFFFFFFFFFFFFFFFFFFFFFFFFFFFFF AND PUSH20 0xFFFFFFFFFFFFFFFFFFFFFFFFFFFFFFFFFFFFFFFF AND DUP2 MSTORE PUSH1 0x20 ADD SWAP1 DUP2 MSTORE PUSH1 0x20 ADD PUSH1 0x0 KECCAK256 SLOAD SWAP1 POP SWAP3 SWAP2 POP POP JUMP JUMPDEST PUSH1 0x7 PUSH1 0x0 SWAP1 SLOAD SWAP1 PUSH2 0x100 EXP SWAP1 DIV PUSH20 0xFFFFFFFFFFFFFFFFFFFFFFFFFFFFFFFFFFFFFFFF AND PUSH20 0xFFFFFFFFFFFFFFFFFFFFFFFFFFFFFFFFFFFFFFFF AND CALLER PUSH20 0xFFFFFFFFFFFFFFFFFFFFFFFFFFFFFFFFFFFFFFFF AND EQ PUSH2 0x7CE JUMPI PUSH1 0x40 MLOAD PUSH32 0x8C379A000000000000000000000000000000000000000000000000000000000 DUP2 MSTORE PUSH1 0x4 ADD PUSH2 0x7C5 SWAP1 PUSH2 0x1693 JUMP JUMPDEST PUSH1 0x40 MLOAD DUP1 SWAP2 SUB SWAP1 REVERT JUMPDEST PUSH1 0x0 DUP3 GT DUP1 ISZERO PUSH2 0x7E0 JUMPI POP PUSH1 0x5 SLOAD DUP3 GT ISZERO JUMPDEST PUSH2 0x81F JUMPI PUSH1 0x40 MLOAD PUSH32 0x8C379A000000000000000000000000000000000000000000000000000000000 DUP2 MSTORE PUSH1 0x4 ADD PUSH2 0x816 SWAP1 PUSH2 0x14AC JUMP JUMPDEST PUSH1 0x40 MLOAD DUP1 SWAP2 SUB SWAP1 REVERT JUMPDEST PUSH1 0x0 PUSH20 0xFFFFFFFFFFFFFFFFFFFFFFFFFFFFFFFFFFFFFFFF AND DUP2 PUSH20 0xFFFFFFFFFFFFFFFFFFFFFFFFFFFFFFFFFFFFFFFF AND SUB PUSH2 0x88E JUMPI PUSH1 0x40 MLOAD PUSH32 0x8C379A000000000000000000000000000000000000000000000000000000000 DUP2 MSTORE PUSH1 0x4 ADD PUSH2 0x885 SWAP1 PUSH2 0x16FF JUMP JUMPDEST PUSH1 0x40 MLOAD DUP1 SWAP2 SUB SWAP1 REVERT JUMPDEST PUSH1 0x40 MLOAD DUP1 PUSH1 0x20 ADD PUSH1 0x40 MSTORE DUP1 PUSH1 0x0 DUP2 MSTORE POP PUSH1 0x6 PUSH1 0x0 DUP5 DUP2 MSTORE PUSH1 0x20 ADD SWAP1 DUP2 MSTORE PUSH1 0x20 ADD PUSH1 0x0 KECCAK256 SWAP1 DUP2 PUSH2 0x8BD SWAP2 SWAP1 PUSH2 0x18CB JUMP JUMPDEST POP PUSH2 0x8CA CALLER DUP3 PUSH1 0x1 PUSH2 0xBAE JUMP JUMPDEST POP POP JUMP JUMPDEST PUSH1 0x5 PUSH1 0x0 DUP2 SLOAD DUP1 SWAP3 SWAP2 SWAP1 PUSH2 0x8E1 SWAP1 PUSH2 0x199D JUMP JUMPDEST SWAP2 SWAP1 POP SSTORE POP DUP1 PUSH1 0x6 PUSH1 0x0 PUSH1 0x5 SLOAD DUP2 MSTORE PUSH1 0x20 ADD SWAP1 DUP2 MSTORE PUSH1 0x20 ADD PUSH1 0x0 KECCAK256 SWAP1 DUP2 PUSH2 0x908 SWAP2 SWAP1 PUSH2 0x18CB JUMP JUMPDEST POP PUSH2 0x914 CALLER PUSH1 0x1 PUSH2 0xE24 JUMP JUMPDEST PUSH1 0x5 SLOAD PUSH32 0x56AE0CF797DC5C06B48E3F1F0AC14DB02BBBEFF12A70E489E5A2403FFC021BB8 DUP3 PUSH1 0x40 MLOAD PUSH2 0x946 SWAP2 SWAP1 PUSH2 0x108B JUMP JUMPDEST PUSH1 0x40 MLOAD DUP1 SWAP2 SUB SWAP1 LOG2 POP JUMP JUMPDEST PUSH1 0x0 CALLER SWAP1 POP SWAP1 JUMP JUMPDEST PUSH1 0x0 PUSH20 0xFFFFFFFFFFFFFFFFFFFFFFFFFFFFFFFFFFFFFFFF AND DUP4 PUSH20 0xFFFFFFFFFFFFFFFFFFFFFFFFFFFFFFFFFFFFFFFF AND SUB PUSH2 0x9C8 JUMPI PUSH1 0x40 MLOAD PUSH32 0x8C379A000000000000000000000000000000000000000000000000000000000 DUP2 MSTORE PUSH1 0x4 ADD PUSH2 0x9BF SWAP1 PUSH2 0x1A57 JUMP JUMPDEST PUSH1 0x40 MLOAD DUP1 SWAP2 SUB SWAP1 REVERT JUMPDEST PUSH1 0x0 PUSH20 0xFFFFFFFFFFFFFFFFFFFFFFFFFFFFFFFFFFFFFFFF AND DUP3 PUSH20 0xFFFFFFFFFFFFFFFFFFFFFFFFFFFFFFFFFFFFFFFF AND SUB PUSH2 0xA37 JUMPI PUSH1 0x40 MLOAD PUSH32 0x8C379A000000000000000000000000000000000000000000000000000000000 DUP2 MSTORE PUSH1 0x4 ADD PUSH2 0xA2E SWAP1 PUSH2 0x1AE9 JUMP JUMPDEST PUSH1 0x40 MLOAD DUP1 SWAP2 SUB SWAP1 REVERT JUMPDEST DUP1 PUSH1 0x1 PUSH1 0x0 DUP6 PUSH20 0xFFFFFFFFFFFFFFFFFFFFFFFFFFFFFFFFFFFFFFFF AND PUSH20 0xFFFFFFFFFFFFFFFFFFFFFFFFFFFFFFFFFFFFFFFF AND DUP2 MSTORE PUSH1 0x20 ADD SWAP1 DUP2 MSTORE PUSH1 0x20 ADD PUSH1 0x0 KECCAK256 PUSH1 0x0 DUP5 PUSH20 0xFFFFFFFFFFFFFFFFFFFFFFFFFFFFFFFFFFFFFFFF AND PUSH20 0xFFFFFFFFFFFFFFFFFFFFFFFFFFFFFFFFFFFFFFFF AND DUP2 MSTORE PUSH1 0x20 ADD SWAP1 DUP2 MSTORE PUSH1 0x20 ADD PUSH1 0x0 KECCAK256 DUP2 SWAP1 SSTORE POP DUP2 PUSH20 0xFFFFFFFFFFFFFFFFFFFFFFFFFFFFFFFFFFFFFFFF AND DUP4 PUSH20 0xFFFFFFFFFFFFFFFFFFFFFFFFFFFFFFFFFFFFFFFF AND PUSH32 0x8C5BE1E5EBEC7D5BD14F71427D1E84F3DD0314C0F7B2291E5B200AC8C7C3B925 DUP4 PUSH1 0x40 MLOAD PUSH2 0xB15 SWAP2 SWAP1 PUSH2 0x1190 JUMP JUMPDEST PUSH1 0x40 MLOAD DUP1 SWAP2 SUB SWAP1 LOG3 POP POP POP JUMP JUMPDEST PUSH1 0x0 PUSH2 0xB2E DUP5 DUP5 PUSH2 0x6B7 JUMP JUMPDEST SWAP1 POP PUSH32 0xFFFFFFFFFFFFFFFFFFFFFFFFFFFFFFFFFFFFFFFFFFFFFFFFFFFFFFFFFFFFFFFF DUP2 EQ PUSH2 0xBA8 JUMPI DUP2 DUP2 LT ISZERO PUSH2 0xB9A JUMPI PUSH1 0x40 MLOAD PUSH32 0x8C379A000000000000000000000000000000000000000000000000000000000 DUP2 MSTORE PUSH1 0x4 ADD PUSH2 0xB91 SWAP1 PUSH2 0x1B55 JUMP JUMPDEST PUSH1 0x40 MLOAD DUP1 SWAP2 SUB SWAP1 REVERT JUMPDEST PUSH2 0xBA7 DUP5 DUP5 DUP5 DUP5 SUB PUSH2 0x959 JUMP JUMPDEST JUMPDEST POP POP POP POP JUMP JUMPDEST PUSH1 0x0 PUSH20 0xFFFFFFFFFFFFFFFFFFFFFFFFFFFFFFFFFFFFFFFF AND DUP4 PUSH20 0xFFFFFFFFFFFFFFFFFFFFFFFFFFFFFFFFFFFFFFFF AND SUB PUSH2 0xC1D JUMPI PUSH1 0x40 MLOAD PUSH32 0x8C379A000000000000000000000000000000000000000000000000000000000 DUP2 MSTORE PUSH1 0x4 ADD PUSH2 0xC14 SWAP1 PUSH2 0x1BE7 JUMP JUMPDEST PUSH1 0x40 MLOAD DUP1 SWAP2 SUB SWAP1 REVERT JUMPDEST PUSH1 0x0 PUSH20 0xFFFFFFFFFFFFFFFFFFFFFFFFFFFFFFFFFFFFFFFF AND DUP3 PUSH20 0xFFFFFFFFFFFFFFFFFFFFFFFFFFFFFFFFFFFFFFFF AND SUB PUSH2 0xC8C JUMPI PUSH1 0x40 MLOAD PUSH32 0x8C379A000000000000000000000000000000000000000000000000000000000 DUP2 MSTORE PUSH1 0x4 ADD PUSH2 0xC83 SWAP1 PUSH2 0x1C79 JUMP JUMPDEST PUSH1 0x40 MLOAD DUP1 SWAP2 SUB SWAP1 REVERT JUMPDEST PUSH2 0xC97 DUP4 DUP4 DUP4 PUSH2 0xF7A JUMP JUMPDEST PUSH1 0x0 DUP1 PUSH1 0x0 DUP6 PUSH20 0xFFFFFFFFFFFFFFFFFFFFFFFFFFFFFFFFFFFFFFFF AND PUSH20 0xFFFFFFFFFFFFFFFFFFFFFFFFFFFFFFFFFFFFFFFF AND DUP2 MSTORE PUSH1 0x20 ADD SWAP1 DUP2 MSTORE PUSH1 0x20 ADD PUSH1 0x0 KECCAK256 SLOAD SWAP1 POP DUP2 DUP2 LT ISZERO PUSH2 0xD1D JUMPI PUSH1 0x40 MLOAD PUSH32 0x8C379A000000000000000000000000000000000000000000000000000000000 DUP2 MSTORE PUSH1 0x4 ADD PUSH2 0xD14 SWAP1 PUSH2 0x1D0B JUMP JUMPDEST PUSH1 0x40 MLOAD DUP1 SWAP2 SUB SWAP1 REVERT JUMPDEST DUP2 DUP2 SUB PUSH1 0x0 DUP1 DUP7 PUSH20 0xFFFFFFFFFFFFFFFFFFFFFFFFFFFFFFFFFFFFFFFF AND PUSH20 0xFFFFFFFFFFFFFFFFFFFFFFFFFFFFFFFFFFFFFFFF AND DUP2 MSTORE PUSH1 0x20 ADD SWAP1 DUP2 MSTORE PUSH1 0x20 ADD PUSH1 0x0 KECCAK256 DUP2 SWAP1 SSTORE POP DUP2 PUSH1 0x0 DUP1 DUP6 PUSH20 0xFFFFFFFFFFFFFFFFFFFFFFFFFFFFFFFFFFFFFFFF AND PUSH20 0xFFFFFFFFFFFFFFFFFFFFFFFFFFFFFFFFFFFFFFFF AND DUP2 MSTORE PUSH1 0x20 ADD SWAP1 DUP2 MSTORE PUSH1 0x20 ADD PUSH1 0x0 KECCAK256 PUSH1 0x0 DUP3 DUP3 SLOAD ADD SWAP3 POP POP DUP2 SWAP1 SSTORE POP DUP3 PUSH20 0xFFFFFFFFFFFFFFFFFFFFFFFFFFFFFFFFFFFFFFFF AND DUP5 PUSH20 0xFFFFFFFFFFFFFFFFFFFFFFFFFFFFFFFFFFFFFFFF AND PUSH32 0xDDF252AD1BE2C89B69C2B068FC378DAA952BA7F163C4A11628F55A4DF523B3EF DUP5 PUSH1 0x40 MLOAD PUSH2 0xE0B SWAP2 SWAP1 PUSH2 0x1190 JUMP JUMPDEST PUSH1 0x40 MLOAD DUP1 SWAP2 SUB SWAP1 LOG3 PUSH2 0xE1E DUP5 DUP5 DUP5 PUSH2 0xF7F JUMP JUMPDEST POP POP POP POP JUMP JUMPDEST PUSH1 0x0 PUSH20 0xFFFFFFFFFFFFFFFFFFFFFFFFFFFFFFFFFFFFFFFF AND DUP3 PUSH20 0xFFFFFFFFFFFFFFFFFFFFFFFFFFFFFFFFFFFFFFFF AND SUB PUSH2 0xE93 JUMPI PUSH1 0x40 MLOAD PUSH32 0x8C379A000000000000000000000000000000000000000000000000000000000 DUP2 MSTORE PUSH1 0x4 ADD PUSH2 0xE8A SWAP1 PUSH2 0x1D77 JUMP JUMPDEST PUSH1 0x40 MLOAD DUP1 SWAP2 SUB SWAP1 REVERT JUMPDEST PUSH2 0xE9F PUSH1 0x0 DUP4 DUP4 PUSH2 0xF7A JUMP JUMPDEST DUP1 PUSH1 0x2 PUSH1 0x0 DUP3 DUP3 SLOAD PUSH2 0xEB1 SWAP2 SWAP1 PUSH2 0x155B JUMP JUMPDEST SWAP3 POP POP DUP2 SWAP1 SSTORE POP DUP1 PUSH1 0x0 DUP1 DUP5 PUSH20 0xFFFFFFFFFFFFFFFFFFFFFFFFFFFFFFFFFFFFFFFF AND PUSH20 0xFFFFFFFFFFFFFFFFFFFFFFFFFFFFFFFFFFFFFFFF AND DUP2 MSTORE PUSH1 0x20 ADD SWAP1 DUP2 MSTORE PUSH1 0x20 ADD PUSH1 0x0 KECCAK256 PUSH1 0x0 DUP3 DUP3 SLOAD ADD SWAP3 POP POP DUP2 SWAP1 SSTORE POP DUP2 PUSH20 0xFFFFFFFFFFFFFFFFFFFFFFFFFFFFFFFFFFFFFFFF AND PUSH1 0x0 PUSH20 0xFFFFFFFFFFFFFFFFFFFFFFFFFFFFFFFFFFFFFFFF AND PUSH32 0xDDF252AD1BE2C89B69C2B068FC378DAA952BA7F163C4A11628F55A4DF523B3EF DUP4 PUSH1 0x40 MLOAD PUSH2 0xF62 SWAP2 SWAP1 PUSH2 0x1190 JUMP JUMPDEST PUSH1 0x40 MLOAD DUP1 SWAP2 SUB SWAP1 LOG3 PUSH2 0xF76 PUSH1 0x0 DUP4 DUP4 PUSH2 0xF7F JUMP JUMPDEST POP POP JUMP JUMPDEST POP POP POP JUMP JUMPDEST POP POP POP JUMP JUMPDEST PUSH1 0x0 PUSH1 0x40 MLOAD SWAP1 POP SWAP1 JUMP JUMPDEST PUSH1 0x0 DUP1 REVERT JUMPDEST PUSH1 0x0 DUP1 REVERT JUMPDEST PUSH1 0x0 DUP2 SWAP1 POP SWAP2 SWAP1 POP JUMP JUMPDEST PUSH2 0xFAB DUP2 PUSH2 0xF98 JUMP JUMPDEST DUP2 EQ PUSH2 0xFB6 JUMPI PUSH1 0x0 DUP1 REVERT JUMPDEST POP JUMP JUMPDEST PUSH1 0x0 DUP2 CALLDATALOAD SWAP1 POP PUSH2 0xFC8 DUP2 PUSH2 0xFA2 JUMP JUMPDEST SWAP3 SWAP2 POP POP JUMP JUMPDEST PUSH1 0x0 PUSH1 0x20 DUP3 DUP5 SUB SLT ISZERO PUSH2 0xFE4 JUMPI PUSH2 0xFE3 PUSH2 0xF8E JUMP JUMPDEST JUMPDEST PUSH1 0x0 PUSH2 0xFF2 DUP5 DUP3 DUP6 ADD PUSH2 0xFB9 JUMP JUMPDEST SWAP2 POP POP SWAP3 SWAP2 POP POP JUMP JUMPDEST PUSH1 0x0 DUP2 MLOAD SWAP1 POP SWAP2 SWAP1 POP JUMP JUMPDEST PUSH1 0x0 DUP3 DUP3 MSTORE PUSH1 0x20 DUP3 ADD SWAP1 POP SWAP3 SWAP2 POP POP JUMP JUMPDEST PUSH1 0x0 JUMPDEST DUP4 DUP2 LT ISZERO PUSH2 0x1035 JUMPI DUP1 DUP3 ADD MLOAD DUP2 DUP5 ADD MSTORE PUSH1 0x20 DUP2 ADD SWAP1 POP PUSH2 0x101A JUMP JUMPDEST PUSH1 0x0 DUP5 DUP5 ADD MSTORE POP POP POP POP JUMP JUMPDEST PUSH1 0x0 PUSH1 0x1F NOT PUSH1 0x1F DUP4 ADD AND SWAP1 POP SWAP2 SWAP1 POP JUMP JUMPDEST PUSH1 0x0 PUSH2 0x105D DUP3 PUSH2 0xFFB JUMP JUMPDEST PUSH2 0x1067 DUP2 DUP6 PUSH2 0x1006 JUMP JUMPDEST SWAP4 POP PUSH2 0x1077 DUP2 DUP6 PUSH1 0x20 DUP7 ADD PUSH2 0x1017 JUMP JUMPDEST PUSH2 0x1080 DUP2 PUSH2 0x1041 JUMP JUMPDEST DUP5 ADD SWAP2 POP POP SWAP3 SWAP2 POP POP JUMP JUMPDEST PUSH1 0x0 PUSH1 0x20 DUP3 ADD SWAP1 POP DUP2 DUP2 SUB PUSH1 0x0 DUP4 ADD MSTORE PUSH2 0x10A5 DUP2 DUP5 PUSH2 0x1052 JUMP JUMPDEST SWAP1 POP SWAP3 SWAP2 POP POP JUMP JUMPDEST PUSH1 0x0 PUSH20 0xFFFFFFFFFFFFFFFFFFFFFFFFFFFFFFFFFFFFFFFF DUP3 AND SWAP1 POP SWAP2 SWAP1 POP JUMP JUMPDEST PUSH1 0x0 PUSH2 0x10D8 DUP3 PUSH2 0x10AD JUMP JUMPDEST SWAP1 POP SWAP2 SWAP1 POP JUMP JUMPDEST PUSH2 0x10E8 DUP2 PUSH2 0x10CD JUMP JUMPDEST DUP2 EQ PUSH2 0x10F3 JUMPI PUSH1 0x0 DUP1 REVERT JUMPDEST POP JUMP JUMPDEST PUSH1 0x0 DUP2 CALLDATALOAD SWAP1 POP PUSH2 0x1105 DUP2 PUSH2 0x10DF JUMP JUMPDEST SWAP3 SWAP2 POP POP JUMP JUMPDEST PUSH1 0x0 DUP1 PUSH1 0x40 DUP4 DUP6 SUB SLT ISZERO PUSH2 0x1122 JUMPI PUSH2 0x1121 PUSH2 0xF8E JUMP JUMPDEST JUMPDEST PUSH1 0x0 PUSH2 0x1130 DUP6 DUP3 DUP7 ADD PUSH2 0x10F6 JUMP JUMPDEST SWAP3 POP POP PUSH1 0x20 PUSH2 0x1141 DUP6 DUP3 DUP7 ADD PUSH2 0xFB9 JUMP JUMPDEST SWAP2 POP POP SWAP3 POP SWAP3 SWAP1 POP JUMP JUMPDEST PUSH1 0x0 DUP2 ISZERO ISZERO SWAP1 POP SWAP2 SWAP1 POP JUMP JUMPDEST PUSH2 0x1160 DUP2 PUSH2 0x114B JUMP JUMPDEST DUP3 MSTORE POP POP JUMP JUMPDEST PUSH1 0x0 PUSH1 0x20 DUP3 ADD SWAP1 POP PUSH2 0x117B PUSH1 0x0 DUP4 ADD DUP5 PUSH2 0x1157 JUMP JUMPDEST SWAP3 SWAP2 POP POP JUMP JUMPDEST PUSH2 0x118A DUP2 PUSH2 0xF98 JUMP JUMPDEST DUP3 MSTORE POP POP JUMP JUMPDEST PUSH1 0x0 PUSH1 0x20 DUP3 ADD SWAP1 POP PUSH2 0x11A5 PUSH1 0x0 DUP4 ADD DUP5 PUSH2 0x1181 JUMP JUMPDEST SWAP3 SWAP2 POP POP JUMP JUMPDEST PUSH1 0x0 DUP1 PUSH1 0x0 PUSH1 0x60 DUP5 DUP7 SUB SLT ISZERO PUSH2 0x11C4 JUMPI PUSH2 0x11C3 PUSH2 0xF8E JUMP JUMPDEST JUMPDEST PUSH1 0x0 PUSH2 0x11D2 DUP7 DUP3 DUP8 ADD PUSH2 0x10F6 JUMP JUMPDEST SWAP4 POP POP PUSH1 0x20 PUSH2 0x11E3 DUP7 DUP3 DUP8 ADD PUSH2 0x10F6 JUMP JUMPDEST SWAP3 POP POP PUSH1 0x40 PUSH2 0x11F4 DUP7 DUP3 DUP8 ADD PUSH2 0xFB9 JUMP JUMPDEST SWAP2 POP POP SWAP3 POP SWAP3 POP SWAP3 JUMP JUMPDEST PUSH1 0x0 PUSH1 0xFF DUP3 AND SWAP1 POP SWAP2 SWAP1 POP JUMP JUMPDEST PUSH2 0x1214 DUP2 PUSH2 0x11FE JUMP JUMPDEST DUP3 MSTORE POP POP JUMP JUMPDEST PUSH1 0x0 PUSH1 0x20 DUP3 ADD SWAP1 POP PUSH2 0x122F PUSH1 0x0 DUP4 ADD DUP5 PUSH2 0x120B JUMP JUMPDEST SWAP3 SWAP2 POP POP JUMP JUMPDEST PUSH1 0x0 PUSH1 0x20 DUP3 DUP5 SUB SLT ISZERO PUSH2 0x124B JUMPI PUSH2 0x124A PUSH2 0xF8E JUMP JUMPDEST JUMPDEST PUSH1 0x0 PUSH2 0x1259 DUP5 DUP3 DUP6 ADD PUSH2 0x10F6 JUMP JUMPDEST SWAP2 POP POP SWAP3 SWAP2 POP POP JUMP JUMPDEST PUSH1 0x0 DUP1 PUSH1 0x40 DUP4 DUP6 SUB SLT ISZERO PUSH2 0x1279 JUMPI PUSH2 0x1278 PUSH2 0xF8E JUMP JUMPDEST JUMPDEST PUSH1 0x0 PUSH2 0x1287 DUP6 DUP3 DUP7 ADD PUSH2 0x10F6 JUMP JUMPDEST SWAP3 POP POP PUSH1 0x20 PUSH2 0x1298 DUP6 DUP3 DUP7 ADD PUSH2 0x10F6 JUMP JUMPDEST SWAP2 POP POP SWAP3 POP SWAP3 SWAP1 POP JUMP JUMPDEST PUSH1 0x0 DUP1 PUSH1 0x40 DUP4 DUP6 SUB SLT ISZERO PUSH2 0x12B9 JUMPI PUSH2 0x12B8 PUSH2 0xF8E JUMP JUMPDEST JUMPDEST PUSH1 0x0 PUSH2 0x12C7 DUP6 DUP3 DUP7 ADD PUSH2 0xFB9 JUMP JUMPDEST SWAP3 POP POP PUSH1 0x20 PUSH2 0x12D8 DUP6 DUP3 DUP7 ADD PUSH2 0x10F6 JUMP JUMPDEST SWAP2 POP POP SWAP3 POP SWAP3 SWAP1 POP JUMP JUMPDEST PUSH1 0x0 DUP1 REVERT JUMPDEST PUSH1 0x0 DUP1 REVERT JUMPDEST PUSH32 0x4E487B7100000000000000000000000000000000000000000000000000000000 PUSH1 0x0 MSTORE PUSH1 0x41 PUSH1 0x4 MSTORE PUSH1 0x24 PUSH1 0x0 REVERT JUMPDEST PUSH2 0x1324 DUP3 PUSH2 0x1041 JUMP JUMPDEST DUP2 ADD DUP2 DUP2 LT PUSH8 0xFFFFFFFFFFFFFFFF DUP3 GT OR ISZERO PUSH2 0x1343 JUMPI PUSH2 0x1342 PUSH2 0x12EC JUMP JUMPDEST JUMPDEST DUP1 PUSH1 0x40 MSTORE POP POP POP JUMP JUMPDEST PUSH1 0x0 PUSH2 0x1356 PUSH2 0xF84 JUMP JUMPDEST SWAP1 POP PUSH2 0x1362 DUP3 DUP3 PUSH2 0x131B JUMP JUMPDEST SWAP2 SWAP1 POP JUMP JUMPDEST PUSH1 0x0 PUSH8 0xFFFFFFFFFFFFFFFF DUP3 GT ISZERO PUSH2 0x1382 JUMPI PUSH2 0x1381 PUSH2 0x12EC JUMP JUMPDEST JUMPDEST PUSH2 0x138B DUP3 PUSH2 0x1041 JUMP JUMPDEST SWAP1 POP PUSH1 0x20 DUP2 ADD SWAP1 POP SWAP2 SWAP1 POP JUMP JUMPDEST DUP3 DUP2 DUP4 CALLDATACOPY PUSH1 0x0 DUP4 DUP4 ADD MSTORE POP POP POP JUMP JUMPDEST PUSH1 0x0 PUSH2 0x13BA PUSH2 0x13B5 DUP5 PUSH2 0x1367 JUMP JUMPDEST PUSH2 0x134C JUMP JUMPDEST SWAP1 POP DUP3 DUP2 MSTORE PUSH1 0x20 DUP2 ADD DUP5 DUP5 DUP5 ADD GT ISZERO PUSH2 0x13D6 JUMPI PUSH2 0x13D5 PUSH2 0x12E7 JUMP JUMPDEST JUMPDEST PUSH2 0x13E1 DUP5 DUP3 DUP6 PUSH2 0x1398 JUMP JUMPDEST POP SWAP4 SWAP3 POP POP POP JUMP JUMPDEST PUSH1 0x0 DUP3 PUSH1 0x1F DUP4 ADD SLT PUSH2 0x13FE JUMPI PUSH2 0x13FD PUSH2 0x12E2 JUMP JUMPDEST JUMPDEST DUP2 CALLDATALOAD PUSH2 0x140E DUP5 DUP3 PUSH1 0x20 DUP7 ADD PUSH2 0x13A7 JUMP JUMPDEST SWAP2 POP POP SWAP3 SWAP2 POP POP JUMP JUMPDEST PUSH1 0x0 PUSH1 0x20 DUP3 DUP5 SUB SLT ISZERO PUSH2 0x142D JUMPI PUSH2 0x142C PUSH2 0xF8E JUMP JUMPDEST JUMPDEST PUSH1 0x0 DUP3 ADD CALLDATALOAD PUSH8 0xFFFFFFFFFFFFFFFF DUP2 GT ISZERO PUSH2 0x144B JUMPI PUSH2 0x144A PUSH2 0xF93 JUMP JUMPDEST JUMPDEST PUSH2 0x1457 DUP5 DUP3 DUP6 ADD PUSH2 0x13E9 JUMP JUMPDEST SWAP2 POP POP SWAP3 SWAP2 POP POP JUMP JUMPDEST PUSH32 0x496E76616C696420696E64657800000000000000000000000000000000000000 PUSH1 0x0 DUP3 ADD MSTORE POP JUMP JUMPDEST PUSH1 0x0 PUSH2 0x1496 PUSH1 0xD DUP4 PUSH2 0x1006 JUMP JUMPDEST SWAP2 POP PUSH2 0x14A1 DUP3 PUSH2 0x1460 JUMP JUMPDEST PUSH1 0x20 DUP3 ADD SWAP1 POP SWAP2 SWAP1 POP JUMP JUMPDEST PUSH1 0x0 PUSH1 0x20 DUP3 ADD SWAP1 POP DUP2 DUP2 SUB PUSH1 0x0 DUP4 ADD MSTORE PUSH2 0x14C5 DUP2 PUSH2 0x1489 JUMP JUMPDEST SWAP1 POP SWAP2 SWAP1 POP JUMP JUMPDEST PUSH32 0x4E487B7100000000000000000000000000000000000000000000000000000000 PUSH1 0x0 MSTORE PUSH1 0x22 PUSH1 0x4 MSTORE PUSH1 0x24 PUSH1 0x0 REVERT JUMPDEST PUSH1 0x0 PUSH1 0x2 DUP3 DIV SWAP1 POP PUSH1 0x1 DUP3 AND DUP1 PUSH2 0x1513 JUMPI PUSH1 0x7F DUP3 AND SWAP2 POP JUMPDEST PUSH1 0x20 DUP3 LT DUP2 SUB PUSH2 0x1526 JUMPI PUSH2 0x1525 PUSH2 0x14CC JUMP JUMPDEST JUMPDEST POP SWAP2 SWAP1 POP JUMP JUMPDEST PUSH32 0x4E487B7100000000000000000000000000000000000000000000000000000000 PUSH1 0x0 MSTORE PUSH1 0x11 PUSH1 0x4 MSTORE PUSH1 0x24 PUSH1 0x0 REVERT JUMPDEST PUSH1 0x0 PUSH2 0x1566 DUP3 PUSH2 0xF98 JUMP JUMPDEST SWAP2 POP PUSH2 0x1571 DUP4 PUSH2 0xF98 JUMP JUMPDEST SWAP3 POP DUP3 DUP3 ADD SWAP1 POP DUP1 DUP3 GT ISZERO PUSH2 0x1589 JUMPI PUSH2 0x1588 PUSH2 0x152C JUMP JUMPDEST JUMPDEST SWAP3 SWAP2 POP POP JUMP JUMPDEST PUSH32 0x45524332303A2064656372656173656420616C6C6F77616E63652062656C6F77 PUSH1 0x0 DUP3 ADD MSTORE PUSH32 0x207A65726F000000000000000000000000000000000000000000000000000000 PUSH1 0x20 DUP3 ADD MSTORE POP JUMP JUMPDEST PUSH1 0x0 PUSH2 0x15EB PUSH1 0x25 DUP4 PUSH2 0x1006 JUMP JUMPDEST SWAP2 POP PUSH2 0x15F6 DUP3 PUSH2 0x158F JUMP JUMPDEST PUSH1 0x40 DUP3 ADD SWAP1 POP SWAP2 SWAP1 POP JUMP JUMPDEST PUSH1 0x0 PUSH1 0x20 DUP3 ADD SWAP1 POP DUP2 DUP2 SUB PUSH1 0x0 DUP4 ADD MSTORE PUSH2 0x161A DUP2 PUSH2 0x15DE JUMP JUMPDEST SWAP1 POP SWAP2 SWAP1 POP JUMP JUMPDEST PUSH32 0x4F6E6C7920636F6E7472616374206F776E65722063616E20706572666F726D20 PUSH1 0x0 DUP3 ADD MSTORE PUSH32 0x7468697320616374696F6E000000000000000000000000000000000000000000 PUSH1 0x20 DUP3 ADD MSTORE POP JUMP JUMPDEST PUSH1 0x0 PUSH2 0x167D PUSH1 0x2B DUP4 PUSH2 0x1006 JUMP JUMPDEST SWAP2 POP PUSH2 0x1688 DUP3 PUSH2 0x1621 JUMP JUMPDEST PUSH1 0x40 DUP3 ADD SWAP1 POP SWAP2 SWAP1 POP JUMP JUMPDEST PUSH1 0x0 PUSH1 0x20 DUP3 ADD SWAP1 POP DUP2 DUP2 SUB PUSH1 0x0 DUP4 ADD MSTORE PUSH2 0x16AC DUP2 PUSH2 0x1670 JUMP JUMPDEST SWAP1 POP SWAP2 SWAP1 POP JUMP JUMPDEST PUSH32 0x496E76616C696420726563697069656E74206164647265737300000000000000 PUSH1 0x0 DUP3 ADD MSTORE POP JUMP JUMPDEST PUSH1 0x0 PUSH2 0x16E9 PUSH1 0x19 DUP4 PUSH2 0x1006 JUMP JUMPDEST SWAP2 POP PUSH2 0x16F4 DUP3 PUSH2 0x16B3 JUMP JUMPDEST PUSH1 0x20 DUP3 ADD SWAP1 POP SWAP2 SWAP1 POP JUMP JUMPDEST PUSH1 0x0 PUSH1 0x20 DUP3 ADD SWAP1 POP DUP2 DUP2 SUB PUSH1 0x0 DUP4 ADD MSTORE PUSH2 0x1718 DUP2 PUSH2 0x16DC JUMP JUMPDEST SWAP1 POP SWAP2 SWAP1 POP JUMP JUMPDEST PUSH1 0x0 DUP2 SWAP1 POP DUP2 PUSH1 0x0 MSTORE PUSH1 0x20 PUSH1 0x0 KECCAK256 SWAP1 POP SWAP2 SWAP1 POP JUMP JUMPDEST PUSH1 0x0 PUSH1 0x20 PUSH1 0x1F DUP4 ADD DIV SWAP1 POP SWAP2 SWAP1 POP JUMP JUMPDEST PUSH1 0x0 DUP3 DUP3 SHL SWAP1 POP SWAP3 SWAP2 POP POP JUMP JUMPDEST PUSH1 0x0 PUSH1 0x8 DUP4 MUL PUSH2 0x1781 PUSH32 0xFFFFFFFFFFFFFFFFFFFFFFFFFFFFFFFFFFFFFFFFFFFFFFFFFFFFFFFFFFFFFFFF DUP3 PUSH2 0x1744 JUMP JUMPDEST PUSH2 0x178B DUP7 DUP4 PUSH2 0x1744 JUMP JUMPDEST SWAP6 POP DUP1 NOT DUP5 AND SWAP4 POP DUP1 DUP7 AND DUP5 OR SWAP3 POP POP POP SWAP4 SWAP3 POP POP POP JUMP JUMPDEST PUSH1 0x0 DUP2 SWAP1 POP SWAP2 SWAP1 POP JUMP JUMPDEST PUSH1 0x0 PUSH2 0x17C8 PUSH2 0x17C3 PUSH2 0x17BE DUP5 PUSH2 0xF98 JUMP JUMPDEST PUSH2 0x17A3 JUMP JUMPDEST PUSH2 0xF98 JUMP JUMPDEST SWAP1 POP SWAP2 SWAP1 POP JUMP JUMPDEST PUSH1 0x0 DUP2 SWAP1 POP SWAP2 SWAP1 POP JUMP JUMPDEST PUSH2 0x17E2 DUP4 PUSH2 0x17AD JUMP JUMPDEST PUSH2 0x17F6 PUSH2 0x17EE DUP3 PUSH2 0x17CF JUMP JUMPDEST DUP5 DUP5 SLOAD PUSH2 0x1751 JUMP JUMPDEST DUP3 SSTORE POP POP POP POP JUMP JUMPDEST PUSH1 0x0 SWAP1 JUMP JUMPDEST PUSH2 0x180B PUSH2 0x17FE JUMP JUMPDEST PUSH2 0x1816 DUP2 DUP5 DUP5 PUSH2 0x17D9 JUMP JUMPDEST POP POP POP JUMP JUMPDEST JUMPDEST DUP2 DUP2 LT ISZERO PUSH2 0x183A JUMPI PUSH2 0x182F PUSH1 0x0 DUP3 PUSH2 0x1803 JUMP JUMPDEST PUSH1 0x1 DUP2 ADD SWAP1 POP PUSH2 0x181C JUMP JUMPDEST POP POP JUMP JUMPDEST PUSH1 0x1F DUP3 GT ISZERO PUSH2 0x187F JUMPI PUSH2 0x1850 DUP2 PUSH2 0x171F JUMP JUMPDEST PUSH2 0x1859 DUP5 PUSH2 0x1734 JUMP JUMPDEST DUP2 ADD PUSH1 0x20 DUP6 LT ISZERO PUSH2 0x1868 JUMPI DUP2 SWAP1 POP JUMPDEST PUSH2 0x187C PUSH2 0x1874 DUP6 PUSH2 0x1734 JUMP JUMPDEST DUP4 ADD DUP3 PUSH2 0x181B JUMP JUMPDEST POP POP JUMPDEST POP POP POP JUMP JUMPDEST PUSH1 0x0 DUP3 DUP3 SHR SWAP1 POP SWAP3 SWAP2 POP POP JUMP JUMPDEST PUSH1 0x0 PUSH2 0x18A2 PUSH1 0x0 NOT DUP5 PUSH1 0x8 MUL PUSH2 0x1884 JUMP JUMPDEST NOT DUP1 DUP4 AND SWAP2 POP POP SWAP3 SWAP2 POP POP JUMP JUMPDEST PUSH1 0x0 PUSH2 0x18BB DUP4 DUP4 PUSH2 0x1891 JUMP JUMPDEST SWAP2 POP DUP3 PUSH1 0x2 MUL DUP3 OR SWAP1 POP SWAP3 SWAP2 POP POP JUMP JUMPDEST PUSH2 0x18D4 DUP3 PUSH2 0xFFB JUMP JUMPDEST PUSH8 0xFFFFFFFFFFFFFFFF DUP2 GT ISZERO PUSH2 0x18ED JUMPI PUSH2 0x18EC PUSH2 0x12EC JUMP JUMPDEST JUMPDEST PUSH2 0x18F7 DUP3 SLOAD PUSH2 0x14FB JUMP JUMPDEST PUSH2 0x1902 DUP3 DUP3 DUP6 PUSH2 0x183E JUMP JUMPDEST PUSH1 0x0 PUSH1 0x20 SWAP1 POP PUSH1 0x1F DUP4 GT PUSH1 0x1 DUP2 EQ PUSH2 0x1935 JUMPI PUSH1 0x0 DUP5 ISZERO PUSH2 0x1923 JUMPI DUP3 DUP8 ADD MLOAD SWAP1 POP JUMPDEST PUSH2 0x192D DUP6 DUP3 PUSH2 0x18AF JUMP JUMPDEST DUP7 SSTORE POP PUSH2 0x1995 JUMP JUMPDEST PUSH1 0x1F NOT DUP5 AND PUSH2 0x1943 DUP7 PUSH2 0x171F JUMP JUMPDEST PUSH1 0x0 JUMPDEST DUP3 DUP2 LT ISZERO PUSH2 0x196B JUMPI DUP5 DUP10 ADD MLOAD DUP3 SSTORE PUSH1 0x1 DUP3 ADD SWAP2 POP PUSH1 0x20 DUP6 ADD SWAP5 POP PUSH1 0x20 DUP2 ADD SWAP1 POP PUSH2 0x1946 JUMP JUMPDEST DUP7 DUP4 LT ISZERO PUSH2 0x1988 JUMPI DUP5 DUP10 ADD MLOAD PUSH2 0x1984 PUSH1 0x1F DUP10 AND DUP3 PUSH2 0x1891 JUMP JUMPDEST DUP4 SSTORE POP JUMPDEST PUSH1 0x1 PUSH1 0x2 DUP9 MUL ADD DUP9 SSTORE POP POP POP JUMPDEST POP POP POP POP POP POP JUMP JUMPDEST PUSH1 0x0 PUSH2 0x19A8 DUP3 PUSH2 0xF98 JUMP JUMPDEST SWAP2 POP PUSH32 0xFFFFFFFFFFFFFFFFFFFFFFFFFFFFFFFFFFFFFFFFFFFFFFFFFFFFFFFFFFFFFFFF DUP3 SUB PUSH2 0x19DA JUMPI PUSH2 0x19D9 PUSH2 0x152C JUMP JUMPDEST JUMPDEST PUSH1 0x1 DUP3 ADD SWAP1 POP SWAP2 SWAP1 POP JUMP JUMPDEST PUSH32 0x45524332303A20617070726F76652066726F6D20746865207A65726F20616464 PUSH1 0x0 DUP3 ADD MSTORE PUSH32 0x7265737300000000000000000000000000000000000000000000000000000000 PUSH1 0x20 DUP3 ADD MSTORE POP JUMP JUMPDEST PUSH1 0x0 PUSH2 0x1A41 PUSH1 0x24 DUP4 PUSH2 0x1006 JUMP JUMPDEST SWAP2 POP PUSH2 0x1A4C DUP3 PUSH2 0x19E5 JUMP JUMPDEST PUSH1 0x40 DUP3 ADD SWAP1 POP SWAP2 SWAP1 POP JUMP JUMPDEST PUSH1 0x0 PUSH1 0x20 DUP3 ADD SWAP1 POP DUP2 DUP2 SUB PUSH1 0x0 DUP4 ADD MSTORE PUSH2 0x1A70 DUP2 PUSH2 0x1A34 JUMP JUMPDEST SWAP1 POP SWAP2 SWAP1 POP JUMP JUMPDEST PUSH32 0x45524332303A20617070726F766520746F20746865207A65726F206164647265 PUSH1 0x0 DUP3 ADD MSTORE PUSH32 0x7373000000000000000000000000000000000000000000000000000000000000 PUSH1 0x20 DUP3 ADD MSTORE POP JUMP JUMPDEST PUSH1 0x0 PUSH2 0x1AD3 PUSH1 0x22 DUP4 PUSH2 0x1006 JUMP JUMPDEST SWAP2 POP PUSH2 0x1ADE DUP3 PUSH2 0x1A77 JUMP JUMPDEST PUSH1 0x40 DUP3 ADD SWAP1 POP SWAP2 SWAP1 POP JUMP JUMPDEST PUSH1 0x0 PUSH1 0x20 DUP3 ADD SWAP1 POP DUP2 DUP2 SUB PUSH1 0x0 DUP4 ADD MSTORE PUSH2 0x1B02 DUP2 PUSH2 0x1AC6 JUMP JUMPDEST SWAP1 POP SWAP2 SWAP1 POP JUMP JUMPDEST PUSH32 0x45524332303A20696E73756666696369656E7420616C6C6F77616E6365000000 PUSH1 0x0 DUP3 ADD MSTORE POP JUMP JUMPDEST PUSH1 0x0 PUSH2 0x1B3F PUSH1 0x1D DUP4 PUSH2 0x1006 JUMP JUMPDEST SWAP2 POP PUSH2 0x1B4A DUP3 PUSH2 0x1B09 JUMP JUMPDEST PUSH1 0x20 DUP3 ADD SWAP1 POP SWAP2 SWAP1 POP JUMP JUMPDEST PUSH1 0x0 PUSH1 0x20 DUP3 ADD SWAP1 POP DUP2 DUP2 SUB PUSH1 0x0 DUP4 ADD MSTORE PUSH2 0x1B6E DUP2 PUSH2 0x1B32 JUMP JUMPDEST SWAP1 POP SWAP2 SWAP1 POP JUMP JUMPDEST PUSH32 0x45524332303A207472616E736665722066726F6D20746865207A65726F206164 PUSH1 0x0 DUP3 ADD MSTORE PUSH32 0x6472657373000000000000000000000000000000000000000000000000000000 PUSH1 0x20 DUP3 ADD MSTORE POP JUMP JUMPDEST PUSH1 0x0 PUSH2 0x1BD1 PUSH1 0x25 DUP4 PUSH2 0x1006 JUMP JUMPDEST SWAP2 POP PUSH2 0x1BDC DUP3 PUSH2 0x1B75 JUMP JUMPDEST PUSH1 0x40 DUP3 ADD SWAP1 POP SWAP2 SWAP1 POP JUMP JUMPDEST PUSH1 0x0 PUSH1 0x20 DUP3 ADD SWAP1 POP DUP2 DUP2 SUB PUSH1 0x0 DUP4 ADD MSTORE PUSH2 0x1C00 DUP2 PUSH2 0x1BC4 JUMP JUMPDEST SWAP1 POP SWAP2 SWAP1 POP JUMP JUMPDEST PUSH32 0x45524332303A207472616E7366657220746F20746865207A65726F2061646472 PUSH1 0x0 DUP3 ADD MSTORE PUSH32 0x6573730000000000000000000000000000000000000000000000000000000000 PUSH1 0x20 DUP3 ADD MSTORE POP JUMP JUMPDEST PUSH1 0x0 PUSH2 0x1C63 PUSH1 0x23 DUP4 PUSH2 0x1006 JUMP JUMPDEST SWAP2 POP PUSH2 0x1C6E DUP3 PUSH2 0x1C07 JUMP JUMPDEST PUSH1 0x40 DUP3 ADD SWAP1 POP SWAP2 SWAP1 POP JUMP JUMPDEST PUSH1 0x0 PUSH1 0x20 DUP3 ADD SWAP1 POP DUP2 DUP2 SUB PUSH1 0x0 DUP4 ADD MSTORE PUSH2 0x1C92 DUP2 PUSH2 0x1C56 JUMP JUMPDEST SWAP1 POP SWAP2 SWAP1 POP JUMP JUMPDEST PUSH32 0x45524332303A207472616E7366657220616D6F756E7420657863656564732062 PUSH1 0x0 DUP3 ADD MSTORE PUSH32 0x616C616E63650000000000000000000000000000000000000000000000000000 PUSH1 0x20 DUP3 ADD MSTORE POP JUMP JUMPDEST PUSH1 0x0 PUSH2 0x1CF5 PUSH1 0x26 DUP4 PUSH2 0x1006 JUMP JUMPDEST SWAP2 POP PUSH2 0x1D00 DUP3 PUSH2 0x1C99 JUMP JUMPDEST PUSH1 0x40 DUP3 ADD SWAP1 POP SWAP2 SWAP1 POP JUMP JUMPDEST PUSH1 0x0 PUSH1 0x20 DUP3 ADD SWAP1 POP DUP2 DUP2 SUB PUSH1 0x0 DUP4 ADD MSTORE PUSH2 0x1D24 DUP2 PUSH2 0x1CE8 JUMP JUMPDEST SWAP1 POP SWAP2 SWAP1 POP JUMP JUMPDEST PUSH32 0x45524332303A206D696E7420746F20746865207A65726F206164647265737300 PUSH1 0x0 DUP3 ADD MSTORE POP JUMP JUMPDEST PUSH1 0x0 PUSH2 0x1D61 PUSH1 0x1F DUP4 PUSH2 0x1006 JUMP JUMPDEST SWAP2 POP PUSH2 0x1D6C DUP3 PUSH2 0x1D2B JUMP JUMPDEST PUSH1 0x20 DUP3 ADD SWAP1 POP SWAP2 SWAP1 POP JUMP JUMPDEST PUSH1 0x0 PUSH1 0x20 DUP3 ADD SWAP1 POP DUP2 DUP2 SUB PUSH1 0x0 DUP4 ADD MSTORE PUSH2 0x1D90 DUP2 PUSH2 0x1D54 JUMP JUMPDEST SWAP1 POP SWAP2 SWAP1 POP JUMP INVALID LOG2 PUSH5 0x6970667358 0x22 SLT KECCAK256 0xFB LOG2 SWAP13 0x5E 0xD3 0xB1 CREATE2 SWAP13 0x27 PUSH15 0xB192B4F8A6906AC84C16434C46A679 0xB4 0xD3 0xC7 SAR PUSH2 0x284A PUSH5 0x736F6C6343 STOP ADDMOD SLT STOP CALLER "
				},
				"gasEstimates": {
					"creation": {
						"codeDepositCost": "1525800",
						"executionCost": "infinite",
						"totalCost": "infinite"
					},
					"external": {
						"allowance(address,address)": "infinite",
						"approve(address,uint256)": "infinite",
						"balanceOf(address)": "2864",
						"decimals()": "410",
						"decreaseAllowance(address,uint256)": "infinite",
						"getData(uint256)": "infinite",
						"increaseAllowance(address,uint256)": "infinite",
						"name()": "infinite",
						"storeData(string)": "infinite",
						"symbol()": "infinite",
						"totalSupply()": "2460",
						"transfer(address,uint256)": "infinite",
						"transferData(uint256,address)": "infinite",
						"transferFrom(address,address,uint256)": "infinite"
					}
				},
				"methodIdentifiers": {
					"allowance(address,address)": "dd62ed3e",
					"approve(address,uint256)": "095ea7b3",
					"balanceOf(address)": "70a08231",
					"decimals()": "313ce567",
					"decreaseAllowance(address,uint256)": "a457c2d7",
					"getData(uint256)": "0178fe3f",
					"increaseAllowance(address,uint256)": "39509351",
					"name()": "06fdde03",
					"storeData(string)": "fb218f5f",
					"symbol()": "95d89b41",
					"totalSupply()": "18160ddd",
					"transfer(address,uint256)": "a9059cbb",
					"transferData(uint256,address)": "eca5343a",
					"transferFrom(address,address,uint256)": "23b872dd"
				}
			},
			"storageLayout": {
				"storage": [
					{
						"astId": 15,
						"contract": "contracts/DigitalDataStorage.sol:DigitalDataStorage",
						"label": "_balances",
						"offset": 0,
						"slot": "0",
						"type": "t_mapping(t_address,t_uint256)"
					},
					{
						"astId": 21,
						"contract": "contracts/DigitalDataStorage.sol:DigitalDataStorage",
						"label": "_allowances",
						"offset": 0,
						"slot": "1",
						"type": "t_mapping(t_address,t_mapping(t_address,t_uint256))"
					},
					{
						"astId": 23,
						"contract": "contracts/DigitalDataStorage.sol:DigitalDataStorage",
						"label": "_totalSupply",
						"offset": 0,
						"slot": "2",
						"type": "t_uint256"
					},
					{
						"astId": 25,
						"contract": "contracts/DigitalDataStorage.sol:DigitalDataStorage",
						"label": "_name",
						"offset": 0,
						"slot": "3",
						"type": "t_string_storage"
					},
					{
						"astId": 27,
						"contract": "contracts/DigitalDataStorage.sol:DigitalDataStorage",
						"label": "_symbol",
						"offset": 0,
						"slot": "4",
						"type": "t_string_storage"
					},
					{
						"astId": 718,
						"contract": "contracts/DigitalDataStorage.sol:DigitalDataStorage",
						"label": "_dataCounter",
						"offset": 0,
						"slot": "5",
						"type": "t_uint256"
					},
					{
						"astId": 722,
						"contract": "contracts/DigitalDataStorage.sol:DigitalDataStorage",
						"label": "_dataStorage",
						"offset": 0,
						"slot": "6",
						"type": "t_mapping(t_uint256,t_string_storage)"
					},
					{
						"astId": 724,
						"contract": "contracts/DigitalDataStorage.sol:DigitalDataStorage",
						"label": "_owner",
						"offset": 0,
						"slot": "7",
						"type": "t_address"
					}
				],
				"types": {
					"t_address": {
						"encoding": "inplace",
						"label": "address",
						"numberOfBytes": "20"
					},
					"t_mapping(t_address,t_mapping(t_address,t_uint256))": {
						"encoding": "mapping",
						"key": "t_address",
						"label": "mapping(address => mapping(address => uint256))",
						"numberOfBytes": "32",
						"value": "t_mapping(t_address,t_uint256)"
					},
					"t_mapping(t_address,t_uint256)": {
						"encoding": "mapping",
						"key": "t_address",
						"label": "mapping(address => uint256)",
						"numberOfBytes": "32",
						"value": "t_uint256"
					},
					"t_mapping(t_uint256,t_string_storage)": {
						"encoding": "mapping",
						"key": "t_uint256",
						"label": "mapping(uint256 => string)",
						"numberOfBytes": "32",
						"value": "t_string_storage"
					},
					"t_string_storage": {
						"encoding": "bytes",
						"label": "string",
						"numberOfBytes": "32"
					},
					"t_uint256": {
						"encoding": "inplace",
						"label": "uint256",
						"numberOfBytes": "32"
					}
				}
			},
			"userdoc": {
				"kind": "user",
				"methods": {},
				"version": 1
			}
		}
	}
}